:100000000C9414020C942F020C94111A0C94940367
:100010000C94CC0B0C94E9070C942F020C942F0237
:100020000C942F020C94100C0C94131A0C942F02A5
:100030000C942F020C94520B0C942F020C942F0250
:100040000C942F020C944B090C942F020C942F0249
:100050000C942F020C942F020C94960853544F5278
:100060004147452053495A455300005649455720BA
:1000700044415441205441475300203537313533F2
:1000800020485A0020383637333820485A0031315A
:100090003334323720485A00323130363531204837
:1000A0005A000B01FF00EF00DF00CF00BB00B000E3
:1000B0004552415345204F4E4C590046555345201B
:1000C000414E44204C4F434B204259544553004C21
:1000D0004F434B204259544553204F4E4C590046F4
:1000E000555345204259544553204F4E4C590044D6
:1000F00041544120414E4420454550524F4D00450A
:100100004550524F4D204F4E4C59004441544120D0
:100110004F4E4C5900D20525065D06A9069E057670
:10012000077E0170015F014D0140012D014A554DCF
:100130005020544F20424F4F544C4F4144455200A1
:10014000434C454152204D454D4F52590053455463
:1001500020534C4545502054494D454F555400536C
:100160004554204649524D2056455253494F4E0062
:10017000534554205350492053504545440053455E
:100180005420434F4E545241535400ED036C0537F5
:100190000406042007B8030C07F001E501D901CAE1
:1001A00001BB01B201A701534C454550204D4F44BE
:1001B000450053455454494E47530044415441531C
:1001C000544F524520494E464F0044415441464CFD
:1001D000415348205052474D0050524F4752414DD5
:1001E000204156520053544F5245205052474D0023
:1001F000415652495350204D4F4445002702220298
:10020000130204023C433E2032303036202D20477A
:10021000504C004259204445414E2043414D4552E7
:10022000410056312D3400425554544C4F41440046
:100230002A574149542A004028232942592044453D
:10024000414E2043414D455241004028232942550B
:1002500054544C4F4144204156524953500050523F
:10026000473E202000424144495352004E4F204512
:100270005241534520434D44004E4F204441544188
:10028000004E4F20454550524F4D004E4F20465591
:100290005345204259544553004E4F204C4F434B39
:1002A0002042595445530050524F4752414D4D49F9
:1002B0004E4720444F4E45004641494C4544002A94
:1002C00053544F52414745204D4F44452A00434F18
:1002D0004E4649524D003C4E20593E004D454D2062
:1002E000434C45415245440056322D2000202020E9
:1002F00020534543004F4646004E4F2053544F5223
:100300004544205052474D002A4A544147204F4E01
:100310002A00A8EA802A0040000A510A08405955DC
:100320001801111E111B500B411B411F1101511FC0
:10033000511B000000000880001A2040000000004F
:10034000510F913941149131411E410E411D500F01
:100350008020101548864014780570855115510E7F
:100360005195518E219081205015484450C528C088
:100370002820095041142080111100000010038032
:1003800002540140002244415441464C415348200C
:100390004552524F520000010002000400080010B4
:1003A00000100020002008010801080108010801D0
:1003B00010021002200409090909090A0A0B425512
:1003C0004646204F564552464C4F5700000F1E3CA4
:1003D000782A44415441464C415348204D4F4445AE
:1003E0002A000100084156524953505F3253594E7A
:1003F00043204552524F52002A41544156524953CC
:1004000050204D4F44452A00444154412D00455051
:10041000524D2D00465553452D004C4F434B2D005A
:100420004E4F20544147530011241FBECFEFD4E05C
:10043000DEBFCDBF11E0A0E0B1E0EEE3F5E302C026
:1004400005900D92A430B107D9F712E0A4E0B1E015
:1004500001C01D92A83BB107E1F70C9475020C9402
:10046000B303CF93DF93282F21502F3F49F0A0E013
:10047000B8E4C0E0D0E0CD010197F1F72150D8F702
:10048000DF91CF9108958EB38823E9F781E00E9430
:1004900031028EB38823B9F70895CF93C0E081E08D
:1004A0008EBB8EB38823E9F3F69B06C0CC2311F4F0
:1004B000C3E00CC0C1500AC0F79B06C0C33011F4A2
:1004C000C0E004C0CF5F02C0F2990DC0EC2FFF273F
:1004D000EE0FFF1FE450FE4F859194910E944D084E
:1004E0000E944302DECFCF910895CFEFD4E0DEBF6C
:1004F000CDBFC0E080E880BF85E08093640080E3EA
:1005000080BB87E284B98FED85B98CE08EB980938A
:100510006B0080ED80936C0080EC8DBB8CBB81B355
:100520008F7C806281BB0E940A088FE08093E70085
:1005300080E392E00E944D08789428E830E0D901E9
:100540000E94551A802D8A3789F080E090E04FEFA5
:10055000DC01042E0E94671A019652E08030950754
:10056000B8F38AE7D901082E0E94671AA5E8B0E01F
:100570000E94551A802D8F708093E70080E00E94C2
:10058000D00981B3806381BB0E9407090E94840760
:100590000E94E70B81B38F7C806181BB81E08EBBC1
:1005A00080E88093610083E0809361008EB38823AC
:1005B000E9F3F69B06C0CC2311F4C6E01BC0C15082
:1005C00019C0F79B06C0C63011F4C0E013C0CF5F5E
:1005D00011C0F49B0BC0EC2FFF27EE0FFF1FE55758
:1005E000FE4F85919491FC01099504C0F39B02C0D4
:1005F0000E944D02EC2FFF27EE0FFF1FE756FE4F24
:10060000859194910E944D080E944302CFCFCF93D1
:10061000DF93282F21502F3F49F0A3E3B7E0C0E03C
:10062000D0E0CD010197F1F72150D8F7DF91CF91BC
:100630000895992781309105B1F0823091051CF41D
:10064000892B21F00895029759F00895869AA0E029
:10065000B0E00E94551A802D882319F48E9A0895CF
:10066000869A8E9808958698FCCFFB0120E0843608
:10067000910520F02F5F84569040F9CF205D2193A3
:1006800020E08A30910518F02F5F0A97FACF205D9D
:100690002193805D8193108208951F93CF93DF9300
:1006A000CDB7DEB727970FB6F894DEBF0FBECDBF2C
:1006B000182F6EE572E0CE0101960E94191A1E8372
:1006C000CE0101960E94170827960FB6F894DEBF58
:1006D0000FBECDBFDF91CF911F910895CF93DF93D0
:1006E000CDB7DEB764970FB6F894DEBF0FBECDBFAF
:1006F00025E429832EE32A83BC01CE0103960E94C0
:10070000191ACE0101960E9417080E944302F49B19
:10071000FECF0E94430264960FB6F894DEBF0FBE70
:10072000CDBFDF91CF91089578941F920F920FB6AD
:100730000F9211248F939F9393B19095907D8CB1DC
:1007400080958C70982B9EBB10923E0110923D01BB
:1007500010928500109284009F918F910F900FBE90
:100760000F901F90189585E692E00E946E03FFCFD0
:10077000CF93C0E081E08EBB8EB38823E9F3F69B74
:1007800006C0CC2311F4C5E019C0C15017C0F79BB7
:1007900006C0C53011F4C0E011C0CF5F0FC0F49B9C
:1007A0000BC0EC2FFF27EE0FFF1FEB5EFE4F859176
:1007B0009491FC01099502C0F2990DC0EC2FFF271E
:1007C000EE0FFF1FEF5DFE4F859194910E944D0843
:1007D0000E944302D1CFCF91089580E392E00E941E
:1007E0004D080E9484078091C100807888618093C1
:1007F000C10088EF93E00E944D0881E792E1909359
:100800000301809302010E94760F0895A1E0B0E0F9
:100810000E94551A802D0E94810981E08093650213
:100820008BE999E0909301018093000180E392E0CD
:100830000E944D080E9484078091C10080788861E1
:100840008093C10081ED93E00E944D0887EA9CE00F
:1008500090930301809302010E94760F80E00E9432
:10086000D0098091640084608093640008950F93A0
:100870001F93CF93DF93CDB7DEB763970FB6F8948E
:10088000DEBF0FBECDBF00E0102F0E942C090093E9
:10089000650286E399E090930101809300010E9434
:1008A0003A0B882309F40DC10E94430281E08EBBFC
:1008B0008EB38823E9F3F29904C1F4991CC0F69B26
:1008C00006C0112311F416E009C0115007C0F79BB0
:1008D00005C0163011F410E001C01F5FE12FFF27A3
:1008E000EE0FFF1FEE55FF4F859194910E944D082A
:1008F0000E944302DDCF81B3806381BB80E392E03D
:100900000E944D08A1E0B0E00E94551A802D0E947F
:10091000810980E00E941903EBE4F1E020E030E07F
:100920009BE0D901AD5DBF4F0E94551A802D819388
:1009300091502F5F3F4F97FFF4CF0E94E11010922C
:10094000420110924301109244011092450180919E
:100950004C01882309F0A0C0163021F0112311F0BA
:10096000123091F483E40E944D03A4E1B0E00E94B0
:10097000551A802D813031F002E08CE692E00E9421
:100980006E0302C00E947517112311F01230B9F4E2
:100990000023A9F484E40E944D0381E00E94E11346
:1009A000DC01CB010097A105B10531F403E089E733
:1009B00092E00E946E0303C081E00E94A417812F81
:1009C00081508230A8F485E40E944D0380E00E94AB
:1009D000E113DC01CB010097A105B10531F403E07F
:1009E00081E892E00E946E0303C080E00E94A41799
:1009F000133011F0153099F486E40E944D03AFE2F4
:100A0000B0E00E94551A802D882331F403E08BE872
:100A100092E00E946E0303C082E00E944417812F7F
:100A20008450823000F5153059F481E00E9419039A
:100A300081E00E94310280E00E9419030E94E110CF
:100A40008CE40E944D03A0E3B0E00E94551A802D73
:100A5000882331F403E089E992E00E946E0303C029
:100A600083E00E94441767EA72E0CE0101960E947B
:100A7000191A002331F068EB72E0CE010D960E9446
:100A8000191ACE0101960E9417088FEF0E943102B9
:100A900084E60E94310204C08DEE93E00E946E0352
:100AA00081E00E9419030E94910980E00E94D00910
:100AB0008091640084608093640081B38F7C806146
:100AC00081BB63960FB6F894DEBF0FBECDBFDF913A
:100AD000CF911F910F91089586E399E090930101C2
:100AE000809300010E942C091092650281E00E940F
:100AF000D0090E943A0B882301F180E392E00E9422
:100B00004D080E9484078091C1008078886180939D
:100B1000C1008FEB92E00E944D0886EF94E1909324
:100B20000301809302010E94760F80E00E94D009A9
:100B3000809164008460809364000895CF93DF9374
:100B40008EEC92E00E944D0884EB0E94310286ED0B
:100B500092E00E944D088EB38823E9F38EB3992763
:100B6000EC01C470D07082FD1AC0F39BF4CF0E94D8
:100B7000430280E392E00E944D08CE012FEFDC019A
:100B8000022E0E94671A019632E080309307B8F374
:100B90008CED92E00E944D088FEF0E943102DF91B0
:100BA000CF910895EF92FF921F93CF93DF93CDB72C
:100BB000DEB726970FB6F894DEBF0FBECDBF85E82F
:100BC000E82E80E0F82ED7010E94551A802D182FAC
:100BD0001F7081E08EBB8EB38823E9F3F69B04C0BF
:100BE0001F3078F41F5F0DC0F79B04C0123048F02F
:100BF000115007C0F29B05C0D701012E0E94671A51
:100C000018C083E4898384E58A8380E28B83BE01F4
:100C10006C5F7F4F812F99270E943503CE0101968B
:100C20000E941708812F8F708093E7000E94430273
:100C3000D2CF26960FB6F894DEBF0FBECDBFDF91A0
:100C4000CF911F91FF90EF9008950F931F93CF9333
:100C500001E010E0D8010E94551A802DC82F843081
:100C600008F0C3E081E08EBB8EB38823E9F3F69BE6
:100C700006C0CC2311F4C3E011C0C1500FC0F79BD4
:100C800006C0C33011F4C0E009C0CF5F07C0F29BBB
:100C900005C0D8010C2E0E94671A0BC08AE0C89FBD
:100CA000C001112486589F4F0E944D080E944302A4
:100CB000DBCFCF911F910F910895EF92FF921F9379
:100CC000CF93DF93CDB7DEB725970FB6F894DEBF8D
:100CD0000FBECDBF96E8E92E90E0F92ED7010E9415
:100CE000551A802D182F8A3008F014E068EE72E053
:100CF000CE0101960E94191A81E08EBB8EB3882323
:100D0000E9F3F69B03C0193008F41F5FF79B04C09A
:100D1000112349F0115007C0F29B05C0D701012EE5
:100D20000E94671A0AC0105D1C831053CE01019601
:100D30000E9417080E944302E1CF25960FB6F8944F
:100D4000DEBF0FBECDBFDF91CF911F91FF90EF901F
:100D50000895EF92FF921F93CF93DF93CDB7DEB745
:100D600028970FB6F894DEBF0FBECDBF27E8E22E5E
:100D700020E0F22ED7010E94551A802D182F8530C1
:100D800008F014E06DEE72E0CE0101960E94191A8F
:100D900081E08EBB8EB38823E9F3F69B05C0112357
:100DA00011F414E001C01150F79B06C0143011F487
:100DB00010E00DC01F5F09C0F29B07C0D701012ED4
:100DC0000E94671A0E94E70B1BC0112329F485EFCC
:100DD00092E00E944D0811C0E12FFF27E453FC4F21
:100DE0008491BE016F5F7F4F99270E94350380E297
:100DF0008C83CE0101960E9417080E944302CACF3D
:100E000028960FB6F894DEBF0FBECDBFDF91CF910D
:100E10001F91FF90EF90089585E083BF8091E400DB
:100E20008F778093E400F69903C08895F69BFDCFF9
:100E30008091E40080688093E4000E94430208955A
:100E40001F93CF9310E00E94430281E08EBB8EB3CC
:100E50008823E9F3CEB3C07C19F081E0182738C0AD
:100E6000F29941C0F49B34C0113081F586E399E0DA
:100E700090930101809300010E942C09C0936502A8
:100E8000812F0E94D0090E943A0BC82F882341F07D
:100E90000E94EB198091640084608093640018C004
:100EA000812F0E94E113DC01CB010097A105B10560
:100EB00079F48C2F0E94D009809164008460809323
:100EC000640089EF92E00E946E0302C00E94C6187F
:100ED0008FE0189FC0011124845A9F4F0E944D0833
:100EE0000E944302B4CFCF911F91089585B78F77A9
:100EF00085BF85BF88E093E00E944D080E944302B1
:100F000088E180936000FFCFCF93DF934FE310928F
:100F100005011092040180E8809361001092610045
:100F2000409366005FB710926F0088E08093B60030
:100F300081E0809370007894809381008093B0006A
:100F400020E030E08091B60099278770907000977C
:100F5000C9F790938500809384001092B2004EE30D
:100F6000ACECB4E6C0E0D0E0CD010197F1F7322F50
:100F700080916600282F8091040190910501815095
:100F8000914E20F08091660081500AC0809104014A
:100F900090910501865F904E58F4809166008F5FB6
:100FA0008093660080916600831711F04150E0F64F
:100FB00010926F0010927000109281001092B00099
:100FC0008091B600877F8093B6005FBFDF91CF919D
:100FD00008951F920F920FB60F9211248F939F9333
:100FE000109281008091840090918500909305017A
:100FF0008093040110928500109284001092B20038
:1010000081E0809381009F918F910F900FBE0F9090
:101010001F9018958FE08093E70087EB8093E500A1
:1010200087E08093E60088EC8093E4000895DC017B
:1010300020E03FEFE6E0F1E09D91892F8A52813573
:1010400010F4808303C0992329F030832F5F3196F9
:10105000243190F380E0273008F081E0809337015D
:10106000109238019FEF86E0E22FFF27EA5FFE4FE4
:1010700090832F5F815087FFF7CFE22FFF27EA5F32
:10108000FE4F108210923501209336018AE0809342
:10109000390181E080933A010895CF93DF93CDB772
:1010A000DEB764970FB6F894DEBF0FBECDBFBC01AC
:1010B000CE0101960E94191ACE0101960E941708CE
:1010C00064960FB6F894DEBF0FBECDBFDF91CF910F
:1010D0000895E82F20E030E0862F8695A82FBB27C3
:1010E000AF5DBE4FEF3F39F0FF27EE0FFF1FEE5E03
:1010F000FC4F2591349177276170707043E050EF79
:10110000922F9F706115710519F05FE09295907FA5
:101110008C918523892B8C9384E0369527958A952D
:10112000E1F71596415047FFEACF089578941F9252
:101130000F920FB60F9211242F933F934F935F930B
:101140006F937F938F939F93AF93BF93CF93EF93BF
:10115000FF9380913701882399F08091390188238A
:1011600021F08150809339010BC080913801882390
:1011700021F481E080933A0103C0815080933801CB
:1011800080913A01882339F1C0E0809135018C0FBC
:1011900090913601E82FFF27891710F0E91BF1091C
:1011A000EA5FFE4F80816C2F0E946908CF5FC630D6
:1011B00060F380913501982F8F5F80933501809186
:1011C0003601981719F481E08093350183E080930C
:1011D000380110923A01ACEEB0E0E1E2F1E093E1C7
:1011E00081918D93915097FFFBCFFF91EF91CF911C
:1011F000BF91AF919F918F917F916F915F914F912F
:101200003F912F910F900FBE0F901F901895109245
:10121000C50087E08093C40082E08093C00080E82E
:101220008093C10086E08093C2000E949D0B0895C8
:10123000982F8091C00085FFFCCF9093C600089541
:101240008091B302882321F480913F018823C1F368
:101250000E94AA0B99270895809164008B7F809348
:10126000640081E08DBD8CE58CBD08958EBD0DB40C
:1012700007FEFDCF8EB5992708950F931F938C011C
:10128000812F99270E943609802F0E9436099927BD
:101290001F910F9108951F920F920FB60F92112474
:1012A0008F9380916E008D7F80936E0080E4809399
:1012B000B90081E0809363028091BA008093640258
:1012C0008F910F900FBE0F901F901895482F90E0B0
:1012D0006FE773E09B0121503040F901849184173E
:1012E00011F0933031F4FB01849187BD89E084BD16
:1012F00008959F5F2E5F3F4F6E5F7F4F943068F37E
:1013000008959DB190659DB96D98759A76989AE506
:101310009093B8000E9466091092630210926402D2
:1013200008958DB18F7A8DB98EB18F788EB98698E8
:101330008E9814BC0895109263028093BA00A99A03
:1013400080916E00826080936E0016BC8091630273
:101350008823E1F380916402992708950F931F93E6
:101360008C01812F99270E949B09802F0E949B0945
:1013700099271F910F91089581E00E9407038091A2
:10138000B80081608093B80081E00E9407038091DB
:10139000B80081608093B80081E00E94070308953F
:1013A00090916502813031F4913011F482E005C0F2
:1013B00028980895913021F4892F0E9419030895E7
:1013C000289A0895EF92FF920F931F937C0100914A
:1013D00000011091010180E00E94D00981E00E948B
:1013E000D00984E5F80109958F2D9927F801099511
:1013F0008E2DF801099580E0F801099580E0F8014B
:10140000099599271F910F91FF90EF900895EF9202
:10141000FF920F931F93CF93DF938C017B01C091B9
:101420000001D091010180E00E94D00981E00E947A
:10143000D00988E6FE0109958AB5980102C0369563
:1014400027958A95E2F7C901FE0109958BB59801A8
:1014500002C0220F331F8A95E2F78F2D9927820F42
:10146000FE0109958E2DFE01099503E080E0FE0145
:101470000995015007FFFACFDF91CF911F910F918E
:10148000FF90EF900895EF92FF920F931F937C01CE
:10149000009100011091010180E00E94D00981E0DB
:1014A0000E94D00984E8F801099580E0F8010995C7
:1014B0008F2D9927F80109958E2DF80109951F9117
:1014C0000F91FF90EF900895CF93DF93C0910001AB
:1014D000D091010180E00E94D00981E00E94D009F2
:1014E00087E5FE01099580E0FE0109958823DCF778
:1014F000DF91CF910895EF92FF920F931F937C019C
:10150000009100011091010180E00E94D00981E06A
:101510000E94D00980E5F80109958F2D9927F801DF
:1015200009958E2DF801099580E0F80109950E9432
:10153000640A1F910F91FF90EF900895EF92FF9230
:101540000F931F937C01009100011091010180E035
:101550000E94D00981E00E94D00983E5F801099535
:101560008AB5970102C0369527958A95E2F7C90199
:10157000F80109958BB502C0EE0CFF1C8A95E2F7C5
:10158000C701F801099580E0F80109950E94640AF5
:101590001F910F91FF90EF900895EF92FF920F939C
:1015A0001F937C01009100011091010180E00E94D5
:1015B000D00981E00E94D00983E8F80109958AB535
:1015C000970102C0369527958A95E2F7C901F8017F
:1015D00009958BB502C0EE0CFF1C8A95E2F7C70196
:1015E000F801099580E0F80109950E94640A1F91AD
:1015F0000F91FF90EF9008950F931F9300910001BA
:101600001091010180E00E94D00981E00E94D00980
:1016100087E5F801099580E0F80109959927887315
:10162000907043E0959587954A95E1F79927FC01DD
:10163000EA54FC4F4491409368029C01280F391FE3
:10164000F901EA55FC4F8591949190936A02809339
:101650006902F901EA56FC4F8591949190936C02CE
:1016600080936B0280E1841B8ABD48504BBD1F9163
:101670000F9108950E94FC0A80916B0290916C0278
:101680008050984061F08091640084608093640091
:1016900086E893E00E946E0380E090E0089581E088
:1016A00090E008951F920F920FB60F9211242F937E
:1016B0003F934F935F936F937F938F939F93AF93DA
:1016C000BF93EF93FF938091B302803429F48EEBA4
:1016D00093E00E946E0320C0E091AF02F091B0024F
:1016E0008091C60080834091AF025091B0029A0170
:1016F0002F5F3F4F3093B0022093AF028091B3022F
:101700008F5F8093B3022F5A324031F44F535040D1
:101710005093B0024093AF02FF91EF91BF91AF9110
:101720009F918F917F916F915F914F913F912F91F9
:101730000F900FBE0F901F9018958FE692E0909338
:10174000B0028093AF029093B2028093B1021092E4
:10175000B30208958091B302882319F480E090E0E9
:1017600008952091B1023091B202F9019191F09364
:10177000B202E093B1028091B30281508093B30230
:10178000EF5AF24031F42F5330403093B20220939D
:10179000B102892F9927089578941F920F920FB65E
:1017A0000F9211248F93809140018F5F80934001AD
:1017B00080914001873929F41092400181E08093A3
:1017C0003F018F910F900FBE0F901F901895A7E8C3
:1017D000B0E00E94551A802D282F8F3F09F424E095
:1017E00031E030936F00E22FFF27E453FC4F9491D8
:1017F0008AE0989FC001112490933C0180933B01A3
:1018000010923E0110923D011092850010928400CA
:10181000222319F0309381000895209381000895C8
:1018200078941F920F920FB60F9211242F933F932B
:101830004F935F936F937F938F939F93AF93BF93D8
:10184000EF93FF9380913D0190913E019C010196A1
:1018500090933E0180933D0180913B0190913C012A
:101860002817390731F4109281000E940C070E945A
:10187000E70BFF91EF91BF91AF919F918F917F9176
:101880006F915F914F913F912F910F900FBE0F90ED
:101890001F901895209142013091430140914401DD
:1018A0005091450110926E0210926D028091690272
:1018B00090916A02AA27BB2782179307A407B5074E
:1018C00088F460E070E0281B390B4A0B5B0B6F5FFC
:1018D0007F4F82179307A407B507A8F370936E0292
:1018E00060936D0230936702209366020895CF9350
:1018F000C82F209166023091670280916902909111
:101900006A0228173907A9F480916D0290916E023E
:101910009C01019690936E0280936D02C9010E9412
:10192000CD0A80E090E00E94430A10926702109274
:1019300066028C2F0E949B0980916602909167023B
:1019400001969093670280936602CF910895DF928B
:10195000EF92FF920F931F93CF93DF93DD2480913B
:101960004B0199278631910509F400C18731910512
:10197000B4F48231910509F46FC0833191053CF4D0
:101980008031910531F1419709F446C040C184315D
:10199000910509F48AC045970CF0AFC07FC089312A
:1019A000910509F470C08A31910544F4873191059D
:1019B00009F469C0489709F458C029C18B319105D1
:1019C000E9F18B3191050CF450C04C9709F44DC0EE
:1019D0001EC182E090E0909348018093470181E02E
:1019E0000E94D0090E94FC0A80916802882359F065
:1019F00081ED93E00E944D0881E08093460181B320
:101A00008F7C806217C086E893E00E944D088D2D80
:101A10000E94D00980EC02C182E090E090934801DE
:101A200080934701D09246018D2D0E94D00981B349
:101A30008F7C806181BBD0924C01F2C084E090E049
:101A40009093480180934701D0924C0182E08093AB
:101A50004D01D0924E01E4C082E090E090934801A5
:101A600080934701E1E0DE2E7EC084E090E0909319
:101A700048018093470110924C018FEF80934D01F4
:101A800010924E01CDC083E090E090934801809386
:101A9000470110924C0110924D01C2C082E090E0CB
:101AA00090934801809347015EC080914C01992733
:101AB000982F882720914D013327822B932B039653
:101AC000909348018093470121E030E00297281766
:101AD000390748F44FEFECE4F1E041932F5F3F4FBB
:101AE00028173907D0F310924C01E0914701F0918B
:101AF0004801E65BFE4F108293C00E944A0C809121
:101B00006D0290916E020E949E0A809166029091F1
:101B100067020E94430A80914C019927D82FCC2755
:101B200080914D019927C82BD92B00E010E00C17AC
:101B30001D07C8F455E5E52E51E0F52EF70181911A
:101B40007F010E94770C8091660290916702019656
:101B500090936702809366020E94390F0F5F1F4FB8
:101B60000C171D0758F310924C015AC00E944A0CE2
:101B700080916D0290916E020E949E0A80914C01AC
:101B80009927D82FCC2780914D019927C82BD92B85
:101B900000E010E00C171D0770F53DE4E32E31E086
:101BA000F32E209166023091670280916902909134
:101BB0006A022817390741F40E944A0C80916D028D
:101BC00090916E020E949E0A809166029091670237
:101BD0009C0101969093670280936602C9010E945E
:101BE000E209F70181937F010E94390F0F5F1F4FB8
:101BF0000C171D07B0F22396D0934801C0934701FC
:101C0000239710924C01C55BDE4F1A8209C081E018
:101C100090E0909348018093470189EC80934C01B8
:101C20000E94580EDD20D9F080E392E00E944D081A
:101C3000C0E0D0E080916B0290916C0223E0969519
:101C400087952A95E1F7C817D90728F4CE010E9495
:101C50007B0A2196EFCF81ED93E00E944D08DF9142
:101C6000CF911F910F91FF90EF90DF9008956BE15E
:101C70008091490168272091470130914801832FC5
:101C8000992768278091470168278EE0682740E000
:101C900050E04217530748F4EBE4F1E081916827E4
:101CA0004F5F5F4F42175307C8F3862F9927089558
:101CB0000F931F93CF93DF938BE10E9418098091BC
:101CC00049010E941809809148010E9418098091D9
:101CD00047010E9418098EE00E941809C0E0D0E078
:101CE0008091470190914801C817D90778F40BE417
:101CF00011E0F80181918F010E94180921968091CD
:101D0000470190914801C817D90798F30E94370EF0
:101D10000E9418098091490190914A01019690937F
:101D20004A0180934901DF91CF911F910F9108954E
:101D300020914C0183E090E090934801809347010B
:101D400010924C0133272239310551F123393105E5
:101D50008CF42138310501F12238310524F4203882
:101D6000310541F17AC020393105C1F02139310501
:101D7000A9F073C02839310589F1293931052CF4CE
:101D8000263931050CF469C05AC02E393105E1F10C
:101D90002F39310589F061C081E03FC082E03DC04C
:101DA000A6E8B0E09D010E94551A802D8F3F11F0EA
:101DB000D90130C084E031C080914B01833019F4E7
:101DC000809141012AC082E090E090934801809385
:101DD000470180914D018093410148C080914B01A2
:101DE000A1E0B0E08330B1F082E090E09093480150
:101DF0008093470180914D01082E0E94671A8091BF
:101E00004D010E94660932C080914B01A0E0B0E014
:101E1000833031F40E94551A802D80934D0126C0E5
:101E200082E090E0909348018093470180914D01BA
:101E3000082E0E94671A81E00E94190317C0809142
:101E40004B01833019F410924D0110C082E090E0F4
:101E5000909348018093470109C082E090E09093FD
:101E600048018093470180EC80934C010E94580EFA
:101E700008958091420190914301A0914401B09155
:101E800045010196A11DB11D80934201909343012C
:101E9000A0934401B093450108958091420190912F
:101EA0004301A0914401B0914501B7FF1EC08DE4EC
:101EB0000E949B0980E00E949B09809144010E943E
:101EC0009B0980E00E949B0980914201909143010F
:101ED000A0914401B0914501BF7780934201909356
:101EE0004301A0934401B09345010895EF92FF92FE
:101EF0000F931F93CF93C0E0EE24FF240E949D0B0D
:101F0000C0938100C0934601109242011092430198
:101F1000109244011092450180913F01813011F4EB
:101F2000CAE011C0CC2379F010923F011092400119
:101F30001092B20080EF8093B30082E08093700033
:101F40008FE08093B0008C2F99278530910509F49C
:101F500088C086309105ACF48230910509F458C0F0
:101F60008330910534F4009799F1019709F44AC040
:101F7000D3CF8330910509F454C0049709F45CC0B1
:101F8000CBCF88309105D1F08930910544F486306B
:101F9000910509F46EC0079709F47FC0BDCF893061
:101FA000910509F4ACC00A9709F0B6CF82E090E041
:101FB000909348018093470180E8F7C010923F0159
:101FC0000E949D0B1092B00010927000C0E0A4CF50
:101FD0008091B3028111C1E0F29B9ECF80914601B6
:101FE000882309F099CF80E88093610083E0809393
:101FF00061008091C10080788093C10081E080936E
:102000008100D9C00E9420098B3189F5C2E084CFBC
:102010000E942009992790934A0180934901C3E0C7
:102020007BCF0E9420099927982F882790934801F9
:1020300080934701C4E070CF0E942009282F3327E6
:102040008091470190914801822B932B90934801F6
:10205000809347018351914050F4C5E0EE24FF2462
:102060005BCF0E9420098E3011F4C6E055CFC9E045
:1020700053CF8091470190914801E816F90611F479
:10208000C7E04ACF8701055B1E4F0894E11CF11C95
:102090000E942009F80180833FCF0E94370E182F3D
:1020A0000E942009181709F079C0C0913F01CC2384
:1020B00009F074C080914B019927843091053CF45C
:1020C000823091050CF061C0019739F061C0863013
:1020D0009105E9F0079799F05BC08BE090E0909351
:1020E000480180934701ABE4B1E0E2EEF3E09AE00F
:1020F00084918D939150319697FFFACF58C082E02A
:1021000090E0909348018093470180EC4EC082E0BC
:1021100090E090934801809347010E944D0F809179
:102120004C019927AA27BB27B82FAA2799278827C8
:1021300020914D01332744275527A9013327222712
:10214000822B932BA42BB52B20914E0133274427B0
:102150005527542F432F322F2227822B932BA42B2A
:10216000B52B20914F01332744275527822B932BE2
:10217000A42BB52B8093420190934301A09344017B
:10218000B0934501C0934C0112C00E94980E11C03B
:10219000E0910201F091030109950BC082E090E00B
:1021A000909348018093470181EC80934C010E94F9
:1021B000580EC8E0B1CECF911F910F91FF90EF90D4
:1021C00008950F931F93CF9310915001C0914F0129
:1021D00080914D010E9407038C2F8150843608F0B6
:1021E000C8E1C150CF3F09F43FC0809153010E9424
:1021F0009B09812F0E940703809154010E949B0933
:10220000812F0E940703809155010E949B09082F8E
:10221000812F0E94070380915201833029F480911D
:1022200056010E949B0905C0809156010E949B099E
:10223000082F80915201882321F0809151010817C5
:1022400069F4812F0E94070381E08093460181B3E6
:102250008F7C806281BB10924C010DC0812F0E9447
:1022600007030E94BC09BDCF81B38F7C806181BB15
:1022700080EC80934C01CF911F910F9108951F9393
:10228000CF93DF93EB01992780FF08C08077907090
:1022900034E0959587953A95E1F704C08E7090707B
:1022A000959587959927877090708230910519F0E0
:1022B0000497E1F026C01091520180914B018331C7
:1022C00039F4812F9927C0FD8860182FD695C795BE
:1022D000812F0E949B09CE010E94AE0980E00E94DE
:1022E0009B0990915301891799F30FC080E090EFFB
:1022F0000E94AE0980E090E00E94AE0980FDF6CF1A
:1023000004C080914F010E940703DF91CF911F917C
:1023100008956F927F929F92AF92BF92CF92DF9279
:10232000EF92FF920F931F93CF93DF9300E010E0A3
:1023300090904E01C0905001609042017090430116
:1023400080914C019927B82EAA2480914D0199279C
:10235000A82AB92A90FE62C078010A151B0508F068
:1023600046C0C5E5D1E0D99080914B01833131F46D
:102370008C2D9927E0FE03C0886001C08C2D0E943F
:102380009B0980914201909143010E94AE098D2DDD
:102390000E949B0901151105D9F4809153018D15F7
:1023A000B9F090914B01933131F0953189F48091DE
:1023B00054018D1569F00091420110914301933150
:1023C00039F4000F111FC70181709070080F191F99
:1023D000E0FC04C080914B01853111F40E94390F5B
:1023E0000894E11CF11CEA14FB0408F4BCCFC92DCD
:1023F00097FE69C0809151010E949B09C3010E9410
:10240000AE0980E00E949B090115110511F4CF78F7
:10241000C061B8018C2F0E943F1155C078010A1588
:102420001B0508F050C055E5652E51E0752EF301EF
:10243000D1903F0180914B01833131F48C2D99274C
:10244000E0FE03C0886001C08C2D0E949B09809132
:102450004201909143010E94AE098D2D0E949B097B
:10246000C92D809153018D15C1F090914B0193318D
:1024700031F0953191F4809154018D1571F00091F6
:10248000420110914301933159F4000F111FC7010C
:1024900081709070080F191F03C0C92DC17FC260E1
:1024A000E0FC04C080914B01853111F40E94390F8A
:1024B000B8018C2F0E943F110894E11CF11CEA1412
:1024C000FB0408F4B4CFDF91CF911F910F91FF90DF
:1024D000EF90DF90CF90BF90AF909F907F906F90E4
:1024E0000895DF92EF92FF920F931F93CF93DF93A4
:1024F00080914B0199278631910509F4FBC0873102
:10250000910594F48231910509F460C083319105FD
:102510003CF480319105F9F0419709F43DC03EC18A
:10252000449709F4E7C02FC18931910509F4CCC063
:102530008A31910544F48731910509F4C5C0489763
:1025400009F4A5C02BC18D3191050CF4A0C04D97A5
:1025500009F461C023C182E090E090934801809328
:102560004701A1E0B0E00E94551A802D0E94810928
:1025700080E00E94190381B3806381BB0E94E11057
:1025800080914601882319F088EF93E002C08DEE18
:1025900093E00E944D080BC182E090E090934801C7
:1025A0008093470180914C010E94070381B38F7C87
:1025B000806181BB1092460181E00E9419038091E5
:1025C0004D010E9407030E949109E5C082E090E05E
:1025D0009093480180934701C3E00EE411E0F801B5
:1025E00081918F010E949B09C150C7FFF8CF809154
:1025F0004D01882359F080E090EF0E94AE0980E001
:1026000090E00E94AE0980FDF6CFC5C080914C01DC
:102610000E940703C0C0E0904D018E2D99270396BC
:10262000909348018093470100914C01F0904E0136
:10263000C1E012E0C017A8F4E12FFF27E55BFE4FD1
:1026400083810E949B091E1540F0CF1530F4EC2FBA
:10265000FF27E55BFE4F8283CF5F812F1F5F8017CF
:1026600058F38C2FCF5F8F1550F40C2F1127055B7B
:102670001E4F80E00E949B09F8018283F2CF1092E6
:102680004C01EC2FFF27E55BFE4F138290C084E0E6
:1026900090E09093480180934701C1E00DE411E080
:1026A000F80181918F010E949B09982F80914C0124
:1026B000C81711F490934D01CF5FC53088F3109285
:1026C0004C0110924E0173C083E090E0909348015A
:1026D000809347010CE411E0C3E0F80181918F0180
:1026E0000E949B09C150C7FFF8CF10924C01109275
:1026F0004D015DC0D0904E0180914C019927D82F9B
:10270000CC2780914D019927C82BD92B2396D093A4
:102710004801C0934701239700E010E00C171D0704
:1027200060F58DE4E82E81E0F82E80914B01843134
:1027300031F48D2D992700FF03C0886001C08D2DD5
:102740000E949B0980914201909143010E94AE0931
:1027500080E00E949B09F701808300FD04C0809106
:102760004B01863111F40E94390F0F5F1F4F0894FF
:10277000E11CF11C0C171D07C0F210924C01C55B47
:10278000DE4F1A8214C00E94891182E090E090937B
:1027900048018093470110924C0109C081E090E00C
:1027A000909348018093470189EC80934C010E94EB
:1027B000580EDF91CF911F910F91FF90EF90DF9016
:1027C0000895CF93DF93CDB7DEB724970FB6F89473
:1027D000DEBF0FBECDBF19821A821B821C82FE0192
:1027E0003196813019F4ABE1B0E002C0AFE1B0E066
:1027F00084E0182E0E945D1A89819A81AB81BC8188
:102800008F5F9F4FAF4FBF4F21F419821A821B82F7
:102810001C8289819A81AB81BC81BC01CD01249647
:102820000FB6F894DEBF0FBECDBFDF91CF910895F4
:102830008093610210925F0210925E022091420129
:10284000309143014091440150914501813039F468
:10285000DA01C901880F991FAA1FBB1F06C0DA0140
:10286000C90180509C4FAB4FBF4F10926E02109227
:102870006D02883021E0920720E0A20720E0B20735
:10288000A0F020E030E088509140A040B0402F5FA1
:102890003F4F883041E0940740E0A40740E0B40790
:1028A00090F730936E0220936D02909367028093AD
:1028B00066020895CF93C82F8091660290916702B7
:1028C00088509140A9F480916D0290916E029C0114
:1028D000019690936E0280936D02C9010E94CD0A09
:1028E00080E090E00E94430A109267021092660214
:1028F0008C2F0E94360980916602909167020196A2
:10290000909367028093660280915E0290915F02CD
:10291000019690935F0280935E02CF910895CF93CA
:10292000DF93CDB7DEB724970FB6F894DEBF0FBEA6
:10293000CDBF80916002813009F03FC08091660276
:1029400090916702892B31F080916D0290916E0217
:102950000E94CD0A20916D0230916E0288E091E0D4
:10296000289FA001299F500D389F500D1124CA01A6
:102970002091660230916702820F931F9C014427C9
:10298000552729833A834B835C8380916102FE0142
:102990003196813019F4ABE1B0E00AC020503440E8
:1029A0004440504029833A834B835C83AFE1B0E0DD
:1029B00084E0182E0E94781A10C0833071F4809140
:1029C0006102823019F4AFE2B0E002C0A0E3B0E0EF
:1029D00080916602082E0E94671A24960FB6F8941A
:1029E000DEBF0FBECDBFDF91CF910895CF92DF92B2
:1029F000EF92FF920F931F93CF93DF9340914B0180
:102A0000842F99278631910509F4BCC1873191053E
:102A100094F48231910509F466C0833191053CF448
:102A20008031910511F1419709F43FC019C24497D3
:102A300009F4A8C13CC18931910509F4E6C08A3185
:102A4000910544F48731910509F4DFC0489709F4F2
:102A500089C006C28B319105D1F18B3191050CF4FF
:102A600081C04C9709F471C0FBC182E090E0909363
:102A7000480180934701EBE4F1E020E030E09BE087
:102A8000D901AD5DBF4F8191082E0E94671A915008
:102A90002F5F3F4F97FFF4CF81E080934601109264
:102AA000600281B38F7C806210C082E090E09093DE
:102AB0004801809347010E948F141092460180E0E4
:102AC0000E94D00981B38F7C806181BB58C184E0B2
:102AD00090E0909348018093470110924C0181E06F
:102AE00080934D013CC082E090E090934801809338
:102AF0004701ECE4F1E021E030E095E0D901AB5E84
:102B0000BF4F8191082E0E94671A91502F5F3F4F4F
:102B100097FFF4CF20E080E090E037E0DC01A55E95
:102B2000BF4F022E0E94671ADC01A15EBF4F022E2A
:102B30000E94671A3150019637FFF0CFA4E1B0E050
:102B400081E0082E0E94671A1AC184E090E09093F9
:102B500048018093470110924C0110924D01109250
:102B60004E0187C184E090E0909348018093470133
:102B700080916002843049F00E948F1410926702A5
:102B80001092660284E08093600260914B0168318C
:102B900019F4AFE2B0E002C0A0E3B0E00E94551A21
:102BA000802D9927409166025091670284179507FE
:102BB00010F48FEF1DC080EA90E0489F9001499F7C
:102BC000300D589F300D112490914C0188E2989F50
:102BD000C0011124280F391F683121F4D901A75FE2
:102BE000BF4F03C0D901AF5CBF4F0E94551A802D63
:102BF00080934D0110924C0110924E014F5F5F4F38
:102C0000509367024093660234C183E090E0909352
:102C100048018093470180916002833039F083E05E
:102C20008093600210926702109266022091660201
:102C300030916702473169F480EA90E0289FE00113
:102C4000299FD00D389FD00D1124CF5CDF4F82E03B
:102C50000CC080EA90E0289FE001299FD00D389FAA
:102C6000D00D1124C75ADF4F83E080936102809119
:102C70006602909167020A97A8F4ECE4F1E093E011
:102C80008191DE01082E0E94671A2196915097FFCC
:102C9000F7CF809166029091670201969093670248
:102CA0008093660210924C0110924D01E2C082E0C6
:102CB00090E09093480180934701809160028130B9
:102CC000F9F0433121F4C2E0D0E081E003C0CBE071
:102CD000D0E080E00E941814809166029091670213
:102CE0000E94430A81E080936002ECE4F1E098E006
:102CF0008191DE01082E0E94671A915097FFF8CF4C
:102D000080914C019927D82FCC2780914D0199278C
:102D1000C82BD92B00E010E00C171D0770F455E507
:102D2000E52E51E0F52EF70181917F010E945A14A2
:102D30000F5F1F4F0C171D07B0F320915E023091FB
:102D40005F0237FD1CC080914E0187FF18C021151E
:102D50003105A9F080916102813019F4A1E8B0E059
:102D600002C0A3E8B0E009010E94731A80915E02DC
:102D700090915F02906890935F0280935E02109240
:102D80004C0177C080916002823001F10E948F1463
:102D900090E080914B01843109F491E0892F0E94E9
:102DA0001814609166027091670280916D02909193
:102DB0006E020E94070A82E0809360021092420134
:102DC00010924301109244011092450180914C01F0
:102DD0009927D82FCC2780914D019927C82BD92B23
:102DE00090E080914B01843109F491E0892F0E9499
:102DF000E113DC01CB017C0100E010E00C171D07A2
:102E000018F53DE4C32E31E0D32E97014427552712
:102E10008091420190914301A0914401B0914501FC
:102E200082179307A407B50720F480E00E943609B3
:102E300001C08FEFF60181936F010E94390F0F5F80
:102E40001F4F0C171D0708F32396D0934801C0931A
:102E50004701239710924C01C55BDE4F1A8209C0CF
:102E600081E090E0909348018093470189EC809342
:102E70004C010E94580EDF91CF911F910F91FF904E
:102E8000EF90DF90CF9008950F931F93CF93DF9330
:102E9000823049F4AFE2B0E00E94551A802D182F1D
:102EA000C1E3D0E008C0A0E3B0E00E94551A802D35
:102EB000182FC9E5D0E011501F3F91F003E0DE016B
:102EC0000E94551A802D0E949B092196015007FFF0
:102ED000F6CF112319F085E00E943102115070F7EE
:102EE000DF91CF911F910F9108951F93CF93DF939F
:102EF000C2E0D0E013E0DE01AB5EBF4F0E94551A86
:102F0000802D0E949B091150219617FFF4CFA6E156
:102F1000B0E00E94551A802D882359F080E090EF90
:102F20000E94AE0980E090E00E94AE0980FDF6CFDD
:102F300007C0A5E1B0E00E94551A802D0E9407034A
:102F4000DF91CF911F9108953F924F925F926F92C0
:102F50007F928F929F92AF92BF92CF92DF92EF9229
:102F6000FF920F931F93CF93DF93C82FAA24BB2404
:102F700065010E94E1132B013C013324C13019F497
:102F8000A1E8B0E002C0A3E8B0E00E94621A4F01DD
:102F90001092420110924301109244011092450197
:102FA000C13049F4C2E0D0E060E070E0CB010E94A3
:102FB000070A83E109C0CBE0D0E060EE70E084EE68
:102FC00093E00E94070A85E180934B01ECE4F1E075
:102FD00098E0DE010E94551A802D81932196915030
:102FE00097FFF7CF80914C019927D82FCC2780915C
:102FF0004D019927C82BD92BA414B504C604D704B6
:1030000008F0B2C020914E01822F9927AC01417087
:10301000507080FF53C0F1EA8F16910460F13320A5
:1030200041F4C0EAD0E02F7720934E0131E0332EF7
:1030300007C0E401C05AD040206820934E013324D9
:1030400000E010E00C171D0778F425E5E22E21E0E2
:10305000F22E80E00E943609F70181937F010F5F15
:103060001F4F0C171D07A8F38D2F992780934C0134
:10307000C0934D014BC000E010E00815190578F42D
:1030800085E5E82E81E0F82E80E00E943609F70100
:1030900081937F010F5F1F4F08151905A8F3892D34
:1030A000992780934C0180924D0180914E01806858
:1030B00080934E01C401AA27BB272BC0CE01AA27AB
:1030C000BB278A0D9B1DAC1DBD1D481659066A06FF
:1030D0007B0648F4E201CA19DB098D2F99278093FA
:1030E0004C01C0934D018A014C175D0778F4F5E55A
:1030F000EF2EF1E0FF2E80E00E943609F701819368
:103100007F010F5F1F4F0C171D07A8F3CE01AA27E1
:10311000BB27A80EB91ECA1EDB1EA114B104E1F420
:10312000E12CF12CEFEF0E2F112DEA20FB200C21CA
:103130001D21E114F1040105110571F08DE40E94D7
:103140009B0980E00E949B09C801AA27BB270E9417
:103150009B0980E00E949B090E948911A414B50478
:10316000C604D70408F44ECFDF91CF911F910F9181
:10317000FF90EF90DF90CF90BF90AF909F908F9097
:103180007F906F905F904F903F9008951F93CF93E3
:10319000DF93CDB7DEB72E970FB6F894DEBF0FBE24
:1031A000CDBF10E081E08EBB8EB38823E9F3F69BA0
:1031B00006C0112311F413E00CC011500AC0F79B94
:1031C00006C0133011F410E004C01F5F02C0F29972
:1031D00054C0812F992781309105A1F0823091054B
:1031E0001CF4892B39F042C08230910501F103971C
:1031F00039F13CC068E074E0CE0101960E94191AD2
:1032000081E007C06EE074E0CE0101960E94191AB9
:1032100080E00E94E113DC01CB012AE030E0AE0146
:103220004A5F5F4FBC01CD010E94201A1FC064E1BC
:1032300074E0CE0101960E94191AAFE2B0E008C016
:103240006AE174E0CE0101960E94191AA0E3B0E091
:103250000E94551A802D8F3F11F0992702C080E0FF
:1032600090E0BE016A5F7F4F0E943503CE01019658
:103270000E9417080E94430297CF2E960FB6F8942B
:10328000DEBF0FBECDBFDF91CF911F910895AF92EA
:10329000BF92DF92EF92FF920F931F93CF93DF9332
:1032A000CDB7DEB769970FB6F894DEBF0FBECDBFBE
:1032B00080E48E8B86E1A82EB12CAC0EBD1E88E278
:1032C0008F8B83E2888F89E2898F81E00E94E113EE
:1032D0007B018C01DD2481B3806381BB8091B402CA
:1032E0009091B502A091B602B091B7028E159F05DC
:1032F000A007B10708F043C080E00E943609F5013D
:10330000ED0DF11DD3949081891721F584E0D81635
:1033100011F5FF2400E010E080E00E9436099E01D4
:103320002F5F3F4FF801E20FF31F8083882331F0B6
:10333000F3940F5F1F4F83E18F1570F71D8A81E0B3
:1033400080936202C9010E94170881B38F7C80615B
:1033500081BB31C0DD248091B4029091B502A0916F
:10336000B602B091B7020196A11DB11D8093B402BF
:103370009093B502A093B602B093B702B7CF60E0C6
:1033800070E0CB010E94070A1092B4021092B502BD
:103390001092B6021092B70280916202882349F41B
:1033A00081B38F7C806181BB80E294E00E946E03D8
:1033B00002C00E94471969960FB6F894DEBF0FBE8F
:1033C000CDBFDF91CF911F910F91FF90EF90DF90D4
:1033D000BF90AF90089560E070E0CB010E94070AB3
:1033E000109262021092B4021092B5021092B602CC
:1033F0001092B7020E94471980916202882371F0EF
:103400008EB38823E9F3F79B03C00E94471902C0DB
:10341000F29903C00E944302F3CF80E00E94D009DA
:1034200008950C9494038F938BE58093B8008F914B
:103430001895FB01DC0105900D920020E1F708953D
:10344000FA01CF93FF93EF932230CCF02532BCF4F6
:10345000C22F2C2F332744275527FF93EF930E9429
:103460007D1AEF91FF91605D6A330CF0695D6193A5
:10347000B901CA01605070408040904051F71082FD
:103480008F919F91CF910C94451ADC01FC01019022
:103490000020E9F73297AE17BF0730F47C916081C6
:1034A000708331976D93F7CF0895F999FECFB2BD30
:1034B000A1BDF89A119600B40895F7DF01921A940D
:1034C000E1F70895F2DFE02DF0DFF02D0895F9998E
:1034D000FECFB2BDA1BD00BC11960FB6F894FA9A0A
:1034E000F99A0FBE0895F3DF012CF1DF112408953E
:1034F0000190EDDF1A94E1F70895A1E21A2EAA1BBC
:10350000BB1BFD010DC0AA1FBB1FEE1FFF1FA21793
:10351000B307E407F50720F0A21BB30BE40BF50B90
:10352000661F771F881F991F1A9469F76095709519
:0E353000809590959B01AC01BD01CF010895DF
:04353E0036097112C7
:00000001FF
