:100000000C94FD010C9418020C94CE1A0C948903E4
:100010000C9418020C942E070C9418020C941802DD
:100020000C9418020C94660B0C94D01A0C941802C1
:100030000C9418020C94B5080C9418020C94180235
:100040000C9418020C94FA080C9418020C941802E0
:100050000C9418020C9418020C94EB076F006000CB
:100060005649455720444154412054414753005379
:10007000544F524147452053495A455300A30099D4
:10008000008F00850032313036353120485A00313A
:10009000313334323720485A00203836373338204D
:1000A000485A0020353731353320485A0016010AA6
:1000B00001FA00EA00DA00C600BB00455241534590
:1000C000204F4E4C59004655534520414E44204C3C
:1000D0004F434B204259544553004C4F434B204211
:1000E00059544553204F4E4C5900465553452042D4
:1000F00059544553204F4E4C5900444154412041DE
:100100004E4420454550524F4D00454550524F4DAD
:10011000204F4E4C590044415441204F4E4C590001
:10012000D2051E067605BF065E015001430130016F
:100130004A554D5020544F20424F4F544C4F41444C
:10014000455200434C454152204D454D4F525900B8
:10015000534554205350492053504545440053457E
:100160005420434F4E545241535400DA0350050B70
:1001700004E7036706A5035306D501CA01BE01AA19
:10018000019B0192018701534C454550204D4F443E
:10019000450053455454494E47530044415441533C
:1001A000544F524520494E464F0044415441464C1D
:1001B000415348205052474D204D4F444500505226
:1001C0004F4752414D204156520053544F52452003
:1001D0005052474D00415652495350204D4F4445CF
:1001E000000C020702F801E9013C433E20323030A6
:1001F00036202D2047504C004259204445414E2086
:1002000043414D4552410056312D3300425554541F
:100210004C4F4144002A574149542A004028232981
:100220004259204445414E2043414D4552410040F2
:10023000282329425554544C4F4144204156524999
:100240005350005052473E2000424144495352000F
:100250004E4F20455241534520434D44004E4F20C0
:1002600044415441004E4F20454550524F4D004EA1
:100270004F2046555345204259544553004E4F2078
:100280004C4F434B2042595445530050524F475214
:10029000414D4D494E4720444F4E45004641494C43
:1002A0004544002A53544F52414745204D4F444541
:1002B0002A00434F4E4649524D003C4E20593E00C5
:1002C0004D454D20434C4541524544004E4F20532F
:1002D000544F524544205052474D002A4A544147FA
:1002E000204F4E2A00A8EA802A0040000A510A083E
:1002F0004059551801111E111B500B411B411F1174
:1003000001511F511B000000000880001A2040000E
:10031000000000510F913941149131411E410E41AD
:100320001D500F80201015488640147805708551A7
:1003300015510E5195518E219081205015484450F1
:10034000C528C02820095041142080111100000048
:1003500010038002540140002244415441464C4164
:100360005348204552524F52000001000200040041
:1003700008001000100020002008010801080108F2
:1003800001080110021002200409090909090A0ADA
:100390000B42554646204F564552464C4F57002A71
:1003A00044415441464C415348204D4F44452A0056
:1003B0000100084156524953505F3202020453591A
:1003C0004E43204552524F52002A41544156524901
:1003D0005350204D4F44452A00444154412D00457F
:1003E00050524D2D00465553452D004C4F434B2D3B
:1003F000004E4F2054414753000011241FBECFEF41
:10040000D4E0DEBFCDBF11E0A0E0B1E0E6EAF6E364
:1004100002C005900D92A632B107D9F712E0A6E20C
:10042000B1E001C01D92A63DB107E1F70C945E0258
:100430000C94A003CF93DF93282F21502F3F49F036
:10044000A0E0B8E4C0E0D0E0CD010197F1F7215081
:10045000D8F7DF91CF9108958EB38823E9F781E033
:100460000E941A028EB38823B9F70895CF93C0E093
:1004700081E08EBB8EB38823E9F3F69B06C0CC23C4
:1004800011F4C3E00CC0C1500AC0F79B06C0C330D2
:1004900011F4C0E004C0CF5F02C0F2990DC0EC2F90
:1004A000FF27EE0FFF1FEF51FE4F859194910E94A1
:1004B000A2070E942C02DECFCF910895CDEFD4E0A9
:1004C000DEBFCDBF10E080E885BF85BF80BF85E07F
:1004D0008093640080E380BB87E284B98FED85B9A7
:1004E0008CE08EB980936B0080ED80936C0080EC83
:1004F0008DBB8CBB81B38F7C806281BB82E091E03D
:100500000E945C088A3709F120E030E03A832983B1
:1005100080910201909103012817390788F46FEF49
:10052000CE0101960E94670889819A8101969A837B
:10053000898320910201309103018217930778F398
:100540006AE782E091E00E9467080E944F0784E01A
:1005500091E00E945C088F708093E700789485E1B9
:1005600092E00E94A20780E00E947F0981B380632D
:1005700081BB87E090E00E947F080E94CD0681B396
:100580008F7C806181BB81E08EBB80E880936100BD
:1005900083E0809361008EB38823E9F3F69B06C065
:1005A000112311F416E01BC0115019C0F79B06C0AF
:1005B000163011F410E013C01F5F11C0F49B0BC084
:1005C000E12FFF27EE0FFF1FE559FE4F8591949114
:1005D000FC01099504C0F39B02C00E943602E12F82
:1005E000FF27EE0FFF1FE758FE4F859194910E9461
:1005F000A2070E942C02CFCFCF93DF93282F215048
:100600002F3F49F0A3E3B7E0C0E0D0E0CD01019770
:10061000F1F72150D8F7DF91CF91089599278130D4
:100620009105A9F0823091051CF4892B21F00895E1
:10063000029751F00895869A82E291E00E945C0848
:10064000882319F48E9A0895869A8E98089586982C
:10065000FCCFFB0120E08436910520F02F5F84560B
:100660009040F9CF205D219320E08A30910518F069
:100670002F5F0A97FACF205D2193805D81931082CE
:1006800008951F93CF93DF93CDB7DEB727970FB6AB
:10069000F894DEBF0FBECDBF182F63E472E0CE0129
:1006A00001960E94D61A1E831F82CE0101960E94D7
:1006B000610727960FB6F894DEBF0FBECDBFDF915E
:1006C000CF911F910895CF93DF93CDB7DEB7649795
:1006D0000FB6F894DEBF0FBECDBF25E429832EE30D
:1006E0002A83BC01CE0103960E94D61ACE01019640
:1006F0000E9461070E942C02F49BFECF0E942C02F4
:1007000064960FB6F894DEBF0FBECDBFDF91CF91D8
:10071000089578941F920F920FB60F9211248F9321
:100720009F9393B19095907D8CB180958C70982B10
:100730009EBB9F918F910F900FBE0F901F901895A9
:1007400089E492E00E946303FFCFCF93C0E081E091
:100750008EBB8EB38823E9F3F69B06C0CC2311F43D
:10076000C3E019C0C15017C0F79B06C0C33011F4D5
:10077000C0E011C0CF5F0FC0F49B0BC0EC2FFF2770
:10078000EE0FFF1FE05EFE4F85919491FC010995ED
:1007900002C0F2990DC0EC2FFF27EE0FFF1FE85D9E
:1007A000FE4F859194910E94A2070E942C02D1CF06
:1007B000CF91089589EC93E00E94A2078CEA91E121
:1007C00090932501809324010E94B60E089580E243
:1007D00091E00E945C080E94300981E080938302CE
:1007E0008AE499E090930101809300018FE993E0FE
:1007F0000E94A2078EEE9BE0909325018093240136
:100800000E94B60E80E00E947F098091640084609F
:10081000809364000895DF92EF92FF920F931F93ED
:10082000CF93DF93CDB7DEB765970FB6F894DEBFF1
:100830000FBECDBFDD240D2D0E94DB08D0928302B8
:1008400085EE98E090930101809300010E94F60AE2
:10085000882309F417C10E942C0281E08EBB8EB35D
:100860008823E9F3F2990EC1F4991CC0F69B06C0E7
:10087000002311F406E009C0015007C0F79B05C032
:10088000063011F400E001C00F5FE02FFF27EE0FEC
:10089000FF1FE355FF4F859194910E94A2070E948C
:1008A0002C02DDCF81B3806381BB85E192E00E94A1
:1008B000A20780E291E00E945C080E94300980E07B
:1008C0000E940E0380911201909113019D8B8C8BDD
:1008D00054E3E52E51E0F52E1BE0CE0144960E9434
:1008E0005C08F70181937F018C899D8901969D8B1E
:1008F0008C8B115017FFF1CF0E941C1010922B010E
:1009000010922C0110922D0110922E018091350130
:10091000882309F0A2C0063021F0002311F0023034
:1009200091F483E40E9441038AE191E00E945C0813
:10093000813039F042E0D42E80E592E00E946303DA
:1009400002C00E94D717002311F00230C1F4DD204D
:10095000B1F484E40E94410381E00E941B13DC0196
:10096000CB010097A105B10539F433E0D32E8DE515
:1009700092E00E94630303C081E00E942718802F49
:1009800081508230B0F485E40E94410380E00E94EF
:100990001B13DC01CB010097A105B10539F423E05D
:1009A000D22E85E692E00E94630303C080E00E949D
:1009B0002718033011F0053099F486E40E944103B2
:1009C00080E191E00E945C08882339F493E0D92EFD
:1009D0008FE692E00E94630303C082E00E948717C3
:1009E000802F8450823000F5053059F481E00E9458
:1009F0000E0381E00E941A0280E00E940E030E9412
:100A00001C108CE40E9441038EE091E00E945C087F
:100A1000882339F483E0D82E8DE792E00E946303A7
:100A200003C083E00E9487176BE872E0CE01019655
:100A30000E94D61ADD2031F06CE972E0CE010D96ED
:100A40000E94D61ACE0101960E9461078FEF0E9484
:100A50001A0284E60E941A0204C08EEB93E00E9400
:100A6000630381E00E940E030E94400980E00E941F
:100A70007F098091640084608093640081B38F7CDF
:100A8000806181BB65960FB6F894DEBF0FBECDBF07
:100A9000DF91CF911F910F91FF90EF90DF9008951C
:100AA00085EE98E090930101809300010E94DB089D
:100AB0001092830281E00E947F090E94F60A882337
:100AC000A1F083EA92E00E94A20783EC94E1909364
:100AD0002501809324010E94B60E80E00E947F09C8
:100AE0008091640084608093640008950F931F9345
:100AF000CF93DF93CDB7DEB722970FB6F894DEBF62
:100B00000FBECDBF82EB92E00E94A20784EB0E9451
:100B10001A028AEB92E00E94A2078EB38823E9F3BF
:100B20008EB399278C010470107082FD29C0F39B4D
:100B3000F4CF0E942C0285E192E00E94A2071A8362
:100B4000098380910201909103010817190788F425
:100B50006FEFCE0101960E94670889819A81019604
:100B60009A838983209102013091030182179307B0
:100B700078F380EC92E00E94A2078FEF0E941A02A5
:100B800022960FB6F894DEBF0FBECDBFDF91CF9196
:100B90001F910F91089585E192E00E94A2070E94A3
:100BA000CD0608951F93CF93DF93CDB7DEB7269779
:100BB0000FB6F894DEBF0FBECDBF84E091E00E9477
:100BC0005C08182F1F7081E08EBB8EB38823E9F379
:100BD000F69B04C01F3080F41F5F0EC0F79B04C05B
:100BE000123050F0115008C0F29B06C0612F84E013
:100BF00091E00E94670818C083E4898384E58A83B2
:100C000080E28B83BE016C5F7F4F812F99270E940A
:100C10002903CE0101960E946107812F8F70809376
:100C2000E7000E942C02D1CF26960FB6F894DEBFC3
:100C30000FBECDBFDF91CF911F910895CF9381E07B
:100C40008EBB80E291E00E945C08C82F843008F0DF
:100C5000C0E08EB38823E9F3F69B06C0CC2311F4E1
:100C6000C3E012C0C15010C0F79B06C0C33011F4DE
:100C7000C0E00AC0CF5F08C0F29B06C06C2F80E2C4
:100C800091E00E9467080DC0EC2FFF27EE0FFF1FB9
:100C9000E358FF4F859194910E94A2070E942C0275
:100CA000D8CFCF91089585E083BF8091E4008F77FE
:100CB0008093E400F69903C08895F69BFDCF809160
:100CC000E40080688093E4000E942C0208951F9342
:100CD000CF9310E00E942C0281E08EBB8EB388235C
:100CE000E9F3CEB3C07C19F081E0182738C0F2993F
:100CF00043C0F49B34C0113081F585EE98E09093A9
:100D00000101809300010E94DB08C0938302812FC0
:100D10000E947F090E94F60AC82F882341F00E9492
:100D2000A81A8091640084608093640018C0812FA9
:100D30000E941B13DC01CB010097A105B10579F4DA
:100D40008C2F0E947F0980916400846080936400EE
:100D50008CEC92E00E94630302C00E948419E12F90
:100D6000FF27EE0FFF1FE45AFF4F859194910E94D9
:100D7000A2070E942C02B2CFCF911F91089585B790
:100D80008F7785BF85BF8BED92E00E94A2070E94FE
:100D90002C0288E180936000FFCFCF93DF934FE375
:100DA00020E030E080E88093610010926100409381
:100DB00066005FB710926F0088E08093B60081E014
:100DC000809370007894809381008093B00080912C
:100DD000B6009927877090700097C9F790938500A7
:100DE000809384001092B2004EE3A3E3B3E7C0E027
:100DF000D0E0CD010197F1F7322F80916600282FC6
:100E000080912601909127018650914E20F080918B
:100E1000660081500AC080912601909127018B5F66
:100E2000904E58F4809166008F5F809366008091A9
:100E30006600831711F04150E0F610926F00109297
:100E40007000109281001092B0008091B600877FF0
:100E50008093B6005FBFDF91CF9108951F920F92EC
:100E60000FB60F9211248F939F931092810080915F
:100E70008400909185009093270180932601109221
:100E80008500109284001092B20081E0809381006E
:100E90009F918F910F900FBE0F901F9018958FE02C
:100EA0008093E70087EB8093E50087E08093E6007E
:100EB00080EC8093E4008091E40088608093E400FB
:100EC0000895CF93DF93EC0120E03FEFEFE4F2E0F1
:100ED000DF018991982F9A52913538F4803211F0C0
:100EE000892F01C08FEF8C9303C0882331F03083AA
:100EF0002F5F11963196243160F380E0273008F09F
:100F000081E080937F0210924D029FEF86E0E22FF6
:100F1000FF27E15BFD4F90832F5F815087FFF7CF65
:100F2000E22FFF27E15BFD4F108210924E022093CB
:100F30004C028AE08093800281E080936A02DF9114
:100F4000CF910895CF93DF93CDB7DEB764970FB6F7
:100F5000F894DEBF0FBECDBFBC01CE0101960E944A
:100F6000D61ACE0101960E94610764960FB6F894D6
:100F7000DEBF0FBECDBFDF91CF910895E82F20E0F7
:100F800030E0862F8695A82FBB27A559BD4FEF3F90
:100F900039F0FF27EE0FFF1FEB51FD4F25913491E4
:100FA00077276170707043E050EF922F9F7061154A
:100FB000710519F05FE09295907F8C918523892BC4
:100FC0008C9384E0369527958A95E1F715964150E4
:100FD00047FFEACF089578941F920F920FB60F92B1
:100FE00011242F933F934F935F936F937F938F932E
:100FF0009F93AF93BF93CF93EF93FF9380917F0223
:10100000882399F080918002882321F08150809379
:1010100080020BC080914D02882321F481E08093EF
:101020006A0203C0815080934D0280916A02882336
:1010300039F1C0E080914E028C0F90914C02E82F64
:10104000FF27891710F0E91BF109E15BFD4F808153
:101050006C2F0E94BE07CF5FC63060F380914E02B6
:10106000982F8F5F80934E0280914C02981719F44D
:1010700081E080934E0283E080934D0210926A02D9
:10108000ACEEB0E0EBE6F2E093E181918D9391500C
:1010900097FFFBCFFF91EF91CF91BF91AF919F91C0
:1010A0008F917F916F915F914F913F912F910F9011
:1010B0000FBE0F901F901895FC01F89480819181CC
:1010C00092BD81BDF89A789480B5992708951F93B1
:1010D000CF93DF93EC01162F0E945C08811759F023
:1010E000F8948881998192BD81BD10BDFA9AF99AD0
:1010F0007894F999FECFDF91CF911F9108959C01CB
:10110000832F99278093C5002093C40082E08093A9
:10111000C00080E88093C10086E08093C2000E94F6
:101120000E0B0895982F8091C00085FFFCCF9093FF
:10113000C6000895CF93DF93EC018881882331F0B6
:1011400089910E94920888818823D1F7DF91CF91FD
:1011500008958091D102882321F480912801882369
:10116000C1F30E94440B992708951F920F920FB666
:101170000F9211242F933F934F935F936F937F931D
:101180008F939F93AF93BF93EF93FF938091C6008C
:101190000E941B0BFF91EF91BF91AF919F918F9197
:1011A0007F916F915F914F913F912F910F900FBE63
:1011B0000F901F901895809164008B7F809364003E
:1011C00081E08DBD8CE58CBD08958EBD0DB407FE0C
:1011D000FDCF8EB5992708950F931F938C01812F12
:1011E00099270E94E508802F0E94E50899271F9102
:1011F0000F9108951F920F920FB60F9211248F93A3
:1012000080916E008D7F80936E0080E48093B900A2
:1012100081E0809381028091BA00809382028F9155
:101220000F900FBE0F901F901895482F90E062E529
:1012300073E09B0121503040F9018491841711F033
:10124000933031F4FB01849187BD89E084BD08951A
:101250009F5F2E5F3F4F6E5F7F4F943068F308951E
:101260009DB190659DB96D98759A76989AE5909321
:10127000B8000E941509109281021092820208950E
:101280008DB18F7A8DB98EB18F788EB986988E9800
:1012900014BC0895109281028093BA00A99A80919B
:1012A0006E00826080936E0016BC8091810288235C
:1012B000E1F380918202992708950F931F938C0187
:1012C000812F99270E944A09802F0E944A09992755
:1012D0001F910F91089581E00E94FC028091B80057
:1012E00081608093B80081E00E94FC028091B80088
:1012F00081608093B80081E00E94FC020895909183
:101300008302813031F4913011F482E005C02898D5
:101310000895913021F4892F0E940E030895289A90
:1013200008950F931F938C0180E00E947F0981E054
:101330000E947F09E0910001F091010184E5099587
:10134000812F9927E0910001F09101010995E09129
:101350000001F0910101802F0995E0910001F091C9
:10136000010180E00995E0910001F091010180E028
:10137000099599271F910F910895EF92FF920F936E
:101380001F938C017B0180E00E947F0981E00E9415
:101390007F09E0910001F091010188E609958AB585
:1013A000980102C0369527958A95E2F7C901E09128
:1013B0000001F091010109958BB502C0000F111FCA
:1013C0008A95E2F78F2D9927E0910001F0910101B4
:1013D000800F0995E0910001F09101018E2D099592
:1013E00003E0E0910001F091010180E009950150D6
:1013F00007FFF7CF1F910F91FF90EF9008950F9384
:101400001F938C0180E00E947F0981E00E947F0988
:10141000E0910001F091010184E80995E09100015B
:10142000F091010180E00995812F9927E091000159
:10143000F09101010995E0910001F0910101802FE7
:1014400009951F910F91089580E00E947F0981E026
:101450000E947F09E0910001F091010187E5099563
:10146000E0910001F091010180E00995682F772754
:10147000CB018873907033E0959587953A95E1F7A5
:101480009927FC01E757FC4F4491409386029C0149
:10149000280F391FF901E758FC4F859194919093DB
:1014A000880280938702F901E759FC4F8591949156
:1014B00090938A028093890280E1841B8ABD485000
:1014C0004BBDCB0108950F931F938C0180E00E94C8
:1014D0007F0981E00E947F09E0910001F091010104
:1014E00080E50995812F9927E0910001F091010194
:1014F0000995E0910001F0910101802F0995E0919B
:101500000001F091010180E009950E94240A8823DE
:10151000E4F71F910F9108950F931F938C0180E0C2
:101520000E947F0981E00E947F09E0910001F09113
:10153000010183E509958AB5980102C03695279582
:101540008A95E2F7C901E0910001F0910101099546
:101550008BB502C0000F111F8A95E2F7E0910001E0
:10156000F0910101802F0995E0910001F0910101B6
:1015700080E009950E94240A8823E4F71F910F91C7
:1015800008950F931F938C0180E00E947F0981E0F2
:101590000E947F09E0910001F091010183E8099523
:1015A0008AB5980102C0369527958A95E2F7C90158
:1015B000E0910001F091010109958BB502C0000F87
:1015C000111F8A95E2F7E0910001F0910101802F4F
:1015D0000995E0910001F091010180E009950E94D8
:1015E000240A8823E4F71F910F9108950E94240A8A
:1015F0008091890290918A028050984061F4809194
:10160000640084608093640089E593E00E94630332
:1016100080E090E0089581E090E008958DE892E008
:101620009093CE028093CD029093D0028093CF020C
:101630001092D1020895982F8091D102803429F41C
:1016400081E993E00E9463030895E091CD02F09157
:10165000CE0290834091CD025091CE029A012F5F2D
:101660003F4F3093CE022093CD028091D1028F5F05
:101670008093D1022D5C324031F44F53504050934F
:10168000CE024093CD0208958091D102882319F4AF
:1016900080E090E008952091CF023091D002F901CE
:1016A0009191F093D002E093CF028091D1028150CA
:1016B0008093D102ED5CF24031F42F5330403093EF
:1016C000D0022093CF02892F9927089578941F92F2
:1016D0000F920FB60F9211248F93809129018F5F83
:1016E0008093290180912901873029F410922901E2
:1016F00081E0809328018F910F900FBE0F901F9073
:101700001895109280001092810010922901109279
:101710008500109284001092820081E080936F0017
:10172000089520912B0130912C0140912D01509171
:101730002E0110928C0210928B0280918702909160
:101740008802AA27BB2782179307A407B50788F446
:1017500060E070E0281B390B4A0B5B0B6F5F7F4F1B
:1017600082179307A407B507A8F370938C026093C0
:101770008B0230938502209384020895CF93C82F63
:101780002091840230918502809187029091880295
:1017900028173907A9F480918B0290918C029C0143
:1017A000019690938C0280938B02C9010E94C10A1A
:1017B00080E090E00E94FF0910928502109284025E
:1017C0008C2F0E944A098091840290918502019693
:1017D0009093850280938402CF910895DF92EF92D7
:1017E000FF920F931F93CF93DF93DD2480913401F9
:1017F00099278631910509F400C187319105B4F428
:101800008231910509F46FC0833191053CF4803138
:10181000910531F1419709F446C040C184319105E9
:1018200009F48AC045970CF0AFC07FC0893191059B
:1018300009F470C08A31910544F48731910509F4A7
:1018400069C0489709F458C029C18B319105E9F165
:101850008B3191050CF450C04C9709F44DC01EC15A
:1018600082E090E0909331018093300181E00E940A
:101870007F090E94240A80918602882359F08FE90B
:1018800093E00E94A20781E080932F0181B38F7CB7
:10189000806217C089E593E00E94A2078D2D0E9407
:1018A0007F0980EC02C182E090E090933101809347
:1018B0003001D0922F018D2D0E947F0981B38F7C42
:1018C000806181BBD0923501F2C084E090E09093BA
:1018D000310180933001D092350182E0809336014E
:1018E000D0923701E4C082E090E090933101809380
:1018F0003001E1E0DE2E7EC084E090E09093310183
:1019000080933001109235018FEF80933601109251
:101910003701CDC083E090E0909331018093300196
:101920001092350110923601C2C082E090E090938F
:101930003101809330015EC0809135019927982F45
:101940008827209136013327822B932B039690937F
:1019500031018093300121E030E0029728173907E8
:1019600048F44FEFE5E3F1E041932F5F3F4F281735
:101970003907D0F310923501E0913001F091310137
:10198000ED5CFE4F108293C00E94910B80918B0200
:1019900090918C020E948C0A809184029091850221
:1019A0000E94FF09809135019927D82FCC2780917B
:1019B00036019927C82BD92B00E010E00C171D0722
:1019C000C8F45EE3E52E51E0F52EF70181917F0129
:1019D0000E94BE0B809184029091850201969093A3
:1019E0008502809384020E94790E0F5F1F4F0C17AF
:1019F0001D0758F3109235015AC00E94910B809137
:101A00008B0290918C020E948C0A8091350199275B
:101A1000D82FCC27809136019927C82BD92B00E0ED
:101A200010E00C171D0770F536E3E32E31E0F32EBE
:101A300020918402309185028091870290918802E2
:101A40002817390741F40E94910B80918B029091E5
:101A50008C020E948C0A80918402909185029C01E4
:101A600001969093850280938402C9010E94910996
:101A7000F70181937F010E94790E0F5F1F4F0C17B2
:101A80001D07B0F22396D0933101C0933001239704
:101A900010923501CC5CDE4F1A8209C081E090E0E3
:101AA000909331018093300189EC809335010E943D
:101AB0009F0DDD20D9F085E192E00E94A207C0E0F1
:101AC000D0E08091890290918A0223E096958795D3
:101AD0002A95E1F7C817D90728F4CE010E94630AB6
:101AE0002196EFCF8FE993E00E94A207DF91CF917B
:101AF0001F910F91FF90EF90DF9008956BE180911F
:101B0000320168272091300130913101832F9927CC
:101B100068278091300168278EE0682740E050E018
:101B20004217530748F4E4E3F1E0819168274F5FDF
:101B30005F4F42175307C8F3862F992708950F93D5
:101B40001F93CF93DF938BE10E9492088091320123
:101B50000E949208809131010E9492088091300188
:101B60000E9492088EE00E949208C0E0D0E080912E
:101B7000300190913101C817D90778F404E311E0DE
:101B8000F80181918F010E94920821968091300185
:101B900090913101C817D90798F30E947E0D0E94D9
:101BA0009208809132019091330101969093330114
:101BB00080933201DF91CF911F910F910895209171
:101BC000350183E090E090933101809330011092D1
:101BD0003501E22FFF27E839F105ACF4E639F105CC
:101BE0000CF06DC0E138F105F9F0E238F10524F4AC
:101BF000E038F105B9F071C0CF01805990400397EA
:101C000008F06BC013C0EE39F10509F43DC0EF399F
:101C1000F10524F4E839F105F9F05FC0EF39F10579
:101C200049F05BC083E038C081E036C0E55DFC4F21
:101C3000849132C080913401833019F480912A015B
:101C40002BC082E090E0909331018093300180912D
:101C5000360180932A014AC080913401833019F4FF
:101C600080E291E017C082E090E090933101809390
:101C700030016091360180E291E00E946708809116
:101C800036010E94150932C080913401833039F445
:101C900082E291E00E945C088093360127C082E0D6
:101CA00090E090933101809330016091360182E29F
:101CB00091E00E94670881E00E940E0317C08091A6
:101CC0003401833019F41092360110C082E090E0A4
:101CD000909331018093300109C082E090E09093AD
:101CE00031018093300180EC809335010E949F0D7B
:101CF000089580912B0190912C01A0912D01B0911C
:101D00002E010196A11DB11D80932B0190932C01F2
:101D1000A0932D01B0932E01089580912B019091F5
:101D20002C01A0912D01B0912E01B7FF1EC08DE4B2
:101D30000E944A0980E00E944A0980912D010E9478
:101D40004A0980E00E944A0980912B0190912C0160
:101D5000A0912D01B0912E01BF7780932B0190931C
:101D60002C01A0932D01B0932E010895EF92FF92C4
:101D70000F931F93CF93C0E0EE24FF248091C10006
:101D8000807888618093C10085E192E00E94A2077B
:101D90000E94CD060E940E0B0E94810BC0932F0162
:101DA00010922B0110922C0110922D0110922E01F5
:101DB00080912801813011F4C9E005C0CC2319F0CD
:101DC00083E0809381008C2F99278430910509F45A
:101DD00073C08530910594F48130910509F452C0A7
:101DE000823091051CF4892BB1F1E2CF823091054C
:101DF00009F44EC0039709F454C0DACF8730910537
:101E000009F48BC08830910544F48530910509F4BC
:101E100068C0069709F46DC0CBCF8830910579F082
:101E2000099731F682E090E0909331018093300180
:101E300080EC80933501109228010E949F0D0E9432
:101E40000E0B1092810010922901109285001092C1
:101E50008400C0E0ADCF8091D1028111C1E0F29B3E
:101E6000A7CF80912F01882309F0A2CF8091C100D4
:101E700080788093C10080E88093610083E0809344
:101E80006100D4C00E94A9088B3189F5C2E090CFCF
:101E90000E94A90899279093330180933201C3E0EF
:101EA00087CF0E94A9089927982F882790933101FE
:101EB00080933001C4E07CCF0E94A908282F3327EB
:101EC0008091300190913101822B932B90933101BD
:101ED000809330018351914050F4C5E0EE24FF24FB
:101EE00067CF0E94A9088E3011F4C6E061CFC9E027
:101EF0005FCF8091300190913101E816F90611F41D
:101F0000C7E056CF87010C5C1E4F0894E11CF11C02
:101F10000E94A908F80180834BCF0E947E0D182FE4
:101F20000E94A908181709F074C0809134019927FC
:101F3000843091053CF4823091050CF061C001972A
:101F400039F061C086309105E9F0079799F05BC0E0
:101F50008BE090E09093310180933001A4E3B1E0F5
:101F6000E0EBF3E09AE084918D939150319697FFE6
:101F7000FACF58C082E090E0909331018093300115
:101F800080EC4EC082E090E090933101809330016C
:101F90000E948D0E809135019927AA27BB27B82F63
:101FA000AA279927882720913601332744275527C8
:101FB000A90133272227822B932BA42BB52B209109
:101FC0003701332744275527542F432F322F2227F9
:101FD000822B932BA42BB52B209138013327442738
:101FE0005527822B932BA42BB52B80932B019093F9
:101FF0002C01A0932D01B0932E011092350112C037
:102000000E94DF0D11C0E0912401F0912501099596
:102010000BC082E090E0909331018093300181EC1D
:10202000809335010E949F0DC8E0C2CECF911F91D1
:102030000F91FF90EF9008950F931F93CF931091FE
:102040003901C0913801809136010E94FC028C2F29
:102050008150843608F0C8E1C150CF3F09F43FC039
:1020600080913C010E944A09812F0E94FC028091CC
:102070003D010E944A09812F0E94FC0280913E018D
:102080000E944A09082F812F0E94FC0280913B0187
:10209000833029F480913F010E944A0905C0809154
:1020A0003F010E944A09082F80913B01882321F0BB
:1020B00080913A01081769F4812F0E94FC0281E0A7
:1020C00080932F0181B38F7C806281BB1092350198
:1020D0000DC0812F0E94FC020E946B09BDCF81B30D
:1020E0008F7C806181BB80EC80933501CF911F9103
:1020F0000F9108951F93CF93DF93EB01992780FFF2
:1021000008C08077907034E0959587953A95E1F70F
:1021100004C08E7090709595879599278770907000
:102120008230910519F00497E1F026C010913B012F
:1021300080913401833139F4812F9927C0FD886063
:10214000182FD695C795812F0E944A09CE010E946B
:102150005D0980E00E944A0990913C01891799F33A
:102160000FC080E090EF0E945D0980E090E00E9447
:102170005D0980FDF6CF04C0809138010E94FC0209
:10218000DF91CF911F9108956F927F929F92AF92AE
:10219000BF92CF92DF92EF92FF920F931F93CF9354
:1021A000DF9300E010E090903701C090390160901B
:1021B0002B0170902C01809135019927B82EAA240B
:1021C000809136019927A82AB92A90FE62C0780129
:1021D0000A151B0508F046C0CEE3D1E0D9908091E6
:1021E0003401833131F48C2D9927E0FE03C08860DF
:1021F00001C08C2D0E944A0980912B0190912C01E5
:102200000E945D098D2D0E944A0901151105D9F41E
:1022100080913C018D15B9F090913401933131F0EA
:10222000953189F480913D018D1569F000912B0164
:1022300010912C01933139F4000F111FC7018170E7
:102240009070080F191FE0FC04C0809134018531A3
:1022500011F40E94790E0894E11CF11CEA14FB04AD
:1022600008F4BCCFC92D97FE69C080913A010E9445
:102270004A09C3010E945D0980E00E944A090115D4
:10228000110511F4CF78C061B8018C2F0E947A102B
:1022900055C078010A151B0508F050C05EE3652E95
:1022A00051E0752EF301D1903F01809134018331CB
:1022B00031F48C2D9927E0FE03C0886001C08C2D7D
:1022C0000E944A0980912B0190912C010E945D0986
:1022D0008D2D0E944A09C92D80913C018D15C1F0B8
:1022E00090913401933131F0953191F480913D0119
:1022F0008D1571F000912B0110912C01933159F43F
:10230000000F111FC70181709070080F191F03C0C3
:10231000C92DC17FC260E0FC04C0809134018531C9
:1023200011F40E94790EB8018C2F0E947A10089443
:10233000E11CF11CEA14FB0408F4B4CFDF91CF9147
:102340001F910F91FF90EF90DF90CF90BF90AF90D3
:102350009F907F906F900895DF92EF92FF920F937E
:102360001F93CF93DF938091340199278631910594
:1023700009F4FAC08731910594F48231910509F48A
:102380005FC0833191053CF480319105F9F04197AC
:1023900009F43CC03DC1449709F4E6C02EC189311F
:1023A000910509F4CBC08A31910544F48731910538
:1023B00009F4C4C0489709F4A4C02AC18D3191051D
:1023C0000CF49FC04D9709F460C022C182E090E0F8
:1023D000909331018093300180E291E00E945C088B
:1023E0000E94300980E00E940E0381B3806381BBAC
:1023F0000E941C1080912F01882319F089EC93E032
:1024000002C08EEB93E00E94A2070BC182E090E035
:102410009093310180933001809135010E94FC023C
:1024200081B38F7C806181BB10922F0181E00E947B
:102430000E03809136010E94FC020E944009E5C013
:1024400082E090E09093310180933001C3E007E394
:1024500011E0F80181918F010E944A09C150C7FF24
:10246000F8CF80913601882359F080E090EF0E94E8
:102470005D0980E090E00E945D0980FDF6CFC5C057
:10248000809135010E94FC02C0C0E09036018E2D83
:102490009927039690933101809330010091350183
:1024A000F0903701C1E012E0C017A8F4E12FFF2738
:1024B000EC5CFE4F83810E944A091E1540F0CF1547
:1024C00030F4EC2FFF27EC5CFE4F8283CF5F812F2F
:1024D0001F5F801758F38C2FCF5F8F1550F40C2F90
:1024E00011270C5C1E4F80E00E944A09F80182838C
:1024F000F2CF10923501EC2FFF27EC5CFE4F1382D8
:1025000090C084E090E09093310180933001C1E06D
:1025100006E311E0F80181918F010E944A09982F8A
:1025200080913501C81711F490933601CF5FC53003
:1025300088F3109235011092370173C083E090E068
:10254000909331018093300105E311E0C3E0F8017D
:1025500081918F010E944A09C150C7FFF8CF1092A4
:102560003501109236015DC0D09037018091350160
:102570009927D82FCC27809136019927C82BD92BA2
:102580002396D0933101C0933001239700E010E0EF
:102590000C171D0760F586E3E82E81E0F82E809188
:1025A0003401843131F48D2D992700FF03C08860F8
:1025B00001C08D2D0E944A0980912B0190912C0120
:1025C0000E945D0980E00E944A09F701808300FDB6
:1025D00004C080913401863111F40E94790E0F5F9E
:1025E0001F4F0894E11CF11C0C171D07C0F210923C
:1025F0003501CC5CDE4F1A8214C00E94C41082E008
:1026000090E090933101809330011092350109C020
:1026100081E090E0909331018093300189EC8093C8
:1026200035010E949F0DDF91CF911F910F91FF9077
:10263000EF90DF900895EF92FF920F931F93CF9347
:10264000DF93CDB7DEB722970FB6F894DEBF0FBE8B
:10265000CDBF813029F4809116019091170104C0FB
:1026600080911401909115019A838983CE0101967E
:102670000E945C089927AA27BB27182F0027FF2450
:10268000EE2489819A8101969A838983CE010196ED
:102690000E945C089927AA27BB27DC019927882775
:1026A000E82AF92A0A2B1B2B89819A8101969A83A1
:1026B0008983CE0101960E945C089927AA27BB272F
:1026C000BA2FA92F982F8827E82AF92A0A2B1B2B23
:1026D00089819A8101969A838983CE0101960E940D
:1026E0005C089927AA27BB27E82AF92A0A2B1B2B63
:1026F0008FEFE8168FEFF8068FEF08078FEF1807B8
:1027000019F4EE24FF248701C801B70122960FB601
:10271000F894DEBF0FBECDBFDF91CF911F910F9117
:10272000FF90EF90089580934A0210924802109211
:10273000470220912B0130912C0140912D015091A5
:102740002E01813039F4DA01C901880F991FAA1FBF
:10275000BB1F06C0DA01C90180509C4FAB4FBF4F71
:1027600010928C0210928B02883021E0920720E0B8
:10277000A20720E0B207A0F020E030E088509140AE
:10278000A040B0402F5F3F4F883041E0940740E0C9
:10279000A40740E0B40790F730938C0220938B029B
:1027A00090938502809384020895CF93C82F8091DF
:1027B00084029091850288509140A9F480918B0207
:1027C00090918C029C01019690938C0280938B02D5
:1027D000C9010E94C10A80E090E00E94FF091092A6
:1027E0008502109284028C2F0E94E5088091840259
:1027F0009091850201969093850280938402809146
:1028000047029091480201969093480280934702B4
:10281000CF910895EF92FF920F931F93CF93DF9381
:10282000CDB7DEB722970FB6F894DEBF0FBECDBF8F
:1028300080914902813009F06DC0809184029091AD
:102840008502892B31F080918B0290918C020E943D
:10285000C10A80918B0290918C02AA27BB27BC01F0
:10286000CD0128E031E040E050E00E94121B7B01E6
:102870008C018091840290918502AA27BB27E80EE3
:10288000F91E0A1F1B1F80914A02813039F4809182
:102890001601909117019A8389830EC080911401CB
:1028A000909115019A83898380E09CEFABEFBFEF95
:1028B000E80EF91E0A1F1B1F812F9927AA27BB2785
:1028C000682FCE0101960E94670889819A8101963E
:1028D0009A838983C801AA27BB27682FCE01019656
:1028E0000E94670889819A8101969A838983BB2710
:1028F000A12F902F8F2D682FCE0101960E9467087F
:1029000089819A8101969A8389836E2DCE010196E1
:102910000E94670822960FB6F894DEBF0FBECDBFA7
:10292000DF91CF911F910F91FF90EF900895CF937A
:10293000DF93CDB7DEB722970FB6F894DEBF0FBE98
:10294000CDBF809149028330A9F480914A02823040
:1029500029F4809110019091110104C080910E0121
:1029600090910F019A83898360918402CE01019630
:102970000E94670822960FB6F894DEBF0FBECDBF47
:10298000DF91CF910895AF92BF92CF92DF92EF92F5
:10299000FF920F931F93CF93DF93CDB7DEB72297AC
:1029A0000FB6F894DEBF0FBECDBF40913401842F27
:1029B00099278631910509F41AC28731910594F45B
:1029C0008231910509F472C0833191053CF4803164
:1029D000910519F1419709F449C07DC2449709F462
:1029E00006C273C18931910509F413C18A31910579
:1029F00044F48731910509F40CC1489709F4A5C046
:102A00006AC28B31910509F445C08B3191050CF4F4
:102A10009CC04C9709F48CC05EC282E090E0909319
:102A200031018093300180911201909113019A83BA
:102A30008983F4E3EF2EF1E0FF2E1BE0F7016191B3
:102A40007F01CE0101960E94670889819A810196D3
:102A50009A838983115017FFF1CF81E080932F0172
:102A60001092490281B38F7C806212C082E090E0B4
:102A700090933101809330010E940A140E949714B0
:102A800010922F0180E00E947F0981B38F7C8061CA
:102A900081BBAAC184E090E0909331018093300122
:102AA0001092350181E0809336014CC082E090E0C5
:102AB0009093310180933001809118019091190118
:102AC0009A838983E5E3EE2EE1E0FE2E15E0F7011F
:102AD00061917F01CE0101960E94670889819A81E8
:102AE00001969A838983115017FFF1CF80911601C7
:102AF000909117019A83898310E0143031F480910A
:102B00001401909115019A83898360E0CE010196AA
:102B10000E94670889819A8101969A8389831F5F41
:102B2000183058F361E08AE191E00E9467085CC1C7
:102B300084E090E090933101809330011092350150
:102B40001092360110923701CFC184E090E090934B
:102B500031018093300180914902843059F00E9404
:102B60000A140E949714109285021092840284E045
:102B70008093490280913401883129F480911001B9
:102B80009091110104C080910E0190910F019A83E0
:102B90008983CE0101960E945C08992720918402C6
:102BA000309185028217930710F48FEF22C0A9019C
:102BB000440F551F440F551F80913501282F33278F
:102BC0002150304080913401883129F480910C01EA
:102BD00090910D0104C080910A0190910B01840F26
:102BE000951F820F931F9A838983CE0101960E94BD
:102BF0005C08809336011092350110923701809164
:102C000084029091850201969093850280938402BC
:102C10006BC183E090E0909331018093300180910B
:102C20004902833039F083E0809349021092850293
:102C3000109284022091840230918502473171F410
:102C4000220F331F220F331F80910C0190910D0131
:102C5000820F931F9A83898382E00DC0220F331F56
:102C6000220F331F80910A0190910B01820F931F55
:102C70009A83898383E080934A02809184029091B1
:102C800085020A97E8F445E3E42E41E0F42E13E0D0
:102C9000F70161917F01CE0101960E946708898149
:102CA0009A8101969A838983115017FFF1CF809101
:102CB000840290918502019690938502809384020C
:102CC00010923501109236010FC182E090E090938E
:102CD00031018093300180914902813081F143318B
:102CE00041F480911E0190911F019A83898381E0B4
:102CF00007C080911C0190911D019A83898380E017
:102D00000E94931380918402909185020E94FF0992
:102D100081E08093490235E3E32E31E0F32E18E0A1
:102D2000F70161917F01CE0101960E9467088981B8
:102D30009A8101969A838983115017FFF1CF809170
:102D400035019927182F0027809136019927082BE4
:102D5000192BEE24FF24E016F10678F48EE3C82E3A
:102D600081E0D82EF60181916F010E94D51308945D
:102D7000E11CF11CE016F106A8F3409147025091C6
:102D8000480257FD31C08091370187FF2DC04115A2
:102D9000510551F180914A02813029F420910801B6
:102DA0003091090104C020910601309107013A8356
:102DB0002983852F9927682FCE0101960E946708E5
:102DC00089819A8101969A83898360914702CE0115
:102DD00001960E946708809147029091480290688E
:102DE0009093480280934702109235017DC08091F4
:102DF0004902823011F10E940A140E94971490E057
:102E000080913401843109F491E0892F0E94931359
:102E1000609184027091850280918B0290918C0266
:102E20000E94BD0982E08093490210922B0110920A
:102E30002C0110922D0110922E01809135019927BD
:102E4000182F0027809136019927082B192B90E025
:102E500080913401843109F491E0892F0E941B1381
:102E6000DC01CB016C01EE24FF24E016F10620F515
:102E7000F6E3AF2EF1E0BF2E96014427552780914F
:102E80002B0190912C01A0912D01B0912E01821760
:102E90009307A407B50720F480E00E94E50801C06D
:102EA0008FEFF50181935F010E94790E0894E11C78
:102EB000F11CE016F10600F30D5F1F4F1093310176
:102EC0000093300103501040109235010C5C1E4FEE
:102ED000F801128209C081E090E090933101809363
:102EE000300189EC809335010E949F0D22960FB628
:102EF000F894DEBF0FBECDBFDF91CF911F910F9130
:102F0000FF90EF90DF90CF90BF90AF9008950F9318
:102F10001F93CF93DF93CDB7DEB722970FB6F89408
:102F2000DEBF0FBECDBF082F823029F48091100183
:102F30009091110104C080910E0190910F019A832C
:102F40008983CE0101960E945C08182F023029F473
:102F500080910C0190910D0104C080910A01909123
:102F60000B019A83898311501F3FB1F003E0CE011A
:102F700001960E945C080E944A0989819A81019603
:102F80009A838983015007FFF2CF112319F085E05E
:102F90000E941A02115050F722960FB6F894DEBF25
:102FA0000FBECDBFDF91CF911F910F9108950F9369
:102FB0001F93CF93DF93CDB7DEB722970FB6F89468
:102FC000DEBF0FBECDBF809118019091190102960E
:102FD0009A83898313E0CE0101960E945C080E94C7
:102FE0004A0989819A8101969A838983115017FF32
:102FF000F2CF00911801109119010F5F1F4F1A8332
:10300000098301501040CE0101960E945C0888237C
:1030100059F080E090EF0E945D0980E090E00E940E
:103020005D0980FDF6CF08C01A830983CE010196A1
:103030000E945C080E94FC0222960FB6F894DEBF44
:103040000FBECDBFDF91CF911F910F9108952F92A9
:103050003F924F925F926F927F928F929F92AF9228
:10306000BF92CF92DF92EF92FF920F931F93CF9375
:10307000DF93CDB7DEB723970FB6F894DEBF0FBE50
:10308000CDBF182F8824992454010E941B131B01C3
:103090002C011B82113029F48091080190910901C3
:1030A00004C080910601909107019A838983CE0123
:1030B00001960E945C089927782E662489819A815E
:1030C00001969A838983CE0101960E945C08992714
:1030D000682A792A10922B0110922C0110922D014E
:1030E00010922E01113069F480911E0190911F0100
:1030F0009A83898360E070E0CB010E94BD0983E17F
:103100000DC080911C0190911D019A83898360EE0E
:1031100070E084EE93E00E94BD0985E18093340164
:10312000F5E3EF2EF1E0FF2E18E0CE0101960E94AC
:103130005C08F70181937F0189819A8101969A83C6
:103140008983115017FFF1CF809135019927D82E2F
:10315000CC24809136019927C82AD92A8214930455
:10316000A404B50408F0B7C020913701822F992735
:10317000AC014170507080FF58C0F1EA6F167104C5
:1031800088F18B81882349F470EAC72ED12C2F77E0
:1031900020933701E1E0EB830AC060E6C62E6FEFB3
:1031A000D62EC60CD71C2068209337011B8200E066
:1031B00010E00C151D0578F45EE3E52E51E0F52EC8
:1031C00080E00E94E508F70181937F010F5F1F4FA8
:1031D0000C151D05A8F38D2D992780933501C092FC
:1031E00036014BC000E010E00615170578F43EE309
:1031F000E32E31E0F32E80E00E94E508F701819391
:103200007F010F5F1F4F06151705A8F3872D99271C
:1032100080933501609236018091370180688093F8
:103220003701C301AA27BB272BC0C601AA27BB278A
:10323000880D991DAA1DBB1D281639064A065B0676
:1032400048F46101C818D9088D2D9927809335015C
:10325000C09236018A014C155D0578F48EE3E82EA4
:1032600081E0F82E80E00E94E508F70181937F015C
:103270000F5F1F4F0C151D05A8F3C601AA27BB271A
:10328000880E991EAA1EBB1E81149104E1F4E12C44
:10329000F12CBFEF0B2F112DE820F9200A211B2163
:1032A000E114F1040105110571F08DE40E944A0951
:1032B00080E00E944A09C801AA27BB270E944A0948
:1032C00080E00E944A090E94C41082149304A4045E
:1032D000B50408F449CF23960FB6F894DEBF0FBEAD
:1032E000CDBFDF91CF911F910F91FF90EF90DF90B5
:1032F000CF90BF90AF909F908F907F906F905F9096
:103300004F903F902F9008951F93CF93DF93CDB7A9
:10331000DEB72E970FB6F894DEBF0FBECDBF10E01C
:1033200081E08EBB8EB38823E9F3F69B06C01123A0
:1033300011F413E00CC011500AC0F79B06C0133003
:1033400011F410E004C01F5F02C0F29953C0812F36
:10335000992781309105A1F0823091051CF4892BC9
:1033600039F041C08230910501F1039739F13BC03A
:1033700069ED73E0CE0101960E94D61A81E007C084
:103380006FED73E0CE0101960E94D61A80E00E9494
:103390001B13DC01CB012AE030E0AE014A5F5F4F36
:1033A000BC01CD010E94DD1A1EC065EE73E0CE01A6
:1033B00001960E94D61A80E191E008C06BEE73E09E
:1033C000CE0101960E94D61A8EE091E00E945C0820
:1033D0008F3F11F0992702C080E090E0BE016A5F44
:1033E0007F4F0E942903CE0101960E9461070E942F
:1033F0002C0298CF2E960FB6F894DEBF0FBECDBF2D
:10340000DF91CF911F910895AF92BF92DF92EF921B
:10341000FF920F931F93CF93DF93CDB7DEB76997DA
:103420000FB6F894DEBF0FBECDBF80E48E8B86E171
:10343000A82EB12CAC0EBD1E88E28F8B83E2888F44
:1034400089E2898F81E00E941B137B018C01DD24BE
:1034500081B3806381BB8091D2029091D302A0910D
:10346000D402B091D5028E159F05A007B10708F0D0
:1034700043C080E00E94E508F501ED0DF11DD394F5
:103480009081891721F584E0D81611F5FF2400E01A
:1034900010E080E00E94E5089E012F5F3F4FF80199
:1034A000E20FF31F8083882331F0F3940F5F1F4FE7
:1034B00083E18F1570F71D8A81E080934B02C9016B
:1034C0000E94610781B38F7C806181BB31C0DD24A4
:1034D0008091D2029091D302A091D402B091D502F2
:1034E0000196A11DB11D8093D2029093D302A093A7
:1034F000D402B093D502B7CF60E070E0CB010E9458
:10350000BD091092D2021092D3021092D4021092EE
:10351000D50280914B02882349F481B38F7C80616E
:1035200081BB81EF93E00E94630302C00E94041AF2
:1035300069960FB6F894DEBF0FBECDBFDF91CF9175
:103540001F910F91FF90EF90DF90BF90AF90089583
:1035500060E070E0CB010E94BD0910924B02109216
:10356000D2021092D3021092D4021092D5020E947D
:10357000041A80914B02882371F08EB38823E9F3FB
:10358000F79B03C00E94041A02C0F29903C00E9474
:103590002C02F3CF80E00E947F0908950C948903E8
:1035A0008F938BE58093B8008F911895FB01DC0118
:1035B00005900D920020E1F70895FA01CF93FF9353
:1035C000EF932230CCF02532BCF4C22F2C2F3327BE
:1035D00044275527FF93EF930E94311BEF91FF91F2
:1035E000605D6A330CF0695D6193B901CA01605096
:1035F00070408040904051F710828F919F91CF9101
:103600000C94021BDC01FC0101900020E9F73297C9
:10361000AE17BF0730F47C916081708331976D9352
:10362000F7CF0895629FD001739FF001829FE00D54
:10363000F11D649FE00DF11D929FF00D839FF00D31
:10364000749FF00D659FF00D9927729FB00DE11DDD
:10365000F91F639FB00DE11DF91FBD01CF011124BA
:103660000895A1E21A2EAA1BBB1BFD010DC0AA1FC3
:10367000BB1FEE1FFF1FA217B307E407F50720F0DB
:10368000A21BB30BE40BF50B661F771F881F991F56
:103690001A9469F760957095809590959B01AC019F
:0636A000BD01CF010895F9
:1036A600E508FF01840083008100590031003000E5
:1036B6002F0023001F001B00150014000B00020042
:0636C60001000000AC1140
:00000001FF
