:100000000C9408020C9423020C94241B0C948E0371
:100010000C9423020C9483070C9423020C94230267
:100020000C9423020C94E00B0C94261B0C942302DA
:100030000C9423020C940A090C9423020C942302BE
:100040000C9423020C944F090C9423020C94230269
:100050000C9423020C9423020C9440086F0060005F
:100060005649455720444154412054414753005379
:10007000544F524147452053495A455300A30099D4
:10008000008F00850032313036353120485A00313A
:10009000313334323720485A00203836373338204D
:1000A000485A0020353731353320485A0016010AA6
:1000B00001FA00EA00DA00C600BB00455241534590
:1000C000204F4E4C59004655534520414E44204C3C
:1000D0004F434B204259544553004C4F434B204211
:1000E00059544553204F4E4C5900465553452042D4
:1000F00059544553204F4E4C5900444154412041DE
:100100004E4420454550524F4D00454550524F4DAD
:10011000204F4E4C590044415441204F4E4C590001
:1001200031067D067B05D005D705240788017A01B5
:100130006D015E014B0138014A554D5020544F204E
:10014000424F4F544C4F41444552004D414E554152
:100150004C2043414C4942524154494F4E00415575
:10016000544F2043414C49425241544500434C4571
:100170004152204D454D4F52590053455420535044
:10018000492053504545440053455420434F4E5455
:100190005241535400DF0355051004EC03AA03B287
:1001A00006EC01E101D501C101B801AD01534C4597
:1001B0004550204D4F44450053455454494E4753F4
:1001C0000044415441464C415348205052474D2031
:1001D0004D4F44450050524F4752414D20415652D9
:1001E0000053544F5245205052474D0041565249FA
:1001F0005350204D4F44450023021E020F020002BF
:100200003C433E2032303036202D2047504C0042B7
:1002100059204445414E2043414D455241005631FD
:100220002D3300425554544C4F4144002A57414904
:10023000542A00402823294259204445414E204356
:10024000414D4552410040282329425554544C4FBA
:10025000414420415652495350005052473E2000DD
:10026000424144495352004E4F204552415345208C
:10027000434D44004E4F2044415441004E4F2045D1
:100280004550524F4D004E4F204655534520425940
:10029000544553004E4F204C4F434B204259544538
:1002A000530050524F4752414D4D494E4720444F05
:1002B0004E45004641494C4544002A53544F524153
:1002C0004745204D4F44452A00434F4E4649524D25
:1002D000003C4E20593E004D454D20434C45415277
:1002E0004544004E4F2053544F52454420505247EE
:1002F0004D002A4A544147204F4E2A00A8EA802A3E
:100300000040000A510A084059551801111E111BDE
:10031000500B411B411F1101511F511B00000000D8
:100320000880001A204000000000510F913941144C
:100330009131411E410E411D500F802010154886FD
:100340004014780570855115510E5195518E2190AC
:1003500081205015484450C528C028200950411418
:10036000208011110000001003800254014000227F
:1003700044415441464C415348204552524F52004B
:10038000F900F101E103103E840F840F081F081FDC
:1003900008010801080108010801100210022004E8
:1003A00009090909090A0A0B42554646204F5645D4
:1003B00052464C4F57002A44415441464C41534801
:1003C000204D4F44452A00010008415652495350E0
:1003D0005F3202020453594E43204552524F52009D
:1003E0002A4154415652495350204D4F44452A000A
:1003F000444154412D004550524D2D004655534522
:100400002D004C4F434B2D004E4F2054414753007D
:1004100011241FBECFEFD4E0DEBFCDBF11E0A0E0BE
:10042000B1E0E2E5F7E302C005900D92A632B10714
:10043000D9F712E0A6E2B1E001C01D92A63DB107D6
:10044000E1F70C9469020C94A503CF93DF93282F56
:1004500021502F3F49F0A0E0B8E4C0E0D0E0CD014A
:100460000197F1F72150D8F7DF91CF9108958EB31E
:100470008823E9F781E00E9425028EB38823B9F72B
:100480000895CF93C0E081E08EBB8EB38823E9F35B
:10049000F69B06C0CC2311F4C3E00CC0C1500AC0C7
:1004A000F79B06C0C33011F4C0E004C0CF5F02C0A8
:1004B000F2990DC0EC2FFF27EE0FFF1FE850FE4F03
:1004C000859194910E94F7070E943702DECFCF9169
:1004D0000895CDEFD4E0DEBFCDBF10E080E885BF4A
:1004E00085BF80BF85E08093640080E380BB87E2A6
:1004F00084B98FED85B98CE08EB980936B0080ED67
:1005000080936C0080EC8DBB8CBB81B38F7C806250
:1005100081BB82E091E00E94B1088A3709F120E0B6
:1005200030E03A83298380910201909103012817DA
:10053000390788F46FEFCE0101960E94BC088981CB
:100540009A8101969A838983209102013091030157
:100550008217930778F36AE782E091E00E94BC0873
:100560000E94A40784E091E00E94B1088F708093FC
:10057000E70078948CE292E00E94F70780E00E9406
:10058000D40981B3806381BB0E94320787E090E089
:100590000E94D40881B38F7C806181BB81E08EBBD7
:1005A0008EB38823E9F3F69B06C0112311F415E0FE
:1005B0001BC0115019C0F79B06C0153011F410E094
:1005C00013C01F5F11C0F49B0BC0E12FFF27EE0F7C
:1005D000FF1FEB56FE4F85919491FC01099504C0D5
:1005E000F39B02C00E944102E12FFF27EE0FFF1F85
:1005F000EF55FE4F859194910E94F7070E943702B4
:10060000CFCFCF93DF93282F21502F3F49F0A3E383
:10061000B7E0C0E0D0E0CD010197F1F72150D8F765
:10062000DF91CF910895992781309105A9F082300B
:1006300091051CF4892B21F00895029751F008953B
:10064000869A82E291E00E94B108882319F48E9A7A
:100650000895869A8E9808958698FCCFFB0120E035
:100660008436910520F02F5F84569040F9CF205DAD
:10067000219320E08A30910518F02F5F0A97FACF76
:10068000205D2193805D8193108208951F93CF9305
:10069000DF93CDB7DEB727970FB6F894DEBF0FBE56
:1006A000CDBF182F6AE572E0CE0101960E942C1B87
:1006B0001E831F82CE0101960E94B60727960FB6B1
:1006C000F894DEBF0FBECDBFDF91CF911F9108958B
:1006D000CF93DF93CDB7DEB764970FB6F894DEBF44
:1006E0000FBECDBF25E429832EE32A83BC01CE01B2
:1006F00003960E942C1BCE0101960E94B6070E9411
:100700003702F49BFECF0E94370264960FB6F8942E
:10071000DEBF0FBECDBFDF91CF91089578941F92B9
:100720000F920FB60F9211248F939F9393B19095D0
:10073000907D8CB180958C70982B9EBB9F918F91F2
:100740000F900FBE0F901F90189580E692E00E94C8
:100750006803FFCFCF93C0E081E08EBB8EB38823C8
:10076000E9F3F69B06C0CC2311F4C5E019C0C150D3
:1007700017C0F79B06C0C53011F4C0E011C0CF5FB1
:100780000FC0F49B0BC0EC2FFF27EE0FFF1FE05EA6
:10079000FE4F85919491FC01099502C0F2990DC01C
:1007A000EC2FFF27EE0FFF1FE45DFE4F8591949124
:1007B0000E94F7070E943702D1CFCF91089580EEB3
:1007C00093E00E94F70784E092E1909325018093E3
:1007D00024010E94140F089580E291E00E94B10864
:1007E0000E94850981E0809383028FE999E09093CC
:1007F00001018093000186EB93E00E94F70788E6F1
:100800009CE090932501809324010E94140F80E0C6
:100810000E94D409809164008460809364000895EC
:10082000DF92EF92FF920F931F93CF93DF93CDB799
:10083000DEB765970FB6F894DEBF0FBECDBFDD24DF
:100840000D2D0E943009D09283028AE399E09093A3
:100850000101809300010E94730B882309F417C1E2
:100860000E94370281E08EBB8EB38823E9F3F299B0
:100870000EC1F4991CC0F69B06C0002311F406E0DB
:1008800009C0015007C0F79B05C0063011F400E015
:1008900001C00F5FE02FFF27EE0FFF1FE355FF4F53
:1008A000859194910E94F7070E943702DDCF81B3B2
:1008B000806381BB8CE292E00E94F70780E291E0C6
:1008C0000E94B1080E94850980E00E941303809174
:1008D0001201909113019D8B8C8B54E3E52E51E016
:1008E000F52E1BE0CE0144960E94B108F7018193DA
:1008F0007F018C899D8901969D8B8C8B115017FFF0
:10090000F1CF0E94741010922B0110922C011092C2
:100910002D0110922E0180913501882309F0A2C08B
:10092000063021F0002311F0023091F483E40E949C
:1009300046038AE191E00E94B108813039F042E03B
:10094000D42E87E692E00E94680302C00E942D1810
:10095000002311F00230C1F4DD20B1F484E40E94E0
:10096000460381E00E947313DC01CB010097A105CF
:10097000B10539F433E0D32E84E792E00E94680396
:1009800003C081E00E947D18802F81508230B0F436
:1009900085E40E94460380E00E947313DC01CB01D2
:1009A0000097A105B10539F423E0D22E8CE792E03F
:1009B0000E94680303C080E00E947D18033011F09C
:1009C000053099F486E40E94460380E191E00E949C
:1009D000B108882339F493E0D92E86E892E00E948A
:1009E000680303C082E00E94DD17802F84508230AC
:1009F00000F5053059F481E00E94130381E00E9464
:100A0000250280E00E9413030E9474108CE40E946F
:100A100046038EE091E00E94B108882339F483E018
:100A2000D82E84E992E00E94680303C083E00E940C
:100A3000DD1762EA72E0CE0101960E942C1BDD20D8
:100A400031F063EB72E0CE010D960E942C1BCE01BB
:100A500001960E94B6078FEF0E94250284E60E944D
:100A6000250204C085ED93E00E94680381E00E94A6
:100A700013030E94950980E00E94D40980916400CC
:100A800084608093640081B38F7C806181BB6596B4
:100A90000FB6F894DEBF0FBECDBFDF91CF911F918F
:100AA0000F91FF90EF90DF9008958AE399E0909383
:100AB0000101809300010E9430091092830281E0BD
:100AC0000E94D4090E94730B8823A1F08AEB92E064
:100AD0000E94F7078BE195E1909325018093240113
:100AE0000E94140F80E00E94D40980916400846009
:100AF0008093640008950F931F93CF93DF93CDB736
:100B0000DEB722970FB6F894DEBF0FBECDBF89ECDB
:100B100092E00E94F70784EB0E94250281ED92E0AB
:100B20000E94F7078EB38823E9F38EB399278C01CF
:100B30000470107082FD29C0F39BF4CF0E9437022D
:100B40008CE292E00E94F7071A83098380910201E8
:100B5000909103010817190788F46FEFCE010196F1
:100B60000E94BC0889819A8101969A838983209189
:100B70000201309103018217930778F387ED92E029
:100B80000E94F7078FEF0E94250222960FB6F89475
:100B9000DEBF0FBECDBFDF91CF911F910F910895A2
:100BA0008CE292E00E94F7070E9432070895CF93EB
:100BB000DF93CDB7DEB729970FB6F894DEBF0FBE2F
:100BC000CDBF81E08EBB8091C1008078886080932A
:100BD000C1008091D102882321F00E94BE0B0E94A7
:100BE000E7088EB38823A9F3F69B04C080916600C2
:100BF0008F5F05C0F79B06C080916600815080938F
:100C0000660002C0F2991FC063E272E0CE01019655
:100C10000E942C1BCE0101960E94EF0883E4898379
:100C200086E58A8380E28B8380916600BE016C5FDB
:100C30007F4F99270E942E03CE0101960E94B6078E
:100C40000E943702C6CF8091C10080788093C10096
:100C500029960FB6F894DEBF0FBECDBFDF91CF91BE
:100C600008951F93CF93DF93CDB7DEB726970FB6C6
:100C7000F894DEBF0FBECDBF84E091E00E94B108C2
:100C8000182F1F7081E08EBB8EB38823E9F3F69B8B
:100C900004C01F3080F41F5F0EC0F79B04C01230E9
:100CA00050F0115008C0F29B06C0612F84E091E023
:100CB0000E94BC0818C083E4898384E58A8380E2AB
:100CC0008B83BE016C5F7F4F812F99270E942E037B
:100CD000CE0101960E94B607812F8F708093E700A6
:100CE0000E943702D1CF26960FB6F894DEBF0FBE12
:100CF000CDBFDF91CF911F910895CF9381E08EBB3F
:100D000080E291E00E94B108C82F843008F0C0E072
:100D10008EB38823E9F3F69B06C0CC2311F4C3E01D
:100D200012C0C15010C0F79B06C0C33011F4C0E020
:100D30000AC0CF5F08C0F29B06C06C2F80E291E032
:100D40000E94BC080DC0EC2FFF27EE0FFF1FE358D9
:100D5000FF4F859194910E94F7070E943702D8CFE8
:100D6000CF91089585E083BF8091E4008F778093D1
:100D7000E400F69903C08895F69BFDCF8091E400CE
:100D800080688093E4008CE292E00E94F7070E9462
:100D900032070E94370208951F93CF9310E00E94FC
:100DA000370281E08EBB8EB38823E9F3CEB3C07CDB
:100DB00019F081E0182738C0F29943C0F49B34C081
:100DC000113081F58AE399E090930101809300014D
:100DD0000E943009C0938302812F0E94D4090E948F
:100DE000730BC82F882341F00E94FE1A8091640083
:100DF00084608093640018C0812F0E947313DC010B
:100E0000CB010097A105B10579F48C2F0E94D4097C
:100E10008091640084608093640083EE92E00E947D
:100E2000680302C00E94DA19E12FFF27EE0FFF1FAF
:100E3000E45AFF4F859194910E94F7070E94370270
:100E4000B2CFCF911F91089585B78F7785BF85BFAA
:100E500082EF92E00E94F7070E94370288E18093B8
:100E60006000FFCF80E880936100109261008FE303
:100E7000809366003FB710926F0088E08093B600C1
:100E800081E0809370007894809381008093B0001B
:100E90008091B6009927877090700097C9F790935A
:100EA0008500809384001092B2002FE3FC01CF01F3
:100EB0000197F1F780912601909127018150914E81
:100EC00020F08091660081500AC0809126019091A7
:100ED0002701865F904E40F4809166008F5F8F7788
:100EE00080936600215018F710926F0010927000E6
:100EF000109281001092B0008091B600877F80939D
:100F0000B6003FBF08951F920F920FB60F921124A3
:100F10008F939F931092810080918400909185001F
:100F200090932701809326011092850010928400EF
:100F30001092B20081E0809381009F918F910F9079
:100F40000FBE0F901F9018958FE08093E70087EBFE
:100F50008093E50087E08093E60080EC8093E400D6
:100F60008091E40088608093E4000895CF93DF933C
:100F7000EC0120E03FEFEFE4F2E0DF018991982FF0
:100F80009A52913538F4803211F0892F01C08FEFD9
:100F90008C9303C0882331F030832F5F11963196F4
:100FA000243160F380E0273008F081E080937F02F5
:100FB00010924D029FEF86E0E22FFF27E15BFD4F8D
:100FC00090832F5F815087FFF7CFE22FFF27E15BF0
:100FD000FD4F108210924E0220934C028AE08093C3
:100FE000800281E080936A02DF91CF910895CF93D0
:100FF000DF93CDB7DEB764970FB6F894DEBF0FBEB0
:10100000CDBFBC01CE0101960E942C1BCE010196E2
:101010000E94B60764960FB6F894DEBF0FBECDBF30
:10102000DF91CF910895E82F20E030E0862F86955C
:10103000A82FBB27A559BD4FEF3F39F0FF27EE0F73
:10104000FF1FE450FD4F2591349177276170707038
:1010500043E050EF922F9F706115710519F05FE02A
:101060009295907F8C918523892B8C9384E0369583
:1010700027958A95E1F71596415047FFEACF0895E5
:1010800078941F920F920FB60F9211242F933F93D3
:101090004F935F936F937F938F939F93AF93BF9380
:1010A000CF93EF93FF9380917F02882399F08091F3
:1010B0008002882321F08150809380020BC08091B0
:1010C0004D02882321F481E080936A0203C081509D
:1010D00080934D0280916A02882339F1C0E08091AB
:1010E0004E028C0F90914C02E82FFF27891710F0C9
:1010F000E91BF109E15BFD4F80816C2F0E94130811
:10110000CF5FC63060F380914E02982F8F5F80933F
:101110004E0280914C02981719F481E080934E02A0
:1011200083E080934D0210926A02ACEEB0E0EBE6F1
:10113000F2E093E181918D93915097FFFBCFFF9166
:10114000EF91CF91BF91AF919F918F917F916F91CF
:101150005F914F913F912F910F900FBE0F901F9075
:101160001895FC01F8948081918192BD81BDF89A17
:10117000789480B5992708951F93CF93DF93EC015E
:10118000162F0E94B108811759F0F894888199812F
:1011900092BD81BD10BDFA9AF99A7894F999FECF63
:1011A000DF91CF911F9108959C01832F9927809300
:1011B000C5002093C40082E08093C00080E8809343
:1011C000C10086E08093C2000E94880B0895982F8A
:1011D0008091C00085FFFCCF9093C6000895CF9307
:1011E000DF93EC018881882331F089910E94E70820
:1011F00088818823D1F7DF91CF9108958091D10222
:10120000882321F4809128018823C1F30E94BE0B1A
:10121000992708951F920F920FB60F9211242F93C2
:101220003F934F935F936F937F938F939F93AF936E
:10123000BF93EF93FF938091C6000E94950BFF919F
:10124000EF91BF91AF919F918F917F916F915F913E
:101250004F913F912F910F900FBE0F901F901895B7
:10126000809164008B7F8093640081E08DBD8EE56A
:101270008CBD08958EBD0DB407FEFDCF8EB59927A8
:1012800008950F931F938C01812F99270E943A098B
:10129000802F0E943A0999271F910F9108951F925C
:1012A0000F920FB60F9211248F9380916E008D7F55
:1012B00080936E0080E48093B90081E08093810286
:1012C0008091BA00809382028F910F900FBE0F9091
:1012D0001F901895482F90E069E673E09B0121501C
:1012E0003040F9018491841711F0933031F4FB01FF
:1012F000849187BD89E084BD08959F5F2E5F3F4F35
:101300006E5F7F4F943068F308959DB190659DB9ED
:101310006D98759A76989AE59093B8000E946A093C
:10132000109281021092820208958DB18F7A8DB948
:101330008EB18F788EB986988E9814BC08951092CD
:1013400081028093BA00A99A80916E008260809396
:101350006E0016BC809181028823E1F380918202A5
:10136000992708950F931F938C01812F99270E942D
:101370009F09802F0E949F0999271F910F9108951F
:1013800081E00E9401038091B80081608093B800E1
:1013900081E00E9401038091B80081608093B800D1
:1013A00081E00E940103089590918302813031F41D
:1013B000913011F482E005C028980895913021F40D
:1013C000892F0E9413030895289A08950F931F935D
:1013D0008C0180E00E94D409000081E00E94D409C1
:1013E000E0910001F091010184E50995812F992791
:1013F000E0910001F09101010995E0910001F09167
:101400000101802F0995E0910001F091010180E038
:101410000995E0910001F091010180E0099599277B
:101420001F910F910895EF92FF920F931F938C01DC
:101430007B0180E00E94D409000081E00E94D40971
:10144000E0910001F091010188E609958AB59801C3
:1014500002C0369527958A95E2F7C901E09100010F
:10146000F091010109958BB502C0000F111F8A95FB
:10147000E2F78F2D9927E0910001F0910101800F93
:101480000995E0910001F09101018E2D099503E08D
:10149000E0910001F091010180E00995015007FF02
:1014A000F7CF1F910F91FF90EF9008950F931F9327
:1014B0008C0180E00E94D409000081E00E94D409E0
:1014C000E0910001F091010184E80995E0910001AB
:1014D000F091010180E00995812F9927E0910001A9
:1014E000F09101010995E0910001F0910101802F37
:1014F00009951F910F91089580E00E94D409000082
:1015000081E00E94D409E0910001F091010187E59A
:101510000995E0910001F091010180E00995682FA3
:101520007727CB018873907033E0959587953A952E
:10153000E1F79927FC01E056FC4F44914093860265
:101540009C01280F391FF901E057FC4F85919491B8
:101550009093880280938702F901E058FC4F8591AF
:10156000949190938A028093890280E1841B8ABDC2
:1015700048504BBDCB0108950F931F938C0180E021
:101580000E94D409000081E00E94D409E09100018A
:10159000F091010181E809958AB5980102C036955C
:1015A00027958A95E2F7C901E0910001F0910101C8
:1015B00009958BB502C0000F111F8A95E2F7E091E3
:1015C0000001F0910101802F0995E0910001F09157
:1015D000010180E0099580E00E94D409000081E0CB
:1015E0000E94D4090E947C0A8823E4F71F910F917E
:1015F00008950F931F938C0180E00E94D40900008E
:1016000081E00E94D409E0910001F091010183E59D
:1016100009958AB5980102C0369527958A95E2F713
:10162000C901E0910001F091010109958BB502C05B
:10163000000F111F8A95E2F7E0910001F09101017E
:10164000802F0995E0910001F091010180E009955A
:1016500080E00E94D409000081E00E94D4090E9429
:101660007C0A8823E4F71F910F9108950F931F932D
:101670008C0180E00E94D409000081E00E94D4091E
:10168000E0910001F091010183E809958AB5980184
:1016900002C0369527958A95E2F7C901E0910001CD
:1016A000F091010109958BB502C0000F111F8A95B9
:1016B000E2F7E0910001F0910101802F0995E0919E
:1016C0000001F091010180E0099580E00E94D409B9
:1016D000000081E00E94D4090E947C0A8823E4F77C
:1016E0001F910F9108950E947C0A80918602893093
:1016F00061F08091640084608093640080E793E0EF
:101700000E94680380E090E0089581E090E00895F1
:101710008DE892E09093CE028093CD029093D00218
:101720008093CF021092D1020895982F8091D10218
:10173000803429F488EA93E00E9468030895E091D8
:10174000CD02F091CE0290834091CD025091CE0215
:101750009A012F5F3F4F3093CE022093CD028091AC
:10176000D1028F5F8093D1022D5C324031F44F5310
:1017700050405093CE024093CD0208958091D10203
:10178000882319F480E090E008952091CF023091F1
:10179000D002F9019191F093D002E093CF028091B1
:1017A000D10281508093D102ED5CF24031F42F538D
:1017B00030403093D0022093CF02892F992708958B
:1017C00078941F920F920FB60F9211248F938091ED
:1017D00029018F5F8093290180912901873029F4A5
:1017E0001092290181E0809328018F910F900FBE04
:1017F0000F901F9018951092800010928100109207
:10180000290110928500109284001092820081E0DC
:1018100080936F00089520912B0130912C0140910D
:101820002D0150912E0110928C0210928B0280910A
:10183000870290918802AA27BB2782179307A407E3
:10184000B50788F460E070E0281B390B4A0B5B0B8E
:101850006F5F7F4F82179307A407B507A8F37093B4
:101860008C0260938B02309385022093840208954A
:10187000CF93C82F209184023091850280918702F6
:101880009091880228173907A9F480918B029091D2
:101890008C029C01019690938C0280938B02C9016B
:1018A0000E94360B80E090E00E94560A109285025A
:1018B000109284028C2F0E949F0980918402909143
:1018C000850201969093850280938402CF910895BA
:1018D000EF92FF920F931F93CF93DF938091340188
:1018E00099278631910509F404C187319105B4F433
:1018F0008231910509F469C0833191053CF480314E
:10190000910531F1419709F446C044C184319105F4
:1019100009F490C045970CF0B3C085C0893191059A
:1019200009F476C08A31910544F48731910509F4B0
:101930006FC0489709F45EC02DC18B319105D9F174
:101940008B3191050CF456C04C9709F453C022C159
:1019500082E090E0909331018093300181E00E9419
:10196000D4090E947C0AC0918602CC2359F086EBF0
:1019700093E00E94F70781E080932F0181B38F7C71
:10198000806217C080E793E00E94F7078C2F0E94C7
:10199000D40980EC06C182E090E0909331018093FD
:1019A000300110922F0180E00E94D40981B38F7C16
:1019B000806181BB9BC084E090E090933101809373
:1019C00030011092350182E01EC082E090E09093D9
:1019D000310180933001C0E0D0E080918902909184
:1019E0008A02C817D90708F081C0CE010E94BC0A3C
:1019F0002196F3CF84E090E0909331018093300101
:101A0000109235018FEF8093360110923701CBC0D1
:101A100083E090E090933101809330011092350182
:101A200010923601C0C082E090E090933101809323
:101A300030015CC0809135019927382F2227809191
:101A400036019927282B392BF9013396F093310170
:101A5000E093300110923501ED5CFE4F108281E081
:101A600090E0280F391F8217930708F09CC04FEFB2
:101A7000E5E3F1E04193019682179307D8F393C011
:101A80000E940B0C80918B0290918C020E94F90AAB
:101A900080918402909185020E94560A80913501BE
:101AA0009927D82FCC27809136019927C82BD92B7D
:101AB00000E010E00C171D07C8F43EE3E32E31E010
:101AC000F32EF70181917F010E94380C80918402EE
:101AD00090918502019690938502809384020E94E2
:101AE000D70E0F5F1F4F0C171D0758F310923501CB
:101AF0005AC00E940B0C80918B0290918C020E9424
:101B0000F90A809135019927D82FCC278091360189
:101B10009927C82BD92B00E010E00C171D0770F592
:101B200086E3E82E81E0F82E209184023091850230
:101B300080918702909188022817390741F40E940A
:101B40000B0C80918B0290918C020E94F90A80917B
:101B50008402909185029C01019690938502809366
:101B60008402C9010E94E609F70181937F010E9466
:101B7000D70E0F5F1F4F0C171D07B0F22396D0939F
:101B80003101C0933001239710923501CC5CDE4FB8
:101B90001A8209C081E090E0909331018093300176
:101BA00089EC809335010E94FD0DDF91CF911F914B
:101BB0000F91FF90EF9008956BE1809132016827BB
:101BC0002091300130913101832F9927682780912E
:101BD000300168278EE0682740E050E04217530745
:101BE00048F4E4E3F1E0819168274F5F5F4F4217CB
:101BF0005307C8F3862F992708950F931F93CF9308
:101C0000DF938BE10E94E708809132010E94E70890
:101C1000809131010E94E708809130010E94E7081D
:101C20008EE00E94E708C0E0D0E080913001909102
:101C30003101C817D90778F404E311E0F801819164
:101C40008F010E94E7082196809130019091310127
:101C5000C817D90798F30E94DC0D0E94E70880910D
:101C600032019091330101969093330180933201B8
:101C7000DF91CF911F910F9108952091350183E05D
:101C800090E0909331018093300110923501E22F62
:101C9000FF27E839F105ACF4E639F1050CF06DC029
:101CA000E138F105F9F0E238F10524F4E038F10506
:101CB000B9F071C0CF0180599040039708F06BC014
:101CC00013C0EE39F10509F43DC0EF39F10524F4F4
:101CD000E839F105F9F05FC0EF39F10549F05BC073
:101CE00083E038C081E036C0EE5BFC4F849132C0A7
:101CF00080913401833019F480912A012BC082E055
:101D000090E090933101809330018091360180936F
:101D10002A014AC080913401833019F480E291E0B5
:101D200017C082E090E09093310180933001609180
:101D3000360180E291E00E94BC08809136010E9449
:101D40006A0932C080913401833039F482E291E033
:101D50000E94B1088093360127C082E090E0909302
:101D60003101809330016091360182E291E00E945E
:101D7000BC0881E00E94130317C0809134018330B6
:101D800019F41092360110C082E090E09093310176
:101D90008093300109C082E090E0909331018093FC
:101DA000300180EC809335010E94FD0D08958091F3
:101DB0002B0190912C01A0912D01B0912E01019643
:101DC000A11DB11D80932B0190932C01A0932D0197
:101DD000B0932E01089580912B0190912C01A09138
:101DE0002D01B0912E01B7FF1EC08DE40E949F0906
:101DF00080E00E949F0980912D010E949F0980E050
:101E00000E949F0980912B0190912C01A0912D019E
:101E1000B0912E01BF7780932B0190932C01A0935A
:101E20002D01B0932E010895EF92FF920F931F930F
:101E3000CF93C0E0EE24FF248091C10080788861B8
:101E40008093C1000E94880B0E94FB0BC0932F015E
:101E500081E090E0909333018093320110922B0146
:101E600010922C0110922D0110922E0180912801C8
:101E7000813011F4C9E005C0CC2319F083E08093D0
:101E800081008C2F99278430910509F46DC085302D
:101E9000910594F48130910509F44CC0823091058C
:101EA0001CF4892BB1F1E2CF8230910509F448C0CE
:101EB000039709F44EC0DACF8730910509F485C045
:101EC0008830910544F48530910509F462C0069785
:101ED00009F467C0CBCF8830910579F0099731F6C6
:101EE00082E090E0909331018093300180EC809308
:101EF0003501109228010E94FD0D0E94880B10925E
:101F00008100109229011092850010928400C0E097
:101F1000ADCF8091D1028111C1E0F29BA7CF80911A
:101F20002F01882309F0A2CF8091C100807880938F
:101F3000C100D4C00E94FE088B3189F5C2E096CF63
:101F40000E94FE0899279093330180933201C3E0E9
:101F50008DCF0E94FE089927982F882790933101F2
:101F600080933001C4E082CF0E94FE08282F3327DF
:101F70008091300190913101822B932B909331010C
:101F8000809330018351914050F4C5E0EE24FF244A
:101F90006DCF0E94FE088E3011F4C6E067CFC9E015
:101FA00065CF8091300190913101E816F90611F466
:101FB000C7E05CCF87010C5C1E4F0894E11CF11C4C
:101FC0000E94FE08F801808351CF0E94DC0D182F7B
:101FD0000E94FE08181709F074C0809134019927F7
:101FE000843091053CF4823091050CF061C001977A
:101FF00039F061C086309105E9F0079799F05BC030
:102000008BE090E09093310180933001A4E3B1E044
:10201000E7ECF3E09AE084918D939150319697FF2D
:10202000FACF58C082E090E0909331018093300164
:1020300080EC4EC082E090E09093310180933001BB
:102040000E94EB0E809135019927AA27BB27B82F54
:10205000AA27992788272091360133274427552717
:10206000A90133272227822B932BA42BB52B209158
:102070003701332744275527542F432F322F222748
:10208000822B932BA42BB52B209138013327442787
:102090005527822B932BA42BB52B80932B01909348
:1020A0002C01A0932D01B0932E011092350112C086
:1020B0000E943D0E11C0E0912401F0912501099587
:1020C0000BC082E090E0909331018093300181EC6D
:1020D000809335010E94FD0DC8E0C8CECF911F91BD
:1020E0000F91FF90EF9008950F931F93CF9310914E
:1020F0003901C0913801809136010E9401038C2F73
:102100008150843608F0C8E1C150CF3F09F43FC088
:1021100080913C010E949F09812F0E9401038091C0
:102120003D010E949F09812F0E94010380913E0181
:102130000E949F09082F812F0E94010380913B017B
:10214000833029F480913F010E949F0905C080914E
:102150003F010E949F09082F80913B01882321F0B5
:1021600080913A01081769F4812F0E94010381E0F0
:1021700080932F0181B38F7C806281BB10923501E7
:102180000DC0812F0E9401030E94C009BDCF81B301
:102190008F7C806181BB80EC80933501CF911F9152
:1021A0000F9108951F93CF93DF93EB01992780FF41
:1021B00008C08077907034E0959587953A95E1F75F
:1021C00004C08E7090709595879599278770907050
:1021D0008230910519F00497E1F026C010913B017F
:1021E00080913401833139F4812F9927C0FD8860B3
:1021F000182FD695C795812F0E949F09CE010E9466
:10220000B20980E00E949F0990913C01891799F3DF
:102210000FC080E090EF0E94B20980E090E00E9441
:10222000B20980FDF6CF04C0809138010E940103FD
:10223000DF91CF911F9108956F927F929F92AF92FD
:10224000BF92CF92DF92EF92FF920F931F93CF93A3
:10225000DF9300E010E090903701C090390160906A
:102260002B0170902C01809135019927B82EAA245A
:10227000809136019927A82AB92A90FE62C0780178
:102280000A151B0508F046C0CEE3D1E0D990809135
:102290003401833131F48C2D9927E0FE03C088602E
:1022A00001C08C2D0E949F0980912B0190912C01DF
:1022B0000E94B2098D2D0E949F0901151105D9F4C4
:1022C00080913C018D15B9F090913401933131F03A
:1022D000953189F480913D018D1569F000912B01B4
:1022E00010912C01933139F4000F111FC701817037
:1022F0009070080F191FE0FC04C0809134018531F3
:1023000011F40E94D70E0894E11CF11CEA14FB049E
:1023100008F4BCCFC92D97FE69C080913A010E9494
:102320009F09C3010E94B20980E00E949F09011524
:10233000110511F4CF78C061B8018C2F0E94D21022
:1023400055C078010A151B0508F050C05EE3652EE4
:1023500051E0752EF301D1903F018091340183311A
:1023600031F48C2D9927E0FE03C0886001C08C2DCC
:102370000E949F0980912B0190912C010E94B2092B
:102380008D2D0E949F09C92D80913C018D15C1F0B2
:1023900090913401933131F0953191F480913D0168
:1023A0008D1571F000912B0110912C01933159F48E
:1023B000000F111FC70181709070080F191F03C013
:1023C000C92DC17FC260E0FC04C080913401853119
:1023D00011F40E94D70EB8018C2F0E94D2100894DD
:1023E000E11CF11CEA14FB0408F4B4CFDF91CF9197
:1023F0001F910F91FF90EF90DF90CF90BF90AF9023
:102400009F907F906F900895DF92EF92FF920F93CD
:102410001F93CF93DF9380913401992786319105E3
:1024200009F4FAC08731910594F48231910509F4D9
:102430005FC0833191053CF480319105F9F04197FB
:1024400009F43CC03DC1449709F4E6C02EC189316E
:10245000910509F4CBC08A31910544F48731910587
:1024600009F4C4C0489709F4A4C02AC18D3191056C
:102470000CF49FC04D9709F460C022C182E090E047
:10248000909331018093300180E291E00E94B10885
:102490000E94850980E00E94130381B3806381BBA1
:1024A0000E94741080912F01882319F080EE93E030
:1024B00002C085ED93E00E94F7070BC182E090E037
:1024C0009093310180933001809135010E94010386
:1024D00081B38F7C806181BB10922F0181E00E94CB
:1024E0001303809136010E9401030E949509E5C003
:1024F00082E090E09093310180933001C3E007E3E4
:1025000011E0F80181918F010E949F09C150C7FF1E
:10251000F8CF80913601882359F080E090EF0E9437
:10252000B20980E090E00E94B20980FDF6CFC5C0FC
:10253000809135010E940103C0C0E09036018E2DCC
:1025400099270396909331018093300100913501D2
:10255000F0903701C1E012E0C017A8F4E12FFF2787
:10256000EC5CFE4F83810E949F091E1540F0CF1541
:1025700030F4EC2FFF27EC5CFE4F8283CF5F812F7E
:102580001F5F801758F38C2FCF5F8F1550F40C2FDF
:1025900011270C5C1E4F80E00E949F09F801828386
:1025A000F2CF10923501EC2FFF27EC5CFE4F138227
:1025B00090C084E090E09093310180933001C1E0BD
:1025C00006E311E0F80181918F010E949F09982F85
:1025D00080913501C81711F490933601CF5FC53053
:1025E00088F3109235011092370173C083E090E0B8
:1025F000909331018093300105E311E0C3E0F801CD
:1026000081918F010E949F09C150C7FFF8CF10929E
:102610003501109236015DC0D090370180913501AF
:102620009927D82FCC27809136019927C82BD92BF1
:102630002396D0933101C0933001239700E010E03E
:102640000C171D0760F586E3E82E81E0F82E8091D7
:102650003401843131F48D2D992700FF03C0886047
:1026600001C08D2D0E949F0980912B0190912C011A
:102670000E94B20980E00E949F09F701808300FD5B
:1026800004C080913401863111F40E94D70E0F5F8F
:102690001F4F0894E11CF11C0C171D07C0F210928B
:1026A0003501CC5CDE4F1A8214C00E941C1182E0FE
:1026B00090E090933101809330011092350109C070
:1026C00081E090E0909331018093300189EC809318
:1026D00035010E94FD0DDF91CF911F910F91FF9069
:1026E000EF90DF900895EF92FF920F931F93CF9397
:1026F000DF93CDB7DEB722970FB6F894DEBF0FBEDB
:10270000CDBF813029F4809116019091170104C04A
:1027100080911401909115019A838983CE010196CD
:102720000E94B1089927AA27BB27182F0027FF244A
:10273000EE2489819A8101969A838983CE0101963C
:102740000E94B1089927AA27BB27DC01992788276F
:10275000E82AF92A0A2B1B2B89819A8101969A83F0
:102760008983CE0101960E94B1089927AA27BB2729
:10277000BA2FA92F982F8827E82AF92A0A2B1B2B72
:1027800089819A8101969A838983CE0101960E945C
:10279000B1089927AA27BB27E82AF92A0A2B1B2B5D
:1027A0008FEFE8168FEFF8068FEF08078FEF180707
:1027B00019F4EE24FF248701C801B70122960FB651
:1027C000F894DEBF0FBECDBFDF91CF911F910F9167
:1027D000FF90EF90089580934A0210924802109261
:1027E000470220912B0130912C0140912D015091F5
:1027F0002E01813039F4DA01C901880F991FAA1F0F
:10280000BB1F06C0DA01C90180509C4FAB4FBF4FC0
:1028100010928C0210928B02893021E0920720E006
:10282000A20720E0B207A0F020E030E088509140FD
:10283000A040B0402F5F3F4F893041E0940740E017
:10284000A40740E0B40790F730938C0220938B02EA
:1028500090938502809384020895CF93C82F80912E
:1028600084029091850288509140A9F480918B0256
:1028700090918C029C01019690938C0280938B0224
:10288000C9010E94360B80E090E00E94560A109227
:102890008502109284028C2F0E943A098091840252
:1028A0009091850201969093850280938402809195
:1028B0004702909148020196909348028093470204
:1028C000CF910895EF92FF920F931F93CF93DF93D1
:1028D000CDB7DEB722970FB6F894DEBF0FBECDBFDF
:1028E00080914902813009F06DC0809184029091FD
:1028F0008502892B31F080918B0290918C020E948D
:10290000360B80918B0290918C02AA27BB27BC01C9
:10291000CD0128E031E040E050E00E94681B7B01DF
:102920008C018091840290918502AA27BB27E80E32
:10293000F91E0A1F1B1F80914A02813039F48091D1
:102940001601909117019A8389830EC0809114011A
:10295000909115019A83898380E09CEFABEFBFEFE4
:10296000E80EF91E0A1F1B1F812F9927AA27BB27D4
:10297000682FCE0101960E94BC0889819A81019638
:102980009A838983C801AA27BB27682FCE010196A5
:102990000E94BC0889819A8101969A838983BB270A
:1029A000A12F902F8F2D682FCE0101960E94BC0879
:1029B00089819A8101969A8389836E2DCE01019631
:1029C0000E94BC0822960FB6F894DEBF0FBECDBFA2
:1029D000DF91CF911F910F91FF90EF900895CF93CA
:1029E000DF93CDB7DEB722970FB6F894DEBF0FBEE8
:1029F000CDBF809149028330A9F480914A02823090
:102A000029F4809110019091110104C080910E0170
:102A100090910F019A83898360918402CE0101967F
:102A20000E94BC0822960FB6F894DEBF0FBECDBF41
:102A3000DF91CF910895AF92BF92CF92DF92EF9244
:102A4000FF920F931F93CF93DF93CDB7DEB72297FB
:102A50000FB6F894DEBF0FBECDBF40913401842F76
:102A600099278631910509F418C28731910594F4AC
:102A70008231910509F472C0833191053CF48031B3
:102A8000910519F1419709F449C07BC2449709F4B3
:102A900004C271C18931910509F411C18A319105CE
:102AA00044F48731910509F40AC1489709F4A3C099
:102AB00068C28B31910509F445C08B3191050CF446
:102AC0009AC04C9709F48CC05CC282E090E090936D
:102AD00031018093300180911201909113019A830A
:102AE0008983F4E3EF2EF1E0FF2E1BE0F701619103
:102AF0007F01CE0101960E94BC0889819A810196CE
:102B00009A838983115017FFF1CF81E080932F01C1
:102B10001092490281B38F7C806212C082E090E003
:102B200090933101809330010E9462140E94EF144F
:102B300010922F0180E00E94D40981B38F7C8061C4
:102B400081BBA8C184E090E0909331018093300173
:102B50001092350181E0809336014AC082E090E016
:102B60009093310180933001809118019091190167
:102B70009A838983E5E3EE2EE1E0FE2E15E0F7016E
:102B800061917F01CE0101960E94BC0889819A81E2
:102B900001969A838983115017FFF1CF8091160116
:102BA000909117019A83898310E0143031F4809159
:102BB0001401909115019A83898360E0CE010196FA
:102BC0000E94BC0889819A8101969A8389831F5F3C
:102BD000183058F361E08AE191E00E94BC085AC1C4
:102BE00084E090E0909331018093300110923501A0
:102BF00010923701CFC184E090E09093310180932F
:102C0000300180914902843059F00E9462140E9480
:102C1000EF14109285021092840284E0809349029E
:102C200080913401883129F4809110019091110133
:102C300004C080910E0190910F019A838983CE0187
:102C400001960E94B1089927209184023091850253
:102C50008217930710F48FEF22C0A901440F551F6C
:102C6000440F551F80913501282F332721503040C4
:102C700080913401883129F480910C0190910D01EB
:102C800004C080910A0190910B01840F951F820F5F
:102C9000931F9A838983CE0101960E94B108809385
:102CA0003601109235011092370180918402909183
:102CB0008502019690938502809384026BC183E024
:102CC00090E09093310180933001809149028330EC
:102CD00039F083E0809349021092850210928402B9
:102CE0002091840230918502473171F4220F331F05
:102CF000220F331F80910C0190910D01820F931FC1
:102D00009A83898382E00DC0220F331F220F331F65
:102D100080910A0190910B01820F931F9A838983FE
:102D200083E080934A0280918402909185020A9701
:102D3000E8F445E3E42E41E0F42E13E0F70161915D
:102D40007F01CE0101960E94BC0889819A8101967B
:102D50009A838983115017FFF1CF8091840290915B
:102D6000850201969093850280938402109235012A
:102D7000109236010FC182E090E090933101809370
:102D8000300180914902813081F1433141F48091D9
:102D90001E0190911F019A83898381E007C0809171
:102DA0001C0190911D019A83898380E00E94EB139E
:102DB00080918402909185020E94560A81E080935E
:102DC000490235E3E32E31E0F32E18E0F70161917B
:102DD0007F01CE0101960E94BC0889819A810196EB
:102DE0009A838983115017FFF1CF8091350199277C
:102DF000182F0027809136019927082B192BEE24D4
:102E0000FF24E016F10678F48EE3C82E81E0D82E78
:102E1000F60181916F010E942D140894E11CF11CB0
:102E2000E016F106A8F38091370187FF33C0409187
:102E300047025091480257FD2DC04115510551F1EF
:102E400080914A02813029F42091080130910901D2
:102E500004C020910601309107013A832983852F10
:102E60009927682FCE0101960E94BC0889819A811A
:102E700001969A83898360914702CE0101960E9450
:102E8000BC08809147029091480290689093480254
:102E900080934702109235017DC0809149028230B3
:102EA00011F10E9462140E94EF1490E080913401AD
:102EB000843109F491E0892F0E94EB136091840220
:102EC0007091850280918B0290918C020E94130A6E
:102ED00082E08093490210922B0110922C011092F3
:102EE0002D0110922E01809135019927182F00276E
:102EF000809136019927082B192B90E0809134019D
:102F0000843109F491E0892F0E947313DC01CB0115
:102F10006C01EE24FF24E016F10620F5F6E3AF2E57
:102F2000F1E0BF2E96014427552780912B01909107
:102F30002C01A0912D01B0912E0182179307A407B7
:102F4000B50720F480E00E943A0901C08FEFF50137
:102F500081935F010E94D70E0894E11CF11CE016DA
:102F6000F10600F30D5F1F4F109331010093300104
:102F700003501040109235010C5C1E4FF801128274
:102F800009C081E090E0909331018093300189EC99
:102F9000809335010E94FD0D22960FB6F894DEBF96
:102FA0000FBECDBFDF91CF911F910F91FF90EF909A
:102FB000DF90CF90BF90AF9008950F931F93CF9362
:102FC000DF93CDB7DEB722970FB6F894DEBF0FBE02
:102FD000CDBF082F823029F480911001909111010A
:102FE00004C080910E0190910F019A838983CE01D4
:102FF00001960E94B108182F023029F480910C012B
:1030000090910D0104C080910A0190910B019A8367
:10301000898311501F3FB1F003E0CE0101960E9459
:10302000B1080E949F0989819A8101969A838983B8
:10303000015007FFF2CF112319F085E00E9425020D
:10304000115050F722960FB6F894DEBF0FBECDBFD9
:10305000DF91CF911F910F9108950F931F93CF93FD
:10306000DF93CDB7DEB722970FB6F894DEBF0FBE61
:10307000CDBF809118019091190102969A8389839E
:1030800013E0CE0101960E94B1080E949F09898138
:103090009A8101969A838983115017FFF2CF00918C
:1030A0001801109119010F5F1F4F1A8309830150F6
:1030B0001040CE0101960E94B108882359F080E0AB
:1030C00090EF0E94B20980E090E00E94B20980FD7A
:1030D000F6CF08C01A830983CE0101960E94B10879
:1030E0000E94010322960FB6F894DEBF0FBECDBF3B
:1030F000DF91CF911F910F9108952F923F924F92A0
:103100005F926F927F928F929F92AF92BF92CF9277
:10311000DF92EF92FF920F931F93CF93DF93CDB780
:10312000DEB723970FB6F894DEBF0FBECDBF182FC2
:103130008824992454010E9473131B012C011B82C3
:10314000113029F4809108019091090104C0809107
:103150000601909107019A838983CE0101960E940E
:10316000B1089927782E662489819A8101969A83DD
:103170008983CE0101960E94B1089927682A792A8D
:1031800010922B0110922C0110922D0110922E0101
:10319000113069F480911E0190911F019A838983F7
:1031A00060E070E0CB010E94130A83E10DC08091C2
:1031B0001C0190911D019A83898360EE70E084EE7A
:1031C00093E00E94130A85E180933401F5E3EF2E2A
:1031D000F1E0FF2E18E0CE0101960E94B108F70140
:1031E00081937F0189819A8101969A838983115005
:1031F00017FFF1CF809135019927D82ECC248091EB
:1032000036019927C82AD92A82149304A404B50444
:1032100008F0B7C020913701822F9927AC01417087
:10322000507080FF58C0F1EA6F16710488F18B81ED
:10323000882349F470EAC72ED12C2F7720933701C9
:10324000E1E0EB830AC060E6C62E6FEFD62EC60C17
:10325000D71C2068209337011B8200E010E00C157A
:103260001D0578F45EE3E52E51E0F52E80E00E9426
:103270003A09F70181937F010F5F1F4F0C151D0560
:10328000A8F38D2D992780933501C09236014BC04C
:1032900000E010E00615170578F43EE3E32E31E078
:1032A000F32E80E00E943A09F70181937F010F5FBE
:1032B0001F4F06151705A8F3872D99278093350111
:1032C0006092360180913701806880933701C30195
:1032D000AA27BB272BC0C601AA27BB27880D991D8B
:1032E000AA1DBB1D281639064A065B0648F4610173
:1032F000C818D9088D2D992780933501C0923601C1
:103300008A014C155D0578F48EE3E82E81E0F82EF5
:1033100080E00E943A09F70181937F010F5F1F4F00
:103320000C151D05A8F3C601AA27BB27880E991EF8
:10333000AA1EBB1E81149104E1F4E12CF12CBFEF15
:103340000B2F112DE820F9200A211B21E114F10493
:103350000105110571F08DE40E949F0980E00E9433
:103360009F09C801AA27BB270E949F0980E00E94ED
:103370009F090E941C1182149304A404B50408F44C
:1033800049CF23960FB6F894DEBF0FBECDBFDF91B5
:10339000CF911F910F91FF90EF90DF90CF90BF9052
:1033A000AF909F908F907F906F905F904F903F90E5
:1033B0002F9008951F93CF93DF93CDB7DEB72E974D
:1033C0000FB6F894DEBF0FBECDBF10E081E08EBB1C
:1033D0008EB38823E9F3F69B06C0112311F413E0A2
:1033E0000CC011500AC0F79B06C0133011F410E056
:1033F00004C01F5F02C0F29953C0812F992781300A
:103400009105A1F0823091051CF4892B39F041C05F
:103410008230910501F1039739F13BC060EF73E011
:10342000CE0101960E942C1B81E007C066EF73E07D
:10343000CE0101960E942C1B80E00E947313DC01D8
:10344000CB012AE030E0AE014A5F5F4FBC01CD0105
:103450000E94331B1EC06CEF73E0CE0101960E94E8
:103460002C1B80E191E008C062E074E0CE0101967F
:103470000E942C1B8EE091E00E94B1088F3F11F05A
:10348000992702C080E090E0BE016A5F7F4F0E94F2
:103490002E03CE0101960E94B6070E94370298CFF4
:1034A0002E960FB6F894DEBF0FBECDBFDF91CF9141
:1034B0001F910895AF92BF92DF92EF92FF920F9308
:1034C0001F93CF93DF93CDB7DEB769970FB6F8940C
:1034D000DEBF0FBECDBF80E48E8B86E1A82EB12C5F
:1034E000AC0EBD1E88E28F8B83E2888F89E2898FC4
:1034F00081E00E9473137B018C01DD2481B3806322
:1035000081BB8091D2029091D302A091D402B0915C
:10351000D5028E159F05A007B10708F043C080E0D3
:103520000E943A09F501ED0DF11DD39490818917A0
:1035300021F584E0D81611F5FF2400E010E080E0CA
:103540000E943A099E012F5F3F4FF801E20FF31FDF
:103550008083882331F0F3940F5F1F4F83E18F1531
:1035600070F71D8A81E080934B02C9010E94B60763
:1035700081B38F7C806181BB31C0DD248091D20218
:103580009091D302A091D402B091D5020196A11DD1
:10359000B11D8093D2029093D302A093D402B09332
:1035A000D502B7CF60E070E0CB010E94130A109201
:1035B000D2021092D3021092D4021092D5028091BE
:1035C0004B02882349F481B38F7C806181BB88E002
:1035D00094E00E94680302C00E945A1A69960FB6CE
:1035E000F894DEBF0FBECDBFDF91CF911F910F9139
:1035F000FF90EF90DF90BF90AF90089560E070E093
:10360000CB010E94130A10924B021092D202109228
:10361000D3021092D4021092D5020E945A1A8091BD
:103620004B02882371F08EB38823E9F3F79B03C024
:103630000E945A1A02C0F29903C00E943702F3CFC7
:1036400080E00E94D40908950C948E038F938BE53B
:103650008093B8008F911895FB01DC0105900D92C5
:103660000020E1F70895FA01CF93FF93EF93223002
:10367000CCF02532BCF4C22F2C2F332744275527FA
:10368000FF93EF930E94871BEF91FF91605D6A3378
:103690000CF0695D6193B901CA01605070408040CF
:1036A000904051F710828F919F91CF910C94581BAD
:1036B000DC01FC0101900020E9F73297AE17BF074B
:1036C00030F47C916081708331976D93F7CF0895CA
:1036D000629FD001739FF001829FE00DF11D649FF6
:1036E000E00DF11D929FF00D839FF00D749FF00D82
:1036F000659FF00D9927729FB00DE11DF91F639F23
:10370000B00DE11DF91FBD01CF0111240895A1E203
:103710001A2EAA1BBB1BFD010DC0AA1FBB1FEE1F4B
:10372000FF1FA217B307E407F50720F0A21BB30B96
:10373000E40BF50B661F771F881F991F1A9469F712
:1037400060957095809590959B01AC01BD01CF016E
:023750000895DA
:103752003A09FF01840083008100590031003000E2
:103762002F0023001F001B00150014000B00020095
:063772000100000004123A
:00000001FF
