:100000000C94FA010C9415020C9408190C947B03BF
:100010000C9415020C941D070C9415020C941502F7
:100020000C9415020C942C0B0C940A190C941502C8
:100030000C9415020C94B20A0C9415020C9415023F
:100040000C9415020C949E080C9415020C94150245
:100050000C9415020C9415020C94DA076F006000E2
:100060005649455720444154412054414753005379
:10007000544F524147452053495A455300A30099D4
:10008000008F00850032313036353120485A00313A
:10009000313334323720485A00203836373338204D
:1000A000485A0020353731353320485A0016010AA6
:1000B00001FA00EA00DA00C600BB00455241534590
:1000C000204F4E4C59004655534520414E44204C3C
:1000D0004F434B204259544553004C4F434B204211
:1000E00059544553204F4E4C5900465553452042D4
:1000F00059544553204F4E4C5900444154412041DE
:100100004E4420454550524F4D00454550524F4DAD
:10011000204F4E4C590044415441204F4E4C590001
:10012000B10504067D05AA065E01500143013001B8
:100130004A554D5020544F20424F4F544C4F41444C
:10014000455200434C454152204D454D4F525900B8
:10015000534554205350492053504545440053457E
:100160005420434F4E545241535400CC034B051678
:1001700004E503520697033E06D001C501B901AA62
:10018000019B0192018701534C454550204D4F443E
:10019000450053455454494E47530044415441533C
:1001A000544F524520494E464F0044415441464C1D
:1001B000415348205052474D0050524F4752414DF5
:1001C000204156520053544F5245205052474D0043
:1001D000415652495350204D4F44450007020202F8
:1001E000F301E4013C433E2032303036202D2047DD
:1001F000504C004259204445414E2043414D455208
:10020000410056312D3300425554544C4F41440067
:100210002A574149542A004028232942592044455D
:10022000414E2043414D455241004028232942552B
:1002300054544C4F4144204156524953500050525F
:10024000473E2000424144495352004E4F20455200
:1002500041534520434D44004E4F204441544100FA
:100260004E4F20454550524F4D004E4F204655535E
:1002700045204259544553004E4F204C4F434B208C
:1002800042595445530050524F4752414D4D494EEB
:100290004720444F4E45004641494C4544002A53AF
:1002A000544F52414745204D4F44452A00434F4E3D
:1002B0004649524D003C4E20593E004D454D20438D
:1002C0004C4541524544004E4F2053544F524544F3
:1002D000205052474D002A4A544147204F4E2A0091
:1002E000A8EA802A0040000A510A0840595518011E
:1002F000111E111B500B411B411F1101511F511B9E
:10030000000000000880001A204000000000510F8B
:10031000913941149131411E410E411D500F8020F1
:10032000101548864014780570855115510E519569
:10033000518E219081205015484450C528C0282056
:100340000950411420801111000000100380025454
:100350000140002244415441464C415348204552FB
:10036000524F52000001000200040008001000106B
:1003700000200020080108010801080108011002FE
:100380001002200409090909090A0A0B42554646C8
:10039000204F564552464C4F57002A44415441463F
:1003A0004C415348204D4F44452A00010008415616
:1003B000524953505F3202020453594E4320455272
:1003C000524F52002A4154415652495350204D4FEA
:1003D00044452A00444154412D004550524D2D00C2
:1003E000465553452D004C4F434B2D004E4F205446
:1003F0004147530011241FBECFEFD4E0DEBFCDBF75
:1004000011E0A0E0B1E0EAE6F3E302C005900D924E
:10041000A430B107D9F712E0A4E0B1E001C01D9209
:10042000A43BB107E1F70C945B020C949203CF93C9
:10043000DF93282F21502F3F49F0A0E0B8E4C0E01F
:10044000D0E0CD010197F1F72150D8F7DF91CF919E
:1004500008958EB38823E9F781E00E9417028EB3D6
:100460008823B9F70895CF93C0E081E08EBB8EB3A7
:100470008823E9F3F69B06C0CC2311F4C3E00CC03B
:10048000C1500AC0F79B06C0C33011F4C0E004C0DD
:10049000CF5F02C0F2990DC0EC2FFF27EE0FFF1FB8
:1004A000E452FE4F859194910E9491070E94290287
:1004B000DECFCF910895CFEFD4E0DEBFCDBFC0E057
:1004C00080E885BF85BF80BF85E08093640080E3BE
:1004D00080BB87E284B98FED85B98CE08EB98093BB
:1004E0006B0080ED80936C0080EC8DBB8CBB81B386
:1004F0008F7C806281BB0E943E078FE08093E70083
:1005000080E192E00E949107789426E830E0D901DA
:100510000E946B19802D8A3789F080E090E04FEFC0
:10052000DC01042E0E947D19019652E0803095076F
:10053000B8F38AE7D901082E0E947D19A5E8B0E03A
:100540000E946B19802D8F708093E70080E00E94DD
:10055000230981B3806381BB0E944B080E94B806C7
:1005600081B38F7C806181BB81E08EBB80E880930A
:10057000610083E0809361008EB38823E9F3F69BEA
:1005800006C0CC2311F4C6E01BC0C15019C0F79BB4
:1005900006C0C63011F4C0E013C0CF5F11C0F49B99
:1005A0000BC0EC2FFF27EE0FFF1FE559FE4F859183
:1005B0009491FC01099504C0F39B02C00E94330290
:1005C000EC2FFF27EE0FFF1FE758FE4F8591949108
:1005D0000E9491070E942902CFCFCF93DF93282F4B
:1005E00021502F3F49F0A3E3B7E0C0E0D0E0CD01B8
:1005F0000197F1F72150D8F7DF91CF91089599270E
:1006000081309105B1F0823091051CF4892B21F0E5
:100610000895029759F00895869AA0E0B0E00E94EC
:100620006B19802D882319F48E9A0895869A8E98D6
:1006300008958698FCCFFB0120E08436910520F0D8
:100640002F5F84569040F9CF205D219320E08A30BF
:10065000910518F02F5F0A97FACF205D2193805DF6
:100660008193108208951F93CF93DF93CDB7DEB7A8
:1006700027970FB6F894DEBF0FBECDBF182F6EE3DD
:1006800072E0CE0101960E9410191E831F82CE01D6
:1006900001960E94500727960FB6F894DEBF0FBE52
:1006A000CDBFDF91CF911F910895CF93DF93CDB749
:1006B000DEB764970FB6F894DEBF0FBECDBF25E45A
:1006C00029832EE32A83BC01CE0103960E941019D0
:1006D000CE0101960E9450070E942902F49BFECF92
:1006E0000E94290264960FB6F894DEBF0FBECDBFFC
:1006F000DF91CF91089578941F920F920FB60F92C9
:1007000011248F939F9393B19095907D8CB1809598
:100710008C70982B9EBB9F918F910F900FBE0F9066
:100720001F90189584E492E00E945503FFCFCF9369
:10073000C0E081E08EBB8EB38823E9F3F69B06C050
:10074000CC2311F4C3E019C0C15017C0F79B06C0F9
:10075000C33011F4C0E011C0CF5F0FC0F49B0BC0D9
:10076000EC2FFF27EE0FFF1FE05EFE4F8591949167
:10077000FC01099502C0F2990DC0EC2FFF27EE0F86
:10078000FF1FE85DFE4F859194910E9491070E94A2
:100790002902D1CFCF91089580E192E00E94910784
:1007A0000E94B8068091C100807888618093C10062
:1007B00084EC93E00E94910784E691E19093030119
:1007C000809302010E947A0E0895A1E0B0E00E9499
:1007D0006B19802D0E94D40881E0809361028EEE17
:1007E00098E0909301018093000180E192E00E94E3
:1007F00091070E94B8068091C1008078886180933B
:10080000C1008AE993E00E94910784EB9BE09093FA
:100810000301809302010E947A0E80E00E94230966
:100820008091640084608093640008950F931F9307
:10083000CF93DF93CDB7DEB763970FB6F894DEBFE3
:100840000FBECDBF00E0102F0E947F080093610211
:1008500089E898E090930101809300010E949A0A30
:10086000882309F40DC10E94290281E08EBB8EB35A
:100870008823E9F3F29904C1F4991CC0F69B06C0E1
:10088000112311F416E009C0115007C0F79B05C0F1
:10089000163011F410E001C01F5FE12FFF27EE0FAB
:1008A000FF1FE355FF4F859194910E9491070E948D
:1008B0002902DDCF81B3806381BB80E192E00E9499
:1008C0009107A1E0B0E00E946B19802D0E94D4082E
:1008D00080E00E94FF02E2E1F1E020E030E09BE0F6
:1008E000D901AD5DBF4F0E946B19802D819391504E
:1008F0002F5F3F4F97FFF4CF0E94D40F1092090152
:1009000010920A0110920B0110920C0180911301B8
:10091000882309F0A0C0163021F0112311F0123005
:1009200091F483E40E943303A4E1B0E00E946B19C8
:10093000802D813031F002E08BE492E00E9455037B
:1009400002C00E946C16112311F01230B9F400237A
:10095000A9F484E40E94330381E00E94D412DC01F4
:10096000CB010097A105B10531F403E088E592E0E1
:100970000E94550303C081E00E949B16812F815085
:100980008230A8F485E40E94330380E00E94D412F0
:10099000DC01CB010097A105B10531F403E080E64D
:1009A00092E00E94550303C080E00E949B16133022
:1009B00011F0153099F486E40E943303AFE2B0E001
:1009C0000E946B19802D882331F403E08AE692E0BF
:1009D0000E94550303C082E00E943B16812F845081
:1009E000823000F5153059F481E00E94FF0281E069
:1009F0000E94170280E00E94FF020E94D40F8CE444
:100A00000E943303A0E3B0E00E946B19802D88237D
:100A100031F403E088E792E00E94550303C083E0CD
:100A20000E943B1666E872E0CE0101960E94101902
:100A3000002331F067E972E0CE010D960E94101993
:100A4000CE0101960E9450078FEF0E94170284E6A4
:100A50000E94170204C089EB93E00E94550381E0D5
:100A60000E94FF020E94E40880E00E942309809116
:100A7000640084608093640081B38F7C806181BB5B
:100A800063960FB6F894DEBF0FBECDBFDF91CF9156
:100A90001F910F91089589E898E090930101809348
:100AA00000010E947F081092610281E00E942309E8
:100AB0000E949A0A882301F180E192E00E94910746
:100AC0000E94B8068091C100807888618093C1003F
:100AD0008EE992E00E9491078EEE93E190930301DC
:100AE000809302010E947A0E80E00E942309809187
:100AF00064008460809364000895CF93DF938DEA4F
:100B000092E00E94910784EB0E94170285EB92E02D
:100B10000E9491078EB38823E9F38EB39927EC01E5
:100B2000C470D07082FD1AC0F39BF4CF0E942902DA
:100B300080E192E00E949107CE012FEFDC01022EAE
:100B40000E947D19019632E080309307B8F38BEB59
:100B500092E00E9491078FEF0E941702DF91CF91E0
:100B60000895EF92FF921F93CF93DF93CDB7DEB737
:100B700026970FB6F894DEBF0FBECDBF85E8E82EEE
:100B800080E0F82ED7010E946B19802D182F1F705E
:100B900081E08EBB8EB38823E9F3F69B04C01F303F
:100BA00078F41F5F0DC0F79B04C0123048F011505D
:100BB00007C0F29B05C0D701012E0E947D1918C005
:100BC00083E4898384E58A8380E28B83BE016C5F42
:100BD0007F4F812F99270E941B03CE0101960E940F
:100BE0005007812F8F708093E7000E942902D2CF97
:100BF00026960FB6F894DEBF0FBECDBFDF91CF9122
:100C00001F91FF90EF9008950F931F93CF9381E072
:100C10008EBB01E010E0D8010E946B19802DC82F17
:100C2000843008F0C0E08EB38823E9F3F69B06C059
:100C3000CC2311F4C3E011C0C1500FC0F79B06C014
:100C4000C33011F4C0E009C0CF5F07C0F29B05C0FC
:100C5000D8010C2E0E947D190DC0EC2FFF27EE0F3E
:100C6000FF1FE358FF4F859194910E9491070E94C6
:100C70002902D9CFCF911F910F91089585E083BFAD
:100C80008091E4008F778093E400F69903C0889503
:100C9000F69BFDCF8091E40080688093E4000E9481
:100CA000290208951F93CF9310E00E94290281E04A
:100CB0008EBB8EB38823E9F3CEB3C07C19F081E0FC
:100CC000182738C0F29943C0F49B34C0113081F525
:100CD00089E898E090930101809300010E947F08C9
:100CE000C0936102812F0E9423090E949A0AC82F93
:100CF000882341F00E94E218809164008460809310
:100D0000640018C0812F0E94D412DC01CB0100972F
:100D1000A105B10579F48C2F0E942309809164000C
:100D200084608093640087EC92E00E94550302C0C7
:100D30000E94BD17E12FFF27EE0FFF1FE45AFF4F60
:100D4000859194910E9491070E942902B2CFCF9180
:100D50001F91089585B78F7785BF85BF86ED92E097
:100D60000E9491070E94290288E180936000FFCFD2
:100D7000CF93DF934FE3109205011092040180E8B6
:100D80008093610010926100409366005FB71092FB
:100D90006F0088E08093B60081E0809370007894C3
:100DA000809381008093B00020E030E08091B60015
:100DB0009927877090700097C9F79093850080936A
:100DC00084001092B2004EE3ACECB4E6C0E0D0E098
:100DD000CD010197F1F7322F80916600282F809185
:100DE0000401909105018150914E20F080916600A0
:100DF00081500AC08091040190910501865F904E58
:100E000058F4809166008F5F809366008091660041
:100E1000831711F04150E0F610926F0010927000AD
:100E2000109281001092B0008091B600877F80936D
:100E3000B6005FBFDF91CF9108951F920F920FB65A
:100E40000F9211248F939F931092810080918400C0
:100E50009091850090930501809304011092850084
:100E6000109284001092B20081E0809381009F91E3
:100E70008F910F900FBE0F901F9018958FE0809369
:100E8000E70087EB8093E50087E08093E60080EC45
:100E90008093E4008091E40088608093E4000895EA
:100EA000CF93DF93EC0120E03FEFEDE2F2E0DF01D2
:100EB0008991982F9A52913538F4803211F0892F08
:100EC00001C08FEF8C9303C0882331F030832F5FF4
:100ED00011963196243160F380E0273008F081E0EC
:100EE00080935D0210922B029FEF86E0E22FFF2796
:100EF000E35DFD4F90832F5F815087FFF7CFE22F97
:100F0000FF27E35DFD4F108210922C0220932A02EE
:100F10008AE080935E0281E080934802DF91CF9166
:100F20000895CF93DF93CDB7DEB764970FB6F894EB
:100F3000DEBF0FBECDBFBC01CE0101960E941019CD
:100F4000CE0101960E94500764960FB6F894DEBF5A
:100F50000FBECDBFDF91CF910895E82F20E030E0A4
:100F6000862F8695A82FBB27A75BBD4FEF3F39F093
:100F7000FF27EE0FFF1FE052FD4F25913491772799
:100F80006170707043E050EF922F9F706115710592
:100F900019F05FE09295907F8C918523892B8C933B
:100FA00084E0369527958A95E1F71596415047FFDD
:100FB000EACF089578941F920F920FB60F921124E2
:100FC0002F933F934F935F936F937F938F939F9351
:100FD000AF93BF93CF93EF93FF9380915D028823EC
:100FE00099F080915E02882321F0815080935E0207
:100FF0000BC080912B02882321F481E0809348026A
:1010000003C0815080932B0280914802882339F1DC
:10101000C0E080912C028C0F90912A02E82FFF27CC
:10102000891710F0E91BF109E35DFD4F80816C2FFA
:101030000E94AD07CF5FC63060F380912C02982FDD
:101040008F5F80932C0280912A02981719F481E017
:1010500080932C0283E080932B0210924802ACEE26
:10106000B0E0E9E4F2E093E181918D93915097FF34
:10107000FBCFFF91EF91CF91BF91AF919F918F9156
:101080007F916F915F914F913F912F910F900FBE84
:101090000F901F9018951092C50087E08093C400B0
:1010A00082E08093C00080E88093C10086E0809356
:1010B000C2000E94FD0A0895982F8091C00085FF0C
:1010C000FCCF9093C6000895CF93DF93EC01888105
:1010D000882331F089910E945C0888818823D1F7A8
:1010E000DF91CF9108958091AF02882321F4809100
:1010F00006018823C1F30E940A0B99270895809165
:1011000064008B7F8093640081E08DBD8CE58CBD95
:1011100008958EBD0DB407FEFDCF8EB599270895B5
:101120000F931F938C01812F99270E948908802F8C
:101130000E94890899271F910F9108951F920F927D
:101140000FB60F9211248F9380916E008D7F809344
:101150006E0080E48093B90081E080935F0280910B
:10116000BA00809360028F910F900FBE0F901F9076
:101170001895482F90E06DE473E09B0121503040BA
:10118000F9018491841711F0933031F4FB018491BB
:1011900087BD89E084BD08959F5F2E5F3F4F6E5FDE
:1011A0007F4F943068F308959DB190659DB96D9817
:1011B000759A76989AE59093B8000E94B9081092B3
:1011C0005F021092600208958DB18F7A8DB98EB151
:1011D0008F788EB986988E9814BC089510925F020D
:1011E0008093BA00A99A80916E00826080936E000D
:1011F00016BC80915F028823E1F3809160029927F9
:1012000008950F931F938C01812F99270E94EE0858
:10121000802F0E94EE0899271F910F91089581E079
:101220000E94ED028091B80081608093B80081E057
:101230000E94ED028091B80081608093B80081E047
:101240000E94ED02089590916102813031F4913055
:1012500011F482E005C028980895913021F4892F77
:101260000E94FF020895289A08950F931F938C01FE
:1012700080E00E94230981E00E942309E09100019F
:10128000F091010184E50995812F9927E0910001F2
:10129000F09101010995E0910001F0910101802F89
:1012A0000995E0910001F091010180E00995E0913C
:1012B0000001F091010180E0099599271F910F919C
:1012C0000895EF92FF920F931F938C017B0180E0B2
:1012D0000E94230981E00E942309E0910001F0911E
:1012E000010188E609958AB5980102C036952795CF
:1012F0008A95E2F7C901E0910001F0910101099599
:101300008BB502C0000F111F8A95E2F78F2D992728
:10131000E0910001F0910101800F0995E091000139
:10132000F09101018E2D099503E0E0910001F0910B
:10133000010180E00995015007FFF7CF1F910F9140
:10134000FF90EF9008950F931F938C0180E00E940F
:10135000230981E00E942309E0910001F09101013D
:1013600084E80995E0910001F091010180E0099580
:10137000812F9927E0910001F09101010995E091F9
:101380000001F0910101802F09951F910F9108959F
:1013900080E00E94230981E00E942309E09100017E
:1013A000F091010187E50995E0910001F0910101BB
:1013B00080E00995682F7727CB018873907033E020
:1013C000959587953A95E1F79927FC01EC57FC4FE5
:1013D0004491409364029C01280F391FF901EC5895
:1013E000FC4F859194919093660280936502F90178
:1013F000EC59FC4F85919491909368028093670219
:1014000080E1841B8ABD48504BBDCB0108950F93EA
:101410001F938C0180E00E94230981E00E94230930
:10142000E0910001F091010180E50995812F992754
:10143000E0910001F09101010995E0910001F09126
:101440000101802F0995E0910001F091010180E0F8
:1014500009950E94C8098823E4F71F910F91089508
:101460000F931F938C0180E00E94230981E00E946A
:101470002309E0910001F091010183E509958AB506
:10148000980102C0369527958A95E2F7C901E09147
:101490000001F091010109958BB502C0000F111FE9
:1014A0008A95E2F7E0910001F0910101802F099502
:1014B000E0910001F091010180E009950E94C809C6
:1014C0008823E4F71F910F9108950F931F938C01C8
:1014D00080E00E94230981E00E942309E09100013D
:1014E000F091010183E809958AB5980102C036950B
:1014F00027958A95E2F7C901E0910001F091010179
:1015000009958BB502C0000F111F8A95E2F7E09193
:101510000001F0910101802F0995E0910001F09107
:10152000010180E009950E94C8098823E4F71F9112
:101530000F9108950E94C8098091670290916802F6
:101540008050984061F080916400846080936400D2
:1015500084E593E00E94550380E090E0089581E0E7
:1015600090E008951F920F920FB60F9211242F93BF
:101570003F934F935F936F937F938F939F93AF931B
:10158000BF93EF93FF938091AF02803429F48CE8EE
:1015900093E00E94550320C0E091AB02F091AC02B1
:1015A0008091C60080834091AB025091AC029A01B9
:1015B0002F5F3F4F3093AC022093AB028091AF027C
:1015C0008F5F8093AF022B5A324031F44F5350401B
:1015D0005093AC024093AB02FF91EF91BF91AF915A
:1015E0009F918F917F916F915F914F913F912F913B
:1015F0000F900FBE0F901F9018958BE692E090937E
:10160000AC028093AB029093AE028093AD02109235
:10161000AF0208958091AF02882319F480E090E032
:1016200008952091AD023091AE02F9019191F093AD
:10163000AE02E093AD028091AF0281508093AF0281
:10164000EB5AF24031F42F5330403093AE022093E6
:10165000AD02892F9927089578941F920F920FB6A3
:101660000F9211248F93809107018F5F8093070160
:1016700080910701873029F41092070181E080935F
:1016800006018F910F900FBE0F901F90189510922A
:101690008000109281001092070110928500109234
:1016A00084001092820081E080936F000895209161
:1016B000090130910A0140910B0150910C011092E7
:1016C0006A02109269028091650290916602AA27CF
:1016D000BB2782179307A407B50788F460E070E082
:1016E000281B390B4A0B5B0B6F5F7F4F82179307E9
:1016F000A407B507A8F370936A0260936902309358
:101700006302209362020895CF93C82F2091620252
:101710003091630280916502909166022817390723
:10172000A9F48091690290916A029C0101969093BC
:101730006A0280936902C9010E94650A80E090E014
:101740000E94A30910926302109262028C2F0E94E1
:10175000EE08809162029091630201969093630279
:1017600080936202CF910895DF92EF92FF920F93E0
:101770001F93CF93DF93DD24809112019927863147
:10178000910509F400C187319105B4F482319105C6
:1017900009F46FC0833191053CF48031910531F13A
:1017A000419709F446C040C18431910509F48AC0CB
:1017B00045970CF0AFC07FC08931910509F470C026
:1017C0008A31910544F48731910509F469C048973D
:1017D00009F458C029C18B319105E9F18B3191058C
:1017E0000CF450C04C9709F44DC01EC182E090E04B
:1017F00090930F0180930E0181E00E9423090E94C3
:10180000C80980916402882359F08AE993E00E9414
:10181000910781E080930D0181B38F7C806217C0B6
:1018200084E593E00E9491078D2D0E94230980ECAE
:1018300002C182E090E090930F0180930E01D0925C
:101840000D018D2D0E94230981B38F7C806181BBA6
:10185000D0921301F2C084E090E090930F01809346
:101860000E01D092130182E080931401D0921501F1
:10187000E4C082E090E090930F0180930E01E1E0DC
:10188000DE2E7EC084E090E090930F0180930E01E5
:10189000109213018FEF8093140110921501CDC0A7
:1018A00083E090E090930F0180930E01109213015A
:1018B00010921401C2C082E090E090930F018093D7
:1018C0000E015EC0809113019927982F88272091DF
:1018D00014013327822B932B039690930F0180934F
:1018E0000E0121E030E002972817390748F44FEF46
:1018F000E3E1F1E041932F5F3F4F28173907D0F321
:1019000010921301E0910E01F0910F01EF5EFE4F76
:10191000108293C00E94570B8091690290916A02D5
:101920000E94300A80916202909163020E94A30992
:10193000809113019927D82FCC27809114019927E2
:10194000C82BD92B00E010E00C171D07C8F45CE190
:10195000E52E51E0F52EF70181917F010E94840B65
:10196000809162029091630201969093630280934A
:1019700062020E943D0E0F5F1F4F0C171D0758F3A8
:10198000109213015AC00E94570B809169029091E6
:101990006A020E94300A809113019927D82FCC2720
:1019A000809114019927C82BD92B00E010E00C1767
:1019B0001D0770F534E1E32E31E0F32E2091620231
:1019C0003091630280916502909166022817390771
:1019D00041F40E94570B8091690290916A020E9423
:1019E000300A80916202909163029C01019690936B
:1019F000630280936202C9010E943509F701819355
:101A00007F010E943D0E0F5F1F4F0C171D07B0F2A4
:101A10002396D0930F01C0930E01239710921301C8
:101A2000CE5EDE4F1A8209C081E090E090930F01F4
:101A300080930E0189EC809313010E94650DDD20D7
:101A4000D9F080E192E00E949107C0E0D0E080915F
:101A500067029091680223E0969587952A95E1F7B1
:101A6000C817D90728F4CE010E94070A2196EFCFA4
:101A70008AE993E00E949107DF91CF911F910F9126
:101A8000FF90EF90DF9008956BE18091100168273F
:101A900020910E0130910F01832F992768278091A3
:101AA0000E0168278EE0682740E050E04217530798
:101AB00048F4E2E1F1E0819168274F5F5F4F421700
:101AC0005307C8F3862F992708950F931F93CF9339
:101AD000DF938BE10E945C08809110010E945C08FA
:101AE00080910F010E945C0880910E010E945C08A9
:101AF0008EE00E945C08C0E0D0E080910E019091E1
:101B00000F01C817D90778F402E111E0F8018191BB
:101B10008F010E945C08219680910E0190910F0127
:101B2000C817D90798F30E94440D0E945C08809161
:101B30001001909111010196909311018093100171
:101B4000DF91CF911F910F9108952091130183E0B0
:101B500090E090930F0180930E0110921301E22FF9
:101B6000FF27E839F105ACF4E639F1050CF06BC05C
:101B7000E138F105F9F0E238F10524F4E038F10537
:101B8000B9F06FC0CF0180599040039708F069C049
:101B900013C0EE39F10509F43BC0EF39F10524F427
:101BA000E839F105F9F05DC0EF39F10549F059C0A8
:101BB00083E037C081E035C0EA5DFC4F849131C0DD
:101BC00080911201833019F4809108012AC082E0CB
:101BD00090E090930F0180930E0180911401809307
:101BE000080148C080911201A1E0B0E08330B1F05B
:101BF00082E090E090930F0180930E018091140198
:101C0000082E0E947D19809114010E94B90832C0EB
:101C100080911201A0E0B0E0833031F40E946B1992
:101C2000802D8093140126C082E090E090930F01F4
:101C300080930E0180911401082E0E947D1981E08D
:101C40000E94FF0217C080911201833019F4109294
:101C5000140110C082E090E090930F0180930E0178
:101C600009C082E090E090930F0180930E0180EC18
:101C7000809313010E94650D089580910901909150
:101C80000A01A0910B01B0910C010196A11DB11D9B
:101C90008093090190930A01A0930B01B0930C016A
:101CA00008958091090190910A01A0910B01B091D2
:101CB0000C01B7FF1EC08DE40E94EE0880E00E9478
:101CC000EE0880910B010E94EE0880E00E94EE0871
:101CD0008091090190910A01A0910B01B0910C0132
:101CE000BF778093090190930A01A0930B01B093F1
:101CF0000C010895EF92FF920F931F93CF93C0E0D2
:101D0000EE24FF240E94FD0A0E94470BC0930D01A0
:101D10001092090110920A0110920B0110920C010D
:101D200080910601813011F4C9E005C0CC2319F07F
:101D300083E0809381008C2F99278430910509F4EA
:101D400073C08530910594F48130910509F452C037
:101D5000823091051CF4892BB1F1E2CF82309105DC
:101D600009F44EC0039709F454C0DACF87309105C7
:101D700009F48BC08830910544F48530910509F44D
:101D800068C0069709F46DC0CBCF8830910579F013
:101D9000099731F682E090E090930F0180930E0155
:101DA00080EC80931301109206010E94650D0E9441
:101DB000FD0A109281001092070110928500109286
:101DC0008400C0E0ADCF8091AF028111C1E0F29BF1
:101DD000A7CF80910D01882309F0A2CF80E88093DE
:101DE000610083E0809361008091C10080788093DE
:101DF000C100D4C00E9473088B3189F5C2E090CF36
:101E00000E94730899279093110180931001C3E0F9
:101E100087CF0E9473089927982F882790930F01E6
:101E200080930E01C4E07CCF0E947308282F3327D3
:101E300080910E0190910F01822B932B90930F01B3
:101E400080930E018351914050F4C5E0EE24FF24AD
:101E500067CF0E9473088E3011F4C6E061CFC9E0ED
:101E60005FCF80910E0190910F01E816F90611F4F1
:101E7000C7E056CF87010E5E1E4F0894E11CF11C8F
:101E80000E947308F80180834BCF0E94440D182FE5
:101E90000E947308181709F074C0809112019927E5
:101EA000843091053CF4823091050CF061C00197BB
:101EB00039F061C086309105E9F0079799F05BC071
:101EC0008BE090E090930F0180930E01A2E1B1E0CE
:101ED000EBEAF3E09AE084918D939150319697FF6D
:101EE000FACF58C082E090E090930F0180930E01EA
:101EF00080EC4EC082E090E090930F0180930E0141
:101F00000E94510E809113019927AA27BB27B82F51
:101F1000AA2799278827209114013327442755277A
:101F2000A90133272227822B932BA42BB52B209199
:101F30001501332744275527542F432F322F2227AB
:101F4000822B932BA42BB52B2091160133274427EA
:101F50005527822B932BA42BB52B809309019093AB
:101F60000A01A0930B01B0930C011092130112C04F
:101F70000E94A50D11C0E0910201F09103010995A5
:101F80000BC082E090E090930F0180930E0181ECF2
:101F9000809313010E94650DC8E0C2CECF911F91BE
:101FA0000F91FF90EF9008950F931F93CF9310918F
:101FB0001701C0911601809114010E94ED028C2F2F
:101FC0008150843608F0C8E1C150CF3F09F43FC0CA
:101FD00080911A010E94EE08812F0E94ED028091EB
:101FE0001B010E94EE08812F0E94ED0280911C01CE
:101FF0000E94EE08082F812F0E94ED0280911901A6
:10200000833029F480911D010E94EE0805C0809163
:102010001D010E94EE08082F80911901882321F0EC
:1020200080911801081769F4812F0E94ED0281E068
:1020300080930D0181B38F7C806281BB109213016C
:102040000DC0812F0E94ED020E940F09BDCF81B308
:102050008F7C806181BB80EC80931301CF911F91B5
:102060000F9108951F93CF93DF93EB01992780FF82
:1020700008C08077907034E0959587953A95E1F7A0
:1020800004C08E7090709595879599278770907091
:102090008230910519F00497E1F026C010911901E2
:1020A00080911201833139F4812F9927C0FD886016
:1020B000182FD695C795812F0E94EE08CE010E9459
:1020C000010980E00E94EE0890911A01891799F3A6
:1020D0000FC080E090EF0E94010980E090E00E9434
:1020E000010980FDF6CF04C0809116010E94ED0227
:1020F000DF91CF911F9108956F927F929F92AF923F
:10210000BF92CF92DF92EF92FF920F931F93CF93E4
:10211000DF9300E010E090901501C09017016090EF
:10212000090170900A01809113019927B82EAA2401
:10213000809114019927A82AB92A90FE62C07801DB
:102140000A151B0508F046C0CCE1D1E0D99080917A
:102150001201833131F48C2D9927E0FE03C0886091
:1021600001C08C2D0E94EE088091090190910A0116
:102170000E9401098D2D0E94EE0801151105D9F468
:1021800080911A018D15B9F090911201933131F0BF
:10219000953189F480911B018D1569F00091090139
:1021A00010910A01933139F4000F111FC70181709A
:1021B0009070080F191FE0FC04C080911201853156
:1021C00011F40E943D0E0894E11CF11CEA14FB047A
:1021D00008F4BCCFC92D97FE69C0809118010E94F8
:1021E000EE08C3010E94010980E00E94EE0801157B
:1021F000110511F4CF78C061B8018C2F0E94321004
:1022000055C078010A151B0508F050C05CE1652E29
:1022100051E0752EF301D1903F018091120183317D
:1022200031F48C2D9927E0FE03C0886001C08C2D0D
:102230000E94EE088091090190910A010E94010913
:102240008D2D0E94EE08C92D80911A018D15C1F0C7
:1022500090911201933131F0953191F480911B01ED
:102260008D1571F00091090110910A01933159F413
:10227000000F111FC70181709070080F191F03C054
:10228000C92DC17FC260E0FC04C08091120185317C
:1022900011F40E943D0EB8018C2F0E943210089458
:1022A000E11CF11CEA14FB0408F4B4CFDF91CF91D8
:1022B0001F910F91FF90EF90DF90CF90BF90AF9064
:1022C0009F907F906F900895DF92EF92FF920F930F
:1022D0001F93CF93DF938091120199278631910547
:1022E00009F4FBC08731910594F48231910509F41A
:1022F00060C0833191053CF480319105F9F041973C
:1023000009F43DC03EC1449709F4E7C02FC18931AB
:10231000910509F4CCC08A31910544F487319105C7
:1023200009F4C5C0489709F4A5C02BC18D319105AA
:102330000CF4A0C04D9709F461C023C182E090E085
:1023400090930F0180930E01A1E0B0E00E946B1901
:10235000802D0E94D40880E00E94FF0281B3806338
:1023600081BB0E94D40F80910D01882319F084EC69
:1023700093E002C089EB93E00E9491070BC182E0D9
:1023800090E090930F0180930E01809113010E94C1
:10239000ED0281B38F7C806181BB10920D0181E0E1
:1023A0000E94FF02809114010E94ED020E94E40845
:1023B000E5C082E090E090930F0180930E01C3E0AE
:1023C00005E111E0F80181918F010E94EE08C150F2
:1023D000C7FFF8CF80911401882359F080E090EF77
:1023E0000E94010980E090E00E94010980FDF6CF83
:1023F000C5C0809113010E94ED02C0C0E09014019D
:102400008E2D9927039690930F0180930E010091D2
:102410001301F0901501C1E012E0C017A8F4E12FFC
:10242000FF27EE5EFE4F83810E94EE081E1540F0EE
:10243000CF1530F4EC2FFF27EE5EFE4F8283CF5F87
:10244000812F1F5F801758F38C2FCF5F8F1550F4AB
:102450000C2F11270E5E1E4F80E00E94EE08F8013F
:102460008283F2CF10921301EC2FFF27EE5EFE4F16
:10247000138290C084E090E090930F0180930E014E
:10248000C1E004E111E0F80181918F010E94EE08A2
:10249000982F80911301C81711F490931401CF5F06
:1024A000C53088F3109213011092150173C083E0B8
:1024B00090E090930F0180930E0103E111E0C3E0DF
:1024C000F80181918F010E94EE08C150C7FFF8CF3B
:1024D00010921301109214015DC0D09015018091EB
:1024E00013019927D82FCC27809114019927C82B45
:1024F000D92B2396D0930F01C0930E01239700E0B0
:1025000010E00C171D0760F584E1E82E81E0F82E3D
:1025100080911201843131F48D2D992700FF03C081
:10252000886001C08D2D0E94EE0880910901909174
:102530000A010E94010980E00E94EE08F7018083F1
:1025400000FD04C080911201863111F40E943D0EFD
:102550000F5F1F4F0894E11CF11C0C171D07C0F200
:1025600010921301CE5EDE4F1A8214C00E947C10BE
:1025700082E090E090930F0180930E01109213017E
:1025800009C081E090E090930F0180930E0189ECE7
:10259000809313010E94650DDF91CF911F910F91E0
:1025A000FF90EF90DF900895CF93DF93CDB7DEB724
:1025B00024970FB6F894DEBF0FBECDBF19821A82E2
:1025C0001B821C82FE013196813019F4ABE1B0E030
:1025D00002C0AFE1B0E084E0182E0E947319898137
:1025E0009A81AB81BC818F5F9F4FAF4FBF4F21F46A
:1025F00019821A821B821C8289819A81AB81BC81DB
:10260000BC01CD0124960FB6F894DEBF0FBECDBF3E
:10261000DF91CF91089580932802109226021092A4
:1026200025022091090130910A0140910B0150913E
:102630000C01813039F4DA01C901880F991FAA1FF2
:10264000BB1F06C0DA01C90180509C4FAB4FBF4F82
:1026500010926A0210926902883021E0920720E00D
:10266000A20720E0B207A0F020E030E088509140BF
:10267000A040B0402F5F3F4F883041E0940740E0DA
:10268000A40740E0B40790F730936A0220936902F0
:1026900090936302809362020895CF93C82F809134
:1026A00062029091630288509140A9F4809169027E
:1026B00090916A029C01019690936A02809369024C
:1026C000C9010E94650A80E090E00E94A30910926F
:1026D0006302109262028C2F0E948908809162022C
:1026E00090916302019690936302809362028091BD
:1026F000250290912602019690932602809325024E
:10270000CF910895CF93DF93CDB7DEB724970FB65F
:10271000F894DEBF0FBECDBF80912702813009F053
:1027200041C08091620290916302892B31F08091C7
:10273000690290916A020E94650A809169029091F3
:102740006A02AA27BB27BC01CD0128E031E040E0A6
:1027500050E00E944C199B01AC0180916202909163
:102760006302AA27BB27280F391F4A1F5B1F298333
:102770003A834B835C8380912802813019F4ABE16A
:10278000B0E00AC0AFE1B0E02050344044405040D7
:1027900029833A834B835C83FE01319684E0182EB3
:1027A0000E948E1924960FB6F894DEBF0FBECDBFDF
:1027B000DF91CF91089580912702833071F4809149
:1027C0002802823019F4AFE2B0E002C0A0E3B0E02A
:1027D00080916202082E0E947D190895CF92DF92A7
:1027E000EF92FF920F931F93CF93DF9340911201CB
:1027F000842F99278631910509F4B9C18731910554
:1028000094F48231910509F468C0833191053CF458
:102810008031910511F1419709F43FC018C24497E6
:1028200009F4A5C138C18931910509F4E2C08A31A2
:10283000910544F48731910509F4DBC0489709F408
:102840008BC005C28B319105E1F18B3191050CF400
:1028500083C04C9709F473C0FAC182E090E0909372
:102860000F0180930E01E2E1F1E020E030E09BE017
:10287000D901AD5DBF4F8191082E0E947D19915005
:102880002F5F3F4F97FFF4CF81E080930D011092AF
:10289000270281B38F7C806212C082E090E0909327
:1028A0000F0180930E010E9482130E94DB1310928D
:1028B0000D0180E00E94230981B38F7C806181BB80
:1028C00053C184E090E090930F0180930E01109229
:1028D000130181E0809314013CC082E090E090936A
:1028E0000F0180930E01E3E1F1E021E030E095E09B
:1028F000D901AB5EBF4F8191082E0E947D19915086
:102900002F5F3F4F97FFF4CF20E080E090E037E06B
:10291000DC01A55EBF4F022E0E947D19DC01A15E85
:10292000BF4F022E0E947D193150019637FFF0CF24
:10293000A4E1B0E081E0082E0E947D1915C184E079
:1029400090E090930F0180930E011092130110926A
:1029500014011092150184C184E090E090930F015E
:1029600080930E0180912702843059F00E948213D7
:102970000E94DB13109263021092620284E0809343
:10298000270260911201683119F4AFE2B0E002C091
:10299000A0E3B0E00E946B19802D9927409162025C
:1029A000509163028417950710F48FEF15C09A01B8
:1029B000220F331F220F331F80911301280F311D67
:1029C000683121F4D901A05DBF4F03C0D901A85AD5
:1029D000BF4F0E946B19802D809314011092130138
:1029E000109215014F5F5F4F509363024093620254
:1029F00037C183E090E090930F0180930E018091A6
:102A00002702833039F083E080932702109263021B
:102A1000109262022091620230916302473169F4A0
:102A200080EA90E0289FE001299FD00D389FD00DCB
:102A30001124CF5CDF4F82E00CC080EA90E0289F39
:102A4000E001299FD00D389FD00D1124C75ADF4FC8
:102A500083E08093280280916202909163020A973A
:102A6000A8F4E3E1F1E093E08191DE01082E0E94F9
:102A70007D192196915097FFF7CF80916202909136
:102A80006302019690936302809362021092130195
:102A900010921401E5C082E090E090930F018093C2
:102AA0000E0180912702813001F1433121F4C2E00F
:102AB000D0E081E003C0CBE0D0E080E00E940B13C7
:102AC00080916202909163020E94A30981E0809349
:102AD0002702E3E1F1E098E08191DE01082E0E94F7
:102AE0007D192196915097FFF7CF80911301992777
:102AF000D82FCC27809114019927C82BD92B00E01F
:102B000010E00C171D0770F45CE1E52E51E0F52E86
:102B1000F70181917F010E944D130F5F1F4F0C172A
:102B20001D07B0F3209125023091260237FD1CC00D
:102B30008091150187FF18C021153105A9F08091FA
:102B40002802813019F4A1E8B0E002C0A3E8B0E0A7
:102B500009010E94891980912502909126029068AE
:102B600090932602809325021092130179C08091E0
:102B70002702823011F10E9482130E94DB1390E041
:102B800080911201843109F491E0892F0E940B1386
:102B900060916202709163028091690290916A0271
:102BA0000E94610982E0809327021092090110922D
:102BB0000A0110920B0110920C01809113019927C8
:102BC000D82FCC27809114019927C82BD92B90E0BE
:102BD00080911201843109F491E0892F0E94D4126E
:102BE000DC01CB017C0100E010E00C171D0718F59B
:102BF00034E1C32E31E0D32E97014427552780912D
:102C0000090190910A01A0910B01B0910C0182176A
:102C10009307A407B50720F480E00E94890801C04B
:102C20008FEFF60181936F010E943D0E0F5F1F4FE2
:102C30000C171D0708F32396D0930F01C0930E01C4
:102C4000239710921301CE5EDE4F1A8209C081E0F5
:102C500090E090930F0180930E0189EC8093130113
:102C60000E94650DDF91CF911F910F91FF90EF9022
:102C7000DF90CF9008950F931F93CF93DF93982FFA
:102C8000823019F4AFE2B0E002C0A0E3B0E00E94ED
:102C90006B19802D182F923019F4C1E3D0E002C0D7
:102CA000C9E5D0E011501F3F91F003E0DE010E9422
:102CB0006B19802D0E94EE082196015007FFF6CF78
:102CC000112319F085E00E941702115070F7DF916F
:102CD000CF911F910F9108951F93CF93DF93C2E07F
:102CE000D0E013E0DE01AB5EBF4F0E946B19802D78
:102CF0000E94EE081150219617FFF4CFA6E1B0E034
:102D00000E946B19802D882359F080E090EF0E947B
:102D1000010980E090E00E94010980FDF6CF07C024
:102D2000A5E1B0E00E946B19802D0E94ED02DF91B9
:102D3000CF911F9108953F924F925F926F927F9231
:102D40008F929F92AF92BF92CF92DF92EF92FF92BB
:102D50000F931F93CF93DF93C82FAA24BB24650141
:102D60000E94D4122B013C013324C13019F4A1E894
:102D7000B0E002C0A3E8B0E00E9478194F011092C1
:102D8000090110920A0110920B0110920C01C1303E
:102D900049F4C2E0D0E060E070E0CB010E9461093C
:102DA00083E109C0CBE0D0E060EE70E084EE93E018
:102DB0000E94610985E180931201E3E1F1E098E06E
:102DC000DE010E946B19802D81932196915097FF0F
:102DD000F7CF809113019927D82FCC278091140128
:102DE0009927C82BD92BA414B504C604D70408F01E
:102DF000B2C020911501822F9927AC01417050700B
:102E000080FF53C0F1EA8F16910460F1332041F442
:102E1000C0EAD0E02F772093150131E0332E07C0B0
:102E2000E401C05AD040206820931501332400E00B
:102E300010E00C171D0778F42CE1E22E21E0F22EB1
:102E400080E00E948908F70181937F010F5F1F4F87
:102E50000C171D07A8F38D2F992780931301C0939A
:102E600014014BC000E010E00815190578F48CE15E
:102E7000E82E81E0F82E80E00E948908F701819316
:102E80007F010F5F1F4F08151905A8F3892D99279A
:102E900080931301809214018091150180688093C2
:102EA0001501C401AA27BB272BC0CE01AA27BB2727
:102EB0008A0D9B1DAC1DBD1D481659066A067B0672
:102EC00048F4E201CA19DB098D2F99278093130179
:102ED000C09314018A014C175D0778F4ACE1EA2E27
:102EE000A1E0FA2E80E00E948908F70181937F011A
:102EF0000F5F1F4F0C171D07A8F3CE01AA27BB2792
:102F0000A80EB91ECA1EDB1EA114B104E1F4E12C07
:102F1000F12CFFEF0F2F112DEA20FB200C211D219A
:102F2000E114F1040105110571F08DE40E94EE0831
:102F300080E00E94EE08C801AA27BB270E94EE0885
:102F400080E00E94EE080E947C10A414B504C60420
:102F5000D70408F44ECFDF91CF911F910F91FF90CE
:102F6000EF90DF90CF90BF90AF909F908F907F9029
:102F70006F905F904F903F9008951F93CF93DF9392
:102F8000CDB7DEB72E970FB6F894DEBF0FBECDBF1C
:102F900010E081E08EBB8EB38823E9F3F69B06C078
:102FA000112311F413E00CC011500AC0F79B06C0A6
:102FB000133011F410E004C01F5F02C0F29954C036
:102FC000812F992781309105A1F0823091051CF461
:102FD000892B39F042C08230910501F1039739F114
:102FE0003CC064ED73E0CE0101960E94101981E0AF
:102FF00007C06AED73E0CE0101960E94101980E0CF
:103000000E94D412DC01CB012AE030E0AE014A5F1D
:103010005F4FBC01CD010E9417191FC060EE73E025
:10302000CE0101960E941019AFE2B0E008C066EE32
:1030300073E0CE0101960E941019A0E3B0E00E9457
:103040006B19802D8F3F11F0992702C080E090E02E
:10305000BE016A5F7F4F0E941B03CE0101960E9452
:1030600050070E94290297CF2E960FB6F894DEBF24
:103070000FBECDBFDF91CF911F910895AF92BF9248
:10308000DF92EF92FF920F931F93CF93DF93CDB711
:10309000DEB769970FB6F894DEBF0FBECDBF80E4F0
:1030A0008E8B86E1A82EB12CAC0EBD1E88E28F8BD4
:1030B00083E2888F89E2898F81E00E94D4127B01AC
:1030C0008C01DD2481B3806381BB8091B00290913B
:1030D000B102A091B202B091B3028E159F05A00774
:1030E000B10708F043C080E00E948908F501ED0DAA
:1030F000F11DD3949081891721F584E0D81611F53C
:10310000FF2400E010E080E00E9489089E012F5F0C
:103110003F4FF801E20FF31F8083882331F0F394CF
:103120000F5F1F4F83E18F1570F71D8A81E0809339
:103130002902C9010E94500781B38F7C806181BB45
:1031400031C0DD248091B0029091B102A091B20211
:10315000B091B3020196A11DB11D8093B00290936E
:10316000B102A093B202B093B302B7CF60E070E0B7
:10317000CB010E9461091092B0021092B10210922C
:10318000B2021092B30280912902882349F481B3DC
:103190008F7C806181BB8CEE93E00E94550302C05E
:1031A0000E943E1869960FB6F894DEBF0FBECDBFE1
:1031B000DF91CF911F910F91FF90EF90DF90BF9023
:1031C000AF90089560E070E0CB010E946109109219
:1031D00029021092B0021092B1021092B202109223
:1031E000B3020E943E1880912902882371F08EB3A9
:1031F0008823E9F3F79B03C00E943E1802C0F299AE
:1032000003C00E942902F3CF80E00E9423090895A1
:103210000C947B038F938BE58093B8008F91189566
:10322000FB01DC0105900D920020E1F70895FA0101
:10323000CF93FF93EF932230CCF02532BCF4C22F12
:103240002C2F332744275527FF93EF930E94931980
:10325000EF91FF91605D6A330CF0695D6193B90194
:10326000CA01605070408040904051F710828F91A9
:103270009F91CF910C943C19DC01FC01019000203E
:10328000E9F73297AE17BF0730F47C916081708305
:1032900031976D93F7CF0895629FD001739FF0012E
:1032A000829FE00DF11D649FE00DF11D929FF00DD6
:1032B000839FF00D749FF00D659FF00D9927729F0D
:1032C000B00DE11DF91F639FB00DE11DF91FBD0198
:1032D000CF0111240895F999FECFB2BDA1BDF89A8E
:1032E000119600B40895F7DF01921A94E1F708955A
:1032F000F2DFE02DF0DFF02D0895F999FECFB2BD99
:10330000A1BD00BC11960FB6F894FA9AF99A0FBEB7
:103310000895F3DF012CF1DF112408950190EDDF12
:103320001A94E1F70895A1E21A2EAA1BBB1BFD0116
:103330000DC0AA1FBB1FEE1FFF1FA217B307E40794
:10334000F50720F0A21BB30BE40BF50B661F771FEC
:10335000881F991F1A9469F76095709580959095CC
:0A3360009B01AC01BD01CF010895EF
:04336A008908641159
:00000001FF
