:100000000C941E020C943B020C94E0190C94910287
:100010000C94EC0B0C94E1070C943B020C943B0207
:100020000C943B020C94480C0C94E2190C943B0287
:100030000C943B020C94A20B0C943B020C943B02DC
:100040000C943B020C9468090C943B020C943B0208
:100050000C943B020C943B020C9484084028232906
:10006000425554544C4F414420415652495350003C
:100070004028232956312D34004028232942592075
:100080004445414E2043414D4552410040282329DB
:100090003C433E2032303036202D2047504C00600B
:1000A0000074007D0090002A574149542A004156AF
:1000B00052495350204D4F44450053544F52452010
:1000C0005052474D0050524F4752414D20415652D9
:1000D0000044415441464C415348205052474D0042
:1000E0004441544153544F524520494E464F0053CA
:1000F000455454494E475300534C454550204D4FAD
:10010000444500AE00BA00C500D100E000EF00F8A1
:100110000067043504B1048004B803FB02B0025345
:10012000455420434F4E545241535400534554209C
:1001300053504920535045454400534554204649A7
:10014000524D2056455253494F4E0053455420536B
:100150004C4545502054494D454F555400434C455E
:100160004152204D454D4F5259004A554D50205453
:100170004F20424F4F544C4F41444552001F012CD9
:10018000013A014B015D016A01BE060A073D0730D5
:10019000039306C30250524F4752414D20414C4CED
:1001A0000044415441204F4E4C5900454550524F58
:1001B0004D204F4E4C59004441544120414E442063
:1001C000454550524F4D00465553452042595445E0
:1001D00053204F4E4C59004C4F434B2042595445ED
:1001E00053204F4E4C59004655534520414E442014
:1001F0004C4F434B204259544553004552415345BF
:10020000204F4E4C59009501A101AB01B701C70128
:10021000D701E701FB0120353731353320485A003B
:1002200020383637333820485A00313133343237AA
:1002300020485A0032313036353120485A00535464
:100240004F524147452053495A45530000564945AE
:100250005720444154412054414753002A4A5441B5
:1002600047204F4E2A004E4F2053544F52454420B2
:100270005052474D004F4646002020202053454312
:100280000056322D20004D454D20434C45415245EE
:1002900044003C4E20593E00434F4E4649524D00CB
:1002A0002A53544F52414745204D4F44452A00465A
:1002B00041494C45440050524F4752414D4D494EE3
:1002C0004720444F4E45004E4F204C4F434B204259
:1002D00059544553004E4F204655534520425954DA
:1002E0004553004E4F20454550524F4D004E4F2034
:1002F00044415441004E4F20455241534520434D07
:100300004400424144495352005052473E2020008D
:10031000A8EA802A0040000A510A084059551801ED
:10032000111E111B500B411B411F1101511F511B6D
:10033000000000000880001A204000000000510F5B
:10034000913941149131411E410E411D500F8020C1
:10035000101548864014780570855115510E519539
:10036000518E219081205015484450C528C0282026
:100370000950411420801111000000100380025424
:100380000140002209090909090A0A0B08010801AC
:1003900008010801080110021002200400010002F7
:1003A00000040008001000100020002044415441C7
:1003B000464C415348204552524F52004255464602
:1003C000204F564552464C4F5700000F1E3C782A8E
:1003D00044415441464C415348204D4F44452A0026
:1003E0000100084156524953505F32402823292AC0
:1003F000534352455720524554524F44414E002AD0
:1004000053594E43204552524F52002A41544156AF
:1004100052495350204D4F44452A004C4F434B2DD9
:1004200000465553452D004550524D2D0044415432
:10043000412D004E4F2054414753000011241FBE50
:10044000CFEFD4E0DEBFCDBF11E0A0E0B1E0EEED34
:10045000F4E302C005900D92A430B107D9F712E081
:10046000A4E0B1E001C01D92A83BB107E1F70E94F2
:1004700006060C946E1A0C940A04282FE0E0F8E4A7
:1004800003C0CF010197F1F72150D8F70895282F25
:10049000E3E3F7E003C0CF010197F1F72150D8F76C
:1004A0000895813091F0813018F0823081F40AC0D3
:1004B000869AA1E0B0E00E94241A802D882319F4C6
:1004C0008E9A0895869A8E98089586988E980895A3
:1004D0008EB38823E9F781E00E943D028EB3882322
:1004E000B9F70895CF93DF93FB0120E003C02F5F9E
:1004F0008456904084369105D0F7205D2193DF012A
:1005000020E002C02F5F0A978A309105D8F7205D5E
:10051000FD012193805DED0189831182DF91CF91EF
:10052000089578941F920F920FB60F9211248F9313
:100530009F9383B19CB18095807D90959C70892B11
:100540008EBB1092480110924701109285001092C4
:1005500084009F918F910F900FBE0F901F90189560
:1005600085E083BF8091E4008F778093E40001C031
:100570008895F69BFDCF8091E40080688093E4002D
:100580000E946802089585B78F7785BF85BF109256
:1005900081008CE592E00E9402090E94680288E1D5
:1005A00080936000FFCF1F9381E08EBB10E08EB37D
:1005B0008823E9F3F69B06C0112311F413E00CC065
:1005C00011500AC0F79B06C0133011F410E004C0AC
:1005D0001F5F02C0F2990DC0E12FFF27EE0FFF1F32
:1005E000E156FF4F859194910E9402090E94680292
:1005F000DECF1F9108951F9381E08EBB10E08EB374
:100600008823E9F3F69B06C0112311F415E019C005
:10061000115017C0F79B06C0153011F410E011C03F
:100620001F5F0FC0F49B0BC0E12FFF27EE0FFF1FD2
:10063000E757FE4F85919491FC01099502C0F2990C
:100640000DC0E12FFF27EE0FFF1FE358FE4F8591EE
:1006500094910E9402090E946802D1CF1F910895CF
:10066000EF92FF920F93CF93DF93CDB7DEB728972A
:100670000FB6F894DEBF0FBECDBFA8E8B0E00E9471
:10068000241A802D082F853008F004E069E772E015
:10069000CE0101960E94E81981E08EBB8EB38823BB
:1006A000E9F3F69B05C0002311F404E001C00150FA
:1006B000F79B06C0043011F400E006C00F5F02C0D3
:1006C000F2991DC0002329F485E792E00E940209F7
:1006D00013C0E02FFF27E653FC4FE4917E010894FE
:1006E000E11CF11CB7018E2F99270E94720280E253
:1006F0008C83C7010E9415080E946802CFCFA8E82A
:10070000B0E0002E0E94361A0E94070C28960FB601
:10071000F894DEBF0FBECDBFDF91CF910F91FF9058
:10072000EF900895CF93DF93CDB7DEB764970FB600
:10073000F894DEBF0FBECDBF25E429832EE32A83C4
:10074000BC01CE0103960E94E819CE0101960E94D9
:1007500015080E946802F49BFECF0E94680264960E
:100760000FB6F894DEBF0FBECDBFDF91CF910895D5
:100770001F930E94680281E08EBB10E08EB3882335
:10078000E9F38EB3807C19F081E0182736C0F29926
:100790003FC0F49B32C0113071F582E599E090932F
:1007A0000101809300010E94480910923F0181E0FD
:1007B0000E94F4090E945C0B882341F00E94B91941
:1007C0008091640084608093640017C081E00E947F
:1007D0008514611571058105910579F480E00E9409
:1007E000F4098091640084608093640086E692E05E
:1007F0000E94920302C00E9473168FE0189FC001EE
:100800001124825C9D4F0E9402090E946802B6CFAB
:100810001F91089582E093E00E949203FFCFFF9220
:100820000F931F93CF93DF93CDB7DEB727970FB604
:10083000F894DEBF0FBECDBFF82E8E010F5F1F4FA5
:1008400069E073E0C8010E94E819FE82C8010E94B5
:10085000150827960FB6F894DEBF0FBECDBFDF9107
:10086000CF911F910F91FF90089582E599E09093A9
:100870000101809300010E94480910923F0181E02C
:100880000E94F4090E945C0B882301F187EA90E042
:100890000E9402090E9482078091C10080788861CD
:1008A0008093C10080EA92E00E94020987EE96E1FF
:1008B00090930301809302010E947C0F80E00E94CC
:1008C000F40980916400846080936400089587EA4D
:1008D00090E00E9402090E948207E1ECF0E0808132
:1008E0008078886180838BE094E00E94020984E82C
:1008F00092E190930301809302010E947C0F08957E
:10090000A2E0B0E00E94241A802D0E94CC0981E070
:1009100080933F0181E999E0909301018093000168
:1009200087EA90E00E9402090E948207E1ECF0E071
:1009300080818078886180838FEC93E00E94020937
:1009400089EE9CE090930301809302010E947C0F4A
:1009500080E00E94F409E4E6F0E080818460808316
:100960000895FF920F931F93CF93DF93CDB7DEB718
:1009700063970FB6F894DEBF0FBECDBF0E94480943
:1009800010923F0182E599E090930101809300016C
:100990000E945C0B882309F42DC10E94680281E04B
:1009A0008EBBFF248EB38823E9F3F29923C1F49917
:1009B0001EC0F69B07C0FF2019F447E0F42E0AC0C2
:1009C000FA9408C0F79B06C087E0F81611F4FF24DC
:1009D00001C0F394EF2DFF27EE0FFF1FEA5FFD4FDD
:1009E000859194910E9402090E946802DBCF80E801
:1009F000809361001092610087EA90E00E940209F2
:100A000002E010E0D8010E94241A802D0E94CC0937
:100A100080E00E94510298012E5D3F4FEBE4F1E02F
:100A2000D9010E94241A802D81932F5F3F4F80E0CF
:100A300020333807A9F70E94231210926302109204
:100A40006402109265021092660280914C01882324
:100A500009F0B5C0FF2049F087E0F81631F081E0D9
:100A6000F81619F083E0F81691F483E40E940F045D
:100A7000A5E1B0E00E94241A802D813031F085EF8D
:100A800092E00E94920302E003C00E942C1500E055
:100A900081E08F1518F483E0F816C1F40023A1F467
:100AA00084E40E940F0481E00E94851461157105A1
:100AB0008105910531F48DEE92E00E94920303E0EE
:100AC00003C081E00E945815FF2031F082E0F81643
:100AD00019F083E0F816B1F485E40E940F0480E079
:100AE0000E948514611571058105910531F483EE2D
:100AF00092E00E94920303E003C080E00E94581538
:100B0000FF2031F084E0F81619F086E0F816A9F419
:100B100086E40E940F04A0E3B0E00E94241A802D16
:100B2000882331F485ED92E00E94920303E003C034
:100B300082E00E94EE14FF2089F085E0F81671F043
:100B400086E0F81619F581E00E94510281E00E94CA
:100B50003D0280E00E9451020E9423128CE40E9418
:100B60000F04A1E3B0E00E94241A802D882359F4D9
:100B700087EC92E00E94920366EB72E0CE01019650
:100B80000E94E8190BC083E00E94EE1466EB72E04D
:100B9000CE0101960E94E819002331F06FEA72E05D
:100BA000CE010D960E94E819CE0101960E9415080B
:100BB0008FEF0E943D0284E60E943D0204C080E067
:100BC00094E00E94920380E88093610083E0809328
:100BD000610081E00E9451020E94870980E00E942A
:100BE000F4098091640084608093640081B38F7CF9
:100BF000806181BB63960FB6F894DEBF0FBECDBF98
:100C0000DF91CF911F910F91FF9008951F9380E87E
:100C100085BF85BF80BF85E08093640080E380BB93
:100C200087E284B98FED85B98CE08EB980936B0033
:100C300080ED80936C0080EC8DBB8CBB81B38F7C8E
:100C4000806381BB0E9408088FE08093E70087EAF9
:100C500090E00E9402097894A9E8B0E00E94241A6A
:100C6000802D8A3789F080E090E02FEFDC01022EA2
:100C70000E94361A01968A389105C1F78AE7A9E8D9
:100C8000B0E0082E0E94361AA6E8B0E00E94241AAE
:100C9000802D8F708093E70080E00E94F4090E940D
:100CA00037090E9482070E94070C81B38F7C806104
:100CB00081BB81E08EBB80E88093610083E08093FC
:100CC000610010E08EB38823E9F3F69B06C0112380
:100CD00011F416E01BC0115019C0F79B06C0163066
:100CE00011F410E013C01F5F11C0F49B0BC0E12F83
:100CF000FF27EE0FFF1FEF5EFE4F85919491FC01E1
:100D0000099504C0F39B02C00E94D302E12FFF2784
:100D1000EE0FFF1FED5FFE4F859194910E94020937
:100D20000E946802CFCF88E992E00E94020984EB1A
:100D30000E943D0282E992E00E9402098EB388235C
:100D4000E9F3F2991AC0F39BF9CF0E94680287EA8F
:100D500090E00E94020980E090E02FEFDC01022E7B
:100D60000E94361A01968A389105C1F786E892E00A
:100D70000E9402098FEF0E943D0208951F93CF93B6
:100D8000DF93CDB7DEB726970FB6F894DEBF0FBE60
:100D9000CDBFA6E8B0E00E94241A802D182F1F7046
:100DA00081E08EBB8EB38823E9F3F69B04C01F302D
:100DB00050F41F5F08C0F79B04C0123020F01150A0
:100DC00002C0F29918C083E4898384E58A8380E2B3
:100DD0008B83BE016C5F7F4F812F99270E94720227
:100DE000CE0101960E941508812F8F708093E70035
:100DF0000E946802D7CFA6E8B0E0012E0E94361A02
:100E000026960FB6F894DEBF0FBECDBFDF91CF910F
:100E10001F9108951F93A2E0B0E00E94241A802D34
:100E2000182F843008F013E081E08EBB8EB3882346
:100E3000E9F3F69B06C0112311F413E00CC0115026
:100E40000AC0F79B04C0133029F01F5F04C0F29B57
:100E500002C00CC010E08AE0189FC00111248A5E15
:100E60009D4F0E9402090E946802E0CFA2E0B0E01C
:100E7000012E0E94361A1F9108951F93CF93DF937E
:100E8000CDB7DEB725970FB6F894DEBF0FBECDBF46
:100E9000A7E8B0E00E94241A802D182F8A3008F0AD
:100EA00014E061E872E0CE0101960E94E81981E049
:100EB0008EBB8EB38823E9F3F69B03C0193008F488
:100EC0001F5FF79B04C0112321F0115002C0F2995B
:100ED0000AC0105D1C831053CE0101960E941508B4
:100EE0000E946802E6CFA7E8B0E0012E0E94361A01
:100EF00025960FB6F894DEBF0FBECDBFDF91CF9120
:100F00001F910895109205011092040180E88093CA
:100F10006100109261008FE3809366005FB71092CA
:100F20006F0088E08093B60081E080937000789431
:100F3000809381008093B0008091B60099278770DC
:100F40009070892BC9F7109285001092840010923E
:100F5000B2002EE340E0ECECF4E6CF010197F1F7AC
:100F60003091660080910401909105018150914E6D
:100F700020F08091660081500AC080910401909118
:100F800005018050914E28F4809166008F5F809318
:100F9000660080916600841729F021502F3F11F0E0
:100FA000432FDBCF10926F001092700010928100DF
:100FB0001092B0008091B600877F8093B6005FBF2B
:100FC00008951F920F920FB60F9211248F939F9343
:100FD000AF93BF93EF93FF93A1E8B0E01C92E4E8D6
:100FE000F0E080819181909305018093040111824A
:100FF00010821092B20081E08C93FF91EF91BF912B
:10100000AF919F918F910F900FBE0F901F901895E9
:101010008FE08093E70087EB8093E50087E0809383
:10102000E60088EC8093E4000895FC01ACE0B1E0B8
:10103000382F4FEF2E2F231B9191892F8A52813504
:1010400010F48C9303C0992341F04C932E2F231B53
:10105000119681E0A032B80769F710920601273097
:1010600018F081E08093060110920801822F90E031
:101070003FEFE82FFF27E45FFE4F30838F5F9F5FD6
:101080009730B9F7822F895FE82FFF27E45FFE4F83
:10109000108210920A0180930B018AE0809307016D
:1010A00081E08093090108958F3F19F440E050E0FA
:1010B00008C0E82FFF27EE0FFF1FE05FFC4F4591B0
:1010C0005491862F8695E82FFF27E95DFE4F30E08B
:1010D000772761707070242F2F706115710511F4DE
:1010E00090EF03C02295207F9FE080819823922B70
:1010F00090833F5F343039F084E0569547958A9568
:10110000E1F73596E8CF089578941F920F920FB6C5
:101110000F921124CF92DF92FF920F931F932F9380
:101120003F934F935F936F937F938F939F93AF936F
:10113000BF93CF93DF93EF93FF93809106018823B2
:1011400099F080910701882321F081508093070155
:101150000BC0809108018150809308018F3F21F4DA
:1011600081E08093090104C080910901882341F145
:1011700010910A01F0900B01CF2CDD24012FC0E06B
:10118000D0E06C2FE02FFF270F1510F0EC19FD09B0
:10119000E45FFE4F80810E94540821960F5FC630A5
:1011A000D10579F71F5F10930A0111501F1519F42B
:1011B00081E080930A0183E0809308011092090185
:1011C000A7E2B1E0ECEEF0E08D91819381E0E030B8
:1011D000F807D1F7FF91EF91DF91CF91BF91AF91D8
:1011E0009F918F917F916F915F914F913F912F913F
:1011F0001F910F91FF90DF90CF900F900FBE0F9037
:101200001F9018950F931F93CF93DF93CDB7DEB741
:1012100064970FB6F894DEBF0FBECDBF8E010F5F8F
:101220001F4FBC01C8010E94E819C8010E9415089F
:1012300064960FB6F894DEBF0FBECDBFDF91CF919D
:101240001F910F910895982F8091C00085FFFCCFCA
:101250009093C60008958091B702882321F480916D
:1012600046018823C1F30E94810B992708951092AB
:10127000C50087E08093C40082E08093C00080E8CE
:101280008093C10086E08093C2000E94740B089591
:10129000E4E6F0E080818B7F808381E08DBD8CE58A
:1012A0008CBD08958EBD0DB407FEFDCF8EB5992778
:1012B00008959C01832F99278EBD0DB407FEFDCFA5
:1012C0008EB52EBD0DB407FEFDCF8EB599270895BE
:1012D0001F920F920FB60F9211248F93EF93FF93EB
:1012E000EEE6F0E080818D7F808380E48093B9001A
:1012F00081E0809371028091BA0080937202FF9125
:10130000EF918F910F900FBE0F901F9018958DB198
:101310008F7A8DB98EB18F788EB986988E9814BCDD
:101320000895109271028093BA00A99A80916E007C
:10133000826080936E0016BC809171028823E1F375
:1013400080917202992708950F931F938C01812F2A
:1013500099270E949109802F0E94910999271F9136
:101360000F910895982F2DE733E0F901319784917B
:10137000891721F083E0E238F80731F4F90184910C
:1013800087BD89E084BD089532962E5F3F4F83E08C
:10139000E438F80761F708959DB190659DB96D989F
:1013A000759A76989AE59093B8000E94B2091092C7
:1013B00071021092720208950F931F9381E00E94B0
:1013C000470208EB10E0F80180818160808381E0B2
:1013D0000E944702F80180818160808381E00E9441
:1013E00047021F910F91089590913F01813031F490
:1013F000913011F482E005C028980895913021F4CD
:1014000081E00E9451020895289A0895EF92FF9278
:101410000F931F937C01009100011091010180E066
:101420000E94F40981E00E94F40984E5F80109951D
:101430008F2D9927F80109958E2DF801099580E0E7
:10144000F801099580E0F801099599271F910F91FE
:10145000FF90EF900895EF92FF920F931F93CF9319
:10146000DF938C017B01C0910001D091010180E0EC
:101470000E94F40981E00E94F40988E6FE010995C2
:101480008AB5980102C0369527958A95E2F7C90179
:10149000FE0109958BB502C0000F111F8A95E2F776
:1014A0008F2D9927800FFE0109958E2DFE0109953C
:1014B00000E080E0FE0109950F5F0430D1F7DF9175
:1014C000CF911F910F91FF90EF900895EF92FF92AF
:1014D0000F931F937C01009100011091010180E0A6
:1014E0000E94F40981E00E94F40984E8F80109955A
:1014F00080E0F80109958F2D9927F80109958E2D27
:10150000F80109951F910F91FF90EF900895CF93E7
:10151000DF93C0910001D091010180E00E94F409A5
:1015200081E00E94F40987E5FE01099580E0FE0153
:10153000099587FFFBCFDF91CF910895EF92FF923E
:101540000F931F937C01009100011091010180E035
:101550000E94F40981E00E94F40980E5F8010995F0
:101560008F2D9927F80109958E2DF801099580E0B6
:10157000F80109950E94870A1F910F91FF90EF9043
:101580000895EF92FF920F931F938C01E09000015A
:10159000F090010180E00E94F40981E00E94F409CA
:1015A00083E5F70109958AB5980102C0369527951C
:1015B0008A95E2F7C901F70109958BB502C0000FC2
:1015C000111F8A95E2F7802FF701099580E0F70156
:1015D00009950E94870A1F910F91FF90EF9008953F
:1015E000EF92FF920F931F938C01E0900001F09017
:1015F000010180E00E94F40981E00E94F40983E87F
:10160000F70109958AB5980102C0369527958A9504
:10161000E2F7C901F70109958BB502C0000F111F50
:101620008A95E2F7802FF701099580E0F701099587
:101630000E94870A1F910F91FF90EF9008950F93DA
:101640001F93009100011091010180E00E94F409B4
:1016500081E00E94F40987E5F801099580E0F8012E
:10166000099599278873907063E0969587956A9598
:10167000E1F7AC014C575C4FFA01449140934001B3
:10168000880F991FFC01E457FC4F2591349130934A
:1016900042012093410184569C4FFC0125913491D5
:1016A000309344012093430180E1841B8ABD48505C
:1016B0004BBD1F910F9108950E941F0B8091430114
:1016C000909144018050984019F481E090E0089591
:1016D000809164008460809364008CEA93E00E94AF
:1016E000920380E090E0089583E792E09093B40243
:1016F0008093B3029093B6028093B5021092B70222
:1017000008958091B702882319F480E090E008954D
:10171000E091B502F091B6022191F093B602E09308
:10172000B5028091B70281508093B702E35BF2402B
:1017300031F483E792E09093B6028093B502822F52
:10174000992708951F920F920FB60F9211242F938D
:101750003F934F935F936F937F938F939F93AF9339
:10176000BF93EF93FF938091B702803429F48CEB01
:1017700093E00E9492031FC0E091B302F091B40283
:101780008091C60080832091B3023091B4022F5F14
:101790003F4F3093B4022093B3028091B7028F5F22
:1017A0008093B702235B324031F483E792E0909359
:1017B000B4028093B302FF91EF91BF91AF919F91DB
:1017C0008F917F916F915F914F913F912F910F90EA
:1017D0000FBE0F901F90189578941F920F920FB61E
:1017E0000F9211248F93809145018F5F8093450163
:1017F00080914501873929F41092450181E0809359
:1018000046018F910F900FBE0F901F901895A8E87A
:10181000B0E00E94241A802D282F3327E22F2F3F7B
:1018200001F181E080936F00FF27E653FC4FE491C4
:101830008AE0E89FC001112490934A0180934901F6
:101840001092480110924701109285001092840076
:10185000222321F081E0809381000895109281007D
:10186000089581E080936F00EEECF3E0E4918AE06C
:10187000E89FC001112490934A018093490110927E
:101880004801109247011092850010928400E2CF27
:1018900078941F920F920FB60F9211242F933F93BB
:1018A0004F935F936F937F938F939F93AF93BF9368
:1018B000EF93FF9380914701909148012091490156
:1018C00030914A0101969093480180934701019716
:1018D0008217930731F4109281000E94B0020E9497
:1018E000070CFF91EF91BF91AF919F918F917F91E5
:1018F0006F915F914F913F912F910F900FBE0F907D
:101900001F901895EF92FF920F931F9320916302FF
:1019100030916402409165025091660210923C0140
:1019200010923B018091410190914201AA27BB276F
:1019300060E070E0EE24FF248701E81AF90A0A0B40
:101940001B0B06C02E0D3F1D401F511F6F5F7F4FA9
:1019500082179307A407B507A8F370933C0160931F
:101960003B0130933E0120933D011F910F91FF9069
:10197000EF9008951F93182F20913D0130913E0163
:10198000809141019091420128173907A1F480917B
:101990003B0190913C01019690933C0180933B0167
:1019A00001970E94F00A80E090E00E94660A10927F
:1019B0003E0110923D01812F0E94910980913D01CD
:1019C00090913E01019690933E0180933D011F91BD
:1019D00008950F931F93CF93DF9380914B0186312E
:1019E00009F4EFC0873190F4823109F463C0833188
:1019F00030F4803101F1813109F02DC13FC08431D3
:101A000009F489C0853108F0A9C07EC0893109F484
:101A100070C08A3138F4873109F46BC0883109F01D
:101A20001AC159C08B31E1F18B3108F454C08C31AB
:101A300009F011C150C082E090E090936102809360
:101A4000600281E00E94F4090E941F0B8091400116
:101A5000882359F08FEC93E00E94020981E0809383
:101A6000620281B38F7C806217C08CEA93E00E948F
:101A7000020980E00E94F40980ECF4C082E090E06A
:101A800090936102809360021092620280E00E9453
:101A9000F40981B38F7C806181BB10924C01E4C05A
:101AA00084E090E0909361028093600210924C0178
:101AB00082E01AC082E090E090936102809360021D
:101AC00010924C010E94AA0E87EA90E00E9402093F
:101AD000C0E0D0E0D0C084E090E0909361028093B9
:101AE000600210924C018FEF80934D0110924E01D5
:101AF000BBC083E090E090936102809360021092FB
:101B00004C0110924D01B0C082E090E090936102D0
:101B100080936002C2CF20914C013327322F2227BD
:101B200080914D019927282B392BF9013396F09399
:101B30006102E093600281E090E0ACE4B1E02F5FED
:101B40003F4F4FEF02C04D93019682179307D8F392
:101B500010924C01E65BFE4F108286C00E94820C00
:101B600080913B0190913C010E94C10A80913D010E
:101B700090913E010E94660A80914C019927D82FCE
:101B8000CC2780914D019927C82BD92B0BE411E06C
:101B900011C0F80182850E94BA0C80913D0190919C
:101BA0003E01019690933E0180933D010E946D0E8F
:101BB0000F5F1F4FCE01855B9E4F0817190749F72E
:101BC0006CCF0E94820C80913B0190913C010E945D
:101BD000C10A80914C019927D82FCC2780914D01C3
:101BE0009927C82BD92B0BE411E025C020913D018A
:101BF00030913E01809141019091420128173907AF
:101C000041F40E94820C80913B0190913C010E9422
:101C1000C10A80913D0190913E01019690933E0151
:101C200080933D0101970E94060AF80182830E9479
:101C30006D0E0F5F1F4FCE01855B9E4F0817190772
:101C4000A9F62396D0936102C093600210924C01D2
:101C5000F801128209C081E090E0909361028093C4
:101C6000600289EC80934C010E94AA0E14C0CE0140
:101C70000E949E0A2196809143019091440123E0A5
:101C8000969587952A95E1F7C817D90780F38FECC9
:101C900093E00E940209DF91CF911F910F91089567
:101CA00090915E028BE19827409160025091610211
:101CB0009427252F33278EE08227982720E030E0D5
:101CC000EBE4F1E004C0819198272F5F3F4F241788
:101CD0003507C9F7892F992708958091630290915C
:101CE0006402A0916502B09166020196A11DB11D2A
:101CF0008093630290936402A0936502B09366029E
:101D000008958091630290916402A0916502B09160
:101D10006602B7FF1EC08DE40E94910980E00E9418
:101D20009109809165020E94910980E00E949109C9
:101D30008091630290916402A0916502B091660265
:101D4000BF778093630290936402A0936502B0937F
:101D5000660208950F931F93CF93DF938BE10E9448
:101D6000230980915E020E942309809161020E94F2
:101D70002309809160020E9423098EE00E942309BA
:101D8000C0E0D0E00BE411E006C0F80181918F01C2
:101D90000E94230921968091600290916102C817E8
:101DA000D90798F30E94500E0E94230980915E0289
:101DB00090915F02019690935F0280935E02DF91A3
:101DC000CF911F910F91089520914C0183E090E0F5
:101DD000909361028093600210924C01223929F1A4
:101DE000233970F42138D9F0223820F4203809F052
:101DF00077C023C02039B9F0213909F071C013C070
:101E0000283989F1293920F4263908F469C05AC0E3
:101E10002E3909F43EC02F3909F062C012C081E0AA
:101E200080934D0166C082E0FBCF27E830E0D90106
:101E30000E94241A802D8F3F11F484E0F1CFD90144
:101E40002EC080914B01833019F480916702E8CF56
:101E500082E090E0909361028093600280914D0156
:101E60008093670246C080914B01A2E0B0E08330CE
:101E7000B1F082E090E090936102809360028091E3
:101E80004D01082E0E94361A80914D010E94B20920
:101E900030C080914B01A1E0B0E0833021F40E947A
:101EA000241A802DBDCF82E090E090936102809350
:101EB000600280914D01082E0E94361A81E00E9436
:101EC000510217C080914B01833019F410924D01DB
:101ED00010C082E090E0909361028093600209C09C
:101EE00082E090E0909361028093600280EC8093A6
:101EF0004C010E94AA0E0895EF92FF920F931F9338
:101F0000CF93DF930E94740B1092810010926202B3
:101F1000109263021092640210926502109266029F
:101F2000C0E0D0E04DC012E001C019E08091460150
:101F30008130B1F1112309F445C01092460110928D
:101F400045011092B20080EF8093B30082E080934D
:101F500070008FE08093B000153009F46FC0163028
:101F600080F4123009F441C0133028F4112351F1E8
:101F70001130E1F634C0133009F440C01430B1F62A
:101F800048C01830A9F0193030F4163009F45DC09B
:101F9000173061F66BC0193009F498C01A3031F669
:101FA00082E090E0909361028093600280E8E4C058
:101FB000109246010E94740B1092B00010927000B3
:101FC00010E0B4CF8091B702811181E0182FF29B0D
:101FD000ADCF80916202882309F0A8CFD3C00E94C0
:101FE0002B098B3109F0A1CF9ECF0E942B09992795
:101FF00090935F0280935E0213E098CF0E942B09BA
:102000009927982F8827909361028093600214E0AB
:102010008DCF00916002109161020E942B099927D7
:10202000802B912B909361028093600283519140A9
:1020300008F07BCFC0E0D0E015E078CF0E942B09FC
:102040008E3009F072CF16E071CF809160029091CE
:102050006102C817D90711F417E068CF0E942B0955
:10206000FE01E55BFE4F8083219660CF80914601A3
:10207000882309F05BCF0E94500E182F0E942B0975
:10208000181709F072C080914B01843038F4823007
:1020900008F062C0813009F062C006C08630F1F0FD
:1020A000873009F05CC012C08BE090E09093610231
:1020B00080936002E0EEF3E0ABE4B1E084918D93B5
:1020C000319681E0A635B807C9F758C082E090E0A4
:1020D000909361028093600280EC4EC082E090E0B9
:1020E00090936102809360020E94810EE0904E0105
:1020F000FF2400271127102F0F2DFE2CEE242091F6
:102100004C01332744275527522F442733272227B2
:1021100080914D019927AA27BB27DC0199278827A1
:10212000282B392B4A2B5B2B80914F019927AA270B
:10213000BB27282B392B4A2B5B2BE22AF32A042BB3
:10214000152BE0926302F0926402009365021093F3
:10215000660210924C0112C00E94E40E11C0E09180
:102160000201F091030109950BC082E090E0909389
:1021700061028093600281EC80934C010E94AA0E60
:1021800018E0D4CE80E88093610083E08093610002
:102190008091C10080788093C1000E94070CDF917C
:1021A000CF911F910F91FF90EF9008951F93CF93C0
:1021B000DF93EB01992780FF08C08077907034E0AF
:1021C000959587953A95E1F704C08E709070959536
:1021D00087959927877090708230910519F0049740
:1021E00041F51CC01091520180914B01833141F4A3
:1021F000C0FF02C088E001C080E0182BD695C795CB
:10220000812F0E949109CE010E94A40980E00E94C2
:10221000910990915301891781F4F2CF80E090EFFA
:102220000E94A40980E090E00E94A40980FF05C0FC
:10223000F5CF80914F010E944702DF91CF911F910E
:1022400008954F925F926F927F928F929F92AF927A
:10225000BF92CF92DF92EF92FF920F931F93CF9393
:10226000DF93D0904E01C090500140906302509097
:102270006402609065027090660280914C0199271B
:10228000B82EAA2480914D019927A82AB92AD0FCFA
:1022900009C0C0E0D0E0EE24FF2475E5872E71E090
:1022A000972EB0C0C0E0D0E000E010E065E5862EDB
:1022B00061E0962E43C0F401F08080914B018331A0
:1022C00039F400FF02C088E001C080E08C2901C021
:1022D0008C2D0E94910980916302909164020E946A
:1022E000A4098F2D0E9491092097D9F48091530160
:1022F0008F15B9F080914B01833141F0853189F41C
:10230000809154018F1509F082C00BC0C091630207
:10231000D0916402CC0FDD1FC80181709070C80F8E
:10232000D91F00FD04C080914B01853111F40E943A
:102330006D0E0F5F1F4F0894811C911C0A151B0521
:1023400009F0B9CFD7FE6EC0809151010E9491096A
:10235000C2010E94A40980E00E949109209711F017
:102360008D2D03C08D2D8F788061BE010E94D61007
:1023700059C0F401108180914B01833139F4E0FEA2
:1023800002C088E001C080E08C2901C08C2D0E9431
:10239000910980916302909164020E94A409812FA7
:1023A0000E949109809153018117B9F080914B01EE
:1023B000833139F0853189F480915401811761F5B9
:1023C0000CC0C0916302D0916402CC0FDD1FC70125
:1023D00081709070C80FD91F23C01D2D117F12600E
:1023E000E0FC04C080914B01853111F40E946D0E18
:1023F000BE01812F0E94D6100894E11CF11C0894A4
:10240000811C911CEA14FB0409F0B3CF0BC0C091EE
:102410006302D091640285CFC0916302D0916402BF
:102420001D2DDECFDF91CF911F910F91FF90EF9087
:10243000DF90CF90BF90AF909F908F907F906F90E4
:102440005F904F900895FF920F931F93009150015A
:1024500010914F0181B38F7C806381BB80914D01CE
:102460000E944702812F8150843608F440C018E151
:102470003EC0809153010E949109802F0E94470223
:10248000809154010E949109802F0E9447028091FF
:1024900055010E949109F82E802F0E9447028091D9
:1024A0005201833029F4809156010E94910905C0A0
:1024B000809156010E949109F82E80915201882343
:1024C00021F080915101F81669F4802F0E94470293
:1024D00081E08093620281B38F7C806281BB109225
:1024E0004C010EC0802F0E9447020E94DC0911504F
:1024F00000F681B38F7C806181BB80EC80934C01BE
:102500001F910F91FF900895DF92EF92FF920F932A
:102510001F93CF93DF9380914B01863109F4EAC07A
:10252000873178F4823109F457C0833130F4803137
:10253000D9F0813109F031C135C0843109F022C1AF
:10254000D9C0893109F4C2C08A3138F4873109F41D
:10255000BDC0883109F021C19AC08D3108F497C0FF
:102560008D3109F01AC15BC082E090E09093610266
:1025700080936002A2E0B0E00E94241A802D0E94A5
:10258000CC0980E00E9451020E94231280916202D5
:10259000882319F08BE094E002C080E094E00E9470
:1025A000020904C182E090E090936102809360028E
:1025B00080914C010E94470281B38F7C806181BB76
:1025C0001092620281E00E94510280914D010E94AE
:1025D00047020E948709DEC082E090E0909361028A
:1025E00080936002CEE4D1E089910E94910981E05C
:1025F000C235D807C9F780914D01882359F080E092
:1026000090EF0E94A40980E090E00E94A40980FF5E
:10261000C1C0F5CF80914C010E944702BBC0F09031
:102620004D018F2D9927039690936102809360024C
:10263000D0904C01E0904E0111E001E012C00F5F1C
:10264000E02FFF27E55BFE4F83810E9491090F1564
:1026500040F01E1530F4E12FFF27E55BFE4F82832B
:102660001F5F0D1560F306C080E00E949109C55BF5
:10267000DE4F8A831F5F812F8150C12FDD278E158A
:1026800098F310924C01C55BDE4F1B828FC084E033
:1026900090E09093610280936002C1E0D0E00DE48D
:1026A00011E0F80181918F010E949109982F80918A
:1026B0004C018C1711F490934D012196C530D10532
:1026C00081F710924C0110924E0170C083E090E0AF
:1026D0009093610280936002CCE4D1E089910E94E2
:1026E0009109F1E0C035DF07C9F710924C01109253
:1026F0004D015CC0D0904E0180914C019927D82F9C
:10270000CC2780914D019927C82BD92B2396D093A4
:102710006102C0936002239700E010E08DE4E82E90
:1027200081E0F82E26C080914B01843139F400FFFE
:1027300002C088E001C080E08D2901C08D2D0E947B
:10274000910980916302909164020E94A40980E043
:102750000E949109F701808300FD04C080914B0124
:10276000863111F40E946D0E0F5F1F4F0894E11C1B
:10277000F11C0C171D07B9F610924C01C55BDE4F1A
:102780001A8214C00E94211182E090E090936102AD
:102790008093600210924C0109C081E090E0909318
:1027A00061028093600289EC80934C010E94AA0E22
:1027B000DF91CF911F910F91FF90EF90DF900895DF
:1027C0008093680210926B0210926A022091630259
:1027D000309164024091650250916602813039F473
:1027E000DA01C901880F991FAA1FBB1F06C0DA01B1
:1027F000C90180509C4FAB4FBF4F10923C011092CB
:102800003B0120E030E006C088509140A040B0403D
:102810002F5F3F4F883041E0940740E0A40740E03D
:10282000B40790F730933C0120933B0190933E0115
:1028300080933D010895CF93DF93CDB7DEB7249702
:102840000FB6F894DEBF0FBECDBF80916902813014
:1028500009F040C080913D0190913E01892B31F0FB
:1028600080913B0190913C010E94F00A20913B0134
:1028700030913C0188E091E0AC01249FC001259F8C
:10288000900D349F900D112420913D0130913E0117
:10289000820F931F9C014427552729833A834B833A
:1028A0005C8380916802FE013196813021F484E0DE
:1028B000ACE1B0E00BC0205034404440504029838C
:1028C0003A834B835C8384E0A0E2B0E0182E0E9440
:1028D000471A12C0833081F420913D0130913E01AE
:1028E00080916802823019F4A0E3B0E002C0A1E355
:1028F000B0E0022E0E94361A24960FB6F894DEBF7E
:102900000FBECDBFDF91CF910895CF93DF93CDB7A9
:10291000DEB724970FB6F894DEBF0FBECDBF81306F
:1029200019F4ACE1B0E002C0A0E2B0E019821A8272
:102930001B821C8284E0FE013196182E0E942C1A04
:1029400089819A81AB81BC818F5F9F4FAF4FBF4F11
:1029500021F419821A821B821C8269817A818B81FF
:102960009C8124960FB6F894DEBF0FBECDBFDF91D9
:10297000CF9108951F93182F80913D0190913E01B2
:1029800088509140A1F480913B0190913C010196C7
:1029900090933C0180933B0101970E94F00A80E0F4
:1029A00090E00E94660A10923E0110923D01812F34
:1029B0000E94520980913D0190913E0101969093B1
:1029C0003E0180933D0180916A0290916B020196D5
:1029D00090936B0280936A021F910895EF92FF9289
:1029E0000F931F93CF93DF93823059F440E350E06D
:1029F000DA010E94241A802D182F62E0E62EF12CB5
:102A00000AC041E350E0DA010E94241A802D182FF9
:102A100039E2E32EF12CE40EF51E15C0E70100E0CB
:102A2000DE010E94241A802D0E94910921960F5FD9
:102A30000430B1F784E090E0E80EF91E112319F09C
:102A400085E00E943D02115048F7DF91CF911F9120
:102A50000F91FF90EF900895CF93DF93C8E1D0E0FE
:102A6000DE010E94241A802D0E949109219680E0A7
:102A7000CC31D807A9F72597DE010E94241A802DB2
:102A80002596882359F080E090EF0E94A40980E009
:102A900090E00E94A40980FF08C0F5CF2697DE01D0
:102AA0000E94241A802D0E944702DF91CF91089541
:102AB0003F924F925F926F927F928F929F92AF92CE
:102AC000BF92CF92DF92EF92FF920F931F93CF931B
:102AD000DF93182F0E9485142B013C01113009F05F
:102AE000D7C0A2E8B0E00E94311A4F0110926302F1
:102AF00010926402109265021092660260E070E02B
:102B000080E090E00E942B0A83E180934B0123E058
:102B100030E0ECE4F1E0D9010E94241A802D819389
:102B20002F5F3F4F81E0E535F807A9F780914C0111
:102B30009927D82FCC2780914D019927C82BD92BC5
:102B4000AA24BB24650133249CC080914E0180FFE0
:102B50004BC091EA8916910418F40BE411E02FC0E0
:102B6000332041F48F7780934E01C0EAD0E011E02A
:102B7000312E07C0E401C05AD040806880934E01D6
:102B800033240BE411E007C080E00E945209F801F1
:102B900082870F5F1F4FCE01855B9E4F0817190775
:102BA00099F78D2F992780934C01C0934D0141C017
:102BB00080E00E945209F80182870F5F1F4FC40115
:102BC000855B9E4F0817190799F7892D99278093E0
:102BD0004C0180924D0180914E01806880934E019E
:102BE000C401AA27BB2728C0CE01AA27BB278A0D6C
:102BF0009B1DAC1DBD1D481659066A067B0648F490
:102C0000E201CA19DB098D2F992780934C01C093EB
:102C10004D010BE411E007C080E00E945209F80169
:102C200082870F5F1F4FCE01855B9E4F08171907E4
:102C300099F7CE01AA27BB27A80EB91ECA1EDB1E14
:102C4000A114B104E1F4E12CF12CEFEF0E2F112DC2
:102C5000EA20FB200C211D21E114F10401051105DE
:102C600071F08DE40E94910980E00E949109C801F1
:102C7000AA27BB270E94910980E00E9491090E9427
:102C80002111A414B504C604D70408F45ECF19C0FA
:102C9000A4E8B0E00E94311A4F0110926302109232
:102CA0006402109265021092660260EE70E084EE9B
:102CB00093E00E942B0A85E180934B012CE030E0E9
:102CC00028CFDF91CF911F910F91FF90EF90DF9070
:102CD000CF90BF90AF909F908F907F906F905F90BC
:102CE0004F903F9008951F93CF93DF93CDB7DEB7FA
:102CF0002E970FB6F894DEBF0FBECDBF81E08EBB1E
:102D000010E08EB38823E9F3F69B04C01123B9F1D8
:102D100011500AC0F79B06C0133011F410E00DC02B
:102D20001F5F02C0F29949C0113079F0113028F0CC
:102D30001230E1F01330D1F523C06DE274E0CE0122
:102D400001960E94E81981E007C067E274E0CE01B5
:102D500001960E94E81980E00E9485142AE030E084
:102D6000AE014A5F5F4F0E94EF1920C061E274E03C
:102D7000CE0101960E94E819A0E3B0E009C013E07B
:102D80006BE174E0CE0101960E94E819A1E3B0E086
:102D90000E94241A802D8F3F19F480E090E001C03A
:102DA0009927BE016A5F7F4F0E947202CE01019691
:102DB0000E9415080E946802A4CF2E960FB6F894C0
:102DC000DEBF0FBECDBFDF91CF911F910895EF926F
:102DD000FF920F931F93CF93DF9320914B012631E6
:102DE00009F4AFC1273178F4223109F45FC02331EF
:102DF00030F42031E9F0213109F009C237C0243123
:102E000009F037C19EC1293109F4E0C02A3138F4F4
:102E1000273109F4DBC0283109F0F9C183C02B3117
:102E2000C9F12B3108F47EC02C3109F0F0C16DC01E
:102E300082E090E09093610280936002EBE4F1E025
:102E400024E230E08191D901082E0E94361A2F5FCA
:102E50003F4F81E0E735F807A9F781E080936202F0
:102E60001092690281B38F7C806210C082E090E092
:102E700090936102809360020E941B141092620280
:102E800080E00E94F40981B38F7C806181BB109245
:102E90004C01C6C184E090E090936102809360028F
:102EA00010924C0181E080934D0139C082E090E0A6
:102EB0009093610280936002ECE4F1E027E130E05E
:102EC0008191D901082E0E94361A2F5F3F4F91E061
:102ED000E235F907A9F72CE130E080E0D901082EAE
:102EE0000E94361AD9011496082E0E94361A2F5FB6
:102EF0003F4FE0E024323E0789F781E02F50304019
:102F0000D901082E0E94361AC2CF84E090E0909337
:102F100061028093600210924C0110924D01109258
:102F20004E017EC184E090E0909361028093600244
:102F300080916902843049F00E941B1410923E0176
:102F400010923D0184E08093690240913D015091CF
:102F50003E0120914B01283119F0A1E3B0E002C0FD
:102F6000A0E3B0E00E94241A802D992784179507CA
:102F700010F48FEF1EC0283119F422E330E002C0B4
:102F80002AE530E080EA90E0489FD001499FB00DEB
:102F9000589FB00D1124A20FB31F80914C0128E25D
:102FA000829FC0011124A80FB91F98970E94241A6C
:102FB000802D80934D0110924C0110924E014F5F75
:102FC0005F4F50933E0140933D012AC183E090E062
:102FD000909361028093600280916902833039F09E
:102FE00083E08093690210923E0110923D0140916E
:102FF0003D0150913E01273169F480EA90E0489FFD
:103000009001499F300D589F300D11242E5C3F4F89
:1030100082E00CC080EA90E0489F9001499F300D0B
:10302000589F300D1124265A3F4F83E08093680249
:1030300080913D0190913E010A97B0F4ECE4F1E0FB
:103040008191D901082E0E94361A2F5F3F4F81E0EF
:10305000E035F807A9F780913D0190913E01019676
:1030600090933E0180933D0110924C0110924D01CE
:10307000D7C082E090E090936102809360028091DB
:103080006902813009F1233131F481E00E94E013BB
:10309000C3E0D0E005C080E00E94E013CCE0D0E0C7
:1030A00080913D0190913E010E94660A81E08093EB
:1030B0006902ECE4F1E08191DE01082E0E94361AEB
:1030C00091E0E535F907B9F780914C019927D82FA0
:1030D000CC2780914D019927C82BD92B0BE411E007
:1030E00006C0F80182850E94BA140F5F1F4FCE01FF
:1030F000855B9E4F08171907A1F720916A0230914E
:103100006B0237FDC4CE80914E0187FFC0CE2115E2
:10311000310509F4BCCE80916802813019F4A2E82F
:10312000B0E002C0A4E8B0E009010E94421A809118
:103130006A0290916B02906890936B0280936A028E
:10314000A6CE80916902823001F10E941B1490E0AA
:1031500080914B01843109F491E0892F0E94E013A2
:1031600060913D0170913E0180913B0190913C0145
:103170000E942B0A82E080936902109263021092EF
:103180006402109265021092660280914C019927A8
:10319000D82FCC2780914D019927C82BD92B90E0AF
:1031A00080914B01843109F491E0892F0E948514AC
:1031B0007B010BE411E01BC0970144275527809148
:1031C000630290916402A0916502B0916602821739
:1031D0009307A407B50710F08FEF03C080E00E94AB
:1031E0005209F80182830E946D0E0F5F1F4FCE01BE
:1031F000855B9E4F08171907F9F62396D093610255
:10320000C093600210924C01F801128209C081E063
:1032100090E0909361028093600289EC80934C016E
:103220000E94AA0EDF91CF911F910F91FF90EF9016
:103230000895CF92DF92EF92FF920F931F93CF9357
:10324000DF93CDB7DEB769970FB6F894DEBF0FBE38
:10325000CDBF80E4898388E28A8383E28B8389E21D
:103260008C8381E00E9485146B017C0181B38F7C8B
:10327000806381BB098110E042C080E00E94520956
:10328000982FFE01E10FF11D8181981709F51F5F4D
:10329000143011F58E010B5F1F4F80E00E94520920
:1032A000F8018083882339F00F5F1F4FCE014996C4
:1032B0000817190791F7198E81E080936C02CE01EF
:1032C00005960E94150881B38F7C806181BB42C046
:1032D00010E0901709F411E080916D0290916E0258
:1032E000A0916F02B09170020196A11DB11D809353
:1032F0006D0290936E02A0936F02B0937002809162
:103300006D0290916E02A0916F02B09170028C15C7
:103310009D05AE05BF0508F4B0CF60E070E080E029
:1033200090E00E942B0A10926D0210926E02109291
:103330006F021092700280916C02882349F481B36D
:103340008F7C806181BB83E394E00E94920302C082
:103350000E94191969960FB6F894DEBF0FBECDBF53
:10336000DF91CF911F910F91FF90EF90DF90CF9061
:10337000089560E070E080E090E00E942B0A1092D7
:103380006C0210926D0210926E0210926F021092F7
:1033900070020E94191980916C02882371F08EB31B
:1033A0008823E9F3F79B03C00E94191902C0F29920
:1033B00003C00E946802F3CF80E00E94F4090895E0
:1033C0000C9491028F938BE58093B8008F911895A0
:1033D000FB01DC0105900D920020E1F70895FA0150
:1033E000CF93FF93EF932230CCF02532BCF4C22F61
:1033F0002C2F332744275527FF93EF930E944C1A15
:10340000EF91FF91605D6A330CF0695D6193B901E2
:10341000CA01605070408040904051F710828F91F7
:103420009F91CF910C94141ADC01FC0101900020B3
:10343000E9F73297AE17BF0730F47C916081708353
:1034400031976D93F7CF0895F999FECFB2BDA1BD25
:10345000F89A119600B40895F7DF01921A94E1F7F3
:103460000895F2DFE02DF0DFF02D0895F999FECFF9
:10347000B2BDA1BD00BC11960FB6F894FA9AF99AA4
:103480000FBE0895F3DF012CF1DF112408950190A0
:10349000EDDF1A94E1F70895A1E21A2EAA1BBB1BD7
:1034A000FD010DC0AA1FBB1FEE1FFF1FA217B30710
:1034B000E407F50720F0A21BB30BE40BF50B661F26
:1034C000771F881F991F1A9469F7609570958095EA
:0E34D00090959B01AC01BD01CF010895FFCF87
:0434DE0052098412F9
:00000001FF
