:100000000C9412020C942D020C94431B0C94A60326
:100010000C942D020C94AB070C942D020C942D0221
:100020000C942D020C94E70B0C94451B0C942D02A0
:100030000C942D020C9432090C942D020C942D0278
:100040000C942D020C9477090C942D020C942D0223
:100050000C942D020C942D020C9468086F00600023
:100060005649455720444154412054414753005379
:10007000544F524147452053495A455300A30099D4
:10008000008F00850032313036353120485A00313A
:10009000313334323720485A00203836373338204D
:1000A000485A0020353731353320485A0016010AA6
:1000B00001FA00EA00DA00C600BB00455241534590
:1000C000204F4E4C59004655534520414E44204C3C
:1000D0004F434B204259544553004C4F434B204211
:1000E00059544553204F4E4C5900465553452042D4
:1000F00059544553204F4E4C5900444154412041DE
:100100004E4420454550524F4D00454550524F4DAD
:10011000204F4E4C590044415441204F4E4C590001
:10012000490695069305E805EF053C0788017A0125
:100130006D015E014B0138014A554D5020544F204E
:10014000424F4F544C4F41444552004D414E554152
:100150004C2043414C4942524154494F4E00415575
:10016000544F2043414C49425241544500434C4571
:100170004152204D454D4F52590053455420535044
:10018000492053504545440053455420434F4E5455
:100190005241535400F7036D0528040404E406C2D9
:1001A00003CA06FF01F401E801D401C501BC01B195
:1001B00001534C454550204D4F4445005345545440
:1001C000494E4753004441544153544F52452049EE
:1001D0004E464F0044415441464C415348205052F2
:1001E000474D204D4F44450050524F4752414D20FE
:1001F0004156520053544F5245205052474D0041F2
:100200005652495350204D4F444500360231022288
:100210000213023C433E2032303036202D2047501E
:100220004C004259204445414E2043414D455241E6
:100230000056312D3400425554544C4F4144002A4D
:10024000574149542A004028232942592044454116
:100250004E2043414D4552410040282329425554E8
:10026000544C4F414420415652495350005052473C
:100270003E2000424144495352004E4F20455241D6
:10028000534520434D44004E4F2044415441004EBD
:100290004F20454550524F4D004E4F204655534537
:1002A000204259544553004E4F204C4F434B20425F
:1002B000595445530050524F4752414D4D494E47B6
:1002C00020444F4E45004641494C4544002A535472
:1002D0004F52414745204D4F44452A00434F4E461B
:1002E00049524D003C4E20593E004D454D20434C57
:1002F0004541524544004E4F2053544F52454420EF
:100300005052474D002A4A544147204F4E2A00A8D8
:10031000EA802A0040000A510A0840595518011184
:100320001E111B500B411B411F1101511F511B007E
:100330000000000880001A204000000000510F91CA
:100340003941149131411E410E411D500F80201042
:100350001548864014780570855115510E519551F8
:100360008E219081205015484450C528C02820096E
:10037000504114208011110000001003800254012C
:1003800040002244415441464C415348204552527A
:100390004F5200000100020004000800100010008D
:1003A00020002008010801080108010801100210BE
:1003B00002200409090909090A0A0B425546462088
:1003C0004F564552464C4F57002A44415441464CE3
:1003D000415348204D4F44452A00010008415652E0
:1003E0004953505F3202020453594E432045525242
:1003F0004F52002A4154415652495350204D4F44C8
:10040000452A00444154412D004550524D2D00468F
:100410005553452D004C4F434B2D004E4F2054411A
:100420004753000011241FBECFEFD4E0DEBFCDBF85
:1004300011E0A0E0B1E0E0E9F7E302C005900D9221
:10044000A632B107D9F712E0A6E2B1E001C01D92D1
:10045000A63DB107E1F70C9473020C94BD03CF9352
:10046000DF93282F21502F3F49F0A0E0B8E4C0E0EF
:10047000D0E0CD010197F1F72150D8F7DF91CF916E
:1004800008958EB38823E9F781E00E942F028EB38E
:100490008823B9F70895CF93C0E081E08EBB8EB377
:1004A0008823E9F3F69B06C0CC2311F4C3E00CC00B
:1004B000C1500AC0F79B06C0C33011F4C0E004C0AD
:1004C000CF5F02C0F2990DC0EC2FFF27EE0FFF1F88
:1004D000E55FFD4F859194910E941F080E944102A3
:1004E000DECFCF910895CDEFD4E0DEBFCDBF00E0E9
:1004F00080E880BF85E08093640080E380BB87E272
:1005000084B98FED85B98CE08EB980936B0080ED56
:1005100080936C0080EC8DBB8CBB81B38F7C806240
:1005200081BB82E091E00E94D9088A3709F120E07E
:1005300030E03A83298380910201909103012817CA
:10054000390788F46FEFCE0101960E94E408898193
:100550009A8101969A838983209102013091030147
:100560008217930778F36AE782E091E00E94E4083B
:100570000E94CC0784E091E00E94D9088F7080939C
:10058000E70078948FE392E00E941F0880E00E94C9
:10059000FC0981B3806381BB0E944A0787E090E039
:1005A0000E94FC0881B38F7C806181BB81E08EBB9F
:1005B00080E88093610083E0809361008EB388239C
:1005C000E9F3F69B06C0002311F406E025C00150B4
:1005D00023C0F79B06C0063011F400E01DC00F5F7A
:1005E0001BC0F49B15C010E81093610010926100CD
:1005F000E02FFF27EE0FFF1FEB56FE4F85919491E2
:10060000FC0109951093610083E08093610004C0B0
:10061000F39B02C00E944B02E02FFF27EE0FFF1F4B
:10062000ED55FE4F859194910E941F080E94410252
:10063000C5CFCF93DF93282F21502F3F49F0A3E35D
:10064000B7E0C0E0D0E0CD010197F1F72150D8F735
:10065000DF91CF910895992781309105A9F08230DB
:1006600091051CF4892B21F00895029751F008950B
:10067000869A82E291E00E94D908882319F48E9A22
:100680000895869A8E9808958698FCCFFB0120E005
:100690008436910520F02F5F84569040F9CF205D7D
:1006A000219320E08A30910518F02F5F0A97FACF46
:1006B000205D2193805D8193108208951F93CF93D5
:1006C000DF93CDB7DEB727970FB6F894DEBF0FBE26
:1006D000CDBF182F6DE672E0CE0101960E944B1B34
:1006E0001E831F82CE0101960E94DE0727960FB659
:1006F000F894DEBF0FBECDBFDF91CF911F9108955B
:10070000CF93DF93CDB7DEB764970FB6F894DEBF13
:100710000FBECDBF25E429832EE32A83BC01CE0181
:1007200003960E944B1BCE0101960E94DE070E9499
:100730004102F49BFECF0E94410264960FB6F894EA
:10074000DEBF0FBECDBFDF91CF91089578941F9289
:100750000F920FB60F9211248F939F9393B19095A0
:10076000907D8CB180958C70982B9EBB9F918F91C2
:100770000F900FBE0F901F90189583E792E00E9494
:100780008003FFCFCF93C0E081E08EBB8EB3882380
:10079000E9F3F69B06C0CC2311F4C5E019C0C150A3
:1007A00017C0F79B06C0C53011F4C0E011C0CF5F81
:1007B0000FC0F49B0BC0EC2FFF27EE0FFF1FE05E76
:1007C000FE4F85919491FC01099502C0F2990DC0EC
:1007D000EC2FFF27EE0FFF1FE45DFE4F85919491F4
:1007E0000E941F080E944102D1CFCF91089583EF4C
:1007F00093E00E941F0881E292E19093250180938B
:1008000024010E94370F089580E291E00E94D908E8
:100810000E94AD0981E08093830287EC99E0909378
:1008200001018093000189EC93E00E941F088FE68C
:100830009CE090932501809324010E94370F80E073
:100840000E94FC0980916400846080936400089594
:10085000DF92EF92FF920F931F93CF93DF93CDB769
:10086000DEB765970FB6F894DEBF0FBECDBFDD24AF
:100870000D2D0E945809D092830282E699E0909350
:100880000101809300010E947A0B882309F417C1AB
:100890000E94410281E08EBB8EB38823E9F3F29976
:1008A0000EC1F4991CC0F69B06C0002311F406E0AB
:1008B00009C0015007C0F79B05C0063011F400E0E5
:1008C00001C00F5FE02FFF27EE0FFF1FE355FF4F23
:1008D000859194910E941F080E944102DDCF81B34F
:1008E000806381BB8FE392E00E941F0880E291E069
:1008F0000E94D9080E94AD0980E00E942B038091DC
:100900001201909113019D8B8C8B54E3E52E51E0E5
:10091000F52E1BE0CE0144960E94D908F701819381
:100920007F018C899D8901969D8B8C8B115017FFBF
:10093000F1CF0E94911010922B0110922C01109275
:100940002D0110922E0180913501882309F0A2C05B
:10095000063021F0002311F0023091F483E40E946C
:100960005E038AE191E00E94D908813039F042E0CB
:10097000D42E8AE792E00E94800302C00E944C18A5
:10098000002311F00230C1F4DD20B1F484E40E94B0
:100990005E0381E00E949013DC01CB010097A1056A
:1009A000B10539F433E0D32E87E892E00E9480034A
:1009B00003C081E00E949C18802F81508230B0F4E7
:1009C00085E40E945E0380E00E949013DC01CB016D
:1009D0000097A105B10539F423E0D22E8FE892E00B
:1009E0000E94800303C080E00E949C18033011F035
:1009F000053099F486E40E945E0380E191E00E9454
:100A0000D908882339F493E0D92E89E992E00E942D
:100A1000800303C082E00E94FC17802F8450823044
:100A200000F5053059F481E00E942B0381E00E941B
:100A30002F0280E00E942B030E9491108CE40E9400
:100A40005E038EE091E00E94D908882339F483E0A8
:100A5000D82E87EA92E00E94800303C083E00E94C0
:100A6000FC1765EB72E0CE0101960E944B1BDD2066
:100A700031F066EC72E0CE010D960E944B1BCE0168
:100A800001960E94DE078FEF0E942F0284E60E94EB
:100A90002F0204C088EE93E00E94800381E00E9450
:100AA0002B030E94BD0980E00E94FC098091640034
:100AB00084608093640081B38F7C806181BB659684
:100AC0000FB6F894DEBF0FBECDBFDF91CF911F915F
:100AD0000F91FF90EF90DF90089582E699E0909358
:100AE0000101809300010E9458091092830281E065
:100AF0000E94FC090E947A0B8823A1F08DEC92E001
:100B00000E941F0888E395E19093250180932401BA
:100B10000E94370F80E00E94FC098091640084608D
:100B20008093640008950F931F93CF93DF93CDB705
:100B3000DEB722970FB6F894DEBF0FBECDBF8CEDA7
:100B400092E00E941F0884EB0E942F0284EE92E044
:100B50000E941F088EB38823E9F38EB399278C0176
:100B60000470107082FD29C0F39BF4CF0E944102F3
:100B70008FE392E00E941F081A830983809102018B
:100B8000909103010817190788F46FEFCE010196C1
:100B90000E94E40889819A8101969A838983209131
:100BA0000201309103018217930778F38AEE92E0F5
:100BB0000E941F088FEF0E942F0222960FB6F89412
:100BC000DEBF0FBECDBFDF91CF911F910F91089572
:100BD0008FE392E00E941F080E944A070895CF9376
:100BE000DF93CDB7DEB729970FB6F894DEBF0FBEFF
:100BF000CDBF81E08EBB8091C100807888608093FA
:100C0000C1008091D102882321F00E94C50B0E946F
:100C10000F098EB38823A9F3F69B04C08091660068
:100C20008F5F05C0F79B06C080916600815080935E
:100C3000660002C0F2991FC066E372E0CE01019621
:100C40000E944B1BCE0101960E94170983E4898301
:100C500086E58A8380E28B8380916600BE016C5FAB
:100C60007F4F99270E944603CE0101960E94DE071E
:100C70000E944102C6CF8091C10080788093C1005C
:100C800029960FB6F894DEBF0FBECDBFDF91CF918E
:100C900008951F93CF93DF93CDB7DEB726970FB696
:100CA000F894DEBF0FBECDBF84E091E00E94D9086A
:100CB000182F1F7081E08EBB8EB38823E9F3F69B5B
:100CC00004C01F3080F41F5F0EC0F79B04C01230B9
:100CD00050F0115008C0F29B06C0612F84E091E0F3
:100CE0000E94E40818C083E4898384E58A8380E253
:100CF0008B83BE016C5F7F4F812F99270E94460333
:100D0000CE0101960E94DE07812F8F708093E7004D
:100D10000E944102D1CF26960FB6F894DEBF0FBED7
:100D2000CDBFDF91CF911F910895CF9381E08EBB0E
:100D300080E291E00E94D908C82F843008F0C0E01A
:100D40008EB38823E9F3F69B06C0CC2311F4C3E0ED
:100D500012C0C15010C0F79B06C0C33011F4C0E0F0
:100D60000AC0CF5F08C0F29B06C06C2F80E291E002
:100D70000E94E4080DC0EC2FFF27EE0FFF1FE35881
:100D8000FF4F859194910E941F080E944102D8CF85
:100D9000CF91089585E083BF8091E4008F778093A1
:100DA000E400F69903C08895F69BFDCF8091E4009E
:100DB00080688093E4008FE392E00E941F080E9405
:100DC0004A070E94410208951F93CF9310E00E94AA
:100DD000410281E08EBB8EB38823E9F3CEB3C07CA1
:100DE00019F081E0182738C0F29943C0F49B34C051
:100DF000113081F582E699E0909301018093000122
:100E00000E945809C0938302812F0E94FC090E940E
:100E10007A0BC82F882341F00E941D1B809164002B
:100E200084608093640018C0812F0E949013DC01BD
:100E3000CB010097A105B10579F48C2F0E94FC0924
:100E40008091640084608093640086EF92E00E9449
:100E5000800302C00E94F919E12FFF27EE0FFF1F48
:100E6000E45AFF4F859194910E941F080E9441020D
:100E7000B2CFCF911F91089585B78F7785BF85BF7A
:100E800085E093E00E941F080E94410288E1809360
:100E90006000FFCFCF93DF934FE320E030E080E8A6
:100EA0008093610010926100409366005FB71092DA
:100EB0006F0088E08093B60081E0809370007894A2
:100EC000809381008093B0008091B600992787704D
:100ED00090700097C9F790938500809384001092DA
:100EE000B2004EE3A3E3B3E7C0E0D0E0CD01019749
:100EF000F1F7322F80916600282F80912601909182
:100F000027018650914E20F08091660081500AC0E2
:100F100080912601909127018B5F904E58F480912B
:100F200066008F5F8093660080916600831711F0E2
:100F30004150E0F610926F00109270001092810004
:100F40001092B0008091B600877F8093B6005FBF9B
:100F5000DF91CF9108951F920F920FB60F92112437
:100F60008F939F93109281008091840090918500CF
:100F7000909327018093260110928500109284009F
:100F80001092B20081E0809381009F918F910F9029
:100F90000FBE0F901F9018958FE08093E70087EBAE
:100FA0008093E50087E08093E60080EC8093E40086
:100FB0008091E40088608093E4000895CF93DF93EC
:100FC000EC0120E03FEFEFE4F2E0DF018991982FA0
:100FD0009A52913538F4803211F0892F01C08FEF89
:100FE0008C9303C0882331F030832F5F11963196A4
:100FF000243160F380E0273008F081E080937F02A5
:1010000010924D029FEF86E0E22FFF27E15BFD4F3C
:1010100090832F5F815087FFF7CFE22FFF27E15B9F
:10102000FD4F108210924E0220934C028AE0809372
:10103000800281E080936A02DF91CF910895CF937F
:10104000DF93CDB7DEB764970FB6F894DEBF0FBE5F
:10105000CDBFBC01CE0101960E944B1BCE01019673
:101060000E94DE0764960FB6F894DEBF0FBECDBFB8
:10107000DF91CF910895E82F20E030E0862F86950C
:10108000A82FBB27A559BD4FEF3F39F0FF27EE0F23
:10109000FF1FE15FFC4F25913491772761707070DD
:1010A00043E050EF922F9F706115710519F05FE0DA
:1010B0009295907F8C918523892B8C9384E0369533
:1010C00027958A95E1F71596415047FFEACF089595
:1010D00078941F920F920FB60F9211242F933F9383
:1010E0004F935F936F937F938F939F93AF93BF9330
:1010F000CF93EF93FF9380917F02882399F08091A3
:101100008002882321F08150809380020BC080915F
:101110004D02882321F481E080936A0203C081504C
:1011200080934D0280916A02882339F1C0E080915A
:101130004E028C0F90914C02E82FFF27891710F078
:10114000E91BF109E15BFD4F80816C2F0E943B0898
:10115000CF5FC63060F380914E02982F8F5F8093EF
:101160004E0280914C02981719F481E080934E0250
:1011700083E080934D0210926A02ACEEB0E0EBE6A1
:10118000F2E093E181918D93915097FFFBCFFF9116
:10119000EF91CF91BF91AF919F918F917F916F917F
:1011A0005F914F913F912F910F900FBE0F901F9025
:1011B0001895FC01F8948081918192BD81BDF89AC7
:1011C000789480B5992708951F93CF93DF93EC010E
:1011D000162F0E94D908811759F0F89488819981B7
:1011E00092BD81BD10BDFA9AF99A7894F999FECF13
:1011F000DF91CF911F9108959C01832F99278093B0
:10120000C5002093C40082E08093C00080E88093F2
:10121000C10086E08093C2000E948F0B0895982F32
:101220008091C00085FFFCCF9093C6000895CF93B6
:10123000DF93EC018881882331F089910E940F09A6
:1012400088818823D1F7DF91CF9108958091D102D1
:10125000882321F4809128018823C1F30E94C50BC3
:10126000992708951F920F920FB60F9211242F9372
:101270003F934F935F936F937F938F939F93AF931E
:10128000BF93EF93FF938091C6000E949C0BFF9148
:10129000EF91BF91AF919F918F917F916F915F91EE
:1012A0004F913F912F910F900FBE0F901F90189567
:1012B000809164008B7F8093640081E08DBD8CE51C
:1012C0008CBD08958EBD0DB407FEFDCF8EB5992758
:1012D00008950F931F938C01812F99270E94620913
:1012E000802F0E94620999271F910F9108951F92E4
:1012F0000F920FB60F9211248F9380916E008D7F05
:1013000080936E0080E48093B90081E08093810235
:101310008091BA00809382028F910F900FBE0F9040
:101320001F901895482F90E06CE773E09B012150C7
:101330003040F9018491841711F0933031F4FB01AE
:10134000849187BD89E084BD08959F5F2E5F3F4FE4
:101350006E5F7F4F943068F308959DB190659DB99D
:101360006D98759A76989AE59093B8000E949209C4
:10137000109281021092820208958DB18F7A8DB9F8
:101380008EB18F788EB986988E9814BC089510927D
:1013900081028093BA00A99A80916E008260809346
:1013A0006E0016BC809181028823E1F38091820255
:1013B000992708950F931F938C01812F99270E94DD
:1013C000C709802F0E94C70999271F910F9108957F
:1013D00081E00E9419038091B80081608093B80079
:1013E00081E00E9419038091B80081608093B80069
:1013F00081E00E941903089590918302813031F4B5
:10140000913011F482E005C028980895913021F4BC
:10141000892F0E942B030895289A08950F931F93F4
:101420008C0180E00E94FC09000081E00E94FC0920
:10143000E0910001F091010184E50995812F992740
:10144000E0910001F09101010995E0910001F09116
:101450000101802F0995E0910001F091010180E0E8
:101460000995E0910001F091010180E0099599272B
:101470001F910F910895EF92FF920F931F938C018C
:101480007B0180E00E94FC09000081E00E94FC09D1
:10149000E0910001F091010188E609958AB5980173
:1014A00002C0369527958A95E2F7C901E0910001BF
:1014B000F091010109958BB502C0000F111F8A95AB
:1014C000E2F78F2D9927E0910001F0910101800F43
:1014D0000995E0910001F09101018E2D099503E03D
:1014E000E0910001F091010180E00995015007FFB2
:1014F000F7CF1F910F91FF90EF9008950F931F93D7
:101500008C0180E00E94FC09000081E00E94FC093F
:10151000E0910001F091010184E80995E09100015A
:10152000F091010180E00995812F9927E091000158
:10153000F09101010995E0910001F0910101802FE6
:1015400009951F910F91089580E00E94FC09000009
:1015500081E00E94FC09E0910001F091010187E522
:101560000995E0910001F091010180E00995682F53
:101570007727CB018873907033E0959587953A95DE
:10158000E1F79927FC01ED54FC4F4491409386020A
:101590009C01280F391FF901ED55FC4F859194915D
:1015A0009093880280938702F901ED56FC4F859154
:1015B000949190938A028093890280E1841B8ABD72
:1015C00048504BBDCB0108950F931F938C0180E0D1
:1015D0000E94FC09000081E00E94FC09E0910001EA
:1015E000F091010180E50995812F9927E091000193
:1015F000F09101010995E0910001F0910101802F26
:101600000995E0910001F091010180E009950E94A7
:10161000A40A8823E4F71F910F9108950F931F9355
:101620008C0180E00E94FC09000081E00E94FC091E
:10163000E0910001F091010183E509958AB59801D7
:1016400002C0369527958A95E2F7C901E09100011D
:10165000F091010109958BB502C0000F111F8A9509
:10166000E2F7E0910001F0910101802F0995E091EE
:101670000001F091010180E009950E94A40A8823ED
:10168000E4F71F910F9108950F931F938C0180E051
:101690000E94FC09000081E00E94FC09E091000129
:1016A000F091010183E809958AB5980102C0369549
:1016B00027958A95E2F7C901E0910001F0910101B7
:1016C00009958BB502C0000F111F8A95E2F7E091D2
:1016D0000001F0910101802F0995E0910001F09146
:1016E000010180E009950E94A40A8823E4F71F9174
:1016F0000F9108950E94A40A80918602893061F0BA
:101700008091640084608093640083E893E00E9489
:10171000800380E090E0089581E090E008958DE8F6
:1017200092E09093CE028093CD029093D00280936A
:10173000CF021092D1020895982F8091D102803467
:1017400029F48BEB93E00E9480030895E091CD0291
:10175000F091CE0290834091CD025091CE029A0139
:101760002F5F3F4F3093CE022093CD028091D10264
:101770008F5F8093D1022D5C324031F44F53504043
:101780005093CE024093CD0208958091D1028823D8
:1017900019F480E090E008952091CF023091D002BA
:1017A000F9019191F093D002E093CF028091D102A0
:1017B00081508093D102ED5CF24031F42F533040E0
:1017C0003093D0022093CF02892F992708957894DF
:1017D0001F920F920FB60F9211248F9380912901BF
:1017E0008F5F8093290180912901873029F410921D
:1017F000290181E0809328018F910F900FBE0F90F7
:101800001F9018951092800010928100109229016B
:1018100010928500109284001092820081E08093E3
:101820006F00089520912B0130912C0140912D01E2
:1018300050912E0110928C0210928B02809187029F
:1018400090918802AA27BB2782179307A407B507A0
:1018500088F460E070E0281B390B4A0B5B0B6F5F6C
:101860007F4F82179307A407B507A8F370938C02E4
:1018700060938B0230938502209384020895CF9366
:10188000C82F209184023091850280918702909127
:10189000880228173907A9F480918B0290918C0255
:1018A0009C01019690938C0280938B02C9010E9447
:1018B000440B80E090E00E947E0A10928502109214
:1018C00084028C2F0E94C709809184029091850226
:1018D00001969093850280938402CF910895DF92C0
:1018E000EF92FF920F931F93CF93DF93DD248091AC
:1018F000340199278631910509F400C1873191059A
:10190000B4F48231910509F46FC0833191053CF440
:101910008031910531F1419709F446C040C18431CD
:10192000910509F48AC045970CF0AFC07FC089319A
:10193000910509F470C08A31910544F4873191050D
:1019400009F469C0489709F458C029C18B31910541
:10195000E9F18B3191050CF450C04C9709F44DC05E
:101960001EC182E090E0909331018093300181E0CC
:101970000E94FC090E94A40A80918602882359F0E3
:1019800089EC93E00E941F0881E080932F0181B3CE
:101990008F7C806217C083E893E00E941F088D2D22
:1019A0000E94FC0980EC02C182E090E0909331013A
:1019B00080933001D0922F018D2D0E94FC0981B3BC
:1019C0008F7C806181BBD0923501F2C084E090E0D1
:1019D0009093310180933001D092350182E0809361
:1019E0003601D0923701E4C082E090E0909331015B
:1019F00080933001E1E0DE2E7EC084E090E09093A1
:101A0000310180933001109235018FEF80933601C0
:101A100010923701CDC083E090E090933101809324
:101A200030011092350110923601C2C082E090E080
:101A300090933101809330015EC0809135019927E8
:101A4000982F8827209136013327822B932B0396DA
:101A5000909331018093300121E030E00297281704
:101A6000390748F44FEFE5E3F1E041932F5F3F4F33
:101A700028173907D0F310923501E0913001F09129
:101A80003101ED5CFE4F108293C00E94120C8091D8
:101A90008B0290918C020E940E0B80918402909197
:101AA00085020E947E0A809135019927D82FCC2784
:101AB000809136019927C82BD92B00E010E00C1734
:101AC0001D07C8F45EE3E52E51E0F52EF701819184
:101AD0007F010E943F0C80918402909185020196C3
:101AE00090938502809384020E94FA0E0F5F1F4F2D
:101AF0000C171D0758F3109235015AC00E94120CA2
:101B000080918B0290918C020E940E0B8091350186
:101B10009927D82FCC27809136019927C82BD92B0C
:101B200000E010E00C171D0770F536E3E32E31E0FE
:101B3000F32E20918402309185028091870290914A
:101B400088022817390741F40E94120C80918B02F9
:101B500090918C020E940E0B8091840290918502DC
:101B60009C0101969093850280938402C9010E9492
:101B70000E0AF70181937F010E94FA0E0F5F1F4F3B
:101B80000C171D07B0F22396D0933101C09330019A
:101B9000239710923501CC5CDE4F1A8209C081E098
:101BA00090E0909331018093300189EC809335016E
:101BB0000E94200EDD20D9F08FE392E00E941F08E2
:101BC000C0E0D0E08091890290918A0223E096954E
:101BD00087952A95E1F7C817D90728F4CE010E9406
:101BE000E40A2196EFCF89EC93E00E941F08DF9171
:101BF000CF911F910F91FF90EF90DF9008956BE1CF
:101C00008091320168272091300130913101832F7A
:101C1000992768278091300168278EE0682740E087
:101C200050E04217530748F4E4E3F1E0819168275C
:101C30004F5F5F4F42175307C8F3862F99270895C8
:101C40000F931F93CF93DF938BE10E940F09809135
:101C500032010E940F09809131010E940F09809189
:101C600030010E940F098EE00E940F09C0E0D0E011
:101C70008091300190913101C817D90778F404E3BD
:101C800011E0F80181918F010E940F092196809146
:101C9000300190913101C817D90798F30E94FF0DC8
:101CA0000E940F0980913201909133010196909327
:101CB000330180933201DF91CF911F910F910895ED
:101CC0002091350183E090E09093310180933001C1
:101CD00010923501E22FFF27E839F105ACF4E6391F
:101CE000F1050CF06DC0E138F105F9F0E238F105CD
:101CF00024F4E038F105B9F071C0CF01805990406B
:101D0000039708F06BC013C0EE39F10509F43DC02C
:101D1000EF39F10524F4E839F105F9F05FC0EF3946
:101D2000F10549F05BC084E038C081E036C0EB5A71
:101D3000FC4F849132C080913401833019F480913A
:101D40002A012BC082E090E0909331018093300112
:101D50008091360180932A014AC0809134018330FA
:101D600019F480E291E017C082E090E09093310195
:101D7000809330016091360180E291E00E94E40896
:101D8000809136010E94920932C0809134018330E3
:101D900039F482E291E00E94D9088093360127C08D
:101DA00082E090E0909331018093300160913601A0
:101DB00082E291E00E94E40881E00E942B0317C0B8
:101DC00080913401833019F41092360110C082E002
:101DD00090E0909331018093300109C082E090E05F
:101DE000909331018093300180EC809335010E9403
:101DF000200E089580912B0190912C01A0912D012E
:101E0000B0912E010196A11DB11D80932B019093DD
:101E10002C01A0932D01B0932E01089580912B01E8
:101E200090912C01A0912D01B0912E01B7FF1EC001
:101E30008DE40E94C70980E00E94C70980912D01AE
:101E40000E94C70980E00E94C70980912B019091F0
:101E50002C01A0912D01B0912E01BF7780932B0111
:101E600090932C01A0932D01B0932E010895EF9231
:101E7000FF920F931F93CF93C0E0EE24FF24809135
:101E8000C100807888618093C1000E948F0B0E94FE
:101E9000020CC0932F0110922B0110922C01109272
:101EA0002D0110922E0180912801813011F4C9E09A
:101EB00005C0CC2319F083E0809381008C2F9927F3
:101EC0008430910509F46DC08530910594F481301A
:101ED000910509F44CC0823091051CF4892BB1F1B5
:101EE000E2CF8230910509F448C0039709F44EC04F
:101EF000DACF8730910509F485C08830910544F424
:101F00008530910509F462C0069709F467C0CBCF0C
:101F10008830910579F0099731F682E090E090934E
:101F200031018093300180EC8093350110922801BB
:101F30000E94200E0E948F0B1092810010922901A6
:101F40001092850010928400C0E0ADCF8091D10244
:101F50008111C1E0F29BA7CF80912F01882309F066
:101F6000A2CF8091C10080788093C100D4C00E942C
:101F700026098B3189F5C2E096CF0E942609992760
:101F80009093330180933201C3E08DCF0E942609E4
:101F90009927982F88279093310180933001C4E0CE
:101FA00082CF0E942609282F3327809130019091FB
:101FB0003101822B932B9093310180933001835117
:101FC000914050F4C5E0EE24FF246DCF0E94260915
:101FD0008E3011F4C6E067CFC9E065CF8091300143
:101FE00090913101E816F90611F4C7E05CCF870142
:101FF0000C5C1E4F0894E11CF11C0E942609F8019C
:10200000808351CF0E94FF0D182F0E9426091817B8
:1020100009F074C0809134019927843091053CF413
:10202000823091050CF061C0019739F061C08630B3
:102030009105E9F0079799F05BC08BE090E09093F1
:10204000310180933001A4E3B1E0EAEDF3E09AE0DE
:1020500084918D939150319697FFFACF58C082E0CA
:1020600090E0909331018093300180EC4EC082E08B
:1020700090E090933101809330010E940E0F809187
:1020800035019927AA27BB27B82FAA279927882780
:1020900020913601332744275527A90133272227CA
:1020A000822B932BA42BB52B209137013327442768
:1020B0005527542F432F322F2227822B932BA42BCB
:1020C000B52B20913801332744275527822B932B9A
:1020D000A42BB52B80932B0190932C01A0932D0161
:1020E000B0932E011092350112C00E94600E11C0F3
:1020F000E0912401F091250109950BC082E090E068
:10210000909331018093300181EC809335010E94DE
:10211000200EC8E0C8CECF911F910F91FF90EF9095
:1021200008950F931F93CF9310913901C0913801F7
:10213000809136010E9419038C2F8150843608F05B
:10214000C8E1C150CF3F09F43FC080913C010E94DB
:10215000C709812F0E94190380913D010E94C70980
:10216000812F0E94190380913E010E94C709082F08
:10217000812F0E94190380913B01833029F48091C3
:102180003F010E94C70905C080913F010E94C70915
:10219000082F80913B01882321F080913A01081794
:1021A00069F4812F0E94190381E080932F0181B38C
:1021B0008F7C806281BB109235010DC0812F0E94FF
:1021C00019030E94E809BDCF81B38F7C806181BB78
:1021D00080EC80933501CF911F910F9108951F934B
:1021E000CF93DF93EB01992780FF08C08077907031
:1021F00034E0959587953A95E1F704C08E7090701C
:10220000959587959927877090708230910519F080
:102210000497E1F026C010913B0180913401833195
:1022200039F4812F9927C0FD8860182FD695C7955E
:10223000812F0E94C709CE010E94DA0980E00E9426
:10224000C70990913C01891799F30FC080E090EF86
:102250000E94DA0980E090E00E94DA0980FDF6CF62
:1022600004C0809138010E941903DF91CF911F9122
:1022700008956F927F929F92AF92BF92CF92DF921A
:10228000EF92FF920F931F93CF93DF9300E010E044
:1022900090903701C090390160902B0170902C0113
:1022A000809135019927B82EAA248091360199276B
:1022B000A82AB92A90FE62C078010A151B0508F009
:1022C00046C0CEE3D1E0D99080913401833131F41E
:1022D0008C2D9927E0FE03C0886001C08C2D0E94E0
:1022E000C70980912B0190912C010E94DA098D2D54
:1022F0000E94C70901151105D9F480913C018D1583
:10230000B9F090913401933131F0953189F4809195
:102310003D018D1569F000912B0110912C01933135
:1023200039F4000F111FC70181709070080F191F39
:10233000E0FC04C080913401853111F40E94FA0E52
:102340000894E11CF11CEA14FB0408F4BCCFC92D6D
:1023500097FE69C080913A010E94C709C3010E949B
:10236000DA0980E00E94C7090115110511F4CF7840
:10237000C061B8018C2F0E94EF1055C078010A157A
:102380001B0508F050C05EE3652E51E0752EF30189
:10239000D1903F0180913401833131F48C2D992704
:1023A000E0FE03C0886001C08C2D0E94C7098091A7
:1023B0002B0190912C010E94DA098D2D0E94C709F2
:1023C000C92D80913C018D15C1F09091340193315C
:1023D00031F0953191F480913D018D1571F00091AE
:1023E0002B0110912C01933159F4000F111FC701DB
:1023F00081709070080F191F03C0C92DC17FC26082
:10240000E0FC04C080913401853111F40E94FA0E81
:10241000B8018C2F0E94EF100894E11CF11CEA1403
:10242000FB0408F4B4CFDF91CF911F910F91FF907F
:10243000EF90DF90CF90BF90AF909F907F906F9084
:102440000895DF92EF92FF920F931F93CF93DF9344
:102450008091340199278631910509F4FAC08731BA
:10246000910594F48231910509F45FC0833191059F
:102470003CF480319105F9F0419709F43CC03DC12D
:10248000449709F4E6C02EC18931910509F4CBC007
:102490008A31910544F48731910509F4C4C0489705
:1024A00009F4A4C02AC18D3191050CF49FC04D9749
:1024B00009F460C022C182E090E0909331018093E2
:1024C000300180E291E00E94D9080E94AD0980E0CD
:1024D0000E942B0381B3806381BB0E949110809185
:1024E0002F01882319F083EF93E002C088EE93E078
:1024F0000E941F080BC182E090E09093310180930D
:102500003001809135010E94190381B38F7C806175
:1025100081BB10922F0181E00E942B038091360134
:102520000E9419030E94BD09E5C082E090E09093EB
:10253000310180933001C3E007E311E0F80181919C
:102540008F010E94C709C150C7FFF8CF80913601A3
:10255000882359F080E090EF0E94DA0980E090E053
:102560000E94DA0980FDF6CFC5C0809135010E9436
:102570001903C0C0E09036018E2D992703969093E1
:1025800031018093300100913501F0903701C1E0B5
:1025900012E0C017A8F4E12FFF27EC5CFE4F838107
:1025A0000E94C7091E1540F0CF1530F4EC2FFF270D
:1025B000EC5CFE4F8283CF5F812F1F5F801758F343
:1025C0008C2FCF5F8F1550F40C2F11270C5C1E4FF2
:1025D00080E00E94C709F8018283F2CF1092350192
:1025E000EC2FFF27EC5CFE4F138290C084E090E05C
:1025F0009093310180933001C1E006E311E0F801CE
:1026000081918F010E94C709982F80913501C817C9
:1026100011F490933601CF5FC53088F310923501E5
:102620001092370173C083E090E090933101809362
:10263000300105E311E0C3E0F80181918F010E94B0
:10264000C709C150C7FFF8CF10923501109236016B
:102650005DC0D0903701809135019927D82FCC27C4
:10266000809136019927C82BD92B2396D09331011D
:10267000C0933001239700E010E00C171D0760F5B0
:1026800086E3E82E81E0F82E80913401843131F424
:102690008D2D992700FF03C0886001C08D2D0E94F9
:1026A000C70980912B0190912C010E94DA0980E0EA
:1026B0000E94C709F701808300FD04C080913401A6
:1026C000863111F40E94FA0E0F5F1F4F0894E11C2F
:1026D000F11C0C171D07C0F210923501CC5CDE4FC7
:1026E0001A8214C00E94391182E090E09093310167
:1026F000809330011092350109C081E090E0909301
:1027000031018093300189EC809335010E94200EC5
:10271000DF91CF911F910F91FF90EF90DF9008957F
:10272000EF92FF920F931F93CF93DF93CDB7DEB756
:1027300022970FB6F894DEBF0FBECDBF813029F4CB
:10274000809116019091170104C08091140190911D
:1027500015019A838983CE0101960E94D908992791
:10276000AA27BB27182F0027FF24EE2489819A81EE
:1027700001969A838983CE0101960E94D9089927F0
:10278000AA27BB27DC0199278827E82AF92A0A2BE0
:102790001B2B89819A8101969A838983CE010196A8
:1027A0000E94D9089927AA27BB27BA2FA92F982FAB
:1027B0008827E82AF92A0A2B1B2B89819A810196FE
:1027C0009A838983CE0101960E94D9089927AA2766
:1027D000BB27E82AF92A0A2B1B2B8FEFE8168FEF6D
:1027E000F8068FEF08078FEF180719F4EE24FF247F
:1027F0008701C801B70122960FB6F894DEBF0FBE5D
:10280000CDBFDF91CF911F910F91FF90EF90089571
:1028100080934A02109248021092470220912B01A5
:1028200030912C0140912D0150912E01813039F4CD
:10283000DA01C901880F991FAA1FBB1F06C0DA0160
:10284000C90180509C4FAB4FBF4F10928C02109229
:102850008B02883021E0920720E0A20720E0B20737
:10286000A0F020E030E088509140A040B0402F5FC1
:102870003F4F883041E0940740E0A40740E0B407B0
:1028800090F730938C0220938B0290938502809373
:1028900084020895CF93C82F80918402909185027D
:1028A00088509140A9F480918B0290918C029C01F8
:1028B000019690938C0280938B02C9010E94440B75
:1028C00080E090E00E947E0A1092850210928402BD
:1028D0008C2F0E946209809184029091850201965A
:1028E00090938502809384028091470290914802E0
:1028F00001969093480280934702CF910895EF92FA
:10290000FF920F931F93CF93DF93CDB7DEB722973C
:102910000FB6F894DEBF0FBECDBF80914902813063
:1029200009F06DC08091840290918502892B31F06D
:1029300080918B0290918C020E94440B80918B02BB
:1029400090918C02AA27BB27BC01CD0128E031E081
:1029500040E050E00E94871B7B018C018091840243
:1029600090918502AA27BB27E80EF91E0A1F1B1F9C
:1029700080914A02813039F48091160190911701BB
:102980009A8389830EC080911401909115019A83D6
:10299000898380E09CEFABEFBFEFE80EF91E0A1FC2
:1029A0001B1F812F9927AA27BB27682FCE010196CD
:1029B0000E94E40889819A8101969A838983C801DB
:1029C000AA27BB27682FCE0101960E94E4088981BF
:1029D0009A8101969A838983BB27A12F902F8F2DEF
:1029E000682FCE0101960E94E40889819A810196A0
:1029F0009A8389836E2DCE0101960E94E408229667
:102A00000FB6F894DEBF0FBECDBFDF91CF911F91FF
:102A10000F91FF90EF900895CF93DF93CDB7DEB77E
:102A200022970FB6F894DEBF0FBECDBF809149024A
:102A30008330A9F480914A02823029F480911001F8
:102A40009091110104C080910E0190910F019A8321
:102A5000898360918402CE0101960E94E408229647
:102A60000FB6F894DEBF0FBECDBFDF91CF910895B2
:102A7000AF92BF92CF92DF92EF92FF920F931F938C
:102A8000CF93DF93CDB7DEB722970FB6F894DEBFB2
:102A90000FBECDBF40913401842F99278631910517
:102AA00009F41AC28731910594F48231910509F431
:102AB00072C0833191053CF48031910519F1419741
:102AC00009F449C07DC2449709F406C273C1893133
:102AD000910509F413C18A31910544F487319105B8
:102AE00009F40CC1489709F4A5C06AC28B3191055D
:102AF00009F445C08B3191050CF49CC04C9709F446
:102B00008CC05EC282E090E09093310180933001EE
:102B100080911201909113019A838983F4E3EF2E3F
:102B2000F1E0FF2E1BE0F70161917F01CE010196DC
:102B30000E94E40889819A8101969A8389831150C1
:102B400017FFF1CF81E080932F011092490281B3EA
:102B50008F7C806212C082E090E09093310180937C
:102B600030010E947F140E940C1510922F0180E00A
:102B70000E94FC0981B38F7C806181BBAAC184E083
:102B800090E090933101809330011092350181E003
:102B9000809336014CC082E090E0909331018093A5
:102BA000300180911801909119019A838983E5E39E
:102BB000EE2EE1E0FE2E15E0F70161917F01CE01DE
:102BC00001960E94E40889819A8101969A838983FB
:102BD000115017FFF1CF80911601909117019A8340
:102BE000898310E0143031F4809114019091150123
:102BF0009A83898360E0CE0101960E94E40889816E
:102C00009A8101969A8389831F5F183058F361E097
:102C10008AE191E00E94E4085CC184E090E0909336
:102C200031018093300110923501109236011092DB
:102C30003701CFC184E090E090933101809330015F
:102C400080914902843059F00E947F140E940C1533
:102C5000109285021092840284E080934902809150
:102C60003401883129F4809110019091110104C040
:102C700080910E0190910F019A838983CE01019674
:102C80000E94D908992720918402309185028217E9
:102C9000930710F48FEF22C0A901440F551F440F72
:102CA000551F80913501282F3327215030408091C6
:102CB0003401883129F480910C0190910D0104C0F8
:102CC00080910A0190910B01840F951F820F931F31
:102CD0009A838983CE0101960E94D9088093360198
:102CE00010923501109237018091840290918502F3
:102CF000019690938502809384026BC183E090E0FB
:102D0000909331018093300180914902833039F0F2
:102D100083E08093490210928502109284022091F0
:102D2000840230918502473171F4220F331F220F44
:102D3000331F80910C0190910D01820F931F9A8394
:102D4000898382E00DC0220F331F220F331F809131
:102D50000A0190910B01820F931F9A83898383E06C
:102D600080934A0280918402909185020A97E8F448
:102D700045E3E42E41E0F42E13E0F70161917F0179
:102D8000CE0101960E94E40889819A8101969A8376
:102D90008983115017FFF1CF8091840290918502B1
:102DA00001969093850280938402109235011092CF
:102DB00036010FC182E090E09093310180933001A1
:102DC00080914902813081F1433141F480911E01AB
:102DD00090911F019A83898381E007C080911C0133
:102DE00090911D019A83898380E00E94081480914C
:102DF0008402909185020E947E0A81E080934902BC
:102E000035E3E32E31E0F32E18E0F70161917F0105
:102E1000CE0101960E94E40889819A8101969A83E5
:102E20008983115017FFF1CF809135019927182F11
:102E30000027809136019927082B192BEE24FF24B7
:102E4000E016F10678F48EE3C82E81E0D82EF60164
:102E500081916F010E944A140894E11CF11CE01654
:102E6000F106A8F3409147025091480257FD31C046
:102E70008091370187FF2DC04115510551F1809197
:102E80004A02813029F4209108013091090104C0DF
:102E900020910601309107013A832983852F9927D4
:102EA000682FCE0101960E94E40889819A810196DB
:102EB0009A83898360914702CE0101960E94E408BB
:102EC00080914702909148029068909348028093C5
:102ED0004702109235017DC080914902823011F184
:102EE0000E947F140E940C1590E08091340184317F
:102EF00009F491E0892F0E94081460918402709176
:102F0000850280918B0290918C020E943B0A82E0A4
:102F10008093490210922B0110922C0110922D01E6
:102F200010922E01809135019927182F002780914A
:102F300036019927082B192B90E0809134018431B8
:102F400009F491E0892F0E949013DC01CB016C0100
:102F5000EE24FF24E016F10620F5F6E3AF2EF1E0B3
:102F6000BF2E96014427552780912B0190912C016B
:102F7000A0912D01B0912E0182179307A407B507E8
:102F800020F480E00E94620901C08FEFF501819377
:102F90005F010E94FA0E0894E11CF11CE016F10694
:102FA00000F30D5F1F4F1093310100933001035068
:102FB0001040109235010C5C1E4FF801128209C0BE
:102FC00081E090E0909331018093300189EC80930F
:102FD00035010E94200E22960FB6F894DEBF0FBE78
:102FE000CDBFDF91CF911F910F91FF90EF90DF90B8
:102FF000CF90BF90AF9008950F931F93CF93DF931F
:10300000CDB7DEB722970FB6F894DEBF0FBECDBFA7
:10301000082F823029F4809110019091110104C091
:1030200080910E0190910F019A838983CE010196C0
:103030000E94D908182F023029F480910C01909138
:103040000D0104C080910A0190910B019A8389833C
:1030500011501F3FB1F003E0CE0101960E94D90844
:103060000E94C70989819A8101969A8389830150B8
:1030700007FFF2CF112319F085E00E942F021150B3
:1030800050F722960FB6F894DEBF0FBECDBFDF918A
:10309000CF911F910F9108950F931F93CF93DF93BB
:1030A000CDB7DEB722970FB6F894DEBF0FBECDBF07
:1030B000809118019091190102969A83898313E0F7
:1030C000CE0101960E94D9080E94C70989819A8180
:1030D00001969A838983115017FFF2CF009118014E
:1030E000109119010F5F1F4F1A830983015010407F
:1030F000CE0101960E94D908882359F080E090EF14
:103100000E94DA0980E090E00E94DA0980FDF6CFA3
:1031100008C01A830983CE0101960E94D9080E9433
:10312000190322960FB6F894DEBF0FBECDBFDF9114
:10313000CF911F910F9108952F923F924F925F92DE
:103140006F927F928F929F92AF92BF92CF92DF92B7
:10315000EF92FF920F931F93CF93DF93CDB7DEB71C
:1031600023970FB6F894DEBF0FBECDBF182F88246B
:10317000992454010E9490131B012C011B821130D1
:1031800029F4809108019091090104C08091060101
:10319000909107019A838983CE0101960E94D908F4
:1031A0009927782E662489819A8101969A8389834A
:1031B000CE0101960E94D9089927682A792A10928F
:1031C0002B0110922C0110922D0110922E01113022
:1031D00069F480911E0190911F019A83898360E0B8
:1031E00070E0CB010E943B0A83E10DC080911C017D
:1031F00090911D019A83898360EE70E084EE93E0E4
:103200000E943B0A85E180933401F5E3EF2EF1E063
:10321000FF2E18E0CE0101960E94D908F701819394
:103220007F0189819A8101969A838983115017FFC2
:10323000F1CF809135019927D82ECC248091360189
:103240009927C82AD92A82149304A404B50408F043
:10325000B7C020913701822F9927AC01417050707F
:1032600080FF58C0F1EA6F16710488F18B818823C2
:1032700049F470EAC72ED12C2F7720933701E1E073
:10328000EB830AC060E6C62E6FEFD62EC60CD71CA5
:103290002068209337011B8200E010E00C151D050B
:1032A00078F45EE3E52E51E0F52E80E00E9462099D
:1032B000F70181937F010F5F1F4F0C151D05A8F3C8
:1032C0008D2D992780933501C09236014BC000E0C7
:1032D00010E00615170578F43EE3E32E31E0F32EF7
:1032E00080E00E946209F70181937F010F5F1F4F09
:1032F00006151705A8F3872D99278093350160924D
:10330000360180913701806880933701C301AA2775
:10331000BB272BC0C601AA27BB27880D991DAA1D54
:10332000BB1D281639064A065B0648F46101C81819
:10333000D9088D2D992780933501C09236018A01D5
:103340004C155D0578F48EE3E82E81E0F82E80E0E0
:103350000E946209F70181937F010F5F1F4F0C15D7
:103360001D05A8F3C601AA27BB27880E991EAA1E11
:10337000BB1E81149104E1F4E12CF12CBFEF0B2F63
:10338000112DE820F9200A211B21E114F104010587
:10339000110571F08DE40E94C70980E00E94C70901
:1033A000C801AA27BB270E94C70980E00E94C7095D
:1033B0000E94391182149304A404B50408F449CF7F
:1033C00023960FB6F894DEBF0FBECDBFDF91CF912D
:1033D0001F910F91FF90EF90DF90CF90BF90AF9033
:1033E0009F908F907F906F905F904F903F902F9025
:1033F00008951F93CF93DF93CDB7DEB72E970FB607
:10340000F894DEBF0FBECDBF10E081E08EBB8EB35F
:103410008823E9F3F69B06C0112311F413E00CC0D6
:1034200011500AC0F79B06C0133011F410E004C01D
:103430001F5F02C0F29953C0812F992781309105F7
:10344000A1F0823091051CF4892B39F041C0823003
:10345000910501F1039739F13BC063E074E0CE01BF
:1034600001960E944B1B81E007C069E074E0CE0129
:1034700001960E944B1B80E00E949013DC01CB015F
:103480002AE030E0AE014A5F5F4FBC01CD010E94EF
:10349000521B1EC06FE074E0CE0101960E944B1BD0
:1034A00080E191E008C065E174E0CE0101960E94E0
:1034B0004B1B8EE091E00E94D9088F3F11F09927B5
:1034C00002C080E090E0BE016A5F7F4F0E94460329
:1034D000CE0101960E94DE070E94410298CF2E96EF
:1034E0000FB6F894DEBF0FBECDBFDF91CF911F9115
:1034F0000895AF92BF92DF92EF92FF920F931F93C6
:10350000CF93DF93CDB7DEB769970FB6F894DEBFE0
:103510000FBECDBF80E48E8B86E1A82EB12CAC0E01
:10352000BD1E88E28F8B83E2888F89E2898F81E0DC
:103530000E9490137B018C01DD2481B3806381BBE9
:103540008091D2029091D302A091D402B091D50281
:103550008E159F05A007B10708F043C080E00E94C8
:103560006209F501ED0DF11DD3949081891721F5C4
:1035700084E0D81611F5FF2400E010E080E00E94FE
:1035800062099E012F5F3F4FF801E20FF31F808316
:10359000882331F0F3940F5F1F4F83E18F1570F78D
:1035A0001D8A81E080934B02C9010E94DE0781B32E
:1035B0008F7C806181BB31C0DD248091D2029091EB
:1035C000D302A091D402B091D5020196A11DB11DE4
:1035D0008093D2029093D302A093D402B093D502E9
:1035E000B7CF60E070E0CB010E943B0A1092D2029C
:1035F0001092D3021092D4021092D50280914B0205
:10360000882349F481B38F7C806181BB8BE194E096
:103610000E94800302C00E94791A69960FB6F8943E
:10362000DEBF0FBECDBFDF91CF911F910F91FF90F5
:10363000EF90DF90BF90AF90089560E070E0CB0115
:103640000E943B0A10924B021092D2021092D302B7
:103650001092D4021092D5020E94791A80914B02E6
:10366000882371F08EB38823E9F3F79B03C00E948F
:10367000791A02C0F29903C00E944102F3CF80E0A0
:103680000E94FC0908950C94A6038F938BE5809308
:10369000B8008F911895FB01DC0105900D92002078
:1036A000E1F70895FA01CF93FF93EF932230CCF026
:1036B0002532BCF4C22F2C2F332744275527FF93E4
:1036C000EF930E94A61BEF91FF91605D6A330CF0AF
:1036D000695D6193B901CA016050704080409040BB
:1036E00051F710828F919F91CF910C94771BDC0141
:1036F000FC0101900020E9F73297AE17BF0730F4C4
:103700007C916081708331976D93F7CF0895629FAC
:10371000D001739FF001829FE00DF11D649FE00DC9
:10372000F11D929FF00D839FF00D749FF00D659F2A
:10373000F00D9927729FB00DE11DF91F639FB00D29
:10374000E11DF91FBD01CF0111240895A1E21A2E38
:10375000AA1BBB1BFD010DC0AA1FBB1FEE1FFF1F35
:10376000A217B307E407F50720F0A21BB30BE40B85
:10377000F50B661F771F881F991F1A9469F76095CC
:103780007095809590959B01AC01BD01CF01089586
:103790006209FF018400830081005900310030007C
:1037A0002F0023001F001B00150014000B00020057
:0637B000010000002112DF
:00000001FF
