:100000000C9433020C9450020C944C1A0C94BB02C6
:100010000C94AE0C0C944B080C9450020C945002AF
:100020000C9450020C94740C0C944E1A0C945002C4
:100030000C9450020C94020C0C9450020C9450023C
:100040000C9450020C94C8090C9450020C94500269
:100050000C9450020C9450020C94BE0840282329A2
:10006000425554544C4F414420415652495350003C
:100070004028232956312D34004028232942592075
:100080004445414E2043414D4552410040282329DB
:100090003C433E2032303036202D2047504C00600B
:1000A0000074007D0090002A574149542A004156AF
:1000B00052495350204D4F44450053544F52452010
:1000C0005052474D0050524F4752414D20415652D9
:1000D0000044415441464C415348205052474D0042
:1000E0004441544153544F524520494E464F0053CA
:1000F000455454494E475300534C454550204D4FAD
:10010000444500AE00BA00C500D100E000EF00F8A1
:10011000008F046104F404A404E9032C03DA0253FD
:10012000455420434F4E545241535400534554209C
:10013000495350205350454544005345542052459F
:10014000534554204D4F4445005345542046495291
:100150004D2056455253494F4E0053455420534C61
:100160004545502054494D454F555400434C454159
:1001700052204D454D4F5259004A554D5020544F35
:1001800020424F4F544C4F41444552001F012C0117
:100190003A0149015A016C017901F80644077707D1
:1001A0009F076103C506F4025052474D20414C4C55
:1001B0000044415441204F4E4C5900454550524F48
:1001C0004D204F4E4C59004441544120414E442053
:1001D000454550524F4D00465553452042595445D0
:1001E00053204F4E4C59004C4F434B2042595445DD
:1001F00053204F4E4C59004655534520414E442004
:100200004C4F434B204259544553004552415345AE
:10021000204F4E4C5900A801B101BB01C701D701C5
:10022000E701F7010B0220353731353320485A00FA
:1002300020383637333820485A003131333432379A
:1002400020485A0032313036353120485A004C4F60
:1002500047494300464C4F41540053544F52414785
:10026000452053495A4553000056494557204441BB
:1002700054412054414753002A4A544147204F4E8D
:100280002A004E4F2053544F524544205052474D60
:10029000004F464600202020205345430056322D73
:1002A00020004D454D20434C4541524544003C4EB5
:1002B00020593E00434F4E4649524D002A53544F59
:1002C00052414745204D4F44452A004641494C453F
:1002D000440050524F4752414D4D494E4720444FE4
:1002E0004E45004E4F204C4F434B204259544553EE
:1002F000004E4F2046555345204259544553004E19
:100300004F20454550524F4D004E4F2044415441DF
:10031000004E4F20455241534520434D4400424139
:1003200044495352005052473E202000A8EA802AF8
:100330000040000A510A084059551801111E111BAE
:10034000500B411B411F1101511F511B00000000A8
:100350000880001A204000000000510F913941141C
:100360009131411E410E411D500F802010154886CD
:100370004014780570855115510E5195518E21907C
:1003800081205015484450C528C0282009504114E8
:10039000208011110000001003800254014000224F
:1003A00009090909090A0A0B0801080108010801DD
:1003B00008011002100220040001000200040008DD
:1003C000001000100020002044415441464C41538D
:1003D00048204552524F520042554646204F5646FD
:1003E00000000F1E3C784652414D452045525200B8
:1003F00044415441204F5652002A44415441464CF6
:10040000415348204D4F44452A00010008415652AF
:100410004953505F3200402823292A5343524557FD
:1004200020524554524F44414E002A53594E4320C6
:100430004552524F52002A4154415652495350207E
:100440004D4F44452A004C4F434B2D0046555345D4
:100450002D004550524D2D00444154412D004E4F2A
:1004600020544147530011241FBECFEFD4E0DEBF1C
:10047000CDBF11E0A0E0B1E0E6EBF5E302C00590EE
:100480000D92A430B107D9F712E0A4E0B1E001C0A9
:100490001D92A63BB107E1F70E9437060C94DA1AC9
:1004A0000C94F004282FE0E0F8E403C0CF0101979A
:1004B000F1F72150D8F70895282FE3E3F7E003C0C0
:1004C000CF010197F1F72150D8F70895813081F0DD
:1004D000813018F0823001F509C0869AA1E0B0E0C1
:1004E0000E94901A802D882359F413C0869A08C060
:1004F000ACE8B0E00E94901A802D882319F086980D
:100500008E980895A1E0B0E00E94901A802D882373
:1005100011F08E9A08958E9808958EB3813011F45B
:100520001EBA08958EB38823E9F782E00E94520232
:100530008EB38823B9F70895CF93DF93FB0120E0B2
:1005400003C02F5F8456904084369105D0F7205D1C
:100550002193DF0120E002C02F5F0A978A309105C6
:10056000D8F7205DFD012193805DED018983118223
:10057000DF91CF91089578941F920F920FB60F924A
:1005800011248F939F9383B19CB18095807D90952A
:100590009C70892B8EBB10928E0110928D0110924F
:1005A0008500109284009F918F910F900FBE0F9045
:1005B0001F90189585E083BF8091E4008F7780932A
:1005C000E40081B38F7C81BB01C08895F69BFDCF91
:1005D00081B38F7C806181BB8091E40080688093CF
:1005E000E4000E948D02089585B78F7785BF85BF8F
:1005F0001092810088E792E00E9464090E948D02B7
:1006000088E180936000FFCF1F9381E08EBB10E0F4
:100610008EB38823E9F3F69B06C0112311F413E08F
:100620000CC011500AC0F79B06C0133011F410E043
:1006300004C01F5F02C0F2990DC0E12FFF27EE0F2B
:10064000FF1FE156FF4F859194910E9464090E941B
:100650008D02DECF1F9108951F9381E08EBB10E0C5
:100660008EB38823E9F3F69B06C0112311F416E03C
:1006700019C0115017C0F79B06C0163011F410E0D6
:1006800011C01F5F0FC0F49B0BC0E12FFF27EE0FBF
:10069000FF1FE656FE4F85919491FC01099502C01B
:1006A000F2990DC0E12FFF27EE0FFF1FE457FE4F19
:1006B000859194910E9464090E948D02D1CF1F916F
:1006C0000895EF92FF920F93CF93DF93CDB7DEB7EC
:1006D00028970FB6F894DEBF0FBECDBFABE8B0E0F1
:1006E0000E94901A802D082F853008F004E065E9FB
:1006F00072E0CE0101960E94541A81E08EBB8EB347
:100700008823E9F3F69B05C0002311F404E001C03F
:100710000150F79B06C0043011F400E006C00F5FE3
:1007200002C0F2991DC0002329F481E992E00E94E1
:10073000640913C0E02FFF27EF51FC4FE4917E01C5
:100740000894E11CF11CB7018E2F99270E949C028E
:1007500080E28C83C7010E947F080E948D02CFCF68
:10076000ABE8B0E0002E0E94A21A0E94430C28962B
:100770000FB6F894DEBF0FBECDBFDF91CF910F91C2
:10078000FF90EF900895CF93DF93CDB7DEB76497D6
:100790000FB6F894DEBF0FBECDBF25E429832EE34C
:1007A0002A83BC01CE0103960E94541ACE01019601
:1007B0000E947F080E948D02F49BFECF0E948D0252
:1007C00064960FB6F894DEBF0FBECDBFDF91CF9118
:1007D00008951F930E948D0281E08EBB10E08EB3BE
:1007E0008823E9F38EB3807C19F081E0182736C0A6
:1007F000F2993FC0F49B32C0113071F582EB99E061
:1008000090930101809300010E94AA091092470170
:1008100081E00E94590A0E94C40B882341F00E9483
:10082000251A8091640084608093640017C081E081
:100830000E94E814611571058105910579F480E045
:100840000E94590A8091640084608093640082E869
:1008500092E00E94C30302C00E94E0168FE0189F3E
:10086000C0011124865A9D4F0E9464090E948D0286
:10087000B6CF1F910895FF920F931F93CF93DF93ED
:10088000CDB7DEB727970FB6F894DEBF0FBECDBF4A
:10089000F82E8E010F5F1F4F65E273E0C8010E94C2
:1008A000541AFE82C8010E947F0827960FB6F8945A
:1008B000DEBF0FBECDBFDF91CF911F910F91FF9093
:1008C000089582EB99E090930101809300010E94CA
:1008D000AA091092470181E00E94590A0E94C40BA4
:1008E0008823E1F087EA90E00E9464090E94E4070F
:1008F0008091C100807888618093C1008CEB92E088
:100900000E94640984E597E10E94E70F80E00E945D
:10091000590A80916400846080936400089587EA96
:1009200090E00E9464090E94E407E1ECF0E080811D
:1009300080788861808386E394E00E9464098CEE6D
:1009400092E10E94E70F08950E94310A81E08093AE
:10095000470181EF99E0909301018093000187EABC
:1009600090E00E9464090E94E407E1ECF0E08081DD
:1009700080788861808389EF93E00E94640985E52F
:100980009DE00E94E70F80E00E94590AE4E6F0E053
:1009900080818460808308958C01809164008460EC
:1009A000809364000E94E7091092B00010927000DA
:1009B0001092810080E88093610083E08093610061
:1009C0001092C100C8010E94640981B38F7C8063CA
:1009D00081BB82E30E94520281B390E28927F8CF63
:1009E0008EE193E00E94CC040F931F93CF93DF938B
:1009F000CDB7DEB763970FB6F894DEBF0FBECDBF9D
:100A000082EB99E090930101809300010E94AA0972
:100A1000109247010E94C40B882309F41DC10E9453
:100A20008D0281E08EBB10E08EB38823E9F3F2994A
:100A300013C1F4991CC0F69B06C0112311F417E0F2
:100A400009C0115007C0F79B05C0173011F410E022
:100A500001C01F5FE12FFF27EE0FFF1FEA5EFD4F72
:100A6000859194910E9464090E948D02DDCF80E8F7
:100A7000809361001092610087EA90E00E9464090F
:100A8000109281000E94310A80E00E94660227E2F3
:100A900030E0E1E9F1E0D9010E94901A802D8193C4
:100AA0002F5F3F4F80E023333807A9F70E948B1256
:100AB0001092A9021092AA021092AB021092AC02FC
:100AC00080919201882309F0AAC0112331F01730D8
:100AD00021F0113011F0133091F483E40E943B04B3
:100AE000A7E1B0E00E94901A802D813031F081E1C1
:100AF00093E00E94C30302E003C00E948A1500E055
:100B0000123010F01330C1F40023A1F484E40E94E9
:100B10003B0481E00E94E81461157105810591058F
:100B200031F489E093E00E94C30303E003C081E055
:100B30000E94B615112321F0123011F01330B1F4D8
:100B400085E40E943B0480E00E94E8146115710571
:100B50008105910531F48FEF92E00E94C30303E019
:100B600003C080E00E94B615112321F0143011F06B
:100B70001630A9F486E40E943B04A3E3B0E00E948F
:100B8000901A802D882331F481EF92E00E94C303F4
:100B900003E003C082E00E944C15112379F0153068
:100BA00069F0163019F581E00E94660281E00E942A
:100BB000520280E00E9466020E948B128CE40E9426
:100BC0003B04A4E3B0E00E94901A802D882359F4DE
:100BD00083EE92E00E94C30362ED72E0CE010196C3
:100BE0000E94541A0BC083E00E944C1562ED72E023
:100BF000CE0101960E94541A002331F06BEC72E092
:100C0000CE010D960E94541ACE0101960E947F08D3
:100C10008AEF0E94520288EC0E94520204C08BE2CA
:100C200094E00E94C3030E94430C80E8809361001B
:100C300083E08093610081E00E9466020E94E709E0
:100C400080E00E94590A809164008460809364006F
:100C500081B38F7C806181BB63960FB6F894DEBF51
:100C60000FBECDBFDF91CF911F910F9108951F93BC
:100C700080E880BF85E08093640080E380BB87E2EA
:100C800084B98FED85B98CE08EB980936B0080EDCF
:100C900080936C0080EC8DBB8CBB81B38F7C8063B8
:100CA00081BB81E00E9466020E9472088FE08093FF
:100CB000E70087EA90E00E9464097894ADE8B0E02C
:100CC0000E94901A802D8A3789F080E090E02FEF03
:100CD000DC01022E0E94A21A01968E389105C1F7FE
:100CE0008AE7ADE8B0E0082E0E94A21AA9E8B0E0B9
:100CF0000E94901A802D8F708093E70080E00E9400
:100D0000590A0E9499090E94E4070E94430C81B38A
:100D10008F7C806181BB80E88093610083E0809359
:100D2000610081E08EBB10E08EB38823E9F3F69B6F
:100D300006C0112311F416E01BC0115019C0F79B17
:100D400006C0163011F410E013C01F5F11C0F49BF1
:100D50000BC0E12FFF27EE0FFF1FEF5EFE4F8591C7
:100D60009491FC01099504C0F39B02C00E94040306
:100D7000E12FFF27EE0FFF1FED5FFE4F859194914E
:100D80000E9464090E948D02CFCF84EB92E00E9402
:100D9000640984EB0E9452028EEA92E00E94640988
:100DA0008EB38823E9F3F29922C0F39BF9CF0E9416
:100DB0008D0287EA90E00E94640981B38F7C806392
:100DC00081BB80E090E02FEFDC01022E0E94A21A8E
:100DD00001968E389105C1F781B38F7C806181BB0C
:100DE00082EA92E00E9464098AEF0E94520208950A
:100DF0001F93CF93DF93CDB7DEB726970FB6F89446
:100E0000DEBF0FBECDBFA9E8B0E00E94901A802DD2
:100E1000182F1F7081E08EBB8EB38823E9F3F69BF9
:100E200004C01F3050F41F5F08C0F79B04C012308D
:100E300020F0115002C0F29918C083E4898384E540
:100E40008A8380E28B83BE016C5F7F4F812F99275D
:100E50000E949C02CE0101960E947F08812F8F7014
:100E60008093E7000E948D02D7CFA9E8B0E0012E61
:100E70000E94A21A26960FB6F894DEBF0FBECDBF11
:100E8000DF91CF911F9108951F93A2E0B0E00E94DF
:100E9000901A802D182F843008F013E081E08EBB6B
:100EA0008EB38823E9F3F69B06C0112311F413E0F7
:100EB0000CC011500AC0F79B04C0133029F01F5F0B
:100EC00004C0F29B02C00CC010E08AE0189FC00171
:100ED00011248A5D9D4F0E9464090E948D02E0CF1B
:100EE000A2E0B0E0012E0E94A21A1F9108951F9364
:100EF000ACE8B0E00E94901A802D182F117081E0AC
:100F00008EBB8EB38823E9F3F69902C0F79B03C02A
:100F100081E0182702C0F2990BC086E0189FC0013B
:100F20001124825B9D4F0E9464090E948D02E9CFCB
:100F3000ACE8B0E0012E0E94A21A1F9108951F9301
:100F4000CF93DF93CDB7DEB725970FB6F894DEBF0A
:100F50000FBECDBFAAE8B0E00E94901A802D182FD6
:100F60008A3008F014E06DE972E0CE0101960E942B
:100F7000541A81E08EBB8EB38823E9F3F69B03C03D
:100F8000193008F41F5FF79B04C0112321F01150A2
:100F900002C0F2990AC0105D1C831053CE01019665
:100FA0000E947F080E948D02E6CFAAE8B0E0012EE1
:100FB0000E94A21A25960FB6F894DEBF0FBECDBFD1
:100FC000DF91CF911F9108951092050110920401B5
:100FD00080E880936100109261008FE38093660047
:100FE0007FB710926F0088E08093B60081E0809315
:100FF00070007894809381008093B0008091B60057
:10100000992787709070892BC9F7109285001092EC
:1010100084001092B2003EE360E050E020E0E9E995
:10102000F9ECCF010197F1F740916600809104013E
:10103000909105018150914E20F080916600815081
:101040000AC080910401909105018050914E28F4CE
:10105000809166008F5F80936600809166008217A2
:1010600021F480916600851739F03150562F622F98
:101070003F3F11F0242FD5CF10926F0010927000D7
:10108000109281001092B0008091B600877F80930B
:10109000B6007FBF08951F920F920FB60F921124D2
:1010A0008F939F93AF93BF93EF93FF93A1E8B0E02B
:1010B0001C92E4E8F0E08081918190930501809397
:1010C0000401118210821092B20081E08C93FF9192
:1010D000EF91BF91AF919F918F910F900FBE0F90A5
:1010E0001F9018958FE08093E70087EB8093E500D1
:1010F00087E08093E60088EC8093E4000895FC018B
:10110000ACE0B1E0382F4FEF2E2F231B9191892FA8
:101110008A52813510F48C9303C0992341F04C938B
:101120002E2F231B119681E0A032B80769F7109289
:101130000601273018F081E0809306011092080123
:10114000822F90E03FEFE82FFF27E45FFE4F3083D0
:101150008F5F9F5F9730B9F7822F895FE82FFF2756
:10116000E45FFE4F108210920A0180930B018AE027
:101170008093070181E080930901089578941F927C
:101180000F920FB60F921124EF92FF920F931F93BD
:101190002F933F934F935F936F937F938F939F937F
:1011A000AF93BF93EF93FF9380910601882399F04B
:1011B00080910701882321F08150809307010BC0A3
:1011C000809108018150809308018F3F21F481E0D4
:1011D0008093090105C080910901882309F455C055
:1011E00030910A01E0900B01F32EFE18132F60E0FE
:1011F00070E0862F1E1510F4E12F01C0EF2DFF27A0
:10120000E45FFE4FE081EF3F19F440E050E007C09B
:10121000FF27EE0FFF1FE45DFC4F4591549186952B
:10122000E82FFF27E95DFE4F00E0DB01A170B07001
:10123000242F2F70109711F490EF03C02295207F78
:101240009FE080819823922B90830F5F043039F0C8
:1012500084E0569547958A95E1F73596E9CF6F5F1B
:101260007F4F1F5FF3946630710509F0C2CF3F5F77
:1012700030930A0131503E1519F481E080930A0140
:1012800083E08093080110920901A7E2B1E0ECEE3F
:10129000F0E08D91819381E0E030F807D1F7FF9184
:1012A000EF91BF91AF919F918F917F916F915F91DE
:1012B0004F913F912F911F910F91FF90EF900F90C1
:1012C0000FBE0F901F9018950F931F93CF93DF932E
:1012D000CDB7DEB764970FB6F894DEBF0FBECDBFB3
:1012E0008E010F5F1F4FBC01C8010E94541AC80134
:1012F0000E947F0864960FB6F894DEBF0FBECDBF84
:10130000DF91CF911F910F910895982F8091C00088
:1013100085FFFCCF9093C6000895809188018823B3
:1013200021F480918C018823C1F30E94E30B99275B
:1013300008951092C50087E08093C40082E08093F6
:10134000C00080E88093C10086E08093C2000E94C4
:10135000DC0B0895E4E6F0E080818B7F80838DE5EF
:101360008CBD08958EBD0DB407FEFDCF8EB59927B7
:1013700008959C01832F99278EBD0DB407FEFDCFE4
:101380008EB52EBD0DB407FEFDCF8EB599270895FD
:101390001F920F920FB60F9211248F93EF93FF932A
:1013A000EEE6F0E080818D7F808380E48093B90059
:1013B00081E080933C018091BA0080933B01FF91D2
:1013C000EF918F910F900FBE0F901F9018958DB1D8
:1013D0008F7A8DB98EB18F788EB986988E9814BC1D
:1013E000089510923C018093BA00A99A80916E00F2
:1013F000826080936E0016BC80913C018823E1F3EB
:1014000080913B01992708950F931F938C01812FA1
:1014100099270E94F109802F0E94F10999271F91B5
:101420000F91089542E050E029E933E0F901319746
:101430008491DA010E94901A902D891721F083E09F
:10144000EE39F80731F4F901849187BD89E084BD54
:10145000089532962E5F3F4F83E0E03AF80741F758
:1014600008958DB180658DB96D98759A76988AE5E5
:101470008093B8000E94120A10923C0110923B0126
:1014800008950F931F9381E00E945C0208EB10E027
:10149000F80180818160808381E00E945C02F80114
:1014A00080818160808381E00E945C021F910F91A6
:1014B000089590914701813031F4913011F482E028
:1014C00005C028980895913021F481E00E946602B9
:1014D0000895289A0895EF92FF920F931F937C012D
:1014E000009100011091010180E00E94590A81E001
:1014F0000E94590A84E5F80109958F2D9927F80172
:1015000009958E2DF801099580E0F801099580E094
:10151000F801099599271F910F91FF90EF90089579
:10152000EF92FF920F931F93CF93DF938C017B0178
:10153000C0910001D091010180E00E94590A81E030
:101540000E94590A88E6FE0109958AB5980102C0F1
:10155000369527958A95E2F7C901FE0109958BB565
:1015600002C0000F111F8A95E2F78F2D9927800F77
:10157000FE0109958E2DFE01099500E080E0FE0137
:1015800009950F5F0430D1F7DF91CF911F910F9133
:10159000FF90EF900895EF92FF920F931F937C01BD
:1015A000009100011091010180E00E94590A81E040
:1015B0000E94590A84E8F801099580E0F80109952C
:1015C0008F2D9927F80109958E2DF80109951F9106
:1015D0000F91FF90EF900895CF93DF93C09100019A
:1015E000D091010180E00E94590A81E00E94590ACD
:1015F00087E5FE01099580E0FE01099587FFFBCF95
:10160000DF91CF910895EF92FF920F931F937C018A
:10161000009100011091010180E00E94590A81E0CF
:101620000E94590A80E5F80109958F2D9927F80144
:1016300009958E2DF801099580E0F80109950E9421
:10164000EC0A1F910F91FF90EF900895EF92FF9297
:101650000F931F938C01E0900001F090010180E056
:101660000E94590A81E00E94590A83E5F701099511
:101670008AB5980102C0369527958A95E2F7C90187
:10168000F70109958BB502C0000F111F8A95E2F78B
:10169000802FF701099580E0F70109950E94EC0A77
:1016A0001F910F91FF90EF900895EF92FF920F938B
:1016B0001F938C01E0900001F090010180E00E94F6
:1016C000590A81E00E94590A83E8F70109958AB511
:1016D000980102C0369527958A95E2F7C901F7016E
:1016E00009958BB502C0000F111F8A95E2F7802F74
:1016F000F701099580E0F70109950E94EC0A1F9116
:101700000F91FF90EF9008950F931F9300910001A8
:101710001091010180E00E94590A81E00E94590A5B
:1017200087E5F801099580E0F80109959927887304
:10173000907063E0969587956A95E1F7FC01E05615
:10174000FC4FE4914E2F552750933E0140933D01AD
:10175000880F991FFC01E855FC4F25913491309377
:10176000400120933F0188549C4FFC012591349106
:10177000309342012093410180E1841B8ABD48508F
:101780004BBD1F910F9108950E94840B80914101E0
:10179000909142018050984019F481E090E00895C2
:1017A0008091640084608093640088EC93E00E94E0
:1017B000C30380E090E008951092890110928A019D
:1017C00010928801089580918801882319F480E09F
:1017D00090E0089580918A01E82FFF27E85BFE4F93
:1017E000E0818F5F80938A0180918801815080938E
:1017F000880180918A01803411F410928A018E2F21
:10180000992708951F920F920FB60F9211242F93CC
:101810003F934F935F936F937F938F939F93AF9378
:10182000BF93EF93FF9380918801803421F488ED7A
:1018300093E00E94CC0480918901E82FFF279091CA
:10184000C600E85BFE4F90838F5F80938901809193
:1018500088018F5F8093880180918901803411F421
:1018600010928901FF91EF91BF91AF919F918F915C
:101870007F916F915F914F913F912F910F900FBE8C
:101880000F901F901895ABE8B0E00E94901A802D41
:10189000482F8F3F09F444E051E050936F00E42F4C
:1018A000FF27EF51FC4FE4918E2F99279C0173E0A5
:1018B000220F331F7A95E1F7880F991F280F391FE0
:1018C0003093900120938F0110928E0110928D0120
:1018D0001092850010928400442319F050938100E7
:1018E000089510928100089578941F920F920FB678
:1018F0000F9211242F933F934F935F936F937F9396
:101900008F939F93AF93BF93EF93FF9380918D013C
:1019100090918E0120918F013091900101969093CA
:101920008E0180938D0101978217930731F41092F5
:1019300081000E94DA020E94430CFF91EF91BF9157
:10194000AF919F918F917F916F915F914F913F9157
:101950002F910F900FBE0F901F90189578941F92A3
:101960000F920FB60F9211242F933F934F935F93D3
:101970006F937F938F939F93AF93BF93EF93FF9357
:1019800080918B018F5F80938B0180918B018739D0
:1019900029F410928B0181E080938C018091C0002A
:1019A00083FF03C080EF93E006C08091C00084FFF6
:1019B00004C086EE93E00E94CC04FF91EF91BF91AA
:1019C000AF919F918F917F916F915F914F913F91D7
:1019D0002F910F900FBE0F901F901895EF92FF92CE
:1019E0000F931F932091A9023091AA024091AB025C
:1019F0005091AC02109244011092430180913F013A
:101A000090914001AA27BB2760E070E0EE24FF24FC
:101A10008701E81AF90A0A0B1B0B06C02E0D3F1DA1
:101A2000401F511F6F5F7F4F82179307A407B507B1
:101A3000A8F37093440160934301309346012093CF
:101A400045011F910F91FF90EF9008951F93182F5C
:101A5000209145013091460180913F0190914001D4
:101A600028173907A1F48091430190914401019610
:101A7000909344018093430101970E94550B80E0AD
:101A800090E00E94CB0A1092460110924501812FEE
:101A90000E94F10980914501909146010196909331
:101AA0004601809345011F9108950F931F93CF9393
:101AB000DF9380919101863109F4F1C0873190F470
:101AC000823109F465C0833130F4803101F1813114
:101AD00009F02FC141C0843109F48BC0853108F071
:101AE000ABC080C0893109F472C08A3138F48731C3
:101AF00009F46DC0883109F01CC15BC08B31F1F174
:101B00008B3108F456C08C3109F013C152C082E009
:101B100090E09093A7028093A60281E00E94590A68
:101B20000E94840B80913D0190913E01892B59F0D8
:101B300089EF93E00E94640981E08093A80281B359
:101B40008F7C806217C088EC93E00E94640980E07B
:101B50000E94590A80ECF4C082E090E09093A702C2
:101B60008093A6021092A80280E00E94590A81B3D5
:101B70008F7C806181BB10929201E4C084E090E090
:101B80009093A7028093A6021092920182E01AC05D
:101B900082E090E09093A7028093A60210929201B7
:101BA0000E94180F87EA90E00E946409C0E0D0E02C
:101BB000D0C084E090E09093A7028093A602109298
:101BC00092018FEF8093930110929401BBC083E048
:101BD00090E09093A7028093A60210929201109237
:101BE0009301B0C082E090E09093A7028093A60298
:101BF000C2CF209192013327322F22278091930167
:101C00009927282B392BF9013396F093A702E093FB
:101C1000A60281E090E0A2E9B1E02F5F3F4F4FEFD5
:101C200002C04D93019682179307D8F31092920148
:101C3000E057FE4F108286C00E94EE0C8091430157
:101C4000909144010E94260B80914501909146019C
:101C50000E94CB0A809192019927D82FCC2780919E
:101C600093019927C82BD92B01E911E011C0F80184
:101C700082850E94260D8091450190914601019632
:101C800090934601809345010E94DB0E0F5F1F4F2A
:101C9000CE018F569E4F0817190749F76CCF0E9447
:101CA000EE0C80914301909144010E94260B80919B
:101CB00092019927D82FCC27809193019927C82B7F
:101CC000D92B01E911E025C0209145013091460151
:101CD00080913F01909140012817390741F40E94FB
:101CE000EE0C80914301909144010E94260B80915B
:101CF00045019091460101969093460180934501DC
:101D000001970E946B0AF80182830E94DB0E0F5F2D
:101D10001F4FCE018F569E4F08171907A9F623961D
:101D2000D093A702C093A60210929201F8011282EA
:101D300009C081E090E09093A7028093A60289EC0D
:101D4000809392010E94180F14C0CE010E94030BD1
:101D50002196809141019091420123E096958795CB
:101D60002A95E1F7C817D90780F389EF93E00E941D
:101D70006409DF91CF911F910F9108959091A40272
:101D80008BE198274091A6025091A7029427252F16
:101D900033278EE08227982720E030E0E1E9F1E068
:101DA00004C0819198272F5F3F4F24173507C9F74B
:101DB000892F992708958091A9029091AA02A09154
:101DC000AB02B091AC020196A11DB11D8093A90296
:101DD0009093AA02A093AB02B093AC0208958091B5
:101DE000A9029091AA02A091AB02B091AC02B7FFF8
:101DF0001EC08DE40E94F10980E00E94F1098091EB
:101E0000AB020E94F10980E00E94F1098091A902D1
:101E10009091AA02A091AB02B091AC02BF778093DF
:101E2000A9029093AA02A093AB02B093AC020895CA
:101E30000F931F93CF93DF938BE10E9485098091CD
:101E4000A4020E9485098091A7020E9485098091C1
:101E5000A6020E9485098EE00E948509C0E0D0E0BC
:101E600001E911E006C0F80181918F010E94850906
:101E700021968091A6029091A702C817D90798F3DE
:101E80000E94BE0E0E9485098091A4029091A50235
:101E900001969093A5028093A402DF91CF911F91A8
:101EA0000F9108952091920183E090E09093A70212
:101EB0008093A60210929201223921F1233970F405
:101EC0002138D1F0223820F4203809F074C022C023
:101ED0002039B1F0213909F06EC012C0283981F1E2
:101EE000293920F4263908F466C057C02E39E1F1AB
:101EF0002F3909F060C012C081E08093930164C063
:101F000082E0FBCF2AE830E0D9010E94901A802DB0
:101F10008F3F11F484E0F1CFD9012CC08091910161
:101F2000833019F48091AD02E8CF82E090E0909385
:101F3000A7028093A602809193018093AD0244C0D2
:101F400080919101A2E0B0E08330A1F082E090E0C6
:101F50009093A7028093A60280919301082E0E947D
:101F6000A21A0E94120A30C080919101A1E0B0E053
:101F7000833021F40E94901A802DBFCF82E090E040
:101F80009093A7028093A60280919301082E0E944D
:101F9000A21A81E00E94660217C0809191018330ED
:101FA00019F41092930110C082E090E09093A70280
:101FB0008093A60209C082E090E09093A7028093EC
:101FC000A60280EC809392010E94180F0895CF9290
:101FD000DF92EF92FF920F931F93CF93DF936C01E9
:101FE0000E94DC0B109281001092A8021092A902AC
:101FF0001092AA021092AB021092AC0210E073C0D1
:1020000012E001C019E080918C01813009F40EC109
:10201000112381F110928C0110928B011092B20069
:1020200080EF8093B30082E0809370008FE0809314
:10203000B000153009F45AC0163070F4123069F14E
:10204000133028F41123B1F01130E9F620C0133019
:1020500069F11430C1F635C0183009F4F4C01930F4
:1020600030F4163009F449C0173069F657C01C30F7
:1020700050F6D6C080918801811181E0182FF29B23
:10208000C2CF8091A802882309F0BDCFE6C00E948C
:102090008D098B3109F0B6CFB3CF0E948D099927F6
:1020A0009093A5028093A40213E0ADCF0E948D0906
:1020B0009927982F88279093A7028093A60214E06F
:1020C000A2CF0091A6021091A7020E948D09992724
:1020D000802B912B9093A7028093A602835191406D
:1020E00008F090CF15E0C0E0D0E08DCF0E948D09C0
:1020F0008E3009F087CF16E086CF8091A6029091AE
:10210000A702C817D90711F417E07DCF0E948D09E7
:10211000FE01EF56FE4F8083219675CF80918C0192
:10212000882309F070CF0E94BE0E182F0E948D09DF
:10213000181711F01BE067CF80919101843038F4BB
:10214000823008F066C0813009F066C006C0863073
:1021500001F1873009F060C012C08BE090E09093ED
:10216000A7028093A602EAE0F4E0A1E9B1E084913D
:102170008D93319681E0AC39B807C9F747C082E04A
:1021800090E09093A7028093A60280EC8093920146
:102190003DC082E090E09093A7028093A6020E9447
:1021A000EF0EE0909401FF2400271127102F0F2D30
:1021B000FE2CEE2420919201332744275527522FDD
:1021C000442733272227809193019927AA27BB27E9
:1021D000DC0199278827282B392B4A2B5B2B8091F0
:1021E00095019927AA27BB27282B392B4A2B5B2B34
:1021F000E22AF32A042B152BE092A902F092AA02FC
:102200000093AB021093AC02109292010E94180F3F
:1022100005C00E94520F02C0F601099518E0F3CEE6
:102220001B3011F481EC05C01A3011F480E801C0B4
:1022300080EC8093920182E090E09093A7028093DB
:10224000A6020E94180F10928C010E94DC0B1092C3
:10225000B0001092700010E0D6CE80E8809361004C
:1022600083E0809361001092C1000E94430CDF91D3
:10227000CF911F910F91FF90EF90DF90CF90089535
:102280001F93CF93DF93EB01992780FF08C08077DE
:10229000907034E0959587953A95E1F704C08E707B
:1022A00090709595879599278770907082309105E9
:1022B00019F0049741F51CC010919801809191018B
:1022C000833141F4C0FF02C088E001C080E0182BD8
:1022D000D695C795812F0E94F109CE010E94040A6C
:1022E00080E00E94F10990919901891781F4F2CF61
:1022F00080E090EF0E94040A80E090E00E94040ACF
:1023000080FF05C0F5CF809195010E945C02DF91AE
:10231000CF911F9108954F925F926F927F928F920B
:102320009F92AF92BF92CF92DF92EF92FF920F9364
:102330001F93CF93DF93B0909401A09096014090AB
:10234000A9025090AA026090AB027090AC028091FA
:1023500092019927982E8824809193019927882AA1
:10236000992AE0909101B0FC09C0C0E0D0E0CC24F3
:10237000DD247BE9672E71E0772EACC0C0E0D0E0B1
:1023800000E010E06BE9C62E61E0D62E41C0F601F8
:10239000F080F3E1EF1639F400FF02C088E001C0DD
:1023A00080E08A2901C08A2D0E94F1098091A9024A
:1023B0009091AA020E94040A8F2D0E94F109209791
:1023C000D9F4809199018F15B9F083E1E81649F0AD
:1023D000E5E1EE1689F480919A018F1509F07FC02E
:1023E0000BC0C091A902D091AA02CC0FDD1FC80179
:1023F00081709070C80FD91F00FD03C0F5E1EF1682
:1024000011F40E94DB0E0F5F1F4F0894C11CD11CFA
:102410000815190509F0BBCFB7FE6CC08091970174
:102420000E94F109C2010E94040A80E00E94F109A1
:10243000209711F08B2D03C08B2D8F788061BE010A
:102440000E94401157C0F3011081F3E1EF1639F4F7
:10245000C0FE02C088E001C080E08A2901C08A2D48
:102460000E94F1098091A9029091AA020E94040A97
:10247000812F0E94F109809199018117B9F083E1C0
:10248000E81641F0E5E1EE1689F480919A01811792
:1024900059F50CC0C091A902D091AA02CC0FDD1F42
:1024A000C60181709070C80FD91F22C01B2D117FEB
:1024B0001260C0FC03C0F5E1EF1611F40E94DB0EC0
:1024C000BE01812F0E9440110894C11CD11C0894A8
:1024D000611C711CC814D90409F0B5CF0BC0C091A0
:1024E000A902D091AA0288CFC091A902D091AA02D4
:1024F0001B2DDFCFDF91CF911F910F91FF90EF90B8
:10250000DF90CF90BF90AF909F908F907F906F9013
:102510005F904F900895FF920F931F930091960143
:102520001091950181B38F7C806381BB8091930171
:102530000E945C02812F8150843608F440C018E16B
:102540003EC0809199010E94F109802F0E945C0297
:1025500080919A010E94F109802F0E945C02809173
:102560009B010E94F109F82E802F0E945C0280914D
:102570009801833029F480919C010E94F10905C0E3
:1025800080919C010E94F109F82E80919801882386
:1025900021F080919701F81669F4802F0E945C0267
:1025A00081E08093A80281B38F7C806281BB10920E
:1025B00092010EC0802F0E945C020E94410A1150BD
:1025C00000F681B38F7C806181BB80EC80939201A7
:1025D0001F910F91FF900895DF92EF92FF920F935A
:1025E0001F93CF93DF9380919101863109F4E5C069
:1025F000873178F4823109F452C0833130F480316C
:10260000D9F0813109F02CC130C0843109F01DC1ED
:10261000D4C0893109F4BDC08A3138F4873109F456
:10262000B8C0883109F01CC195C08D3108F492C042
:102630008D3109F015C156C082E090E09093A70259
:102640008093A6020E94310A80E00E9466020E94E6
:102650008B128091A802882319F086E394E002C0CF
:102660008BE294E00E94640904C182E090E09093C0
:10267000A7028093A602809192010E945C0281B31E
:102680008F7C806181BB1092A80281E00E9466026B
:10269000809193010E945C020E94E709DEC082E003
:1026A00090E09093A7028093A602C4E9D1E08991BB
:1026B0000E94F10981E0C839D807C9F780919301D8
:1026C000882359F080E090EF0E94040A80E090E0B7
:1026D0000E94040A80FFC1C0F5CF809192010E9440
:1026E0005C02BBC0F09093018F2D992703969093C5
:1026F000A7028093A602D0909201E090940111E08D
:1027000001E012C00F5FE02FFF27EF56FE4F8381DD
:102710000E94F1090F1540F01E1530F4E12FFF273C
:10272000EF56FE4F82831F5F0D1560F306C080E0F9
:102730000E94F109CF56DE4F8A831F5F812F81509F
:10274000C12FDD278E1598F310929201CF56DE4FE0
:102750001B828FC084E090E09093A7028093A60232
:10276000C1E0D0E003E911E0F80181918F010E94FE
:10277000F109982F809192018C1711F49093930195
:102780002196C530D10581F71092920110929401E3
:1027900070C083E090E09093A7028093A602C2E904
:1027A000D1E089910E94F109F1E0C639DF07C9F74C
:1027B00010929201109293015CC0D090940180918C
:1027C00092019927D82FCC27809193019927C82B64
:1027D000D92B2396D093A702C093A602239700E09B
:1027E00010E083E9E82E81E0F82E26C08091910167
:1027F000843139F400FF02C088E001C080E08D29F7
:1028000001C08D2D0E94F1098091A9029091AA0228
:102810000E94040A80E00E94F109F701808300FD14
:1028200004C080919101863111F40E94DB0E0F5F8C
:102830001F4F0894E11CF11C0C171D07B9F61092EC
:102840009201CF56DE4F1A8214C00E948B1182E093
:1028500090E09093A7028093A6021092920109C083
:1028600081E090E09093A7028093A60289EC809388
:1028700092010E94180FDF91CF911F910F91FF904D
:10288000EF90DF900895809302011092B0021092B1
:10289000AF022091A9023091AA024091AB0250915F
:1028A000AC02813039F4DA01C901880F991FAA1FDF
:1028B000BB1F06C0DA01C90180509C4FAB4FBF4F10
:1028C000109244011092430120E030E006C088508D
:1028D0009140A040B0402F5F3F4F883041E09407C7
:1028E00040E0A40740E0B40790F730934401209300
:1028F000430190934601809345010895CF93DF9360
:10290000CDB7DEB724970FB6F894DEBF0FBECDBFAC
:102910008091AE02813009F040C0809145019091D4
:102920004601892B31F080914301909144010E942E
:10293000550B209143013091440188E091E0AC01B6
:10294000249FC001259F900D349F900D112420914C
:10295000450130914601820F931F9C014427552762
:1029600029833A834B835C8380910201FE01319677
:10297000813021F484E0AFE1B0E00BC0205034405E
:102980004440504029833A834B835C8384E0A3E234
:10299000B0E0182E0E94B31A12C0833081F4209147
:1029A00045013091460180910201823019F4A3E380
:1029B000B0E002C0A4E3B0E0022E0E94A21A249666
:1029C0000FB6F894DEBF0FBECDBFDF91CF91089553
:1029D000CF93DF93CDB7DEB724970FB6F894DEBF61
:1029E0000FBECDBF813019F4AFE1B0E002C0A3E269
:1029F000B0E084E0FE013196182E0E94981A698199
:102A00007A818B819C816F3F2FEF72072FEF8207B6
:102A10002FEF920721F460E070E080E090E02496D0
:102A20000FB6F894DEBF0FBECDBFDF91CF910895F2
:102A30001F93182F80914501909146018850914035
:102A4000A1F4809143019091440101969093440137
:102A50008093430101970E94550B80E090E00E9413
:102A6000CB0A1092460110924501812F0E94B209B3
:102A70008091450190914601019690934601809383
:102A800045018091AF029091B00201969093B002FF
:102A90008093AF021F910895EF92FF920F931F93BF
:102AA000CF93DF93823059F443E350E0DA010E9480
:102AB000901A802D182F62E0E62EF12C0AC044E314
:102AC00050E0DA010E94901A802D182F39E2E32E8F
:102AD000F12CE40EF51E15C0E70100E0DE010E94B6
:102AE000901A802D0E94F10921960F5F0430B1F7F2
:102AF00084E090E0E80EF91E112319F085E00E94B1
:102B00005202115048F7DF91CF911F910F91FF9022
:102B1000EF900895CF93DF93CBE1D0E0DE010E94E8
:102B2000901A802D0E94F109219680E0CF31D807BC
:102B3000A9F72597DE010E94901A802D25968823FB
:102B400059F080E090EF0E94040A80E090E00E943B
:102B5000040A80FF08C0F5CF2697DE010E94901A74
:102B6000802D0E945C02DF91CF9108953F924F9299
:102B70005F926F927F928F929F92AF92BF92CF920D
:102B8000DF92EF92FF920F931F93CF93DF93182F53
:102B90000E94E8142B013C01113009F0E6C0A5E8C1
:102BA000B0E00E949D1A4F011092A9021092AA0251
:102BB0001092AB021092AC0260E070E080E090E016
:102BC0000E94900A83E18093910103E010E087EA7C
:102BD00090E00E9464090E94E4078091C10080781F
:102BE00088608093C100C1E9D1E00F5F1F4FD80119
:102BF0000E94901A802D992789930E948509F1E0FF
:102C0000CA39DF0791F7809192019927D82FCC27F5
:102C1000809193019927C82BD92BAA24BB24650145
:102C200033249CC08091940180FF4BC091EA8916A7
:102C3000910418F401E911E02FC0332041F48F779B
:102C400080939401C0EAD0E011E0312E07C0E40186
:102C5000C05AD040806880939401332401E911E088
:102C600007C080E00E94B209F80182870F5F1F4F02
:102C7000CE018F569E4F0817190799F78D2F992768
:102C800080939201C093930141C080E00E94B209F9
:102C9000F80182870F5F1F4FC4018F569E4F0817A0
:102CA000190799F7892D99278093920180929301B2
:102CB00080919401806880939401C401AA27BB2766
:102CC00028C0CE01AA27BB278A0D9B1DAC1DBD1DA8
:102CD000481659066A067B0648F4E201CA19DB0960
:102CE0008D2F992780939201C093930101E911E000
:102CF00007C080E00E94B209F80182870F5F1F4F72
:102D0000CE018F569E4F0817190799F7CE01AA27B3
:102D1000BB27A80EB91ECA1EDB1EA114B104E1F424
:102D2000E12CF12CEFEF0E2F112DEA20FB200C21CE
:102D30001D21E114F1040105110571F08DE40E94DB
:102D4000F10980E00E94F109C801AA27BB270E946F
:102D5000F10980E00E94F1090E948B11A414B504CE
:102D6000C604D70408F45ECF19C0A7E8B0E00E94FB
:102D70009D1A4F011092A9021092AA021092AB0262
:102D80001092AC0260EE70E084EE93E00E94900A34
:102D900085E1809391010DE010E019CFDF91CF9193
:102DA0001F910F91FF90EF90DF90CF90BF90AF9069
:102DB0009F908F907F906F905F904F903F9008957D
:102DC0001F93CF93DF93CDB7DEB72E970FB6F8944E
:102DD000DEBF0FBECDBF81E08EBB10E08EB3882377
:102DE000E9F3F69B04C0112381F111500AC0F79B4F
:102DF00006C0133011F410E00DC01F5F02C0F2993D
:102E000049C0113079F0113028F01230A9F0133098
:102E1000D1F51CC068E574E0CE0101960E94541AF9
:102E200081E007C062E574E0CE0101960E94541A69
:102E300080E00E94E81420C06CE474E0CE010196AA
:102E40000E94541AA3E3B0E009C013E066E474E002
:102E5000CE0101960E94541AA4E3B0E00E94901A99
:102E6000802D8F3F29F460E070E080E090E004C0A6
:102E7000682F7727882799272AE030E0AE014A5F3C
:102E80005F4F0E945B1ACE0101960E947F080E944C
:102E90008D02A4CF2E960FB6F894DEBF0FBECDBF25
:102EA000DF91CF911F910895EF92FF920F931F939F
:102EB000CF93DF9320919101263109F4AEC12731E0
:102EC00078F4223109F45FC0233130F42031E9F085
:102ED000213109F008C237C0243109F035C19DC144
:102EE000293109F48CC02A3138F4273109F487C01C
:102EF000283109F0F8C1D6C02B31C9F12B3108F4C3
:102F0000D1C02C3109F0EFC16DC082E090E0909308
:102F1000A7028093A602E1E9F1E027E230E0819187
:102F2000D901082E0E94A21A2F5F3F4F81E0ED3990
:102F3000F807A9F781E08093A8021092AE0281B34E
:102F40008F7C806210C082E090E09093A702809313
:102F5000A6020E947E141092A80280E00E94590AE4
:102F600081B38F7C806181BB10929201C5C184E0E6
:102F700090E09093A7028093A6021092920181E0C4
:102F80008093930139C082E090E09093A7028093F0
:102F9000A602E2E9F1E029E130E08191D901082EB1
:102FA0000E94A21A2F5F3F4F91E0E839F907A9F775
:102FB0002FE130E080E0D901082E0E94A21AD90149
:102FC0001496082E0E94A21A2F5F3F4FE0E0233292
:102FD0003E0789F781E02C503040D901082E0E942D
:102FE000A21AC2CF84E090E09093A7028093A60239
:102FF0001092920110929301109294017DC183E08E
:1030000090E09093A7028093A6028091AE02833055
:1030100039F083E08093AE02109246011092450190
:103020004091450150914601273169F480EA90E0D2
:10303000489F9001499F300D589F300D11242B5C03
:103040003F4F82E00CC080EA90E0489F9001499F8A
:10305000300D589F300D1124235A3F4F83E0809349
:10306000020180914501909146010A97B0F4E2E98E
:10307000F1E08191D901082E0E94A21A2F5F3F4FE3
:1030800081E0E639F807A9F7809145019091460162
:1030900001969093460180934501109292011092FF
:1030A00093012AC184E090E09093A7028093A60246
:1030B0008091AE02843049F00E947E141092460145
:1030C0001092450184E08093AE02409145015091F9
:1030D000460120919101283119F0A4E3B0E002C02B
:1030E000A3E3B0E00E94901A802D992784179507DA
:1030F00010F48FEF1EC0283119F425E330E002C030
:103100002DE530E080EA90E0489FD001499FB00D66
:10311000589FB00D1124A20FB31F8091920128E295
:10312000829FC0011124A80FB91F98970E94901A7E
:10313000802D809393014F5F5F4F509346014093E2
:1031400045011092920158CF82E090E09093A7023F
:103150008093A6028091AE02813011F1233131F4C7
:1031600081E00E944314C3E0D0E005C080E00E94EB
:103170004314CDE0D0E080914501909146010E943A
:10318000CB0A81E08093AE02E2E9F1E08191DE01B9
:10319000082E0E94A21A219691E0EB39F907B1F7A7
:1031A000809192019927D82FCC278091930199275C
:1031B000C82BD92B01E911E006C0F80182850E94D5
:1031C00018150F5F1F4FCE018F569E4F0817190716
:1031D000A1F72091AF023091B00237FDC5CE8091AA
:1031E000940187FFC1CE2115310509F4BDCE809130
:1031F0000201813019F4A5E8B0E002C0A7E8B0E010
:1032000009010E94AE1A8091AF029091B0029068BD
:103210009093B0028093AF02A7CE8091AE0282302D
:1032200001F10E947E1490E080919101843109F4B3
:1032300091E0892F0E9443146091450170914601ED
:1032400080914301909144010E94900A82E0809312
:10325000AE021092A9021092AA021092AB02109232
:10326000AC02809192019927D82FCC2780919301AD
:103270009927C82BD92B90E080919101843109F4D2
:1032800091E0892F0E94E8147B0101E911E01BC045
:103290009701442755278091A9029091AA02A091F5
:1032A000AB02B091AC0282179307A407B50710F0E8
:1032B0008FEF03C080E00E94B209F80182830E9470
:1032C000DB0E0F5F1F4FCE018F569E4F0817190759
:1032D000F9F62396D093A702C093A602109292010A
:1032E000F801128209C081E090E09093A7028093D8
:1032F000A60289EC809392010E94180FDF91CF9172
:103300001F910F91FF90EF900895CF92DF92EF926F
:10331000FF920F931F93CF93DF93CDB7DEB76997DB
:103320000FB6F894DEBF0FBECDBF80E4898388E27C
:103330008A8383E28B8389E28C8381E00E94E81494
:103340006B017C0181B38F7C806381BB098110E0BC
:1033500042C080E00E94B209982FFE01E10FF11DEA
:103360008181981709F51F5F143011F58E010B5FED
:103370001F4F80E00E94B209F8018083882339F052
:103380000F5F1F4FCE0149960817190791F7198E45
:1033900081E08093B102CE0105960E947F0881B33F
:1033A0008F7C806181BB42C010E0901709F411E06E
:1033B0008091B2029091B302A091B402B091B50293
:1033C0000196A11DB11D8093B2029093B302A09308
:1033D000B402B093B5028091B2029091B302A09171
:1033E000B402B091B5028C159D05AE05BF0508F479
:1033F000B0CF60E070E080E090E00E94900A109210
:10340000B2021092B3021092B4021092B5028091EF
:10341000B102882349F481B38F7C806181BB8EE542
:1034200094E00E94C30302C00E94851969960FB6FA
:10343000F894DEBF0FBECDBFDF91CF911F910F91EA
:10344000FF90EF90DF90CF90089560E070E080E013
:1034500090E00E94900A1092B1021092B202109273
:10346000B3021092B4021092B5020E9485198091A5
:10347000B102882371F08EB38823E9F3F79B03C070
:103480000E94851902C0F29903C00E948D02F3CFF9
:1034900080E00E94590A08950C94BB028F938BE53B
:1034A0008093B8008F911895FB01DC0105900D9277
:1034B0000020E1F70895FA01CF93FF93EF932230B4
:1034C000CCF02532BCF4C22F2C2F332744275527AC
:1034D000FF93EF930E94B81AEF91FF91605D6A33FA
:1034E0000CF0695D6193B901CA0160507040804081
:1034F000904051F710828F919F91CF910C94801A38
:10350000DC01FC0101900020E9F73297AE17BF07FC
:1035100030F47C916081708331976D93F7CF08957B
:10352000F999FECFB2BDA1BDF89A119600B40895E5
:10353000F7DF01921A94E1F70895F2DFE02DF0DF52
:10354000F02D0895F999FECFB2BDA1BD00BC119632
:103550000FB6F894FA9AF99A0FBE0895F3DF012C8A
:10356000F1DF112408950190EDDF1A94E1F7089539
:10357000A1E21A2EAA1BBB1BFD010DC0AA1FBB1F77
:10358000EE1FFF1FA217B307E407F50720F0A21BE9
:10359000B30BE40BF50B661F771F881F991F1A9456
:1035A00069F760957095809590959B01AC01BD0180
:0635B000CF010895FFCFDA
:0435B600B209010055
:00000001FF
