:100000000C941E020C9439020C94271A0C949F0332
:100010000C94E30B0C9400080C9439020C943902F4
:100020000C9439020C94270C0C94291A0C94390264
:100030000C9439020C94690B0C9439020C9439021B
:100040000C9439020C9462090C9439020C94390214
:100050000C9439020C9439020C94AD0853544F524D
:100060004147452053495A455300005649455720BA
:1000700044415441205441475300203537313533F2
:1000800020485A0020383637333820485A0031315A
:100090003334323720485A00323130363531204837
:1000A0005A000B01FF00EF00DF00CF00BB00B000E3
:1000B0004552415345204F4E4C590046555345201B
:1000C000414E44204C4F434B204259544553004C21
:1000D0004F434B204259544553204F4E4C590046F4
:1000E000555345204259544553204F4E4C590044D6
:1000F00041544120414E4420454550524F4D00450A
:100100004550524F4D204F4E4C59004441544120D0
:100110004F4E4C5900E7053A067206BE06B4058BF1
:10012000077E0170015F014D0140012D014A554DCF
:100130005020544F20424F4F544C4F4144455200A1
:10014000434C454152204D454D4F52590053455463
:1001500020534C4545502054494D454F555400536C
:100160004554204649524D2056455253494F4E0062
:10017000534554205350492053504545440053455E
:100180005420434F4E545241535400F803820542C9
:100190000411043507C3032107F001E501D901CAA1
:1001A00001BB01B201A701534C454550204D4F44BE
:1001B000450053455454494E47530044415441531C
:1001C000544F524520494E464F0044415441464CFD
:1001D000415348205052474D0050524F4752414DD5
:1001E000204156520053544F5245205052474D0023
:1001F000415652495350204D4F4445002702220298
:10020000130204023C433E2032303036202D20477A
:10021000504C004259204445414E2043414D4552E7
:10022000410056312D3400425554544C4F41440046
:100230002A574149542A0040282329425554544CF6
:100240004F414420415652495350004028232942EF
:1002500059204445414E2043414D455241005052A2
:10026000473E202000424144495352004E4F204512
:100270005241534520434D44004E4F204441544188
:10028000004E4F20454550524F4D004E4F20465591
:100290005345204259544553004E4F204C4F434B39
:1002A0002042595445530050524F4752414D4D49F9
:1002B0004E4720444F4E45004641494C4544002A94
:1002C00053544F52414745204D4F44452A00434F18
:1002D0004E4649524D003C4E20593E004D454D2062
:1002E000434C45415245440056322D2000202020E9
:1002F00020534543004F4646004E4F2053544F5223
:100300004544205052474D002A4A544147204F4E01
:100310002A00A8EA802A0040000A510A08405955DC
:100320001801111E111B500B411B411F1101511FC0
:10033000511B000000000880001A2040000000004F
:10034000510F913941149131411E410E411D500F01
:100350008020101548864014780570855115510E7F
:100360005195518E219081205015484450C528C088
:100370002820095041142080111100000010038032
:1003800002540140002244415441464C415348200C
:100390004552524F520000010002000400080010B4
:1003A00000100020002008010801080108010801D0
:1003B00010021002200409090909090A0A0B425512
:1003C0004646204F564552464C4F5700000F1E3CA4
:1003D000782A44415441464C415348204D4F4445AE
:1003E0002A0040282329534352455720524554524E
:1003F0004F44414E000100084156524953505F326C
:1004000053594E43204552524F52002A41544156AF
:1004100052495350204D4F44452A00444154412DE8
:10042000004550524D2D00465553452D004C4F432D
:100430004B2D004E4F2054414753000011241FBE46
:10044000CFEFD4E0DEBFCDBF11E0A0E0B1E0EAE63F
:10045000F5E302C005900D92A430B107D9F712E080
:10046000A4E0B1E001C01D92A83BB107E1F70C94F4
:100470007F020C94BE03CF93DF93282F21502F3F90
:1004800049F0A0E0B8E4C0E0D0E0CD010197F1F779
:100490002150D8F7DF91CF9108958EB38823E9F7E3
:1004A00081E00E943B028EB38823B9F70895CF9371
:1004B000C0E081E08EBB8EB38823E9F3F69B06C0D3
:1004C000CC2311F4C3E00CC0C1500AC0F79B06C096
:1004D000C33011F4C0E004C0CF5F02C0F2990DC078
:1004E000EC2FFF27EE0FFF1FE450FE4F85919491F4
:1004F0000E9464080E944D02DECFCF910895CFEF95
:10050000D4E0DEBFCDBFC0E080E885BF85BF80BF3F
:1005100085E08093640080E380BB87E284B98FED3F
:1005200085B98CE08EB980936B0080ED80936C0070
:1005300080EC8DBB8CBB81B38F7C806281BB0E94C1
:1005400021088FE08093E70080E392E00E94640836
:10055000789428E830E0D9010E946B1A802D8A3700
:1005600081F080E090E04FEFDC01042E0E947D1AC4
:10057000019689389105C0F38AE7D901082E0E94B7
:100580007D1AA5E8B0E00E946B1A802D8F708093D1
:10059000E70080E00E94E70981B3806381BB0E948D
:1005A0001E090E949B070E94FE0B81B38F7C806115
:1005B00081BB81E08EBB80E88093610083E0809303
:1005C00061008EB38823E9F3F69B06C0CC2311F4B7
:1005D000C6E01BC0C15019C0F79B06C0C63011F45D
:1005E000C0E013C0CF5F11C0F49B0BC0EC2FFF27FE
:1005F000EE0FFF1FE557FE4F85919491FC01099581
:1006000004C0F39B02C00E945702EC2FFF27EE0F9D
:10061000FF1FE756FE4F859194910E9464080E9447
:100620004D02CFCFCF93DF93282F21502F3F49F09A
:10063000A3E3B7E0C0E0D0E0CD010197F1F721508E
:10064000D8F7DF91CF910895992781309105B1F0C6
:10065000823091051CF4892B21F00895029759F0FE
:100660000895869AA0E0B0E00E946B1A802D88233E
:1006700019F48E9A0895869A8E9808958698FCCFDC
:10068000FB0120E08436910520F02F5F84569040D6
:10069000F9CF205D219320E08A30910518F02F5F7B
:1006A0000A97FACF205D2193805D8193108208958F
:1006B0001F93CF93DF93CDB7DEB727970FB6F8948C
:1006C000DEBF0FBECDBF182F6EE572E0CE010196E2
:1006D0000E942F1A1E83CE0101960E942E08279693
:1006E0000FB6F894DEBF0FBECDBFDF91CF911F9143
:1006F0000895CF93DF93CDB7DEB764970FB6F89424
:10070000DEBF0FBECDBF25E429832EE32A83BC01C3
:10071000CE0103960E942F1ACE0101960E942E0848
:100720000E944D02F49BFECF0E944D0264960FB6CC
:10073000F894DEBF0FBECDBFDF91CF9108957894BE
:100740001F920F920FB60F9211248F939F9393B124
:100750009095907D8CB180958C70982B9EBB10925B
:1007600048011092470110928500109284009F91D9
:100770008F910F900FBE0F901F90189585E692E015
:100780000E947903FFCFCF93C0E081E08EBB8EB390
:100790008823E9F3F69B06C0CC2311F4C5E019C009
:1007A000C15017C0F79B06C0C53011F4C0E011C09E
:1007B000CF5F0FC0F49B0BC0EC2FFF27EE0FFF1F86
:1007C000EB5EFE4F85919491FC01099502C0F29970
:1007D0000DC0EC2FFF27EE0FFF1FEF5DFE4F859141
:1007E00094910E9464080E944D02D1CFCF91089548
:1007F00080E392E00E9464080E949B078091C10000
:10080000807888618093C1008BE094E00E94640846
:1008100087E892E190930301809302010E948D0F7B
:100820000895A1E0B0E00E946B1A802D0E94980903
:1008300081E08093400182EB99E0909301018093E5
:10084000000180E392E00E9464080E949B0780916F
:10085000C100807888618093C10081ED93E00E949F
:1008600064088EEB9CE090930301809302010E9448
:100870008D0F80E00E94E70980916400846080937E
:10088000640008950F931F93CF93DF93CDB7DEB726
:1008900063970FB6F894DEBF0FBECDBF00E0102FF8
:1008A0000E944309009340018DE499E09093010177
:1008B000809300010E94510B882309F418C10E9403
:1008C0004D0281E08EBB8EB38823E9F3F2990FC10C
:1008D000F4991CC0F69B06C0112311F416E009C060
:1008E000115007C0F79B05C0163011F410E001C08D
:1008F0001F5FE12FFF27EE0FFF1FEE55FF4F859182
:1009000094910E9464080E944D02DDCF80E880939C
:1009100061001092610081B3806381BB80E392E04B
:100920000E946408A1E0B0E00E946B1A802D0E9432
:10093000980980E00E942403E5E5F1E020E030E042
:100940009BE0D901AD5DBF4F0E946B1A802D819352
:1009500091502F5F3F4F97FFF4CF0E94F7101092F6
:100960004C0110924D0110924E0110924F01809156
:100970005601882309F0A0C0163021F0112311F090
:10098000123091F483E40E945803A4E1B0E00E9485
:100990006B1A802D813031F002E08CE692E00E94EB
:1009A000790302C00E948B17112311F01230B9F4A1
:1009B0000023A9F484E40E94580381E00E94F71305
:1009C000DC01CB010097A105B10531F403E089E713
:1009D00092E00E94790303C081E00E94BA17812F40
:1009E00081508230A8F485E40E94580380E00E9480
:1009F000F713DC01CB010097A105B10531F403E049
:100A000081E892E00E94790303C080E00E94BA1757
:100A1000133011F0153099F486E40E945803AFE2C8
:100A2000B0E00E946B1A802D882331F403E08BE83C
:100A300092E00E94790303C082E00E945A17812F3E
:100A40008450823000F5153059F481E00E9424036F
:100A500081E00E943B0280E00E9424030E94F71084
:100A60008CE40E945803A0E3B0E00E946B1A802D32
:100A7000882331F403E089E992E00E94790303C0FE
:100A800083E00E945A1767EA72E0CE0101960E9445
:100A90002F1A002331F068EB72E0CE010D960E9410
:100AA0002F1ACE0101960E942E088FEF0E943B0262
:100AB00084E60E943B0204C080E094E00E94790337
:100AC00080E88093610083E08093610081E00E9470
:100AD00024030E94A80980E00E94E7098091640035
:100AE00084608093640081B38F7C806181BB639656
:100AF0000FB6F894DEBF0FBECDBFDF91CF911F912F
:100B00000F9108958DE499E0909301018093000185
:100B10000E9443091092400181E00E94E7090E946F
:100B2000510B882301F180E392E00E9464080E9447
:100B30009B078091C100807888618093C1008FEB12
:100B400092E00E9464088CE095E190930301809309
:100B500002010E948D0F80E00E94E70980916400ED
:100B60008460809364000895CF93DF938EEC92E0CD
:100B70000E94640884EB0E943B0286ED92E00E9492
:100B800064088EB38823E9F38EB39927EC01C4700F
:100B9000D07082FD19C0F39BF4CF0E944D0280E318
:100BA00092E00E946408CE012FEFDC01022E0E9429
:100BB0007D1A019689389105C0F38CED92E00E9470
:100BC00064088FEF0E943B02DF91CF910895EF926E
:100BD000FF921F93CF93DF93CDB7DEB726970FB663
:100BE000F894DEBF0FBECDBF85E8E82E80E0F82E7A
:100BF000D7010E946B1A802D182F1F7081E08EBBC9
:100C00008EB38823E9F3F69B04C01F3078F41F5F8E
:100C10000DC0F79B04C0123048F0115007C0F29B82
:100C200005C0D701012E0E947D1A18C083E4898374
:100C300084E58A8380E28B83BE016C5F7F4F812FC6
:100C400099270E944003CE0101960E942E08812F11
:100C50008F708093E7000E944D02D2CF26960FB688
:100C6000F894DEBF0FBECDBFDF91CF911F91FF90F3
:100C7000EF9008950F931F93CF9301E010E0D801F8
:100C80000E946B1A802DC82F843008F0C3E081E0E9
:100C90008EBB8EB38823E9F3F69B06C0CC2311F4F8
:100CA000C3E011C0C1500FC0F79B06C0C33011F4A0
:100CB000C0E009C0CF5F07C0F29B05C0D8010C2E71
:100CC0000E947D1A0BC08AE0C89FC001112486587B
:100CD0009F4F0E9464080E944D02DBCFCF911F916D
:100CE0000F910895EF92FF921F93CF93DF93CDB7AB
:100CF000DEB725970FB6F894DEBF0FBECDBF96E8DE
:100D0000E92E90E0F92ED7010E946B1A802D182F42
:100D10008A3008F014E068EE72E0CE0101960E947D
:100D20002F1A81E08EBB8EB38823E9F3F69B03C0B4
:100D3000193008F41F5FF79B04C0112349F01150CC
:100D400007C0F29B05C0D701012E0E947D1A0AC080
:100D5000105D1C831053CE0101960E942E080E9444
:100D60004D02E1CF25960FB6F894DEBF0FBECDBF82
:100D7000DF91CF911F91FF90EF900895EF92FF9236
:100D80001F93CF93DF93CDB7DEB728970FB6F894B4
:100D9000DEBF0FBECDBF27E8E22E20E0F22ED70146
:100DA0000E946B1A802D182F853008F014E06DEE2C
:100DB00072E0CE0101960E942F1A81E08EBB8EB3A5
:100DC0008823E9F3F69B05C0112311F414E001C058
:100DD0001150F79B06C0143011F410E00DC01F5FD6
:100DE00009C0F29B07C0D701012E0E947D1A0E9404
:100DF000FE0B1BC0112329F485EF92E00E946408CA
:100E000011C0E12FFF27E453FC4F8491BE016F5FB7
:100E10007F4F99270E94400380E28C83CE01019688
:100E20000E942E080E944D02CACF28960FB6F89451
:100E3000DEBF0FBECDBFDF91CF911F91FF90EF902E
:100E4000089585E083BF8091E4008F778093E4006C
:100E5000F69903C08895F69BFDCF8091E4008068E9
:100E60008093E4000E944D0208951F93CF9310E0F9
:100E70000E944D0281E08EBB8EB38823E9F3CEB38E
:100E8000C07C19F081E0182738C0F29941C0F49B6A
:100E900034C0113081F58DE499E090930101809385
:100EA00000010E944309C0934001812F0E94E7097D
:100EB0000E94510BC82F882341F00E94011A809193
:100EC000640084608093640018C0812F0E94F7132F
:100ED000DC01CB010097A105B10579F48C2F0E94AC
:100EE000E7098091640084608093640089EF92E058
:100EF0000E94790302C00E94DC188FE0189FC00195
:100F00001124845A9F4F0E9464080E944D02B4CF5E
:100F1000CF911F91089585B78F7785BF85BF1092B8
:100F2000810088E093E00E9464080E944D0288E1FD
:100F300080936000FFCFCF93DF934FE310920501C2
:100F40001092040180E88093610010926100409348
:100F500066005FB710926F0088E08093B60081E072
:100F6000809370007894809381008093B00020E09B
:100F700030E08091B6009927877090700097C9F78C
:100F800090938500809384001092B2004EE3ACEC05
:100F9000B4E6C0E0D0E0CD010197F1F7322F8091A7
:100FA0006600282F80910401909105018150914E97
:100FB00020F08091660081500AC0809104019091D8
:100FC0000501865F904E58F4809166008F5F809394
:100FD000660080916600831711F04150E0F6109290
:100FE0006F0010927000109281001092B0008091FA
:100FF000B600877F8093B6005FBFDF91CF910895E1
:101000001F920F920FB60F9211248F939F931092FD
:1010100081008091840090918500909305018093D8
:10102000040110928500109284001092B20081E0B9
:10103000809381009F918F910F900FBE0F901F9012
:1010400018958FE08093E70087EB8093E50087E0B9
:101050008093E60088EC8093E4000895DC0120E0B2
:101060003FEFEAE1F1E09D91892F8A52813510F43A
:10107000808303C0992329F030832F5F3196243178
:1010800090F380E0273008F081E080933A011092DD
:1010900038019FEF86E0E22FFF27E65EFE4F908348
:1010A0002F5F815087FFF7CFE22FFF27E65EFE4FCD
:1010B000108210923601209335018AE08093390125
:1010C00081E0809337010895CF93DF93CDB7DEB7EA
:1010D00064970FB6F894DEBF0FBECDBFBC01CE0142
:1010E00001960E942F1ACE0101960E942E08649646
:1010F0000FB6F894DEBF0FBECDBFDF91CF9108953C
:10110000E82F20E030E0862F8695A82FBB27AA5F26
:10111000BE4FEF3F39F0FF27EE0FFF1FEE5EFC4F93
:101120002591349177276170707043E050EF922FD2
:101130009F706115710519F05FE09295907F8C9119
:101140008523892B8C9384E0369527958A95E1F742
:101150001596415047FFEACF089578941F920F9259
:101160000FB60F9211242F933F934F935F936F937A
:101170007F938F939F93AF93BF93CF93EF93FF93FF
:1011800080913A01882399F080913901882321F0D8
:101190008150809339010BC080913801882321F45C
:1011A00081E08093370103C08150809338018091A2
:1011B0003701882339F1C0E0809136018C0F90917E
:1011C0003501E82FFF27891710F0E91BF109E65ECA
:1011D000FE4F80816C2F0E948008CF5FC63060F385
:1011E00080913601982F8F5F809336018091350171
:1011F000981719F481E08093360183E080933801D9
:1012000010923701ACEEB0E0E6E0F1E093E18191BD
:101210008D93915097FFFBCFFF91EF91CF91BF91AD
:10122000AF919F918F917F916F915F914F913F917E
:101230002F910F900FBE0F901F9018951092C50020
:1012400087E08093C40082E08093C00080E88093B0
:10125000C10086E08093C2000E94B40B0895982FCD
:101260008091C00085FFFCCF9093C60008958091C7
:10127000B702882321F4809149018823C1F30E9499
:10128000C10B99270895809164008B7F809364003F
:1012900081E08DBD8CE58CBD08958EBD0DB407FE3B
:1012A000FDCF8EB5992708950F931F938C01812F41
:1012B00099270E944D09802F0E944D0999271F915F
:1012C0000F9108951F920F920FB60F9211248F93D2
:1012D00080916E008D7F80936E0080E48093B900D2
:1012E00081E0809371028091BA00809372028F91A5
:1012F0000F900FBE0F901F901895482F90E06FE74A
:1013000073E09B0121503040F9018491841711F062
:10131000933031F4FB01849187BD89E084BD089549
:101320009F5F2E5F3F4F6E5F7F4F943068F308954D
:101330009DB190659DB96D98759A76989AE5909350
:10134000B8000E947D0910927102109272020895F5
:101350008DB18F7A8DB98EB18F788EB986988E982F
:1013600014BC0895109271028093BA00A99A8091DA
:101370006E00826080936E0016BC8091710288239B
:10138000E1F380917202992708950F931F938C01C6
:10139000812F99270E94B209802F0E94B2099927B4
:1013A0001F910F91089581E00E9412038091B8006F
:1013B00081608093B80081E00E9412038091B800A0
:1013C00081608093B80081E00E941203089590919B
:1013D0004001813031F4913011F482E005C0289849
:1013E0000895913021F4892F0E9424030895289AAA
:1013F0000895EF92FF920F931F937C0100910001DB
:101400001091010180E00E94E70981E00E94E70954
:1014100084E5F80109958F2D9927F80109958E2DFE
:10142000F801099580E0F801099580E0F801099537
:1014300099271F910F91FF90EF900895EF92FF92DF
:101440000F931F93CF93DF938C017B01C091000119
:10145000D091010180E00E94E70981E00E94E70944
:1014600088E6FE0109958AB5980102C03695279550
:101470008A95E2F7C901FE0109958BB5980102C072
:10148000220F331F8A95E2F78F2D9927820FFE01D5
:1014900009958E2DFE01099503E080E0FE01099576
:1014A000015007FFFACFDF91CF911F910F91FF906D
:1014B000EF900895EF92FF920F931F937C0100919C
:1014C00000011091010180E00E94E70981E00E9483
:1014D000E70984E8F801099580E0F80109958F2D66
:1014E0009927F80109958E2DF80109951F910F9103
:1014F000FF90EF900895CF93DF93C0910001D091BA
:10150000010180E00E94E70981E00E94E70987E588
:10151000FE01099580E0FE0109958823DCF7DF9143
:10152000CF910895EF92FF920F931F937C0100914A
:1015300000011091010180E00E94E70981E00E9412
:10154000E70980E5F80109958F2D9927F80109959C
:101550008E2DF801099580E0F80109950E947B0A1B
:101560001F910F91FF90EF900895EF92FF920F93CC
:101570001F937C01009100011091010180E00E9405
:10158000E70981E00E94E70983E5F80109958AB53A
:10159000970102C0369527958A95E2F7C901F801AF
:1015A00009958BB502C0EE0CFF1C8A95E2F7C701C6
:1015B000F801099580E0F80109950E947B0A1F91C6
:1015C0000F91FF90EF900895EF92FF920F931F936A
:1015D0007C01009100011091010180E00E94E70967
:1015E00081E00E94E70983E8F80109958AB597012F
:1015F00002C0369527958A95E2F7C901F801099549
:101600008BB502C0EE0CFF1C8A95E2F7C701F8010A
:10161000099580E0F80109950E947B0A1F910F91BE
:10162000FF90EF9008950F931F9300910001109188
:10163000010180E00E94E70981E00E94E70987E557
:10164000F801099580E0F801099599278873907051
:1016500043E0959587954A95E1F79927FC01EA546F
:10166000FC4F449140933B019C01280F391FF90125
:10167000EA55FC4F8591949190933D0180933C01F4
:10168000F901EA56FC4F8591949190933F01809324
:101690003E0180E1841B8ABD48504BBD1F910F91D4
:1016A00008950E94130B80913E0190913F0180505C
:1016B000984061F08091640084608093640086E8C3
:1016C00093E00E94790380E090E0089581E090E04B
:1016D00008951F920F920FB60F9211242F933F93EC
:1016E0004F935F936F937F938F939F93AF93BF932A
:1016F000EF93FF938091B702803429F48EEB93E04F
:101700000E94790320C0E091B302F091B40280916D
:10171000C60080834091B3025091B4029A012F5FBA
:101720003F4F3093B4022093B3028091B7028F5F92
:101730008093B702235B324031F44F5350405093B3
:10174000B4024093B302FF91EF91BF91AF919F918B
:101750008F917F916F915F914F913F912F910F905A
:101760000FBE0F901F90189583E792E09093B402FC
:101770008093B3029093B6028093B5021092B702A1
:1017800008958091B702882319F480E090E00895CD
:101790002091B5023091B602F9019191F093B60211
:1017A000E093B5028091B70281508093B702E35B6A
:1017B000F24031F42F5330403093B6022093B502FB
:1017C000892F9927089578941F920F920FB60F9240
:1017D00011248F9380914A018F5F80934A018091F9
:1017E0004A01873929F410924A0181E08093490126
:1017F0008F910F900FBE0F901F901895A7E8B0E043
:101800000E946B1A802D282F8F3F09F424E031E0CD
:1018100030936F00E22FFF27E453FC4F94918AE04E
:10182000989FC00111249093460180934501109226
:1018300048011092470110928500109284002223E3
:1018400019F03093810008952093810008957894D1
:101850001F920F920FB60F9211242F933F934F9325
:101860005F936F937F938F939F93AF93BF93EF9308
:10187000FF9380914701909148019C0101969093BC
:1018800048018093470180914501909146012817B6
:10189000390731F4109281000E9421070E94FE0B4B
:1018A000FF91EF91BF91AF919F918F917F916F9138
:1018B0005F914F913F912F910F900FBE0F901F900E
:1018C000189520914C0130914D0140914E0150915D
:1018D0004F01109244011092430180913C0190917C
:1018E0003D01AA27BB2782179307A407B50788F4F1
:1018F00060E070E0281B390B4A0B5B0B6F5F7F4F7A
:1019000082179307A407B507A8F370934401609367
:10191000430130934201209341010895CF93C82F92
:10192000209141013091420180913C0190913D0113
:1019300028173907A9F480914301909144019C0133
:1019400001969093440180934301C9010E94E40AE7
:1019500080E090E00E945A0A1092420110924101E8
:101960008C2F0E94B2098091410190914201019611
:101970009093420180934101CF910895DF92EF92BD
:10198000FF920F931F93CF93DF93DD248091550136
:1019900099278631910509F400C187319105B4F486
:1019A0008231910509F46FC0833191053CF4803197
:1019B000910531F1419709F446C040C18431910548
:1019C00009F48AC045970CF0AFC07FC089319105FA
:1019D00009F470C08A31910544F48731910509F406
:1019E00069C0489709F458C029C18B319105E9F1C4
:1019F0008B3191050CF450C04C9709F44DC01EC1B9
:101A000082E090E0909352018093510181E00E9426
:101A1000E7090E94130B80913B01882359F081ED67
:101A200093E00E94640881E08093500181B38F7C31
:101A3000806217C086E893E00E9464088D2D0E94A2
:101A4000E70980EC02C182E090E09093520180931C
:101A50005101D09250018D2D0E94E70981B38F7CF6
:101A6000806181BBD0925601F2C084E090E09093F7
:101A7000520180935101D092560182E08093570128
:101A8000D0925801E4C082E090E09093520180939C
:101A90005101E1E0DE2E7EC084E090E0909352019F
:101AA00080935101109256018FEF8093570110924D
:101AB0005801CDC083E090E0909352018093510192
:101AC0001092560110925701C2C082E090E09093AC
:101AD0005201809351015EC0809156019927982F41
:101AE0008827209157013327822B932B03969093BD
:101AF00052018093510121E030E002972817390705
:101B000048F44FEFE6E5F1E041932F5F3F4F281790
:101B10003907D0F310925601E0915101F091520132
:101B2000EC5AFE4F108293C00E94610C80914301D9
:101B3000909144010E94B50A809141019091420127
:101B40000E945A0A809156019927D82FCC2780915C
:101B500057019927C82BD92B00E010E00C171D075F
:101B6000C8F45FE5E52E51E0F52EF70181917F0184
:101B70000E948E0C809141019091420101969093B8
:101B80004201809341010E94500F0F5F1F4F0C17BD
:101B90001D0758F3109256015AC00E94610C8091A3
:101BA0004301909144010E94B50A80915601992702
:101BB000D82FCC27809157019927C82BD92B00E02B
:101BC00010E00C171D0770F537E5E32E31E0F32E1A
:101BD000209141013091420180913C0190913D0161
:101BE0002817390741F40E94610C809143019091BC
:101BF00044010E94B50A80914101909142019C01EB
:101C000001969093420180934101C9010E94F90914
:101C1000F70181937F010E94500F0F5F1F4F0C1738
:101C20001D07B0F22396D0935201C0935101239720
:101C300010925601CB5ADE4F1A8209C081E090E023
:101C4000909352018093510189EC809356010E9438
:101C50006F0EDD20D9F080E392E00E946408C0E0BE
:101C6000D0E080913E0190913F0123E096958795C9
:101C70002A95E1F7C817D90728F4CE010E94920AE5
:101C80002196EFCF81ED93E00E946408DF91CF9120
:101C90001F910F91FF90EF90DF9008956BE180917D
:101CA000530168272091510130915201832F9927C8
:101CB00068278091510168278EE0682740E050E056
:101CC0004217530748F4E5E5F1E0819168274F5F3B
:101CD0005F4F42175307C8F3862F992708950F9334
:101CE0001F93CF93DF938BE10E942F0980915301C3
:101CF0000E942F09809152010E942F098091510169
:101D00000E942F098EE00E942F09C0E0D0E0809150
:101D1000510190915201C817D90778F405E511E0F7
:101D2000F80181918F010E942F0921968091510124
:101D300090915201C817D90798F30E944E0E0E9445
:101D40002F09809153019091540101969093540171
:101D500080935301DF91CF911F910F9108952091AE
:101D6000560183E090E090935201809351011092CC
:101D7000560133272239310551F1233931058CF4CD
:101D80002138310501F12238310524F4203831059C
:101D900041F17AC020393105C1F021393105A9F06E
:101DA00073C02839310589F1293931052CF42639D8
:101DB00031050CF469C05AC02E393105E1F12F39D3
:101DC000310589F061C081E03FC082E03DC0A6E8F6
:101DD000B0E09D010E946B1A802D8F3F11F0D90158
:101DE00030C084E031C080915501833019F4809176
:101DF0004B012AC082E090E0909352018093510100
:101E00008091570180934B0148C080915501A1E01A
:101E1000B0E08330B1F082E090E090935201809383
:101E2000510180915701082E0E947D1A809157011F
:101E30000E947D0932C080915501A0E0B0E083305E
:101E400031F40E946B1A802D8093570126C082E0E6
:101E500090E0909352018093510180915701082E98
:101E60000E947D1A81E00E94240317C080915501D1
:101E7000833019F41092570110C082E090E09093E3
:101E800052018093510109C082E090E09093520189
:101E90008093510180EC809356010E946F0E08954B
:101EA00080914C0190914D01A0914E01B0914F0154
:101EB0000196A11DB11D80934C0190934D01A093FB
:101EC0004E01B0934F01089580914C0190914D01C6
:101ED000A0914E01B0914F01B7FF1EC08DE40E944A
:101EE000B20980E00E94B20980914E010E94B209BD
:101EF00080E00E94B20980914C0190914D01A09127
:101F00004E01B0914F01BF7780934C0190934D01EA
:101F1000A0934E01B0934F010895EF92FF920F935B
:101F20001F93CF93C0E0EE24FF240E94B40BC09314
:101F30008100C093500110924C0110924D011092FB
:101F40004E0110924F0180914901813011F4CAE095
:101F500011C0CC2379F01092490110924A011092DD
:101F6000B20080EF8093B30082E0809370008FE036
:101F70008093B0008C2F99278530910509F487C094
:101F800086309105ACF48230910509F457C0833056
:101F9000910534F4009799F1019709F449C0D3CF22
:101FA0008330910509F453C0049709F45BC0CBCF8B
:101FB00088309105D1F08930910544F4863091053F
:101FC00009F46DC0079709F47EC0BDCF8930910533
:101FD00009F4ABC00A9709F0B6CF82E090E0909385
:101FE00052018093510180E8F6C0109249010E948D
:101FF000B40B1092B00010927000C0E0A4CF80919A
:10200000B7028111C1E0F29B9ECF809150018823DD
:1020100009F099CF80E88093610083E080936100AC
:102020008091C10080788093C1000E94FE0BD9C0CE
:102030000E9437098B3189F5C2E085CF0E943709AC
:1020400099279093540180935301C3E07CCF0E9461
:1020500037099927982F882790935201809351012F
:10206000C4E071CF0E943709282F33278091510196
:1020700090915201822B932B9093520180935101A6
:102080008351914050F4C5E0EE24FF245CCF0E94C0
:1020900037098E3011F4C6E056CFC9E054CF809195
:1020A000510190915201E816F90611F4C7E04BCFA7
:1020B00087010B5A1E4F0894E11CF11C0E9437093E
:1020C000F801808340CF0E944E0E182F0E943709DE
:1020D000181709F079C0C0914901CC2309F074C0E8
:1020E000809155019927843091053CF48230910507
:1020F0000CF061C0019739F061C086309105E9F0BC
:10210000079799F05BC08BE090E090935201809329
:102110005101A5E5B1E0E5EFF3E09AE084918D93FC
:102120009150319697FFFACF58C082E090E090939B
:1021300052018093510180EC4EC082E090E0909378
:102140005201809351010E94640F8091560199279A
:10215000AA27BB27B82FAA2799278827209157019C
:10216000332744275527A90133272227822B932B76
:10217000A42BB52B20915801332744275527542FE2
:10218000432F322F2227822B932BA42BB52B209168
:102190005901332744275527822B932BA42BB52B8A
:1021A00080934C0190934D01A0934E01B0934F0149
:1021B000C093560112C00E94AF0E11C0E0910201FF
:1021C000F091030109950BC082E090E090935201D9
:1021D0008093510181EC809356010E946F0EC8E0FC
:1021E000B2CECF911F910F91FF90EF9008950F9372
:1021F0001F93CF9310915A01C091590180915701BB
:102200000E9412038C2F8150843608F0C8E1C1501F
:10221000CF3F09F43FC080915D010E94B209812F38
:102220000E94120380915E010E94B209812F0E94D8
:10223000120380915F010E94B209082F812F0E9432
:10224000120380915C01833029F4809160010E9427
:10225000B20905C0809160010E94B209082F8091E7
:102260005C01882321F080915B01081769F4812FBC
:102270000E94120381E08093500181B38F7C8062C1
:1022800081BB109256010DC0812F0E9412030E9443
:10229000D309BDCF81B38F7C806181BB80EC8093FB
:1022A0005601CF911F910F9108951F93CF93DF9304
:1022B000EB01992780FF08C08077907034E09595F6
:1022C00087953A95E1F704C08E7090709595879543
:1022D0009927877090708230910519F00497E1F08A
:1022E00026C010915C0180915501833139F4812F12
:1022F0009927C0FD8860182FD695C795812F0E9419
:10230000B209CE010E94C50980E00E94B2099091F5
:102310005D01891799F30FC080E090EF0E94C50915
:1023200080E090E00E94C50980FDF6CF04C0809156
:1023300059010E941203DF91CF911F9108956F926E
:102340007F929F92AF92BF92CF92DF92EF92FF92D5
:102350000F931F93CF93DF9300E010E0909058010C
:10236000C0905A0160904C0170904D0180915601CF
:102370009927B82EAA24809157019927A82AB92A0B
:1023800090FE62C078010A151B0508F046C0CFE533
:10239000D1E0D99080915501833131F48C2D99276A
:1023A000E0FE03C0886001C08C2D0E94B2098091BC
:1023B0004C0190914D010E94C5098D2D0E94B209DA
:1023C00001151105D9F480915D018D15B9F0909139
:1023D0005501933131F0953189F480915E018D156D
:1023E00069F000914C0110914D01933139F4000FC7
:1023F000111FC70181709070080F191FE0FC04C005
:1024000080915501853111F40E94500F0894E11C10
:10241000F11CEA14FB0408F4BCCFC92D97FE69C077
:1024200080915B010E94B209C3010E94C50980E04E
:102430000E94B2090115110511F4CF78C061B801ED
:102440008C2F0E94551155C078010A151B0508F004
:1024500050C05FE5652E51E0752EF301D1903F012C
:1024600080915501833131F48C2D9927E0FE03C012
:10247000886001C08C2D0E94B20980914C0190911E
:102480004D010E94C5098D2D0E94B209C92D809170
:102490005D018D15C1F090915501933131F0953169
:1024A00091F480915E018D1571F000914C011091B5
:1024B0004D01933159F4000F111FC70181709070C5
:1024C000080F191F03C0C92DC17FC260E0FC04C002
:1024D00080915501853111F40E94500FB8018C2F65
:1024E0000E9455110894E11CF11CEA14FB0408F445
:1024F000B4CFDF91CF911F910F91FF90EF90DF90BC
:10250000CF90BF90AF909F907F906F900895DF9293
:10251000EF92FF920F931F93CF93DF93809155011A
:1025200099278631910509F4FBC08731910594F410
:102530008231910509F460C0833191053CF480310A
:102540009105F9F0419709F43DC03EC1449709F463
:10255000E7C02FC18931910509F4CCC08A319105BA
:1025600044F48731910509F4C5C0489709F4A5C022
:102570002BC18D3191050CF4A0C04D9709F461C0B9
:1025800023C182E090E09093520180935101A1E039
:10259000B0E00E946B1A802D0E94980980E00E9492
:1025A000240381B3806381BB0E94F71080915001A6
:1025B000882319F08BE094E002C080E094E00E9450
:1025C00064080BC182E090E0909352018093510126
:1025D000809156010E94120381B38F7C806181BB80
:1025E0001092500181E00E942403809157010E94C3
:1025F00012030E94A809E5C082E090E09093520186
:1026000080935101C3E008E511E0F80181918F0149
:102610000E94B209C150C7FFF8CF809157018823AB
:1026200059F080E090EF0E94C50980E090E00E94A0
:10263000C50980FDF6CFC5C0809156010E941203E6
:10264000C0C0E09057018E2D9927039690935201B8
:102650008093510100915601F0905801C1E012E0C1
:10266000C017A8F4E12FFF27EB5AFE4F83810E9489
:10267000B2091E1540F0CF1530F4EC2FFF27EB5AAE
:10268000FE4F8283CF5F812F1F5F801758F38C2FFF
:10269000CF5F8F1550F40C2F11270B5A1E4F80E07F
:1026A0000E94B209F8018283F2CF10925601EC2FFA
:1026B000FF27EB5AFE4F138290C084E090E0909386
:1026C000520180935101C1E007E511E0F8018191C9
:1026D0008F010E94B209982F80915601C81711F4FA
:1026E00090935701CF5FC53088F310925601109236
:1026F000580173C083E090E09093520180935101A0
:1027000006E511E0C3E0F80181918F010E94B20952
:10271000C150C7FFF8CF10925601109257015DC00B
:10272000D0905801809156019927D82FCC278091BD
:1027300057019927C82BD92B2396D0935201C093C8
:102740005101239700E010E00C171D0760F587E5A5
:10275000E82E81E0F82E80915501843131F48D2DE1
:10276000992700FF03C0886001C08D2D0E94B20927
:1027700080914C0190914D010E94C50980E00E941A
:10278000B209F701808300FD04C0809155018631B4
:1027900011F40E94500F0F5F1F4F0894E11CF11CB1
:1027A0000C171D07C0F210925601CB5ADE4F1A8249
:1027B00014C00E949F1182E090E090935201809398
:1027C00051011092560109C081E090E090935201AE
:1027D0008093510189EC809356010E946F0EDF9126
:1027E000CF911F910F91FF90EF90DF900895CF93BD
:1027F000DF93CDB7DEB724970FB6F894DEBF0FBED8
:10280000CDBF19821A821B821C82FE013196813053
:1028100019F4ABE1B0E002C0AFE1B0E084E0182E03
:102820000E94731A89819A81AB81BC818F5F9F4F0F
:10283000AF4FBF4F21F419821A821B821C828981FB
:102840009A81AB81BC81BC01CD0124960FB6F8946E
:10285000DEBF0FBECDBFDF91CF91089580936B0295
:10286000109269021092680220914C0130914D0142
:1028700040914E0150914F01813039F4DA01C90184
:10288000880F991FAA1FBB1F06C0DA01C90180501B
:102890009C4FAB4FBF4F10924401109243018830C0
:1028A00021E0920720E0A20720E0B207A0F020E09C
:1028B00030E088509140A040B0402F5F3F4F8830BB
:1028C00041E0940740E0A40740E0B40790F730935C
:1028D0004401209343019093420180934101089564
:1028E000CF93C82F8091410190914201885091402F
:1028F000A9F480914301909144019C010196909329
:10290000440180934301C9010E94E40A80E090E001
:102910000E945A0A10924201109241018C2F0E948B
:102920004D0980914101909142010196909342019D
:102930008093410180916802909169020196909381
:10294000690280936802CF910895CF93DF93CDB74A
:10295000DEB724970FB6F894DEBF0FBECDBF8091CF
:102960006A02813009F03FC080914101909142019B
:10297000892B31F080914301909144010E94E40A37
:10298000209143013091440188E091E0289FA0010B
:10299000299F500D389F500D1124CA0120914101EB
:1029A00030914201820F931F9C01442755272983B0
:1029B0003A834B835C8380916B02FE0131968130B8
:1029C00019F4ABE1B0E00AC020503440444050401C
:1029D00029833A834B835C83AFE1B0E084E0182E17
:1029E0000E948E1A10C0833071F480916B02823085
:1029F00019F4AFE2B0E002C0A0E3B0E08091410181
:102A0000082E0E947D1A24960FB6F894DEBF0FBEE2
:102A1000CDBFDF91CF910895CF92DF92EF92FF92D9
:102A20000F931F93CF93DF9340915501842F9927E4
:102A30008631910509F4BCC18731910594F4823146
:102A4000910509F466C0833191053CF4803191050C
:102A500011F1419709F43FC019C2449709F4A8C184
:102A60003CC18931910509F4E6C08A31910544F4ED
:102A70008731910509F4DFC0489709F489C006C27F
:102A80008B319105D1F18B3191050CF481C04C97BC
:102A900009F471C0FBC182E090E0909352018093F1
:102AA0005101E5E5F1E020E030E09BE0D901AD5DCA
:102AB000BF4F8191082E0E947D1A91502F5F3F4F8A
:102AC00097FFF4CF81E08093500110926A0281B3A6
:102AD0008F7C806210C082E090E0909352018093DE
:102AE00051010E94A5141092500180E00E94E70954
:102AF00081B38F7C806181BB58C184E090E090936A
:102B00005201809351011092560181E08093570148
:102B10003CC082E090E09093520180935101E6E541
:102B2000F1E021E030E095E0D901AB5EBF4F81914B
:102B3000082E0E947D1A91502F5F3F4F97FFF4CFD0
:102B400020E080E090E037E0DC01A55EBF4F022E80
:102B50000E947D1ADC01A15EBF4F022E0E947D1AE9
:102B60003150019637FFF0CFA4E1B0E081E0082EAC
:102B70000E947D1A1AC184E090E0909352018093E4
:102B8000510110925601109257011092580187C1BD
:102B900084E090E0909352018093510180916A0209
:102BA000843049F00E94A514109242011092410114
:102BB00084E080936A0260915501683119F4AFE2B4
:102BC000B0E002C0A0E3B0E00E946B1A802D99270C
:102BD00040914101509142018417950710F48FEF05
:102BE0001DC080EA90E0489F9001499F300D589F9A
:102BF000300D11249091560188E2989FC001112454
:102C0000280F391F683121F4D901A75FBF4F03C0D6
:102C1000D901AF5CBF4F0E946B1A802D8093570182
:102C200010925601109258014F5F5F4F509342012E
:102C30004093410134C183E090E09093520180932E
:102C4000510180916A02833039F083E080936A02F7
:102C500010924201109241012091410130914201B4
:102C6000473169F480EA90E0289FE001299FD00D68
:102C7000389FD00D1124CF5CDF4F82E00CC080EA7A
:102C800090E0289FE001299FD00D389FD00D11249E
:102C9000C75ADF4F83E080936B028091410190918E
:102CA00042010A97A8F4E6E5F1E093E08191DE01A4
:102CB000082E0E947D1A2196915097FFF7CF8091A0
:102CC000410190914201019690934201809341010C
:102CD0001092560110925701E2C082E090E090936A
:102CE00052018093510180916A028130F9F04331A1
:102CF00021F4C2E0D0E081E003C0CBE0D0E080E08E
:102D00000E942E1480914101909142010E945A0A22
:102D100081E080936A02E6E5F1E098E08191DE01CE
:102D2000082E0E947D1A915097FFF8CF809156018E
:102D30009927D82FCC27809157019927C82BD92BB9
:102D400000E010E00C171D0770F45FE5E52E51E080
:102D5000F52EF70181917F010E9470140F5F1F4FC4
:102D60000C171D07B0F3209168023091690237FDFE
:102D70001CC08091580187FF18C021153105A9F0AA
:102D800080916B02813019F4A1E8B0E002C0A3E8A1
:102D9000B0E009010E94891A80916802909169024D
:102DA000906890936902809368021092560177C0F0
:102DB00080916A02823001F10E94A51490E0809116
:102DC0005501843109F491E0892F0E942E146091FD
:102DD00041017091420180914301909144010E9410
:102DE0001E0A82E080936A0210924C0110924D01FB
:102DF00010924E0110924F01809156019927D82FC1
:102E0000CC27809157019927C82BD92B90E080912E
:102E10005501843109F491E0892F0E94F713DC01F8
:102E2000CB017C0100E010E00C171D0718F537E519
:102E3000C32E31E0D32E97014427552780914C01B2
:102E400090914D01A0914E01B0914F0182179307CF
:102E5000A407B50720F480E00E944D0901C08FEF60
:102E6000F60181936F010E94500F0F5F1F4F0C17E7
:102E70001D0708F32396D0935201C0935101239765
:102E800010925601CB5ADE4F1A8209C081E090E0C1
:102E9000909352018093510189EC809356010E94D6
:102EA0006F0EDF91CF911F910F91FF90EF90DF9008
:102EB000CF9008950F931F93CF93DF93823049F4FF
:102EC000AFE2B0E00E946B1A802D182FC1E3D0E072
:102ED00008C0A0E3B0E00E946B1A802D182FC9E54E
:102EE000D0E011501F3F91F003E0DE010E946B1A09
:102EF000802D0E94B2092196015007FFF6CF1123C1
:102F000019F085E00E943B02115070F7DF91CF91DC
:102F10001F910F9108951F93CF93DF93C2E0D0E0EC
:102F200013E0DE01AB5EBF4F0E946B1A802D0E9442
:102F3000B2091150219617FFF4CFA6E1B0E00E942C
:102F40006B1A802D882359F080E090EF0E94C5090C
:102F500080E090E00E94C50980FDF6CF07C0A5E1A2
:102F6000B0E00E946B1A802D0E941203DF91CF9176
:102F70001F9108953F924F925F926F927F928F922E
:102F80009F92AF92BF92CF92DF92EF92FF920F93F8
:102F90001F93CF93DF93C82FAA24BB2465010E94FF
:102FA000F7132B013C013324C13019F4A1E8B0E040
:102FB00002C0A3E8B0E00E94781A4F0110924C01C1
:102FC00010924D0110924E0110924F01C13049F400
:102FD000C2E0D0E060E070E0CB010E941E0A83E115
:102FE00009C0CBE0D0E060EE70E084EE93E00E9498
:102FF0001E0A85E180935501E6E5F1E098E0DE01E7
:103000000E946B1A802D81932196915097FFF7CFE4
:10301000809156019927D82FCC2780915701992765
:10302000C82BD92BA414B504C604D70408F0B2C029
:1030300020915801822F9927AC014170507080FF78
:1030400053C0F1EA8F16910460F1332041F4C0EAD5
:10305000D0E02F772093580131E0332E07C0E401F0
:10306000C05AD040206820935801332400E010E07B
:103070000C171D0778F42FE5E22E21E0F22E80E0F8
:103080000E944D09F70181937F010F5F1F4F0C17BD
:103090001D07A8F38D2F992780935601C0935701E0
:1030A0004BC000E010E00815190578F48FE5E82E14
:1030B00081E0F82E80E00E944D09F70181937F01A5
:1030C0000F5F1F4F08151905A8F3892D99278093C5
:1030D0005601809257018091580180688093580171
:1030E000C401AA27BB272BC0CE01AA27BB278A0D64
:1030F0009B1DAC1DBD1D481659066A067B0648F48B
:10310000E201CA19DB098D2F992780935601C093DC
:1031100057018A014C175D0778F4FFE5EF2EF1E0C7
:10312000FF2E80E00E944D09F70181937F010F5F20
:103130001F4F0C171D07A8F3CE01AA27BB27A80E07
:10314000B91ECA1EDB1EA114B104E1F4E12CF12C5E
:10315000EFEF0E2F112DEA20FB200C211D21E11491
:10316000F1040105110571F08DE40E94B20980E0BF
:103170000E94B209C801AA27BB270E94B20980E0B9
:103180000E94B2090E949F11A414B504C604D7047A
:1031900008F44ECFDF91CF911F910F91FF90EF90E8
:1031A000DF90CF90BF90AF909F908F907F906F9067
:1031B0005F904F903F9008951F93CF93DF93CDB7CB
:1031C000DEB72E970FB6F894DEBF0FBECDBF10E06E
:1031D00081E08EBB8EB38823E9F3F69B06C01123F2
:1031E00011F413E00CC011500AC0F79B06C0133055
:1031F00011F410E004C01F5F02C0F29954C0812F87
:10320000992781309105A1F0823091051CF4892B1A
:1032100039F042C08230910501F1039739F13CC089
:103220006BE174E0CE0101960E942F1A81E007C085
:1032300061E274E0CE0101960E942F1A80E00E94A4
:10324000F713DC01CB012AE030E0AE014A5F5F4FAB
:10325000BC01CD010E94361A1FC067E274E0CE01A6
:1032600001960E942F1AAFE2B0E008C06DE274E050
:10327000CE0101960E942F1AA0E3B0E00E946B1AC3
:10328000802D8F3F11F0992702C080E090E0BE01B1
:103290006A5F7F4F0E944003CE0101960E942E0874
:1032A0000E944D0297CF2E960FB6F894DEBF0FBE48
:1032B000CDBFDF91CF911F910895AF92BF92DF9262
:1032C000EF92FF920F931F93CF93DF93CDB7DEB7AB
:1032D00069970FB6F894DEBF0FBECDBF80E48E8B2A
:1032E00086E1A82EB12CAC0EBD1E88E28F8B83E246
:1032F000888F89E2898F81E00E94F7137B018C011E
:10330000DD2481B3806381BB80916C0290916D025A
:10331000A0916E02B0916F028E159F05A007B107B4
:1033200008F043C080E00E944D09F501ED0DF11D4C
:10333000D3949081891721F584E0D81611F5FF24E4
:1033400000E010E080E00E944D099E012F5F3F4F9A
:10335000F801E20FF31F8083882331F0F3940F5FAD
:103360001F4F83E18F1570F71D8A81E080937002F3
:10337000C9010E942E0881B38F7C806181BB31C05E
:10338000DD2480916C0290916D02A0916E02B0914B
:103390006F020196A11DB11D80936C0290936D0286
:1033A000A0936E02B0936F02B7CF60E070E0CB01E4
:1033B0000E941E0A10926C0210926D0210926E0210
:1033C00010926F0280917002882349F481B38F7C40
:1033D000806181BB83E394E00E94790302C00E9474
:1033E0005D1969960FB6F894DEBF0FBECDBFDF91B1
:1033F000CF911F910F91FF90EF90DF90BF90AF9012
:10340000089560E070E0CB010E941E0A10927002E5
:1034100010926C0210926D0210926E0210926F0266
:103420000E945D1980917002882371F08EB3882309
:10343000E9F3F79B03C00E945D1902C0F29903C033
:103440000E944D02F3CF80E00E94E70908950C949A
:103450009F038F938BE58093B8008F911895FB01A4
:10346000DC0105900D920020E1F70895FA01CF9359
:10347000FF93EF932230CCF02532BCF4C22F2C2FD7
:10348000332744275527FF93EF930E94931AEF9118
:10349000FF91605D6A330CF0695D6193B901CA0107
:1034A000605070408040904051F710828F919F9102
:1034B000CF910C945B1ADC01FC0101900020E9F72C
:1034C0003297AE17BF0730F47C91608170833197DB
:1034D0006D93F7CF0895F999FECFB2BDA1BDF89ACB
:1034E000119600B40895F7DF01921A94E1F7089558
:1034F000F2DFE02DF0DFF02D0895F999FECFB2BD97
:10350000A1BD00BC11960FB6F894FA9AF99A0FBEB5
:103510000895F3DF012CF1DF112408950190EDDF10
:103520001A94E1F70895A1E21A2EAA1BBB1BFD0114
:103530000DC0AA1FBB1FEE1FFF1FA217B307E40792
:10354000F50720F0A21BB30BE40BF50B661F771FEA
:10355000881F991F1A9469F76095709580959095CA
:0A3560009B01AC01BD01CF010895ED
:04356A004D0987126E
:00000001FF
