:100000000C940A020C9425020C94661B0C94900329
:100010000C9425020C9486070C9425020C9425025E
:100020000C9425020C941C0C0C9452090C9425027F
:100030000C9425020C940D090C9425020C942502B5
:100040000C9425020C9463090C9425020C9425024F
:100050000C9425020C9425020C9443086F00600058
:100060005649455720444154412054414753005379
:10007000544F524147452053495A455300A30099D4
:10008000008F00850020323839313220485A002054
:10009000353736303020485A00203836373338204C
:1000A000485A0031313334323720485A0016010A99
:1000B00001FA00EA00DA00C600BB00455241534590
:1000C000204F4E4C59004655534520414E44204C3C
:1000D0004F434B204259544553004C4F434B204211
:1000E00059544553204F4E4C5900465553452042D4
:1000F00059544553204F4E4C5900444154412041DE
:100100004E4420454550524F4D00454550524F4DAD
:10011000204F4E4C590044415441204F4E4C590001
:1001200033067F067D05D205D905270788017A01A8
:100130006D015E014B0138014A554D5020544F204E
:10014000424F4F544C4F41444552004D414E554152
:100150004C2043414C4942524154494F4E00415575
:10016000544F2043414C49425241544500434C4571
:100170004152204D454D4F52590053455420535044
:10018000492053504545440053455420434F4E5455
:100190005241535400E10357051204EE03AC03B47B
:1001A00006EC01E101D501C101B801AD01534C4597
:1001B0004550204D4F44450053455454494E4753F4
:1001C0000044415441464C415348205052474D2031
:1001D0004D4F44450050524F4752414D20415652D9
:1001E0000053544F5245205052474D0041565249FA
:1001F0005350204D4F44450023021E020F020002BF
:100200003C433E2032303036202D2047504C0042B7
:1002100059204445414E2043414D455241005631FD
:100220002D3300425554544C4F4144002A57414904
:10023000542A00402823294259204445414E204356
:10024000414D4552410040282329425554544C4FBA
:10025000414420415652495350005052473E2000DD
:10026000424144495352004E4F204552415345208C
:10027000434D44004E4F2044415441004E4F2045D1
:100280004550524F4D004E4F204655534520425940
:10029000544553004E4F204C4F434B204259544538
:1002A000530050524F4752414D4D494E4720444F05
:1002B0004E45004641494C4544002A53544F524153
:1002C0004745204D4F44452A00434F4E4649524D25
:1002D000003C4E20593E004D454D20434C45415277
:1002E0004544004E4F2053544F52454420505247EE
:1002F0004D002A4A544147204F4E2A00A8EA802A3E
:100300000040000A510A084059551801111E111BDE
:10031000500B411B411F1101511F511B00000000D8
:100320000880001A204000000000510F913941144C
:100330009131411E410E411D500F802010154886FD
:100340004014780570855115510E5195518E2190AC
:1003500081205015484450C528C028200950411418
:100360002080111100000010000140010154020121
:10037000800301FF44415441464C415348204552BB
:10038000524F5200F900F101E103103E840F840F37
:10039000081F081F080108010801080108011002D0
:1003A0001002200409090909090A0A0B42554646A8
:1003B000204F564552464C4F57002A44415441461F
:1003C0004C415348204D4F44452A000100084156F6
:1003D000524953505F3202020453594E4320455252
:1003E000524F52002A4154415652495350204D4FCA
:1003F00044452A00444154412D004550524D2D00A2
:10040000465553452D004C4F434B2D004E4F205425
:100410004147530011241FBECFEFD4E0DEBFCDBF54
:1004200011E0A0E0B1E0EAECF7E302C005900D9224
:10043000A632B107D9F712E0A6E2B1E001C01D92E1
:10044000A63DB107E1F70C946B020C94A703CF9380
:10045000DF93282F21502F3F49F0A0E0B8E4C0E0FF
:10046000D0E0CD010197F1F72150D8F7DF91CF917E
:1004700008958EB38823E9F781E00E9427028EB3A6
:100480008823B9F70895CF93C0E081E08EBB8EB387
:100490008823E9F3F69B06C0CC2311F4C3E00CC01B
:1004A000C1500AC0F79B06C0C33011F4C0E004C0BD
:1004B000CF5F02C0F2990DC0EC2FFF27EE0FFF1F98
:1004C000E850FE4F859194910E94FA070E943902EC
:1004D000DECFCF910895CDEFD4E0DEBFCDBF10E0E9
:1004E00080E885BF85BF80BF85E08093640080E39E
:1004F00080BB87E284B98FED85B98CE08EB980939B
:100500006B0080ED80936C0080EC8DBB8CBB81B365
:100510008F7C806281BB82E091E00E94B4088A35C2
:1005200009F120E030E03A83298380910201909123
:1005300003012817390788F46FEFCE0101960E9456
:10054000BF0889819A8101969A838983209102014B
:10055000309103018217930778F36AE582E091E016
:100560000E94BF080E94A70784E091E00E94B4089F
:100570008F708093E70078948CE292E00E94FA07F3
:1005800080E00E94100A81B3806381BB0E9435071E
:1005900087E090E00E94D70881B38F7C806181BBA7
:1005A00081E08EBB8EB38823E9F3F69B06C011234E
:1005B00011F415E01BC0115019C0F79B06C015308F
:1005C00011F410E013C01F5F11C0F49B0BC0E12FAA
:1005D000FF27EE0FFF1FEB56FE4F85919491FC0114
:1005E000099504C0F39B02C00E944302E12FFF273C
:1005F000EE0FFF1FEF55FE4F859194910E94FA0771
:100600000E943902CFCFCF93DF93282F21502F3F65
:1006100049F0A3E3B7E0C0E0D0E0CD010197F1F7E6
:100620002150D8F7DF91CF91089599278130910516
:10063000A9F0823091051CF4892B21F008950297CE
:1006400051F00895869A82E291E00E94B4088823CE
:1006500019F48E9A0895869A8E9808958698FCCFFC
:10066000FB0120E08436910520F02F5F84569040F6
:10067000F9CF205D219320E08A30910518F02F5F9B
:100680000A97FACF205D2193805D819310820895AF
:100690001F93CF93DF93CDB7DEB727970FB6F894AC
:1006A000DEBF0FBECDBF182F6AE572E0CE01019606
:1006B0000E94681B1E831F82CE0101960E94B9070B
:1006C00027960FB6F894DEBF0FBECDBFDF91CF9156
:1006D0001F910895CF93DF93CDB7DEB764970FB620
:1006E000F894DEBF0FBECDBF25E429832EE32A8315
:1006F000BC01CE0103960E94681BCE0101960E94A8
:10070000B9070E943902F49BFECF0E943902649619
:100710000FB6F894DEBF0FBECDBFDF91CF91089525
:1007200078941F920F920FB60F9211248F939F937C
:1007300093B19095907D8CB180958C70982B9EBBD9
:100740009F918F910F900FBE0F901F90189580E68C
:1007500092E00E946A03FFCFCF93C0E081E08EBB9E
:100760008EB38823E9F3F69B06C0CC2311F4C5E0D1
:1007700019C0C15017C0F79B06C0C53011F4C0E0C6
:1007800011C0CF5F0FC0F49B0BC0EC2FFF27EE0F03
:10079000FF1FE05EFE4F85919491FC01099502C018
:1007A000F2990DC0EC2FFF27EE0FFF1FE45DFE4F07
:1007B000859194910E94FA070E943902D1CFCF917E
:1007C000089584EE93E00E94FA0786E492E1909304
:1007D0002501809324010E94500F089580E291E04A
:1007E0000E94B4080E94A10981E08093830283ECF7
:1007F00099E090930101809300018AEB93E00E94BD
:10080000FA0784EA9CE090932501809324010E94DA
:10081000500F80E00E94100A8091640084608093F1
:1008200064000895DF92EF92FF920F931F93CF938E
:10083000DF93CDB7DEB765970FB6F894DEBF0FBE76
:10084000CDBFDD240D2D0E943309D09283028DE3AC
:1008500099E090930101809300010E94AF0B8823DF
:1008600009F417C10E94390281E08EBB8EB3882340
:10087000E9F3F2990EC1F4991CC0F69B06C000235F
:1008800011F406E009C0015007C0F79B05C006300F
:1008900011F400E001C00F5FE02FFF27EE0FFF1FF4
:1008A000E355FF4F859194910E94FA070E94390207
:1008B000DDCF81B3806381BB8CE292E00E94FA07B6
:1008C00080E291E00E94B4080E94A10980E00E94A9
:1008D000150380911201909113019D8B8C8B56E32F
:1008E000E52E51E0F52E1BE0CE0144960E94B4089F
:1008F000F70181937F018C899D8901969D8B8C8B5B
:10090000115017FFF1CF0E94B01010922D011092DC
:100910002E0110922F01109230018091370188230F
:1009200009F0A2C0063021F0002311F0023091F44A
:1009300083E40E9448038AE191E00E94B408813078
:1009400039F042E0D42E87E692E00E946A0302C0AA
:100950000E946F18002311F00230C1F4DD20B1F4C1
:1009600084E40E94480381E00E94B513DC01CB01BE
:100970000097A105B10539F433E0D32E84E792E066
:100980000E946A0303C081E00E94BF18802F81503B
:100990008230B0F485E40E94480380E00E94B513E1
:1009A000DC01CB010097A105B10539F423E0D22E7B
:1009B0008CE792E00E946A0303C080E00E94BF18A7
:1009C000033011F0053099F486E40E94480380E179
:1009D00091E00E94B408882339F493E0D92E86E888
:1009E00092E00E946A0303C082E00E941F18802FD9
:1009F0008450823000F5053059F481E00E941503DF
:100A000081E00E94270280E00E9415030E94B0103E
:100A10008CE40E9448038EE091E00E94B408882391
:100A200039F483E0D82E84E992E00E946A0303C07F
:100A300083E00E941F1862EA72E0CE0101960E94D4
:100A4000681BDD2031F063EB72E0CE010D960E9451
:100A5000681BCE0101960E94B9078FEF0E94270202
:100A600084E60E94270204C089ED93E00E946A0395
:100A700081E00E9415030E94B90980E00E94100ADB
:100A80008091640084608093640081B38F7C806176
:100A900081BB65960FB6F894DEBF0FBECDBFDF9168
:100AA000CF911F910F91FF90EF90DF9008958DE30C
:100AB00099E090930101809300010E943309109204
:100AC000830281E00E94100A0E94AF0B8823A1F0EC
:100AD0008AEB92E00E94FA078DE595E1909325015B
:100AE000809324010E94500F80E00E94100A8091A0
:100AF000640084608093640008950F931F93CF93E4
:100B0000DF93CDB7DEB722970FB6F894DEBF0FBEE6
:100B1000CDBF89EC92E00E94FA0784EB0E94270285
:100B200081ED92E00E94FA078EB38823E9F38EB339
:100B300099278C010470107082FD29C0F39BF4CFBB
:100B40000E9439028CE292E00E94FA071A8309831C
:100B500080910201909103010817190788F46FEF43
:100B6000CE0101960E94BF0889819A8101969A83DD
:100B7000898320910201309103018217930778F352
:100B800087ED92E00E94FA078FEF0E9427022296DB
:100B90000FB6F894DEBF0FBECDBFDF91CF911F918E
:100BA0000F9108958CE292E00E94FA070E943507A7
:100BB0000895CF93DF93CDB7DEB729970FB6F8949A
:100BC000DEBF0FBECDBF81E08EBB8091C1008078BB
:100BD00088608093C1008091D102882321F00E9417
:100BE000FA0B0E94EA088EB38823A9F3F69B04C08F
:100BF000809166008F5F05C0F79B06C080916600FC
:100C000081508093660002C0F2991FC063E272E0D7
:100C1000CE0101960E94681BCE0101960E94F20847
:100C200083E4898386E58A8380E28B8380916600F2
:100C3000BE016C5F7F4F99270E943003CE01019661
:100C40000E94B9070E943902C6CF8091C100807806
:100C50008093C10029960FB6F894DEBF0FBECDBFBA
:100C6000DF91CF9108951F93CF93DF93CDB7DEB778
:100C700026970FB6F894DEBF0FBECDBF84E091E09B
:100C80000E94B408182F1F7081E08EBB8EB388239A
:100C9000E9F3F69B04C01F3080F41F5F0EC0F79B82
:100CA00004C0123050F0115008C0F29B06C0612FF2
:100CB00084E091E00E94BF0818C083E4898384E542
:100CC0008A8380E28B83BE016C5F7F4F812F9927DF
:100CD0000E943003CE0101960E94B907812F8F70C8
:100CE0008093E7000E943902D1CF26960FB6F89480
:100CF000DEBF0FBECDBFDF91CF911F910895CF937F
:100D000081E08EBB80E291E00E94B408C82F84305D
:100D100008F0C0E08EB38823E9F3F69B06C0CC232D
:100D200011F4C3E012C0C15010C0F79B06C0C3301D
:100D300011F4C0E00AC0CF5F08C0F29B06C06C2F60
:100D400080E291E00E94BF080DC0EC2FFF27EE0F5C
:100D5000FF1FE358FF4F859194910E94FA070E946C
:100D60003902D8CFCF91089585E083BF8091E40008
:100D70008F778093E400F69903C08895F69BFDCFAA
:100D80008091E40080688093E4008CE292E00E940D
:100D9000FA070E9435070E94390208951F93CF93E6
:100DA00010E00E94390281E08EBB8EB38823E9F304
:100DB000F69902C0F79B03C081E0182738C0F2996A
:100DC00043C0F49B34C0113081F58DE399E09093DA
:100DD0000101809300010E94330910928302812F48
:100DE0000E94100A0E94AF0BC82F882341F00E9476
:100DF000401B8091640084608093640018C0812F40
:100E00000E94B513DC01CB010097A105B10579F46F
:100E10008C2F0E94100A809164008460809364008B
:100E200083EE92E00E946A0302C00E941C1AE12F26
:100E3000FF27EE0FFF1FE45AFF4F859194910E9408
:100E4000FA070E943902B1CFCF911F91089585B75B
:100E50008F7785BF85BF82EF92E00E94FA070E94DC
:100E6000390288E180936000FFCF80E880936100C1
:100E7000109261008FE3809366003FB710926F007D
:100E800088E08093B60081E080937000789480932E
:100E900081008093B0008091B60099278770907090
:100EA0000097C9F790938500809384001092B20058
:100EB0002FE3FC01CF010197F1F78091260190917A
:100EC00027018150914E20F08091660081500AC028
:100ED0008091260190912701865F904E40F4809189
:100EE00066008F5F8F7780936600215018F710920D
:100EF0006F0010927000109281001092B0008091EB
:100F0000B600877F8093B6003FBF08951F920F926F
:100F10000FB60F9211248F939F93109281008091AE
:100F20008400909185009093270180932601109270
:100F30008500109284001092B20081E080938100BD
:100F40009F918F910F900FBE0F901F9018958FE07B
:100F50008093E70087EB8093E50087E08093E600CD
:100F600080EC8093E4008091E40088608093E4004A
:100F70000895CF93DF93EC0120E03FEFE1E5F2E04D
:100F8000DF018991982F9A52913538F4803211F00F
:100F9000892F01C08FEF8C9303C0882331F03083F9
:100FA0002F5F11963196243160F380E0273008F0EE
:100FB00081E08093810210924F029FEF86E0E22F42
:100FC000FF27EF5AFD4F90832F5F815087FFF7CFA8
:100FD000E22FFF27EF5AFD4F10821092500220930C
:100FE0004E028AE08093820281E080936C02DF915E
:100FF000CF910895CF93DF93CDB7DEB764970FB647
:10100000F894DEBF0FBECDBFBC01CE0101960E9499
:10101000681BCE0101960E94B90764960FB6F8943A
:10102000DEBF0FBECDBFDF91CF910895E82F20E046
:1010300030E0862F8695A82FBB27A359BD4FEF3FE1
:1010400039F0FF27EE0FFF1FE450FD4F259134913B
:1010500077276170707043E050EF922F9F70611599
:10106000710519F05FE09295907F8C918523892B13
:101070008C9384E0369527958A95E1F71596415033
:1010800047FFEACF089578941F920F920FB60F9200
:1010900011242F933F934F935F936F937F938F937D
:1010A0009F93AF93BF93CF93EF93FF938091810270
:1010B000882399F080918202882321F081508093C7
:1010C00082020BC080914F02882321F481E080933B
:1010D0006C0203C0815080934F0280916C02882380
:1010E00039F1C0E0809150028C0F90914E02E82FB0
:1010F000FF27891710F0E91BF109EF5AFD4F808196
:101100006C2F0E941608CF5FC63060F380915002AA
:10111000982F8F5F8093500280914E02981719F498
:1011200081E08093500283E080934F0210926C0222
:10113000ACEEB0E0EDE6F2E093E181918D93915059
:1011400097FFFBCFFF91EF91CF91BF91AF919F910F
:101150008F917F916F915F914F913F912F910F9060
:101160000FBE0F901F901895FC01F894808191811B
:1011700092BD81BDF89A789480B5992708951F9300
:10118000CF93DF93EC01162F0E94B408811759F01A
:10119000F8948881998192BD81BD10BDFA9AF99A1F
:1011A0007894F999FECFDF91CF911F9108959C011A
:1011B000832F99278093C5002093C40082E08093F9
:1011C000C00080E88093C10086E08093C2000E9446
:1011D000C40B0895982F8091C00085FFFCCF909399
:1011E000C6000895CF93DF93EC018881882331F006
:1011F00089910E94EA0888818823D1F7DF91CF91F5
:1012000008958091D102882321F480912A018823B6
:10121000C1F30E94FA0B992708951F920F920FB6FF
:101220000F9211242F933F934F935F936F937F936C
:101230008F939F93AF93BF93EF93FF938091C600DB
:101240000E94D10BFF91EF91BF91AF919F918F9130
:101250007F916F915F914F913F912F910F900FBEB2
:101260000F901F901895809164008B7F809364008D
:1012700081E08DBD8EE58CBD08958EBD0DB407FE59
:10128000FDCF8EB5992708950F931F938C01812F61
:1012900099270E943D09802F0E943D0999271F919F
:1012A0000F9108951F920F920FB60F9211248F93F2
:1012B0008091B80081608093B8008F910F900FBE2D
:1012C0000F901F9018951F920F920FB60F92112436
:1012D0008F9380916E008D7F80936E0080E4809369
:1012E000B900809129018160809329018091BA0021
:1012F000809328018F910F900FBE0F901F9018952B
:10130000982F8F3F09F490E040E020E030E0F901B1
:10131000E859FC4F8491891711F0433061F4F901C9
:10132000E659FC4F849187BD27593C4FF9018491C0
:10133000886084BD08954F5F2D5F3F4F443038F380
:1013400008959DB190659DB96D98759A76989AE5C6
:101350009093B8000E948009809129018E7F80932C
:101360002901809129018D7F809329011092280104
:1013700008958DB18F7A8DB98EB18F788EB9869898
:101380008E9814BC0895282F8091B90099278F70EA
:101390009070892B41F0809129018260809329010E
:1013A00080E090E00895809129018E7F809329014B
:1013B000809129018D7F809329012093BA00A99AF9
:1013C00080916E00826080936E0016BC809129012E
:1013D00080FFFCCF80912801992708950F931F93D8
:1013E0008C01812F99270E94C309802F0E94C30975
:1013F00099271F910F91089581E00E940303809126
:10140000B80081608093B80081E00E94030380915E
:10141000B80081608093B80081E00E9403030895C2
:1014200090918302813031F4913011F482E005C053
:1014300028980895913021F4892F0E94150308956A
:10144000289A08950F931F938C0180E00E94100A40
:10145000000081E00E94100AE0910001F09101017A
:1014600084E50995812F9927E0910001F091010110
:101470000995E0910001F0910101802F0995E0911B
:101480000001F091010180E00995E0910001F091E7
:10149000010180E0099599271F910F910895EF921E
:1014A000FF920F931F938C017B0180E00E94100A32
:1014B000000081E00E94100AE0910001F09101011A
:1014C00088E609958AB5980102C0369527958A95D0
:1014D000E2F7C901E0910001F091010109958BB596
:1014E00002C0000F111F8A95E2F78F2D9927E09116
:1014F0000001F0910101800F0995E0910001F09148
:1015000001018E2D099503E0E0910001F0910101A8
:1015100080E00995015007FFF7CF1F910F91FF90D1
:10152000EF9008950F931F938C0180E00E94100AA2
:10153000000081E00E94100AE0910001F091010199
:1015400084E80995E0910001F091010180E009959E
:10155000812F9927E0910001F09101010995E09117
:101560000001F0910101802F09951F910F910895BD
:1015700080E00E94100A000081E00E94100AE091C1
:101580000001F091010187E50995E0910001F091DA
:10159000010180E00995682F7727CB01887390704F
:1015A00033E0959587953A95E1F79927FC01EC553D
:1015B000FC4F4491409386029C01280F391FF9018A
:1015C000EC56FC4F8591949190938802809387020A
:1015D000F901EC57FC4F8591949190938A02809386
:1015E000890280E1841B8ABD48504BBDCB01089520
:1015F0000F931F938C0180E00E94100A000081E08D
:101600000E94100AE0910001F091010181E8099522
:101610008AB5980102C0369527958A95E2F7C901E7
:10162000E0910001F091010109958BB502C0000F16
:10163000111F8A95E2F7E0910001F0910101802FDE
:101640000995E0910001F091010180E0099580E0A9
:101650000E94100A000081E00E94100A0E94B80A4D
:101660008823E4F71F910F9108950F931F938C0126
:1016700080E00E94100A000081E00E94100AE091C0
:101680000001F091010183E509958AB5980102C036
:10169000369527958A95E2F7C901E0910001F0910E
:1016A000010109958BB502C0000F111F8A95E2F761
:1016B000E0910001F0910101802F0995E091000176
:1016C000F091010180E0099580E00E94100A00007D
:1016D00081E00E94100A0E94B80A8823E4F71F9153
:1016E0000F9108950F931F938C0180E00E94100AC0
:1016F000000081E00E94100AE0910001F0910101D8
:1017000083E809958AB5980102C0369527958A9590
:10171000E2F7C901E0910001F091010109958BB553
:1017200002C0000F111F8A95E2F7E0910001F091CD
:101730000101802F0995E0910001F091010180E005
:10174000099580E00E94100A000081E00E94100AC2
:101750000E94B80A8823E4F71F910F9108950E9410
:10176000B80A80918602893061F0809164008460BB
:101770008093640084E793E00E946A0380E090E035
:10178000089581E090E008958DE892E09093CE0274
:101790008093CD029093D0028093CF021092D10219
:1017A0000895982F8091D102803429F48CEA93E037
:1017B0000E946A030895E091CD02F091CE029083D9
:1017C0004091CD025091CE029A012F5F3F4F30934E
:1017D000CE022093CD028091D1028F5F8093D102FF
:1017E0002D5C324031F44F5350405093CE02409321
:1017F000CD0208958091D102882319F480E090E011
:1018000008952091CF023091D002F9019191F09387
:10181000D002E093CF028091D10281508093D10217
:10182000ED5CF24031F42F5330403093D0022093DE
:10183000CF02892F9927089578941F920F920FB69F
:101840000F9211248F9380912B018F5F80932B0136
:1018500080912B01873029F410922B0181E0809335
:101860002A018F910F900FBE0F901F901895109224
:1018700080001092810010922B011092850010922E
:1018800084001092820081E080936F00089520917F
:101890002D0130912E0140912F0150913001109275
:1018A0008C0210928B028091870290918802AA2765
:1018B000BB2782179307A407B50788F460E070E0A0
:1018C000281B390B4A0B5B0B6F5F7F4F8217930707
:1018D000A407B507A8F370938C0260938B02309332
:1018E0008502209384020895CF93C82F209184020B
:1018F00030918502809187029091880228173907DC
:10190000A9F480918B0290918C029C010196909396
:101910008C0280938B02C9010E94720B80E090E0E0
:101920000E94920A10928502109284028C2F0E94CB
:10193000C30980918402909185020196909385025B
:1019400080938402CF910895EF92FF920F931F939B
:10195000CF93DF938091360199278631910509F461
:1019600004C187319105B4F48231910509F469C04D
:10197000833191053CF48031910531F1419709F4AF
:1019800046C044C18431910509F490C045970CF0DC
:10199000B3C085C08931910509F476C08A319105BB
:1019A00044F48731910509F46FC0489709F45EC08B
:1019B0002DC18B319105D9F18B3191050CF456C0B5
:1019C0004C9709F453C022C182E090E09093330118
:1019D0008093320181E00E94100A0E94B80AC091EF
:1019E0008602CC2359F08AEB93E00E94FA0781E04B
:1019F0008093310181B38F7C806217C084E793E0CC
:101A00000E94FA078C2F0E94100A80EC06C182E027
:101A100090E090933301809332011092310180E085
:101A20000E94100A81B38F7C806181BB9BC084E0DF
:101A300090E090933301809332011092370182E05D
:101A40001EC082E090E09093330180933201C0E0A9
:101A5000D0E08091890290918A02C817D90708F0D6
:101A600081C0CE010E94F80A2196F3CF84E090E075
:101A70009093330180933201109237018FEF80935E
:101A8000380110923901CBC083E090E0909333018C
:101A9000809332011092370110923801C0C082E069
:101AA00090E090933301809332015CC080913701C4
:101AB0009927382F2227809138019927282B392BF5
:101AC000F9013396F0933301E0933201109237011C
:101AD000EB5CFE4F108281E090E0280F391F8217E7
:101AE000930708F09CC04FEFE7E3F1E041930196C4
:101AF00082179307D8F393C00E94470C80918B0202
:101B000090918C020E94350B809184029091850205
:101B10000E94920A809137019927D82FCC27809173
:101B200038019927C82BD92B00E010E00C171D07AE
:101B3000C8F430E4E32E31E0F32EF70181917F0108
:101B40000E94740C8091840290918502019690937A
:101B50008502809384020E94130F0F5F1F4F0C17A2
:101B60001D0758F3109237015AC00E94470C80910C
:101B70008B0290918C020E94350B8091370199273E
:101B8000D82FCC27809138019927C82BD92B00E07A
:101B900010E00C171D0770F588E3E82E81E0F82EA1
:101BA0002091840230918502809187029091880271
:101BB0002817390741F40E94470C80918B029091BD
:101BC0008C020E94350B80918402909185029C01C9
:101BD00001969093850280938402C9010E94220A93
:101BE000F70181937F010E94130F0F5F1F4F0C17A6
:101BF0001D07B0F22396D0933301C093320123978F
:101C000010923701CA5CDE4F1A8209C081E090E071
:101C1000909333018093320189EC809337010E94C5
:101C2000390EDF91CF911F910F91FF90EF900895A2
:101C30006BE18091340168272091320130913301AA
:101C4000832F992768278091320168278EE06827C3
:101C500040E050E04217530748F4E6E3F1E0819199
:101C600068274F5F5F4F42175307C8F3862F9927A6
:101C700008950F931F93CF93DF938BE10E94EA089F
:101C8000809134010E94EA08809133010E94EA08A1
:101C9000809132010E94EA088EE00E94EA08C0E0CA
:101CA000D0E08091320190913301C817D90778F4C0
:101CB00006E311E0F80181918F010E94EA08219664
:101CC0008091320190913301C817D90798F30E948F
:101CD000180E0E94EA088091340190913501019616
:101CE0009093350180933401DF91CF911F910F9133
:101CF00008952091370183E090E090933301809321
:101D0000320110923701E22FFF27E839F105ACF4D8
:101D1000E639F1050CF06DC0E138F105F9F0E23873
:101D2000F10524F4E038F105B9F071C0CF01805914
:101D30009040039708F06BC013C0EE39F10509F429
:101D40003DC0EF39F10524F4E839F105F9F05FC041
:101D5000EF39F10549F05BC083E038C081E036C05F
:101D6000EA5BFC4F849132C080913601833019F4D4
:101D700080912C012BC082E090E0909333018093FE
:101D800032018091380180932C014AC08091360144
:101D9000833019F480E291E017C082E090E09093E4
:101DA0003301809332016091380180E291E00E941A
:101DB000BF08809138010E94800932C080913601AD
:101DC000833039F482E291E00E94B40880933801B4
:101DD00027C082E090E090933301809332016091BC
:101DE000380182E291E00E94BF0881E00E94150361
:101DF00017C080913601833019F41092380110C059
:101E000082E090E0909333018093320109C082E038
:101E100090E0909333018093320180EC80933701FE
:101E20000E94390E089580912D0190912E01A0916C
:101E30002F01B09130010196A11DB11D80932D019C
:101E400090932E01A0932F01B093300108958091BB
:101E50002D0190912E01A0912F01B0913001B7FF7B
:101E60001EC08DE40E94C30980E00E94C3098091D6
:101E70002F010E94C30980E00E94C30980912D01B7
:101E800090912E01A0912F01B0913001BF778093E6
:101E90002D0190932E01A0932F01B093300108954E
:101EA000EF92FF920F931F93CF93C0E0EE24FF2495
:101EB0008091C100807888618093C1000E94C40B2A
:101EC0000E94370CC093310181E090E0909335017E
:101ED0008093340110922D0110922E0110922F0147
:101EE0001092300180912A01813011F4C9E005C0BF
:101EF000CC2319F083E0809381008C2F99278430C4
:101F0000910509F46DC08530910594F481309105F7
:101F100009F44CC0823091051CF4892BB1F1E2CF59
:101F20008230910509F448C0039709F44EC0DACF16
:101F30008730910509F485C08830910544F48530D7
:101F4000910509F462C0069709F467C0CBCF8830C9
:101F5000910579F0099731F682E090E09093330192
:101F60008093320180EC8093370110922A010E9405
:101F7000390E0E94C40B1092810010922B01109216
:101F8000850010928400C0E0ADCF8091D102811114
:101F9000C1E0F29BA7CF80913101882309F0A2CF45
:101FA0008091C10080788093C100D4C00E94010953
:101FB0008B3189F5C2E096CF0E9401099927909351
:101FC000350180933401C3E08DCF0E940109992728
:101FD000982F88279093330180933201C4E082CFF9
:101FE0000E940109282F33278091320190913301FB
:101FF000822B932B90933301809332018351914034
:1020000050F4C5E0EE24FF246DCF0E9401098E300C
:1020100011F4C6E067CFC9E065CF8091320190919D
:102020003301E816F90611F4C7E05CCF87010A5CBA
:102030001E4F0894E11CF11C0E940109F8018083E5
:1020400051CF0E94180E182F0E940109181709F08D
:1020500074C0809136019927843091053CF4823018
:1020600091050CF061C0019739F061C0863091058F
:10207000E9F0079799F05BC08BE090E09093330113
:1020800080933201A6E3B1E0EBECF3E09AE08491B7
:102090008D939150319697FFFACF58C082E090E02F
:1020A000909333018093320180EC4EC082E090E047
:1020B00090933301809332010E94270F8091370162
:1020C0009927AA27BB27B82FAA27992788272091C5
:1020D0003801332744275527A90133272227822B8C
:1020E000932BA42BB52B2091390133274427552757
:1020F000542F432F322F2227822B932BA42BB52B27
:1021000020913A01332744275527822B932BA42B68
:10211000B52B80932D0190932E01A0932F01B093A6
:1021200030011092370112C00E94790E11C0E09167
:102130002401F091250109950BC082E090E0909375
:1021400033018093320181EC809337010E94390E74
:10215000C8E0C8CECF911F910F91FF90EF900895E6
:102160000F931F93CF9310913B01C0913A0180913F
:1021700038010E9403038C2F8150843608F0C8E197
:10218000C150CF3F09F43FC080913E010E94C30976
:10219000812F0E94030380913F010E94C309812F78
:1021A0000E940303809140010E94C309082F812FE0
:1021B0000E94030380913D01833029F48091410105
:1021C0000E94C30905C0809141010E94C309082FE4
:1021D00080913D01882321F080913C01081769F42A
:1021E000812F0E94030381E08093310181B38F7CB2
:1021F000806281BB109237010DC0812F0E940303C2
:102200000E94FC09BDCF81B38F7C806181BB80ECD3
:1022100080933701CF911F910F9108951F93CF9312
:10222000DF93EB01992780FF08C08077907034E03E
:10223000959587953A95E1F704C08E7090709595C5
:1022400087959927877090708230910519F00497CF
:10225000E1F026C010913D0180913601833139F4BF
:10226000812F9927C0FD8860182FD695C795812F9B
:102270000E94C309CE010E94EE0980E00E94C309BA
:1022800090913E01891799F30FC080E090EF0E9472
:10229000EE0980E090E00E94EE0980FDF6CF04C0D8
:1022A00080913A010E940303DF91CF911F9108951D
:1022B0008F929F92AF92BF92CF92DF92EF92FF9256
:1022C0000F931F93CF93DF9300E010E080903901CC
:1022D00090903B01A0902D01B0902E01809137018C
:1022E0009927D82ECC24809138019927C82AD92A39
:1022F00080FE67C078010C151D0508F04BC0C6E3D1
:10230000D1E080913601833131F4892D9927E0FEA7
:1023100003C0886001C0892D0E94C30980912D01EE
:1023200090912E010E94EE098A850E94C309011531
:10233000110501F590913E018A859817D9F02091F9
:102340003601233151F02531A9F4F601EA5CFE4F44
:1023500090913F018285981769F000912D011091AD
:102360002E01233139F4000F111FC70181709070C5
:10237000080F191FE0FC04C080913601853111F46B
:102380000E94130F0894E11CF11C2196EC14FD042B
:1023900008F4B7CFC82D87FE6CC080913C010E9425
:1023A000C309C5010E94EE0980E00E94C30901151E
:1023B000110511F4CF78C061B8018C2F0E940E1165
:1023C00058C078010C151D0508F053C056E3A52E22
:1023D00051E0B52E80913601833131F4892D992752
:1023E000E0FE03C0886001C0892D0E94C30980916E
:1023F0002D0190912E010E94EE09F50182850E9427
:10240000C309C82D80913E01F50122858217C1F0D4
:1024100090913601933131F0953191F480913F01E3
:10242000821771F000912D0110912E01933159F412
:10243000000F111FC70181709070080F191F03C092
:10244000C82DC17FC260E0FC04C080913601853197
:1024500011F40E94130FB8018C2F0E940E110894E2
:10246000E11CF11C0894A11CB11CEC14FD0408F43F
:10247000B1CFDF91CF911F910F91FF90EF90DF903F
:10248000CF90BF90AF909F908F900895DF92EF9282
:10249000FF920F931F93CF93DF938091360199277B
:1024A0008631910509F4FAC08731910594F482319F
:1024B000910509F45FC0833191053CF480319105A9
:1024C000F9F0419709F43CC03DC1449709F4E6C0D6
:1024D0002EC18931910509F4CBC08A31910544F4AC
:1024E0008731910509F4C4C0489709F4A4C02AC1F2
:1024F0008D3191050CF49FC04D9709F460C022C145
:1025000082E090E0909333018093320180E291E089
:102510000E94B4080E94A10980E00E94150381B3C3
:10252000806381BB0E94B01080913101882319F033
:1025300084EE93E002C089ED93E00E94FA070BC19C
:1025400082E090E0909333018093320180913701D3
:102550000E94030381B38F7C806181BB10923101A3
:1025600081E00E941503809138010E9403030E94BC
:10257000B909E5C082E090E0909333018093320185
:10258000C3E009E311E0F80181918F010E94C309C2
:10259000C150C7FFF8CF80913801882359F080E0FF
:1025A00090EF0E94EE0980E090E00E94EE0980FD2D
:1025B000F6CFC5C0809137010E940303C0C0E090F0
:1025C00038018E2D99270396909333018093320121
:1025D00000913701F0903901C1E012E0C017A8F472
:1025E000E12FFF27EA5CFE4F83810E94C3091E157D
:1025F00040F0CF1530F4EC2FFF27EA5CFE4F8283CA
:10260000CF5F812F1F5F801758F38C2FCF5F8F15FF
:1026100050F40C2F11270A5C1E4F80E00E94C30962
:10262000F8018283F2CF10923701EC2FFF27EA5C8A
:10263000FE4F138290C084E090E09093330180932A
:102640003201C1E008E311E0F80181918F010E949D
:10265000C309982F80913701C81711F4909338015E
:10266000CF5FC53088F3109237011092390173C0E3
:1026700083E090E0909333018093320107E311E00F
:10268000C3E0F80181918F010E94C309C150C7FFC7
:10269000F8CF10923701109238015DC0D090390107
:1026A000809137019927D82FCC278091380199271D
:1026B000C82BD92B2396D0933301C0933201239793
:1026C00000E010E00C171D0760F588E3E82E81E0BC
:1026D000F82E80913601843131F48D2D992700FF39
:1026E00003C0886001C08D2D0E94C30980912D0117
:1026F00090912E010E94EE0980E00E94C309F7012B
:10270000808300FD04C080913601863111F40E945F
:10271000130F0F5F1F4F0894E11CF11C0C171D07CE
:10272000C0F210923701CA5CDE4F1A8214C00E94B8
:10273000581182E090E0909333018093320110921F
:10274000370109C081E090E090933301809332011A
:1027500089EC809337010E94390EDF91CF911F9150
:102760000F91FF90EF90DF900895EF92FF920F93FB
:102770001F93CF93DF93CDB7DEB722970FB6F894B0
:10278000DEBF0FBECDBF813029F48091160190913C
:10279000170104C080911401909115019A838983D7
:1027A000CE0101960E94B4089927AA27BB27182FAB
:1027B0000027FF24EE2489819A8101969A838983D8
:1027C000CE0101960E94B4089927AA27BB27DC01F5
:1027D00099278827E82AF92A0A2B1B2B89819A81B5
:1027E00001969A838983CE0101960E94B4089927A5
:1027F000AA27BB27BA2FA92F982F8827E82AF92ABA
:102800000A2B1B2B89819A8101969A838983CE0199
:1028100001960E94B4089927AA27BB27E82AF92A1B
:102820000A2B1B2B8FEFE8168FEFF8068FEF0807A8
:102830008FEF180719F4EE24FF248701C801B701B0
:1028400022960FB6F894DEBF0FBECDBFDF91CF91B9
:102850001F910F91FF90EF90089580934C0210927A
:102860004A021092490220912D0130912E0140918F
:102870002F0150913001813039F4DA01C901880FFC
:10288000991FAA1FBB1F06C0DA01C90180509C4FC7
:10289000AB4FBF4F10928C0210928B02893021E017
:1028A000920720E0A20720E0B207A0F020E030E08D
:1028B00088509140A040B0402F5F3F4F893041E0A9
:1028C000940740E0A40740E0B40790F730938C02EF
:1028D00020938B0290938502809384020895CF9376
:1028E000C82F809184029091850288509140A9F46C
:1028F00080918B0290918C029C01019690938C02A6
:1029000080938B02C9010E94720B80E090E00E94CC
:10291000920A10928502109284028C2F0E943D0927
:102920008091840290918502019690938502809314
:1029300084028091490290914A02019690934A0242
:1029400080934902CF910895EF92FF920F931F93C6
:10295000CF93DF93CDB7DEB722970FB6F894DEBFE3
:102960000FBECDBF80914B02813009F06DC08091C8
:10297000840290918502892B31F080918B02909195
:102980008C020E94720B80918B0290918C02AA277C
:10299000BB27BC01CD0128E031E040E050E00E94BF
:1029A000A41B7B018C018091840290918502AA274F
:1029B000BB27E80EF91E0A1F1B1F80914C028130B5
:1029C00039F480911601909117019A8389830EC082
:1029D00080911401909115019A83898380E09CEF86
:1029E000ABEFBFEFE80EF91E0A1F1B1F812F9927BF
:1029F000AA27BB27682FCE0101960E94BF088981B4
:102A00009A8101969A838983C801AA27BB27682FD8
:102A1000CE0101960E94BF0889819A8101969A830E
:102A20008983BB27A12F902F8F2D682FCE01019670
:102A30000E94BF0889819A8101969A8389836E2DAD
:102A4000CE0101960E94BF0822960FB6F894DEBF11
:102A50000FBECDBFDF91CF911F910F91FF90EF90EF
:102A60000895CF93DF93CDB7DEB722970FB6F894D2
:102A7000DEBF0FBECDBF80914B028330A9F48091A1
:102A80004C02823029F4809110019091110104C010
:102A900080910E0190910F019A8389836091840245
:102AA000CE0101960E94BF0822960FB6F894DEBFB1
:102AB0000FBECDBFDF91CF910895AF92BF92CF925D
:102AC000DF92EF92FF920F931F93CF93DF93CDB7D7
:102AD000DEB722970FB6F894DEBF0FBECDBF409190
:102AE0003601842F99278631910509F418C2873160
:102AF000910594F48231910509F472C083319105F6
:102B00003CF48031910519F1419709F449C07BC229
:102B1000449709F404C271C18931910509F411C1C6
:102B20008A31910544F48731910509F40AC1489727
:102B300009F4A3C068C28B31910509F445C08B31FB
:102B400091050CF49AC04C9709F48CC05CC282E0E9
:102B500090E0909333018093320180911201909123
:102B600013019A838983F6E3EF2EF1E0FF2E1BE039
:102B7000F70161917F01CE0101960E94BF08898112
:102B80009A8101969A838983115017FFF1CF81E0D2
:102B90008093310110924B0281B38F7C806212C00E
:102BA00082E090E090933301809332010E94A4145C
:102BB0000E9431151092310180E00E94100A81B309
:102BC0008F7C806181BBA8C184E090E09093330149
:102BD000809332011092370181E0809338014AC01E
:102BE00082E090E09093330180933201809118014C
:102BF000909119019A838983E7E3EE2EE1E0FE2E9E
:102C000015E0F70161917F01CE0101960E94BF0896
:102C100089819A8101969A838983115017FFF1CF98
:102C200080911601909117019A83898310E01430E6
:102C300031F480911401909115019A83898360E0A9
:102C4000CE0101960E94BF0889819A8101969A83DC
:102C500089831F5F183058F361E08AE191E00E9498
:102C6000BF085AC184E090E0909333018093320111
:102C70001092370110923901CFC184E090E0909317
:102C800033018093320180914B02843059F00E94CD
:102C9000A4140E943115109285021092840284E0DF
:102CA00080934B0280913601883129F48091100184
:102CB0009091110104C080910E0190910F019A83AF
:102CC0008983CE0101960E94B4089927209184023D
:102CD000309185028217930710F48FEF22C0A9016B
:102CE000440F551F440F551F80913701282F33275C
:102CF0002150304080913601883129F480910C01B7
:102D000090910D0104C080910A0190910B01840FF4
:102D1000951F820F931F9A838983CE0101960E948B
:102D2000B4088093380110923701109239018091D4
:102D3000840290918502019690938502809384028B
:102D40006BC183E090E090933301809332018091D6
:102D50004B02833039F083E080934B02109285025E
:102D6000109284022091840230918502473171F4DF
:102D7000220F331F220F331F80910C0190910D0100
:102D8000820F931F9A83898382E00DC0220F331F25
:102D9000220F331F80910A0190910B01820F931F24
:102DA0009A83898383E080934C028091840290917E
:102DB00085020A97E8F447E3E42E41E0F42E13E09D
:102DC000F70161917F01CE0101960E94BF088981C0
:102DD0009A8101969A838983115017FFF1CF8091D0
:102DE00084029091850201969093850280938402DB
:102DF00010923701109238010FC182E090E0909359
:102E000033018093320180914B02813081F1433153
:102E100041F480911E0190911F019A83898381E082
:102E200007C080911C0190911D019A83898380E0E5
:102E30000E942D1480918402909185020E94920A32
:102E400081E080934B0237E3E32E31E0F32E18E06C
:102E5000F70161917F01CE0101960E94BF0889812F
:102E60009A8101969A838983115017FFF1CF80913F
:102E700037019927182F0027809138019927082BAF
:102E8000192BEE24FF24E016F10678F480E4C82E16
:102E900081E0D82EF60181916F010E946F14089491
:102EA000E11CF11CE016F106A8F38091390187FFBF
:102EB00033C04091490250914A0257FD2DC041153F
:102EC000510551F180914C02813029F42091080183
:102ED0003091090104C020910601309107013A8325
:102EE0002983852F9927682FCE0101960E94BF085C
:102EF00089819A8101969A83898360914902CE01E2
:102F000001960E94BF088091490290914A02906800
:102F100090934A0280934902109237017DC08091BC
:102F20004B02823011F10E94A4140E94311590E0EE
:102F300080913601843109F491E0892F0E942D148B
:102F4000609184027091850280918B0290918C0235
:102F50000E944F0A82E080934B0210922D01109242
:102F60002E0110922F011092300180913701992784
:102F7000182F0027809138019927082B192B90E0F2
:102F800080913601843109F491E0892F0E94B513B4
:102F9000DC01CB016C01EE24FF24E016F10620F5E4
:102FA000F8E3AF2EF1E0BF2E96014427552780911C
:102FB0002D0190912E01A0912F01B0913001821727
:102FC0009307A407B50720F480E00E943D0901C0E3
:102FD0008FEFF50181935F010E94130F0894E11CAC
:102FE000F11CE016F10600F30D5F1F4F1093330143
:102FF0000093320103501040109237010A5C1E4FBB
:10300000F801128209C081E090E09093330180932F
:10301000320189EC809337010E94390E22960FB657
:10302000F894DEBF0FBECDBFDF91CF911F910F91FE
:10303000FF90EF90DF90CF90BF90AF9008950F93E7
:103040001F93CF93DF93CDB7DEB722970FB6F894D7
:10305000DEBF0FBECDBF082F823029F48091100152
:103060009091110104C080910E0190910F019A83FB
:103070008983CE0101960E94B408182F023029F4EA
:1030800080910C0190910D0104C080910A019091F2
:103090000B019A83898311501F3FB1F003E0CE01E9
:1030A00001960E94B4080E94C30989819A81019601
:1030B0009A838983015007FFF2CF112319F085E02D
:1030C0000E942702115050F722960FB6F894DEBFE7
:1030D0000FBECDBFDF91CF911F910F9108950F9338
:1030E0001F93CF93DF93CDB7DEB722970FB6F89437
:1030F000DEBF0FBECDBF80911801909119010296DD
:103100009A83898313E0CE0101960E94B4080E943D
:10311000C30989819A8101969A838983115017FF87
:10312000F2CF00911801109119010F5F1F4F1A8300
:10313000098301501040CE0101960E94B4088823F3
:1031400059F080E090EF0E94EE0980E090E00E944C
:10315000EE0980FDF6CF08C01A830983CE010196DF
:103160000E94B4080E94030322960FB6F894DEBFB3
:103170000FBECDBFDF91CF911F910F9108952F9278
:103180003F924F925F926F927F928F929F92AF92F7
:10319000BF92CF92DF92EF92FF920F931F93CF9344
:1031A000DF93CDB7DEB723970FB6F894DEBF0FBE1F
:1031B000CDBF182F8824992454010E94B5131B01F8
:1031C0002C011B82113029F4809108019091090192
:1031D00004C080910601909107019A838983CE01F2
:1031E00001960E94B4089927782E662489819A81D5
:1031F00001969A838983CE0101960E94B40899278B
:10320000682A792A10922D0110922E0110922F0116
:1032100010923001113069F480911E0190911F01CC
:103220009A83898360E070E0CB010E944F0A83E1BA
:103230000DC080911C0190911D019A83898360EEDD
:1032400070E084EE93E00E944F0A85E1809336019E
:10325000F7E3EF2EF1E0FF2E18E0CE0101960E9479
:10326000B408F70181937F0189819A8101969A833D
:103270008983115017FFF1CF809137019927D82EFC
:10328000CC24809138019927C82AD92A8214930422
:10329000A404B50408F0B7C020913901822F992702
:1032A000AC014170507080FF58C0F1EA6F16710494
:1032B00088F18B81882349F470EAC72ED12C2F77AF
:1032C00020933901E1E0EB830AC060E6C62E6FEF80
:1032D000D62EC60CD71C2068209339011B8200E033
:1032E00010E00C151D0578F450E4E52E51E0F52EA4
:1032F00080E00E943D09F70181937F010F5F1F4F1E
:103300000C151D05A8F38D2D992780933701C092C8
:1033100038014BC000E010E00615170578F430E4E2
:10332000E32E31E0F32E80E00E943D09F701819306
:103330007F010F5F1F4F06151705A8F3872D9927EB
:1033400080933701609238018091390180688093C1
:103350003901C301AA27BB272BC0C601AA27BB2757
:10336000880D991DAA1DBB1D281639064A065B0645
:1033700048F46101C818D9088D2D99278093370129
:10338000C09238018A014C155D0578F480E4E82E7E
:1033900081E0F82E80E00E943D09F70181937F01D2
:1033A0000F5F1F4F0C151D05A8F3C601AA27BB27E9
:1033B000880E991EAA1EBB1E81149104E1F4E12C13
:1033C000F12CBFEF0B2F112DE820F9200A211B2132
:1033D000E114F1040105110571F08DE40E94C309A7
:1033E00080E00E94C309C801AA27BB270E94C30925
:1033F00080E00E94C3090E94581182149304A4041F
:10340000B50408F449CF23960FB6F894DEBF0FBE7B
:10341000CDBFDF91CF911F910F91FF90EF90DF9083
:10342000CF90BF90AF909F908F907F906F905F9064
:103430004F903F902F9008951F93CF93DF93CDB778
:10344000DEB72E970FB6F894DEBF0FBECDBF10E0EB
:1034500081E08EBB8EB38823E9F3F69B06C011236F
:1034600011F413E00CC011500AC0F79B06C01330D2
:1034700011F410E004C01F5F02C0F29953C0812F05
:10348000992781309105A1F0823091051CF4892B98
:1034900039F041C08230910501F1039739F13BC009
:1034A00064EF73E0CE0101960E94681B81E007C0C3
:1034B0006AEF73E0CE0101960E94681B80E00E94D3
:1034C000B513DC01CB012AE030E0AE014A5F5F4F6B
:1034D000BC01CD010E946F1B1EC060E074E0CE01F4
:1034E00001960E94681B80E191E008C066E074E0EC
:1034F000CE0101960E94681B8EE091E00E94B40804
:103500008F3F11F0992702C080E090E0BE016A5F12
:103510007F4F0E943003CE0101960E94B9070E949E
:10352000390298CF2E960FB6F894DEBF0FBECDBFEE
:10353000DF91CF911F910895AF92BF92DF92EF92EA
:10354000FF920F931F93CF93DF93CDB7DEB76997A9
:103550000FB6F894DEBF0FBECDBF80E48E8B86E140
:10356000A82EB12CAC0EBD1E88E28F8B83E2888F13
:1035700089E2898F81E00E94B5137B018C01DD24F3
:1035800081B3806381BB8091D2029091D302A091DC
:10359000D402B091D5028E159F05A007B10708F09F
:1035A00043C080E00E943D09F501ED0DF11DD3946B
:1035B0009081891721F584E0D81611F5FF2400E0E9
:1035C00010E080E00E943D099E012F5F3F4FF8010F
:1035D000E20FF31F8083882331F0F3940F5F1F4FB6
:1035E00083E18F1570F71D8A81E080934D02C90138
:1035F0000E94B90781B38F7C806181BB31C0DD241B
:103600008091D2029091D302A091D402B091D502C0
:103610000196A11DB11D8093D2029093D302A09375
:10362000D402B093D502B7CF60E070E0CB010E9426
:103630004F0A1092D2021092D3021092D40210922A
:10364000D50280914D02882349F481B38F7C80613B
:1036500081BB8CE094E00E946A0302C00E949C1A25
:1036600069960FB6F894DEBF0FBECDBFDF91CF9144
:103670001F910F91FF90EF90DF90BF90AF90089552
:1036800060E070E0CB010E944F0A10924D02109250
:10369000D2021092D3021092D4021092D5020E944C
:1036A0009C1A80914D02882371F08EB38823E9F330
:1036B000F79B03C00E949C1A02C0F29903C00E94AB
:1036C0003902F3CF80E00E94100A08950C94900311
:1036D000FB01DC0105900D920020E1F70895FA014D
:1036E000CF93FF93EF932230CCF02532BCF4C22F5E
:1036F0002C2F332744275527FF93EF930E94C31B9A
:10370000EF91FF91605D6A330CF0695D6193B901DF
:10371000CA01605070408040904051F710828F91F4
:103720009F91CF910C94941BDC01FC01019000202F
:10373000E9F73297AE17BF0730F47C916081708350
:1037400031976D93F7CF0895629FD001739FF00179
:10375000829FE00DF11D649FE00DF11D929FF00D21
:10376000839FF00D749FF00D659FF00D9927729F58
:10377000B00DE11DF91F639FB00DE11DF91FBD01E3
:10378000CF0111240895A1E21A2EAA1BBB1BFD0133
:103790000DC0AA1FBB1FEE1FFF1FA217B307E40730
:1037A000F50720F0A21BB30BE40BF50B661F771F88
:1037B000881F991F1A9469F7609570958095909568
:0A37C0009B01AC01BD01CF0108958B
:1037CA003D09FF0184008300810059003100300067
:1037DA002F0023001F001B00150014000B0002001D
:0637EA0001000000461280
:00000001FF
