:100000000C942A020C9447020C94261A0C94AD020C
:100010000C94370C0C943A080C9447020C94470249
:100020000C9447020C94930C0C94281A0C944702DD
:100030000C9447020C94F60B0C9447020C94470264
:100040000C9447020C94C1090C9447020C9447028B
:100050000C9447020C9447020C94DD084028232995
:10006000425554544C4F414420415652495350003C
:100070004028232956312D34004028232942592075
:100080004445414E2043414D4552410040282329DB
:100090003C433E2032303036202D2047504C00600B
:1000A0000074007D0090002A574149542A004156AF
:1000B00052495350204D4F44450053544F52452010
:1000C0005052474D0050524F4752414D20415652D9
:1000D0000044415441464C415348205052474D0042
:1000E0004441544153544F524520494E464F0053CA
:1000F000455454494E475300534C454550204D4FAD
:10010000444500AE00BA00C500D100E000EF00F8A1
:100110000081045304D704AA04DB031E03CC02535A
:10012000455420434F4E545241535400534554209C
:10013000535049205350454544005345542052459F
:10014000534554204D4F4445005345542046495291
:100150004D2056455253494F4E0053455420534C61
:100160004545502054494D454F555400434C454159
:1001700052204D454D4F5259004A554D5020544F35
:1001800020424F4F544C4F41444552001F012C0117
:100190003A0149015A016C017901EF063B076E07EC
:1001A00096075303BC06E6025052474D20414C4C83
:1001B0000044415441204F4E4C5900454550524F48
:1001C0004D204F4E4C59004441544120414E442053
:1001D000454550524F4D00465553452042595445D0
:1001E00053204F4E4C59004C4F434B2042595445DD
:1001F00053204F4E4C59004655534520414E442004
:100200004C4F434B204259544553004552415345AE
:10021000204F4E4C5900A801B101BB01C701D701C5
:10022000E701F7010B0220353731353320485A00FA
:1002300020383637333820485A003131333432379A
:1002400020485A0032313036353120485A004C4F60
:1002500047494300464C4F41540053544F52414785
:10026000452053495A4553000056494557204441BB
:1002700054412054414753002A4A544147204F4E8D
:100280002A004E4F2053544F524544205052474D60
:10029000004F464600202020205345430056322D73
:1002A00020004D454D20434C4541524544003C4EB5
:1002B00020593E00434F4E4649524D002A53544F59
:1002C00052414745204D4F44452A004641494C453F
:1002D000440050524F4752414D4D494E4720444FE4
:1002E0004E45004E4F204C4F434B204259544553EE
:1002F000004E4F2046555345204259544553004E19
:100300004F20454550524F4D004E4F2044415441DF
:10031000004E4F20455241534520434D4400424139
:1003200044495352005052473E202000A8EA802AF8
:100330000040000A510A084059551801111E111BAE
:10034000500B411B411F1101511F511B00000000A8
:100350000880001A204000000000510F913941141C
:100360009131411E410E411D500F802010154886CD
:100370004014780570855115510E5195518E21907C
:1003800081205015484450C528C0282009504114E8
:10039000208011110000001003800254014000224F
:1003A00009090909090A0A0B0801080108010801DD
:1003B00008011002100220040001000200040008DD
:1003C000001000100020002044415441464C41538D
:1003D00048204552524F520042554646204F5646FD
:1003E00000000F1E3C782A44415441464C4153487A
:1003F000204D4F44452A00010008415652495350B0
:100400005F3200402823292A534352455720524542
:1004100054524F44414E002A53594E4320455252A4
:100420004F52002A4154415652495350204D4F4497
:10043000452A004C4F434B2D00465553452D004552
:1004400050524D2D00444154412D004E4F205441F7
:100450004753000011241FBECFEFD4E0DEBFCDBF55
:1004600011E0A0E0B1E0EAE6F5E302C005900D92EC
:10047000A230B107D9F712E0A2E0B1E001C01D92AD
:10048000A53BB107E1F70E942C060C94B41A0C941A
:10049000A604282FE0E0F8E403C0CF010197F1F7AC
:1004A0002150D8F70895282FE3E3F7E003C0CF01E8
:1004B0000197F1F72150D8F70895813081F081300C
:1004C00018F0823001F509C0869AA1E0B0E00E94E0
:1004D0006A1A802D882359F413C0869A08C0A9E8A7
:1004E000B0E00E946A1A802D882319F086988E98B1
:1004F0000895A1E0B0E00E946A1A802D882311F0CF
:100500008E9A08958E9808958EB38823E9F782E035
:100510000E9449028EB38823B9F70895CF93DF93E1
:10052000FB0120E003C02F5F845690408436910584
:10053000D0F7205D2193DF0120E002C02F5F0A97F2
:100540008A309105D8F7205DFD012193805DED0192
:1005500089831182DF91CF91089578941F920F9231
:100560000FB60F9211248F939F9383B19CB1809506
:10057000807D90959C70892B8EBB109247011092C4
:10058000460110928500109284009F918F910F90E8
:100590000FBE0F901F90189585E083BF8091E400F7
:1005A0008F778093E40081B38F7C81BB01C08895F5
:1005B000F69BFDCF81B38F7C806181BB8091E4008D
:1005C00080688093E4000E948402089585B78F7745
:1005D00085BF85BF1092810088E792E00E945B0989
:1005E0000E94840288E180936000FFCF1F9381E026
:1005F0008EBB10E08EB38823E9F3F69B06C011236F
:1006000011F413E00CC011500AC0F79B06C0133060
:1006100011F410E004C01F5F02C0F2990DC0E12F79
:10062000FF27EE0FFF1FE156FF4F859194910E9427
:100630005B090E948402DECF1F9108951F9381E021
:100640008EBB10E08EB38823E9F3F69B06C011231E
:1006500011F416E019C0115017C0F79B06C01630F0
:1006600011F410E011C01F5F0FC0F49B0BC0E12F0D
:10067000FF27EE0FFF1FE656FE4F85919491FC0178
:10068000099502C0F2990DC0E12FFF27EE0FFF1F61
:10069000E457FE4F859194910E945B090E94840269
:1006A000D1CF1F910895EF92FF920F93CF93DF93D5
:1006B000CDB7DEB728970FB6F894DEBF0FBECDBF1B
:1006C000A8E8B0E00E946A1A802D082F853008F053
:1006D00004E065E972E0CE0101960E942E1A81E0E5
:1006E0008EBB8EB38823E9F3F69B05C0002311F47B
:1006F00004E001C00150F79B06C0043011F400E093
:1007000006C00F5F02C0F2991DC0002329F481E9E1
:1007100092E00E945B0913C0E02FFF27EF51FC4FCE
:10072000E4917E010894E11CF11CB7018E2F9927FA
:100730000E948E0280E28C83C7010E946E080E9494
:100740008402CFCFA8E8B0E0002E0E947C1A0E945D
:10075000520C28960FB6F894DEBF0FBECDBFDF91C6
:10076000CF910F91FF90EF900895CF93DF93CDB786
:10077000DEB764970FB6F894DEBF0FBECDBF25E499
:1007800029832EE32A83BC01CE0103960E942E1AF0
:10079000CE0101960E946E080E948402F49BFECF57
:1007A0000E94840264960FB6F894DEBF0FBECDBFE0
:1007B000DF91CF9108951F930E94840281E08EBB48
:1007C00010E08EB38823E9F38EB3807C19F081E0CA
:1007D000182736C0F2993FC0F49B32C0113071F532
:1007E0008BEA99E090930101809300010E94A10996
:1007F0001092430181E00E944D0A0E94B80B8823A9
:1008000041F00E94FF19809164008460809364002D
:1008100017C081E00E94D214611571058105910510
:1008200079F480E00E944D0A809164008460809396
:10083000640082E892E00E94B50302C00E94BB16E9
:100840008FE0189FC0011124865A9D4F0E945B09BA
:100850000E948402B6CF1F910895FF920F931F93B9
:10086000CF93DF93CDB7DEB727970FB6F894DEBFEF
:100870000FBECDBFF82E8E010F5F1F4F65E273E0F4
:10088000C8010E942E1AFE82C8010E946E08279697
:100890000FB6F894DEBF0FBECDBFDF91CF911F9191
:1008A0000F91FF9008958BEA99E090930101809356
:1008B00000010E94A1091092430181E00E944D0AAB
:1008C0000E94B80B8823E1F087EA90E00E945B0960
:1008D0000E94DB078091C100807888618093C1000D
:1008E0008CEB92E00E945B098FE297E10E94C90FB6
:1008F00080E00E944D0A80916400846080936400CF
:10090000089587EA90E00E945B090E94DB07E1EC12
:10091000F0E0808180788861808383E294E00E94A7
:100920005B0981ED92E10E94C90F08950E946E0853
:10093000809164008460809364000E94E0091092BA
:10094000B0001092700010928100FFCF8EE193E012
:100950000E949604A2E0B0E00E946A1A802D0E94D4
:10096000250A81E0809343018AEE99E0909301018A
:100970008093000187EA90E00E945B090E94DB07F8
:10098000E1ECF0E0808180788861808386EE93E0FE
:100990000E945B0984E39DE00E94C90F80E00E94F1
:1009A0004D0AE4E6F0E08081846080830895FF9240
:1009B0000F931F93CF93DF93CDB7DEB763970FB637
:1009C000F894DEBF0FBECDBF8BEA99E09093010192
:1009D000809300010E94A109109243010E94B80B6C
:1009E000882309F42DC10E94840281E08EBBFF247C
:1009F0008EB38823E9F3F29923C1F4991EC0F69BC4
:100A000007C0FF2019F447E0F42E0AC0FA9408C08A
:100A1000F79B06C087E0F81611F4FF2401C0F39499
:100A2000EF2DFF27EE0FFF1FEA5EFD4F859194919A
:100A30000E945B090E948402DBCF80E88093610002
:100A40001092610087EA90E00E945B0902E010E0EA
:100A5000D8010E946A1A802D0E94250A80E00E9417
:100A60005D0298012E5D3F4FEAE4F1E0D9010E945A
:100A70006A1A802D81932F5F3F4F80E02033380723
:100A8000A9F70E94701210926202109263021092F3
:100A900064021092650280914B01882309F0B5C071
:100AA000FF2049F087E0F81631F081E0F81619F0E0
:100AB00083E0F81691F483E40E942D04A5E1B0E0F0
:100AC0000E946A1A802D813031F081E193E00E940A
:100AD000B50302E003C00E94741500E081E08F15A9
:100AE00018F483E0F816C1F40023A1F484E40E9412
:100AF0002D0481E00E94D2146115710581059105D4
:100B000031F489E093E00E94B50303E003C081E083
:100B10000E94A015FF2031F082E0F81619F083E062
:100B2000F816B1F485E40E942D0480E00E94D214EE
:100B3000611571058105910531F48FEF92E00E94F6
:100B4000B50303E003C080E00E94A015FF2031F050
:100B500084E0F81619F086E0F816A9F486E40E94FD
:100B60002D04A0E3B0E00E946A1A802D882331F49E
:100B700081EF92E00E94B50303E003C082E00E948F
:100B80003615FF2089F085E0F81671F086E0F8163A
:100B900019F581E00E945D0281E00E94490280E037
:100BA0000E945D020E9470128CE40E942D04A1E359
:100BB000B0E00E946A1A802D882359F483EE92E0F7
:100BC0000E94B50362ED72E0CE0101960E942E1ADA
:100BD0000BC083E00E94361562ED72E0CE010196F3
:100BE0000E942E1A002331F06BEC72E0CE010D96BC
:100BF0000E942E1ACE0101960E946E088FEF0E946D
:100C0000490284E60E94490204C088E194E00E94FF
:100C1000B50380E88093610083E08093610081E008
:100C20000E945D020E94E00980E00E944D0A8091CE
:100C3000640084608093640081B38F7C806181BB99
:100C400063960FB6F894DEBF0FBECDBFDF91CF9194
:100C50001F910F91FF9008951F9380E885BF85BF76
:100C600080BF85E08093640080E380BB87E284B925
:100C70008FED85B98CE08EB980936B0080ED809309
:100C80006C0080EC8DBB8CBB81B38F7C806381BB9F
:100C900081E00E945D020E9461088FE08093E7007E
:100CA00087EA90E00E945B097894AAE8B0E00E948D
:100CB0006A1A802D8A3789F080E090E02FEFDC01FE
:100CC000022E0E947C1A01968B389105C1F78AE7A3
:100CD000AAE8B0E0082E0E947C1AA6E8B0E00E94C4
:100CE0006A1A802D8F708093E70080E00E944D0A81
:100CF0000E9490090E94DB070E94520C81B38F7CF6
:100D0000806181BB81E08EBB80E88093610083E0DD
:100D10008093610010E08EB38823E9F3F69B06C050
:100D2000112311F416E01BC0115019C0F79B06C027
:100D3000163011F410E013C01F5F11C0F49B0BC0FC
:100D4000E12FFF27EE0FFF1FEF5EFE4F859194917D
:100D5000FC01099504C0F39B02C00E94F602E12F3A
:100D6000FF27EE0FFF1FED5FFE4F859194910E94CC
:100D70005B090E948402CFCF84EB92E00E945B0962
:100D800084EB0E9449028EEA92E00E945B098EB3D6
:100D90008823E9F3F29922C0F39BF9CF0E948402E1
:100DA00087EA90E00E945B0981B38F7C806381BBFE
:100DB00080E090E02FEFDC01022E0E947C1A019669
:100DC0008B389105C1F781B38F7C806181BB82EA4A
:100DD00092E00E945B098FEF0E94490208951F93E1
:100DE000CF93DF93CDB7DEB726970FB6F894DEBF6B
:100DF0000FBECDBFA6E8B0E00E946A1A802D182F62
:100E00001F7081E08EBB8EB38823E9F3F69B04C08C
:100E10001F3050F41F5F08C0F79B04C0123020F051
:100E2000115002C0F29918C083E4898384E58A8353
:100E300080E28B83BE016C5F7F4F812F99270E94D8
:100E40008E02CE0101960E946E08812F8F708093D2
:100E5000E7000E948402D7CFA6E8B0E0012E0E94EE
:100E60007C1A26960FB6F894DEBF0FBECDBFDF9179
:100E7000CF911F9108951F93A2E0B0E00E946A1ADB
:100E8000802D182F843008F013E081E08EBB8EB3E4
:100E90008823E9F3F69B06C0112311F413E00CC07C
:100EA00011500AC0F79B04C0133029F01F5F04C023
:100EB000F29B02C00CC010E08AE0189FC001112410
:100EC0008A5D9D4F0E945B090E948402E0CFA2E0F0
:100ED000B0E0012E0E947C1A1F9108951F93A9E88B
:100EE000B0E00E946A1A802D182F117081E08EBB2D
:100EF0008EB38823E9F3F69902C0F79B03C081E023
:100F0000182702C0F2990BC086E0189FC001112477
:100F1000825B9D4F0E945B090E948402E9CFA9E891
:100F2000B0E0012E0E947C1A1F9108951F93CF9369
:100F3000DF93CDB7DEB725970FB6F894DEBF0FBEAF
:100F4000CDBFA7E8B0E00E946A1A802D182F8A3022
:100F500008F014E06DE972E0CE0101960E942E1AAD
:100F600081E08EBB8EB38823E9F3F69B03C0193072
:100F700008F41F5FF79B04C0112321F0115002C039
:100F8000F2990AC0105D1C831053CE0101960E9495
:100F90006E080E948402E6CFA7E8B0E0012E0E940E
:100FA0007C1A25960FB6F894DEBF0FBECDBFDF9139
:100FB000CF911F910895109203011092020180E8D1
:100FC00080936100109261008FE3809366005FB7A9
:100FD00010926F0088E08093B60081E080937000EB
:100FE0007894809381008093B0008091B600992717
:100FF00087709070892BC9F7109285001092840039
:101000001092B2002EE340E0ECECF4E6CF01019741
:10101000F1F73091660080910201909103018150B7
:10102000914E20F08091660081500AC080910201AB
:10103000909103018050914E28F4809166008F5F5B
:101040008093660080916600841729F021502F3F1D
:1010500011F0432FDBCF10926F00109270001092AE
:1010600081001092B0008091B600877F8093B60017
:101070005FBF08951F920F920FB60F9211248F93A6
:101080009F93AF93BF93EF93FF93A1E8B0E01C92BF
:10109000E4E8F0E080819181909303018093020164
:1010A000118210821092B20081E08C93FF91EF9137
:1010B000BF91AF919F918F910F900FBE0F901F9096
:1010C00018958FE08093E70087EB8093E50087E039
:1010D0008093E60088EC8093E4000895FC01AAE088
:1010E000B1E0382F4FEF2E2F231B9191892F8A5279
:1010F000813510F48C9303C0992341F04C932E2F2B
:10110000231B119681E0AE31B80769F710920401F4
:10111000273018F081E08093040110920601822F9D
:1011200090E03FEFE82FFF27E65FFE4F30838F5FB1
:101130009F5F9730B9F7822F895FE82FFF27E65F1F
:10114000FE4F108210920801809309018AE080937B
:10115000050181E08093070108958F3F19F440E075
:1011600050E008C0E82FFF27EE0FFF1FE45DFC4FA3
:1011700045915491862F8695E82FFF27EB5DFE4F12
:1011800030E0772761707070242F2F706115710522
:1011900011F490EF03C02295207F9FE08081982377
:1011A000922B90833F5F343039F084E05695479519
:1011B0008A95E1F73596E8CF089578941F920F92BB
:1011C0000FB60F921124CF92DF92FF920F931F93CD
:1011D0002F933F934F935F936F937F938F939F933F
:1011E000AF93BF93CF93DF93EF93FF93809104016D
:1011F000882399F080910501882321F08150809304
:1012000005010BC0809106018150809306018F3F3C
:1012100021F481E08093070104C0809107018823B5
:1012200041F110910801F0900901CF2CDD24012F2C
:10123000C0E0D0E06C2FE02FFF270F1510F0EC1965
:10124000FD09E65FFE4F80810E94AD0821960F5F89
:10125000C630D10579F71F5F1093080111501F1593
:1012600019F481E08093080183E0809306011092D5
:101270000701A5E2B1E0ECEEF0E08D91819381E011
:10128000E030F807D1F7FF91EF91DF91CF91BF9157
:10129000AF919F918F917F916F915F914F913F910E
:1012A0002F911F910F91FF90DF90CF900F900FBE65
:1012B0000F901F9018950F931F93CF93DF93CDB787
:1012C000DEB764970FB6F894DEBF0FBECDBF8E01B8
:1012D0000F5F1F4FBC01C8010E942E1AC8010E9457
:1012E0006E0864960FB6F894DEBF0FBECDBFDF91D7
:1012F000CF911F910F910895982F8091C00085FF85
:10130000FCCF9093C60008958091B402882321F405
:10131000809145018823C1F30E94D70B9927089536
:101320001092C50087E08093C40082E08093C000E3
:1013300080E88093C10086E08093C2000E94D00BB9
:101340000895E4E6F0E080818B7F808381E08DBDAD
:101350008CE58CBD08958EBD0DB407FEFDCF8EB516
:10136000992708959C01832F99278EBD0DB407FE00
:10137000FDCF8EB52EBD0DB407FEFDCF8EB59927DE
:1013800008951F920F920FB60F9211248F93EF932F
:10139000FF93EEE6F0E080818D7F808380E4809390
:1013A000B90081E0809370028091BA00809371024D
:1013B000FF91EF918F910F900FBE0F901F90189596
:1013C0008DB18F7A8DB98EB18F788EB986988E98BF
:1013D00014BC0895109270028093BA00A99A80916B
:1013E0006E00826080936E0016BC8091700288232C
:1013F000E1F380917102992708950F931F938C0157
:10140000812F99270E94EA09802F0E94EA099927D3
:101410001F910F910895982F29E933E0F901319731
:101420008491891721F083E0EE39F80731F4F9014E
:10143000849187BD89E084BD089532962E5F3F4F29
:1014400083E0E03AF80761F708959DB190659DB992
:101450006D98759A76989AE59093B8000E940B0A59
:10146000109270021092710208950F931F9381E001
:101470000E94530208EB10E0F801808181608083B4
:1014800081E00E945302F80180818160808381E0C5
:101490000E9453021F910F91089590914301813052
:1014A00031F4913011F482E005C02898089591300C
:1014B00021F481E00E945D020895289A0895EF9238
:1014C000FF920F931F937C01009100011091010185
:1014D00080E00E944D0A81E00E944D0A84E5F801F7
:1014E00009958F2D9927F80109958E2DF8010995F9
:1014F00080E0F801099580E0F801099599271F918E
:101500000F91FF90EF900895EF92FF920F931F932A
:10151000CF93DF938C017B01C0910001D091010139
:1015200080E00E944D0A81E00E944D0A88E6FE019B
:1015300009958AB5980102C0369527958A95E2F7F4
:10154000C901FE0109958BB502C0000F111F8A95D4
:10155000E2F78F2D9927800FFE0109958E2DFE0150
:10156000099500E080E0FE0109950F5F0430D1F796
:10157000DF91CF911F910F91FF90EF900895EF921F
:10158000FF920F931F937C010091000110910101C4
:1015900080E00E944D0A81E00E944D0A84E8F80133
:1015A000099580E0F80109958F2D9927F801099593
:1015B0008E2DF80109951F910F91FF90EF900895DE
:1015C000CF93DF93C0910001D091010180E00E9490
:1015D0004D0A81E00E944D0A87E5FE01099580E0F1
:1015E000FE01099587FFFBCFDF91CF910895EF9220
:1015F000FF920F931F937C01009100011091010154
:1016000080E00E944D0A81E00E944D0A80E5F801C9
:1016100009958F2D9927F80109958E2DF8010995C7
:1016200080E0F80109950E94E00A1F910F91FF9058
:10163000EF900895EF92FF920F931F938C01E0902B
:101640000001F090010180E00E944D0A81E00E94BB
:101650004D0A83E5F70109958AB5980102C03695D0
:1016600027958A95E2F7C901F70109958BB502C064
:10167000000F111F8A95E2F7802FF701099580E08E
:10168000F70109950E94E00A1F910F91FF90EF90DA
:101690000895EF92FF920F931F938C01E090000149
:1016A000F090010180E00E944D0A81E00E944D0A05
:1016B00083E8F70109958AB5980102C03695279508
:1016C0008A95E2F7C901F70109958BB502C0000FB1
:1016D000111F8A95E2F7802FF701099580E0F70145
:1016E00009950E94E00A1F910F91FF90EF900895D5
:1016F0000F931F93009100011091010180E00E945F
:101700004D0A81E00E944D0A87E5F801099580E0C5
:10171000F801099599278873907063E096958795ED
:101720006A95E1F7FC01E056FC4FE4914E2F5527F6
:1017300050933A0140933901880F991FFC01E855F5
:10174000FC4F2591349130933C0120933B01885408
:101750009C4FFC012591349130933E0120933D0133
:1017600080E1841B8ABD48504BBD1F910F910895A5
:101770000E94780B80913D0190913E0180509840ED
:1017800019F481E090E00895809164008460809372
:10179000640088EC93E00E94B50380E090E0089537
:1017A0001092B3021092B2021092B4020895809186
:1017B000B402882319F480E090E008958091B20289
:1017C000E82FFF27EE58FD4FE0818F5F8093B20234
:1017D0008091B40281508093B4028091B20280342F
:1017E00011F41092B2028E2F992708951F920F9232
:1017F0000FB60F9211242F933F934F935F936F93E4
:101800007F938F939F93AF93BF93EF93FF938091B9
:10181000B402803421F488ED93E00E949604809114
:10182000B302E82FFF279091C600EE58FD4F90833A
:101830008F5F8093B3028091B4028F5F8093B40274
:101840008091B302803411F41092B302FF91EF91B2
:10185000BF91AF919F918F917F916F915F914F91C8
:101860003F912F910F900FBE0F901F901895789475
:101870001F920F920FB60F9211248F938091440103
:101880008F5F8093440180914401873929F410923D
:10189000440181E0809345018F910F900FBE0F901E
:1018A0001F901895A8E8B0E00E946A1A802D282F92
:1018B0003327E22F2F3F01F181E080936F00FF2754
:1018C000EF51FC4FE4918AE0E89FC001112490930E
:1018D00049018093480110924701109246011092ED
:1018E000850010928400222321F081E08093810002
:1018F000089510928100089581E080936F00E5EED5
:10190000F3E0E4918AE0E89FC0011124909349013B
:101910008093480110924701109246011092850071
:1019200010928400E2CF78941F920F920FB60F921C
:1019300011242F933F934F935F936F937F938F93D4
:101940009F93AF93BF93EF93FF9380914601909144
:101950004701209148013091490101969093470138
:101960008093460101978217930731F4109281000A
:101970000E94CC020E94520CFF91EF91BF91AF9157
:101980009F918F917F916F915F914F913F912F9197
:101990000F900FBE0F901F901895EF92FF920F932C
:1019A0001F93209162023091630240916402509132
:1019B00065021092400110923F0180913B0190918D
:1019C0003C01AA27BB2760E070E0EE24FF248701DA
:1019D000E81AF90A0A0B1B0B06C02E0D3F1D401F0B
:1019E000511F6F5F7F4F82179307A407B507A8F3B6
:1019F0007093400160933F01309342012093410175
:101A00001F910F91FF90EF9008951F93182F209131
:101A100041013091420180913B0190913C01281796
:101A20003907A1F480913F01909140010196909374
:101A3000400180933F0101970E94490B80E090E0B4
:101A40000E94BF0A1092420110924101812F0E9410
:101A5000EA098091410190914201019690934201DF
:101A6000809341011F9108950F931F93CF93DF93AC
:101A700080914A01863109F4F1C0873190F48231B6
:101A800009F465C0833130F4803101F1813109F00E
:101A90002FC141C0843109F48BC0853108F0ABC03F
:101AA00080C0893109F472C08A3138F4873109F471
:101AB0006DC0883109F01CC15BC08B31F1F18B31F5
:101AC00008F456C08C3109F013C152C082E090E096
:101AD0009093600280935F0281E00E944D0A0E9411
:101AE000780B8091390190913A01892B59F086EE5B
:101AF00093E00E945B0981E08093610281B38F7C57
:101B0000806217C088EC93E00E945B0980E00E942D
:101B10004D0A80ECF4C082E090E0909360028093E4
:101B20005F021092610280E00E944D0A81B38F7CB7
:101B3000806181BB10924B01E4C084E090E09093FF
:101B4000600280935F0210924B0182E01AC082E033
:101B500090E09093600280935F0210924B010E948C
:101B6000F70E87EA90E00E945B09C0E0D0E0D0C0A9
:101B700084E090E09093600280935F0210924B01AA
:101B80008FEF80934C0110924D01BBC083E090E039
:101B90009093600280935F0210924B0110924C016F
:101BA000B0C082E090E09093600280935F02C2CF69
:101BB00020914B013327322F222780914C01992706
:101BC000282B392BF9013396F0936002E0935F02E2
:101BD00081E090E0ABE4B1E02F5F3F4F4FEF02C0F8
:101BE0004D93019682179307D8F310924B01E75B50
:101BF000FE4F108286C00E94CD0C80913F019091D3
:101C000040010E941A0B80914101909142010E9473
:101C1000BF0A80914B019927D82FCC2780914C0186
:101C20009927C82BD92B0AE411E011C0F80182854D
:101C30000E94050D8091410190914201019690937F
:101C40004201809341010E94BA0E0F5F1F4FCE01E7
:101C5000865B9E4F0817190749F76CCF0E94CD0C81
:101C600080913F01909140010E941A0B80914B019D
:101C70009927D82FCC2780914C019927C82BD92B95
:101C80000AE411E025C02091410130914201809188
:101C90003B0190913C012817390741F40E94CD0C7B
:101CA00080913F01909140010E941A0B8091410167
:101CB00090914201019690934201809341010197D6
:101CC0000E945F0AF80182830E94BA0E0F5F1F4FC5
:101CD000CE01865B9E4F08171907A9F62396D0936D
:101CE0006002C0935F0210924B01F801128209C09A
:101CF00081E090E09093600280935F0289EC809392
:101D00004B010E94F70E14C0CE010E94F70A2196E3
:101D100080913D0190913E0123E0969587952A950B
:101D2000E1F7C817D90780F386EE93E00E945B09BC
:101D3000DF91CF911F910F91089590915D028BE1FA
:101D4000982740915F02509160029427252F3327F6
:101D50008EE08227982720E030E0EAE4F1E004C03A
:101D6000819198272F5F3F4F24173507C9F7892F97
:101D7000992708958091620290916302A091640274
:101D8000B09165020196A11DB11D809362029093EE
:101D90006302A0936402B093650208958091620289
:101DA00090916302A0916402B0916502B7FF1EC0DA
:101DB0008DE40E94EA0980E00E94EA0980916402B1
:101DC0000E94EA0980E00E94EA09809162029091F3
:101DD0006302A0916402B0916502BF7780936202B2
:101DE00090936302A0936402B093650208950F93E9
:101DF0001F93CF93DF938BE10E947C0980915D025A
:101E00000E947C09809160020E947C0980915F029F
:101E10000E947C098EE00E947C09C0E0D0E00AE4C8
:101E200011E006C0F80181918F010E947C09219682
:101E300080915F0290916002C817D90798F30E94C1
:101E40009D0E0E947C0980915D0290915E02019638
:101E500090935E0280935D02DF91CF911F910F916D
:101E6000089520914B0183E090E09093600280936D
:101E70005F0210924B01223929F1233970F4213885
:101E8000D9F0223820F4203809F077C023C0203957
:101E9000B9F0213909F071C013C0283989F1293905
:101EA00020F4263908F469C05AC02E3909F43EC01E
:101EB0002F3909F062C012C081E080934C0166C0E6
:101EC00082E0FBCF27E830E0D9010E946A1A802D1A
:101ED0008F3F11F484E0F1CFD9012EC080914A01E7
:101EE000833019F480916602E8CF82E090E090930D
:101EF000600280935F0280914C018093660246C02D
:101F000080914A01A2E0B0E08330B1F082E090E03D
:101F10009093600280935F0280914C01082E0E9492
:101F20007C1A80914C010E940B0A30C080914A01BA
:101F3000A1E0B0E0833021F40E946A1A802DBDCF69
:101F400082E090E09093600280935F0280914C0168
:101F5000082E0E947C1A81E00E945D0217C08091C9
:101F60004A01833019F410924C0110C082E090E0D5
:101F70009093600280935F0209C082E090E09093AA
:101F8000600280935F0280EC80934B010E94F70E09
:101F90000895CF92DF92EF92FF920F931F93CF930A
:101FA000DF936C010E94D00B1092810010926102AD
:101FB0001092620210926302109264021092650203
:101FC00010E073C012E001C019E08091450181303A
:101FD00009F40EC1112381F11092450110924401C0
:101FE0001092B20080EF8093B30082E08093700083
:101FF0008FE08093B000153009F45AC0163070F4A9
:10200000123069F1133028F41123B1F01130E9F6E0
:1020100020C0133069F11430C1F635C0183009F40E
:10202000F4C0193030F4163009F449C0173069F69D
:1020300057C01C3050F6D6C08091B402811181E0A7
:10204000182FF29BC2CF80916102882309F0BDCF87
:10205000E6C00E9484098B3109F0B6CFB3CF0E944D
:102060008409992790935E0280935D0213E0ADCFBF
:102070000E9484099927982F882790936002809363
:102080005F0214E0A2CF00915F02109160020E94F3
:1020900084099927802B912B9093600280935F0293
:1020A0008351914008F090CF15E0C0E0D0E08DCF93
:1020B0000E9484098E3009F087CF16E086CF809188
:1020C0005F0290916002C817D90711F417E07DCF25
:1020D0000E948409FE01E65BFE4F8083219675CF46
:1020E00080914501882309F070CF0E949D0E182F22
:1020F0000E948409181711F01BE067CF80914A01F4
:10210000843038F4823008F066C0813009F066C04F
:1021100006C0863001F1873009F060C012C08BE044
:1021200090E09093600280935F02E7EFF3E0AAE40F
:10213000B1E084918D93319681E0A535B807C9F758
:1021400047C082E090E09093600280935F0280EC51
:1021500080934B013DC082E090E0909360028093B9
:102160005F020E94CE0EE0904D01FF240027112750
:10217000102F0F2DFE2CEE2420914B0133274427E6
:102180005527522F44273327222780914C01992726
:10219000AA27BB27DC0199278827282B392B4A2B14
:1021A0005B2B80914E019927AA27BB27282B392B1F
:1021B0004A2B5B2BE22AF32A042B152BE0926202B6
:1021C000F0926302009364021093650210924B0137
:1021D0000E94F70E05C00E94310F02C0F60109955A
:1021E00018E0F3CE1B3011F481EC05C01A3011F465
:1021F00080E801C080EC80934B0182E090E09093F6
:10220000600280935F020E94F70E109245010E94C7
:10221000D00B1092B0001092700010E0D6CE80E883
:102220008093610083E0809361008091C100807899
:102230008093C1000E94520CDF91CF911F910F91AA
:10224000FF90EF90DF90CF9008951F93CF93DF938F
:10225000EB01992780FF08C08077907034E0959556
:1022600087953A95E1F704C08E70907095958795A3
:102270009927877090708230910519F0049741F585
:102280001CC01091510180914A01833141F4C0FF7B
:1022900002C088E001C080E0182BD695C795812F39
:1022A0000E94EA09CE010E94FD0980E00E94EA092D
:1022B00090915201891781F4F2CF80E090EF0E9453
:1022C000FD0980E090E00E94FD0980FF05C0F5CF88
:1022D00080914E010E945302DF91CF911F9108958A
:1022E0004F925F926F927F928F929F92AF92BF9226
:1022F000CF92DF92EF92FF920F931F93CF93DF93D2
:10230000B0904D01A0904F01409062025090630246
:10231000609064027090650280914B019927982E1D
:10232000882480914C019927882A992AE0904A01B3
:10233000B0FC09C0C0E0D0E0CC24DD2474E5672EF9
:1023400071E0772EACC0C0E0D0E000E010E064E5C2
:10235000C62E61E0D62E41C0F601F080F3E1EF1603
:1023600039F400FF02C088E001C080E08A2901C082
:102370008A2D0E94EA0980916202909163020E9474
:10238000FD098F2D0E94EA092097D9F4809152010E
:102390008F15B9F083E1E81649F0E5E1EE1689F40E
:1023A000809153018F1509F07FC00BC0C09162026C
:1023B000D0916302CC0FDD1FC80181709070C80FEF
:1023C000D91F00FD03C0F5E1EF1611F40E94BA0E0B
:1023D0000F5F1F4F0894C11CD11C0815190509F087
:1023E000BBCFB7FE6CC0809150010E94EA09C201C8
:1023F0000E94FD0980E00E94EA09209711F08B2DD0
:1024000003C08B2D8F788061BE010E94251157C0BB
:10241000F3011081F3E1EF1639F4C0FE02C088E049
:1024200001C080E08A2901C08A2D0E94EA098091BA
:102430006202909163020E94FD09812F0E94EA09C5
:10244000809152018117B9F083E1E81641F0E5E18E
:10245000EE1689F480915301811759F50CC0C09193
:102460006202D0916302CC0FDD1FC60181709070B3
:10247000C80FD91F22C01B2D117F1260C0FC03C0E2
:10248000F5E1EF1611F40E94BA0EBE01812F0E94F1
:1024900025110894C11CD11C0894611C711CC8141E
:1024A000D90409F0B5CF0BC0C0916202D09163028C
:1024B00088CFC0916202D09163021B2DDFCFDF91E4
:1024C000CF911F910F91FF90EF90DF90CF90BF9031
:1024D000AF909F908F907F906F905F904F900895F6
:1024E000FF920F931F9300914F0110914E0181B302
:1024F0008F7C806381BB80914C010E945302812FAD
:102500008150843608F440C018E13EC080915201E9
:102510000E94EA09802F0E945302809153010E9479
:10252000EA09802F0E945302809154010E94EA0917
:10253000F82E802F0E94530280915101833029F49C
:10254000809155010E94EA0905C0809155010E94C1
:10255000EA09F82E80915101882321F080915001E1
:10256000F81669F4802F0E94530281E08093610283
:1025700081B38F7C806281BB10924B010EC0802F93
:102580000E9453020E94350A115000F681B38F7CDD
:10259000806181BB80EC80934B011F910F91FF9074
:1025A0000895DF92EF92FF920F931F93CF93DF93E3
:1025B00080914A01863109F4EAC0873178F482318A
:1025C00009F457C0833130F48031D9F0813109F0FA
:1025D00031C135C0843109F022C1D9C0893109F433
:1025E000C2C08A3138F4873109F4BDC0883109F09E
:1025F00021C19AC08D3108F497C08D3109F01AC1FC
:102600005BC082E090E09093600280935F02A2E062
:10261000B0E00E946A1A802D0E94250A80E00E9484
:102620005D020E94701280916102882319F083E29A
:1026300094E002C088E194E00E945B0904C182E05A
:1026400090E09093600280935F0280914B010E9422
:10265000530281B38F7C806181BB1092610281E063
:102660000E945D0280914C010E9453020E94E00989
:10267000DEC082E090E09093600280935F02CDE440
:10268000D1E089910E94EA0981E0C135D807C9F7F4
:1026900080914C01882359F080E090EF0E94FD0961
:1026A00080E090E00E94FD0980FFC1C0F5CF8091DD
:1026B0004B010E945302BBC0F0904C018F2D992713
:1026C00003969093600280935F02D0904B01E0905C
:1026D0004D0111E001E012C00F5FE02FFF27E65B24
:1026E000FE4F83810E94EA090F1540F01E1530F459
:1026F000E12FFF27E65BFE4F82831F5F0D1560F31E
:1027000006C080E00E94EA09C65BDE4F8A831F5F35
:10271000812F8150C12FDD278E1598F310924B0128
:10272000C65BDE4F1B828FC084E090E09093600216
:1027300080935F02C1E0D0E00CE411E0F8018191E8
:102740008F010E94EA09982F80914B018C1711F498
:1027500090934C012196C530D10581F710924B0121
:1027600010924D0170C083E090E0909360028093DE
:102770005F02CBE4D1E089910E94EA09F1E0CF3415
:10278000DF07C9F710924B0110924C015CC0D0904A
:102790004D0180914B019927D82FCC2780914C0176
:1027A0009927C82BD92B2396D0936002C0935F0240
:1027B000239700E010E08CE4E82E81E0F82E26C09C
:1027C00080914A01843139F400FF02C088E001C0E1
:1027D00080E08D2901C08D2D0E94EA09809162025E
:1027E000909163020E94FD0980E00E94EA09F701CE
:1027F000808300FD04C080914A01863111F40E945B
:10280000BA0E0F5F1F4F0894E11CF11C0C171D0737
:10281000B9F610924B01C65BDE4F1A8214C00E94BB
:10282000701182E090E09093600280935F021092BA
:102830004B0109C081E090E09093600280935F02B9
:1028400089EC80934B010E94F70EDF91CF911F918D
:102850000F91FF90EF90DF900895809367021092A0
:102860006A021092690220916202309163024091E3
:10287000640250916502813039F4DA01C901880F90
:10288000991FAA1FBB1F06C0DA01C90180509C4FC7
:10289000AB4FBF4F1092400110923F0120E030E05B
:1028A00006C088509140A040B0402F5F3F4F883015
:1028B00041E0940740E0A40740E0B40790F730936C
:1028C000400120933F01909342018093410108957C
:1028D000CF93DF93CDB7DEB724970FB6F894DEBF62
:1028E0000FBECDBF80916802813009F040C0809159
:1028F000410190914201892B31F080913F019091EB
:1029000040010E94490B20913F013091400188E035
:1029100091E0AC01249FC001259F900D349F900D44
:1029200011242091410130914201820F931F9C019B
:102930004427552729833A834B835C838091670220
:10294000FE013196813021F484E0ACE1B0E00BC0AF
:10295000205034404440504029833A834B835C8369
:1029600084E0A0E2B0E0182E0E948D1A12C08330DD
:1029700081F42091410130914201809167028230BF
:1029800019F4A0E3B0E002C0A1E3B0E0022E0E947F
:102990007C1A24960FB6F894DEBF0FBECDBFDF9130
:1029A000CF910895CF93DF93CDB7DEB724970FB6BD
:1029B000F894DEBF0FBECDBF813019F4ACE1B0E0BA
:1029C00002C0A0E2B0E084E0FE013196182E0E9421
:1029D000721A69817A818B819C816F3F2FEF720718
:1029E0002FEF82072FEF920721F460E070E080E084
:1029F00090E024960FB6F894DEBF0FBECDBFDF91F6
:102A0000CF9108951F93182F809141019091420119
:102A100088509140A1F480913F019091400101962E
:102A20009093400180933F0101970E94490B80E001
:102A300090E00E94BF0A1092420110924101812F42
:102A40000E94AB09809141019091420101969093BF
:102A50004201809341018091690290916A0201963E
:102A600090936A02809369021F910895EF92FF92FA
:102A70000F931F93CF93DF93823059F440E350E0DC
:102A8000DA010E946A1A802D182F62E0E62EF12CDE
:102A90000AC041E350E0DA010E946A1A802D182F23
:102AA00039E2E32EF12CE40EF51E15C0E70100E03B
:102AB000DE010E946A1A802D0E94EA0921960F5FAA
:102AC0000430B1F784E090E0E80EF91E112319F00C
:102AD00085E00E944902115048F7DF91CF911F9184
:102AE0000F91FF90EF900895CF93DF93C8E1D0E06E
:102AF000DE010E946A1A802D0E94EA09219680E078
:102B0000CC31D807A9F72597DE010E946A1A802DDB
:102B10002596882359F080E090EF0E94FD0980E01F
:102B200090E00E94FD0980FF08C0F5CF2697DE01E6
:102B30000E946A1A802D0E945302DF91CF9108955E
:102B40003F924F925F926F927F928F929F92AF923D
:102B5000BF92CF92DF92EF92FF920F931F93CF938A
:102B6000DF93182F0E94D2142B013C01113009F081
:102B7000D7C0A2E8B0E00E94771A4F01109262021B
:102B800010926302109264021092650260E070E09D
:102B900080E090E00E94840A83E180934A0123E070
:102BA00030E0EBE4F1E0D9010E946A1A802D8193B4
:102BB0002F5F3F4F81E0E435F807A9F780914B0183
:102BC0009927D82FCC2780914C019927C82BD92B36
:102BD000AA24BB24650133249CC080914D0180FF51
:102BE0004BC091EA8916910418F40AE411E02FC051
:102BF000332041F48F7780934D01C0EAD0E011E09B
:102C0000312E07C0E401C05AD040806880934D0146
:102C100033240AE411E007C080E00E94AB09F80108
:102C200082870F5F1F4FCE01865B9E4F08171907E3
:102C300099F78D2F992780934B01C0934C0141C088
:102C400080E00E94AB09F80182870F5F1F4FC4012B
:102C5000865B9E4F0817190799F7892D992780934E
:102C60004B0180924C0180914D01806880934D0111
:102C7000C401AA27BB2728C0CE01AA27BB278A0DDB
:102C80009B1DAC1DBD1D481659066A067B0648F4FF
:102C9000E201CA19DB098D2F992780934B01C0935C
:102CA0004C010AE411E007C080E00E94AB09F80182
:102CB00082870F5F1F4FCE01865B9E4F0817190753
:102CC00099F7CE01AA27BB27A80EB91ECA1EDB1E84
:102CD000A114B104E1F4E12CF12CEFEF0E2F112D32
:102CE000EA20FB200C211D21E114F104010511054E
:102CF00071F08DE40E94EA0980E00E94EA09C801AF
:102D0000AA27BB270E94EA0980E00E94EA090E94E4
:102D10007011A414B504C604D70408F45ECF19C01A
:102D2000A4E8B0E00E94771A4F011092620210925C
:102D30006302109264021092650260EE70E084EE0D
:102D400093E00E94840A85E180934A012CE030E000
:102D500028CFDF91CF911F910F91FF90EF90DF90DF
:102D6000CF90BF90AF909F908F907F906F905F902B
:102D70004F903F9008951F93CF93DF93CDB7DEB769
:102D80002E970FB6F894DEBF0FBECDBF81E08EBB8D
:102D900010E08EB38823E9F3F69B04C01123B9F148
:102DA00011500AC0F79B06C0133011F410E00DC09B
:102DB0001F5F02C0F29949C0113079F0113028F03C
:102DC0001230E1F01330D1F523C065E474E0CE0198
:102DD00001960E942E1A81E007C06FE374E0CE01D5
:102DE00001960E942E1A80E00E94D2142AE030E060
:102DF000AE014A5F5F4F0E94351A20C069E374E05C
:102E0000CE0101960E942E1AA0E3B0E009C013E0A3
:102E100063E374E0CE0101960E942E1AA1E3B0E0B4
:102E20000E946A1A802D8F3F19F480E090E001C063
:102E30009927BE016A5F7F4F0E948E02CE010196E4
:102E40000E946E080E948402A4CF2E960FB6F894BA
:102E5000DEBF0FBECDBFDF91CF911F910895EF92DE
:102E6000FF920F931F93CF93DF9320914A01263156
:102E700009F4ADC1273178F4223109F45FC0233160
:102E800030F42031E9F0213109F007C237C0243194
:102E900009F035C19CC1293109F4DEC02A3138F46A
:102EA000273109F4D9C0283109F0F7C183C02B318B
:102EB000C9F12B3108F47EC02C3109F0EEC16DC090
:102EC00082E090E09093600280935F02EAE4F1E098
:102ED00024E230E08191D901082E0E947C1A2F5FF4
:102EE0003F4F81E0E635F807A9F781E08093610262
:102EF0001092680281B38F7C806210C082E090E003
:102F00009093600280935F020E94681410926102A5
:102F100080E00E944D0A81B38F7C806181BB10925A
:102F20004B01C4C184E090E09093600280935F0203
:102F300010924B0181E080934C0139C082E090E017
:102F40009093600280935F02EBE4F1E027E130E0D0
:102F50008191D901082E0E947C1A2F5F3F4F91E08A
:102F6000E135F907A9F72CE130E080E0D901082E1E
:102F70000E947C1AD9011496082E0E947C1A2F5F99
:102F80003F4FE0E024323E0789F781E02F50304088
:102F9000D901082E0E947C1AC2CF84E090E0909361
:102FA000600280935F0210924B0110924C011092CC
:102FB0004D017CC184E090E09093600280935F02B9
:102FC00080916802843049F00E9468141092420196
:102FD0001092410184E08093680240914101509138
:102FE000420120914A01283119F0A1E3B0E002C06A
:102FF000A0E3B0E00E946A1A802D992784179507F4
:1030000010F48FEF1EC0283119F422E330E002C023
:103010002AE530E080EA90E0489FD001499FB00D5A
:10302000589FB00D1124A20FB31F80914B0128E2CD
:10303000829FC0011124A80FB91F98970E946A1A95
:10304000802D80934C014F5F5F4F5093420140931E
:10305000410110924B01ABCF83E090E0909360026E
:1030600080935F0280916802833039F083E080931F
:103070006802109242011092410140914101509129
:103080004201273169F480EA90E0489F9001499F0E
:10309000300D589F300D11242E5C3F4F82E00CC044
:1030A00080EA90E0489F9001499F300D589F300D75
:1030B0001124265A3F4F83E080936702809141019B
:1030C000909142010A97B0F4EBE4F1E08191D901CB
:1030D000082E0E947C1A2F5F3F4F81E0EF34F807E3
:1030E000A9F780914101909142010196909342018C
:1030F0008093410110924B0110924C01D7C082E0A5
:1031000090E09093600280935F028091680281302A
:1031100009F1233131F481E00E942D14C3E0D0E0A5
:1031200005C080E00E942D14CCE0D0E080914101E8
:10313000909142010E94BF0A81E080936802EBE413
:10314000F1E08191DE01082E0E947C1A91E0E435C5
:10315000F907B9F780914B019927D82FCC27809197
:103160004C019927C82BD92B0AE411E006C0F801BD
:1031700082850E9402150F5F1F4FCE01865B9E4F16
:1031800008171907A1F72091690230916A0237FDEB
:10319000C6CE80914D0187FFC2CE2115310509F4BD
:1031A000BECE80916702813019F4A2E8B0E002C07F
:1031B000A4E8B0E009010E94881A80916902909108
:1031C0006A02906890936A0280936902A8CE809107
:1031D0006802823001F10E94681490E080914A01F7
:1031E000843109F491E0892F0E942D1460914101EE
:1031F0007091420180913F01909140010E94840AA8
:1032000082E0809368021092620210926302109230
:1032100064021092650280914B019927D82FCC2728
:1032200080914C019927C82BD92B90E080914A01BD
:10323000843109F491E0892F0E94D2147B010AE4C1
:1032400011E01BC09701442755278091620290919D
:103250006302A0916402B091650282179307A407EC
:10326000B50710F08FEF03C080E00E94AB09F801B2
:1032700082830E94BA0E0F5F1F4FCE01865B9E4F66
:1032800008171907F9F62396D0936002C0935F02DE
:1032900010924B01F801128209C081E090E09093F6
:1032A000600280935F0289EC80934B010E94F70ECD
:1032B000DF91CF911F910F91FF90EF900895CF92E2
:1032C000DF92EF92FF920F931F93CF93DF93CDB7CF
:1032D000DEB769970FB6F894DEBF0FBECDBF80E4AE
:1032E000898388E28A8383E28B8389E28C8381E00D
:1032F0000E94D2146B017C0181B38F7C806381BBFF
:10330000098110E042C080E00E94AB09982FFE01C5
:10331000E10FF11D8181981709F51F5F143011F538
:103320008E010B5F1F4F80E00E94AB09F801808384
:10333000882339F00F5F1F4FCE01499608171907F0
:1033400091F7198E81E080936B02CE0105960E9461
:103350006E0881B38F7C806181BB42C010E0901702
:1033600009F411E080916C0290916D02A0916E02BF
:10337000B0916F020196A11DB11D80936C029093D4
:103380006D02A0936E02B0936F0280916C029091D7
:103390006D02A0916E02B0916F028C159D05AE0575
:1033A000BF0508F4B0CF60E070E080E090E00E94DC
:1033B000840A10926C0210926D0210926E021092AA
:1033C0006F0280916B02882349F481B38F7C806106
:1033D00081BB8BE494E00E94B50302C00E945F1998
:1033E00069960FB6F894DEBF0FBECDBFDF91CF91C7
:1033F0001F910F91FF90EF90DF90CF90089560E0C4
:1034000070E080E090E00E94840A10926B021092BB
:103410006C0210926D0210926E0210926F020E9466
:103420005F1980916B02882371F08EB38823E9F3D2
:10343000F79B03C00E945F1902C0F29903C00E946B
:103440008402F3CF80E00E944D0A08950C94AD02EF
:103450008F938BE58093B8008F911895FB01DC0169
:1034600005900D920020E1F70895FA01CF93FF93A4
:10347000EF932230CCF02532BCF4C22F2C2F33270F
:1034800044275527FF93EF930E94921AEF91FF91E3
:10349000605D6A330CF0695D6193B901CA016050E7
:1034A00070408040904051F710828F919F91CF9152
:1034B0000C945A1ADC01FC0101900020E9F73297C4
:1034C000AE17BF0730F47C916081708331976D93A4
:1034D000F7CF0895F999FECFB2BDA1BDF89A119624
:1034E00000B40895F7DF01921A94E1F70895F2DF2E
:1034F000E02DF0DFF02D0895F999FECFB2BDA1BD0A
:1035000000BC11960FB6F894FA9AF99A0FBE089576
:10351000F3DF012CF1DF112408950190EDDF1A94FF
:10352000E1F70895A1E21A2EAA1BBB1BFD010DC0F5
:10353000AA1FBB1FEE1FFF1FA217B307E407F50763
:1035400020F0A21BB30BE40BF50B661F771F881F3F
:10355000991F1A9469F760957095809590959B01D5
:0A356000AC01BD01CF010895FFCFBB
:02356A00AB09AB
:00000001FF
