:100000000C94FD010C9418020C94F7180C947B03CB
:100010000C9418020C94FC060C9418020C94180210
:100020000C9418020C940F0B0C94F9180C941802F1
:100030000C9418020C945E080C9418020C9418028C
:100040000C9418020C94A3080C9418020C94180237
:100050000C9418020C9418020C94B9076F006000FD
:100060005649455720444154412054414753005379
:10007000544F524147452053495A455300A30099D4
:10008000008F00850032313036353120485A00313A
:10009000313334323720485A00203836373338204D
:1000A000485A0020353731353320485A0016010AA6
:1000B00001FA00EA00DA00C600BB00455241534590
:1000C000204F4E4C59004655534520414E44204C3C
:1000D0004F434B204259544553004C4F434B204211
:1000E00059544553204F4E4C5900465553452042D4
:1000F00059544553204F4E4C5900444154412041DE
:100100004E4420454550524F4D00454550524F4DAD
:10011000204F4E4C590044415441204F4E4C590001
:100120009405E70559058D065E0150014301300134
:100130004A554D5020544F20424F4F544C4F41444C
:10014000455200434C454152204D454D4F525900B8
:10015000534554205350492053504545440053457E
:100160005420434F4E545241535400CC033305FEA8
:1001700003D903350697032106D501CA01BE01AA9A
:10018000019B0192018701534C454550204D4F443E
:10019000450053455454494E47530044415441533C
:1001A000544F524520494E464F0044415441464C1D
:1001B000415348205052474D204D4F444500505226
:1001C0004F4752414D204156520053544F52452003
:1001D0005052474D00415652495350204D4F4445CF
:1001E000000C020702F801E9013C433E20323030A6
:1001F00036202D2047504C004259204445414E2086
:1002000043414D4552410056312D3300425554541F
:100210004C4F4144002A574149542A004028232981
:100220004259204445414E2043414D4552410040F2
:10023000282329425554544C4F4144204156524999
:100240005350005052473E2000424144495352000F
:100250004E4F20455241534520434D44004E4F20C0
:1002600044415441004E4F20454550524F4D004EA1
:100270004F2046555345204259544553004E4F2078
:100280004C4F434B2042595445530050524F475214
:10029000414D4D494E4720444F4E45004641494C43
:1002A0004544002A53544F52414745204D4F444541
:1002B0002A00434F4E4649524D003C4E20593E00C5
:1002C0004D454D20434C4541524544004E4F20532F
:1002D000544F524544205052474D002A4A544147FA
:1002E000204F4E2A00A8EA802A0040000A510A083E
:1002F0004059551801111E111B500B411B411F1174
:1003000001511F511B000000000880001A2040000E
:10031000000000510F913941149131411E410E41AD
:100320001D500F80201015488640147805708551A7
:1003300015510E5195518E219081205015484450F1
:10034000C528C02820095041142080111100000048
:1003500010038002540140002244415441464C4164
:100360005348204552524F52000001000200040041
:1003700008001000100020002008010801080108F2
:1003800001080110021002200409090909090A0ADA
:100390000B42554646204F564552464C4F57002A71
:1003A00044415441464C415348204D4F44452A0056
:1003B0000100084156524953505F3202020453591A
:1003C0004E43204552524F52002A41544156524901
:1003D0005350204D4F44452A00444154412D00457F
:1003E00050524D2D00465553452D004C4F434B2D3B
:1003F000004E4F2054414753000011241FBECFEF41
:10040000D4E0DEBFCDBF11E0A0E0B1E0E8E4F3E36B
:1004100002C005900D92A430B107D9F712E0A4E014
:10042000B1E001C01D92A43BB107E1F70C945E025C
:100430000C949203CF93DF93282F21502F3F49F044
:10044000A0E0B8E4C0E0D0E0CD010197F1F7215081
:10045000D8F7DF91CF9108958EB38823E9F781E033
:100460000E941A028EB38823B9F70895CF93C0E093
:1004700081E08EBB8EB38823E9F3F69B06C0CC23C4
:1004800011F4C3E00CC0C1500AC0F79B06C0C330D2
:1004900011F4C0E004C0CF5F02C0F2990DC0EC2F90
:1004A000FF27EE0FFF1FEF51FE4F859194910E94A1
:1004B00070070E942C02DECFCF910895CFEFD4E0D9
:1004C000DEBFCDBFC0E080E885BF85BF80BF85E0CF
:1004D0008093640080E380BB87E284B98FED85B9A7
:1004E0008CE08EB980936B0080ED80936C0080EC83
:1004F0008DBB8CBB81B38F7C806281BB26E830E0F2
:10050000D9010E945A19802D8A3789F080E090E045
:100510004FEFDC01042E0E946C19019652E08030EE
:100520009507B8F38AE7D901082E0E946C190E943A
:100530001D07A5E8B0E00E945A19802D8F708093A6
:10054000E700789485E192E00E94700780E00E94C5
:10055000280981B3806381BB0E942A080E949B0600
:1005600081B38F7C806181BB81E08EBB80E880930A
:10057000610083E0809361008EB38823E9F3F69BEA
:1005800006C0CC2311F4C6E01BC0C15019C0F79BB4
:1005900006C0C63011F4C0E013C0CF5F11C0F49B99
:1005A0000BC0EC2FFF27EE0FFF1FE559FE4F859183
:1005B0009491FC01099504C0F39B02C00E9436028D
:1005C000EC2FFF27EE0FFF1FE758FE4F8591949108
:1005D0000E9470070E942C02CFCFCF93DF93282F69
:1005E00021502F3F49F0A3E3B7E0C0E0D0E0CD01B8
:1005F0000197F1F72150D8F7DF91CF91089599270E
:1006000081309105B1F0823091051CF4892B21F0E5
:100610000895029759F00895869AA0E0B0E00E94EC
:100620005A19802D882319F48E9A0895869A8E98E7
:1006300008958698FCCFFB0120E08436910520F0D8
:100640002F5F84569040F9CF205D219320E08A30BF
:10065000910518F02F5F0A97FACF205D2193805DF6
:100660008193108208951F93CF93DF93CDB7DEB7A8
:1006700027970FB6F894DEBF0FBECDBF182F63E4E7
:1006800072E0CE0101960E94FF181E831F82CE01E8
:1006900001960E942F0727960FB6F894DEBF0FBE73
:1006A000CDBFDF91CF911F910895CF93DF93CDB749
:1006B000DEB764970FB6F894DEBF0FBECDBF25E45A
:1006C00029832EE32A83BC01CE0103960E94FF18E2
:1006D000CE0101960E942F070E942C02F49BFECFB0
:1006E0000E942C0264960FB6F894DEBF0FBECDBFF9
:1006F000DF91CF91089578941F920F920FB60F92C9
:1007000011248F939F9393B19095907D8CB1809598
:100710008C70982B9EBB9F918F910F900FBE0F9066
:100720001F90189589E492E00E945503FFCFCF9364
:10073000C0E081E08EBB8EB38823E9F3F69B06C050
:10074000CC2311F4C3E019C0C15017C0F79B06C0F9
:10075000C33011F4C0E011C0CF5F0FC0F49B0BC0D9
:10076000EC2FFF27EE0FFF1FE05EFE4F8591949167
:10077000FC01099502C0F2990DC0EC2FFF27EE0F86
:10078000FF1FE85DFE4F859194910E9470070E94C3
:100790002C02D1CFCF91089589EC93E00E9470078D
:1007A00083E591E190930301809302010E945D0E25
:1007B0000895A1E0B0E00E945A19802D0E94D90846
:1007C00081E08093610283EF98E090930101809330
:1007D00000018FE993E00E94700787E99BE0909306
:1007E0000301809302010E945D0E80E00E942809AF
:1007F0008091640084608093640008950F931F9338
:10080000CF93DF93CDB7DEB763970FB6F894DEBF13
:100810000FBECDBF00E0102F0E948408009361023C
:100820008EE898E090930101809300010E949F0A56
:10083000882309F40DC10E942C0281E08EBB8EB387
:100840008823E9F3F29904C1F4991CC0F69B06C011
:10085000112311F416E009C0115007C0F79B05C021
:10086000163011F410E001C01F5FE12FFF27EE0FDB
:10087000FF1FE355FF4F859194910E9470070E94DE
:100880002C02DDCF81B3806381BB85E192E00E94C1
:100890007007A1E0B0E00E945A19802D0E94D9088B
:1008A00080E00E94FF02E2E1F1E020E030E09BE026
:1008B000D901AD5DBF4F0E945A19802D819391508F
:1008C0002F5F3F4F97FFF4CF0E94C30F1092090193
:1008D00010920A0110920B0110920C0180911301E9
:1008E000882309F0A0C0163021F0112311F0123036
:1008F00091F483E40E943303A4E1B0E00E945A190A
:10090000802D813031F002E080E592E00E945503B5
:1009100002C00E945B16112311F01230B9F40023BB
:10092000A9F484E40E94330381E00E94C312DC0135
:10093000CB010097A105B10531F403E08DE592E00C
:100940000E94550303C081E00E948A16812F8150C6
:100950008230A8F485E40E94330380E00E94C31231
:10096000DC01CB010097A105B10531F403E085E678
:1009700092E00E94550303C080E00E948A16133063
:1009800011F0153099F486E40E943303AFE2B0E031
:100990000E945A19802D882331F403E08FE692E0FB
:1009A0000E94550303C082E00E942A16812F8450C2
:1009B000823000F5153059F481E00E94FF0281E099
:1009C0000E941A0280E00E94FF020E94C30F8CE482
:1009D0000E943303A0E3B0E00E945A19802D8823BF
:1009E00031F403E08DE792E00E94550303C083E0F9
:1009F0000E942A166BE872E0CE0101960E94FF1851
:100A0000002331F06CE972E0CE010D960E94FF18D0
:100A1000CE0101960E942F078FEF0E941A0284E6F2
:100A20000E941A0204C08EEB93E00E94550381E0FD
:100A30000E94FF020E94E90880E00E94280980913C
:100A4000640084608093640081B38F7C806181BB8B
:100A500063960FB6F894DEBF0FBECDBFDF91CF9186
:100A60001F910F9108958EE898E090930101809373
:100A700000010E9484081092610281E00E9428090E
:100A80000E949F0A8823A1F083EA92E00E947007E7
:100A90008DED93E190930301809302010E945D0E1E
:100AA00080E00E9428098091640084608093640043
:100AB0000895CF93DF9382EB92E00E94700784EB5E
:100AC0000E941A028AEB92E00E9470078EB388237C
:100AD000E9F38EB39927EC01C470D07082FD1AC07F
:100AE000F39BF4CF0E942C0285E192E00E947007F4
:100AF000CE012FEFDC01022E0E946C19019632E02C
:100B000080309307B8F380EC92E00E9470078FEF7B
:100B10000E941A02DF91CF91089585E192E00E9430
:100B200070070E949B060895EF92FF921F93CF9348
:100B3000DF93CDB7DEB726970FB6F894DEBF0FBEB2
:100B4000CDBF85E8E82E80E0F82ED7010E945A1923
:100B5000802D182F1F7081E08EBB8EB38823E9F3A0
:100B6000F69B04C01F3078F41F5F0DC0F79B04C0D4
:100B7000123048F0115007C0F29B05C0D701012E7A
:100B80000E946C1918C083E4898384E58A8380E21B
:100B90008B83BE016C5F7F4F812F99270E941B03BF
:100BA000CE0101960E942F07812F8F708093E7005E
:100BB0000E942C02D2CF26960FB6F894DEBF0FBE4D
:100BC000CDBFDF91CF911F91FF90EF9008950F93CC
:100BD0001F93CF9381E08EBB01E010E0D8010E940B
:100BE0005A19802DC82F843008F0C0E08EB38823B6
:100BF000E9F3F69B06C0CC2311F4C3E011C0C15049
:100C00000FC0F79B06C0C33011F4C0E009C0CF5F2E
:100C100007C0F29B05C0D8010C2E0E946C190DC0B4
:100C2000EC2FFF27EE0FFF1FE358FF4F85919491A4
:100C30000E9470070E942C02D9CFCF911F910F9173
:100C4000089585E083BF8091E4008F778093E4006E
:100C5000F69903C08895F69BFDCF8091E4008068EB
:100C60008093E4000E942C0208951F93CF9310E01C
:100C70000E942C0281E08EBB8EB38823E9F3CEB3B1
:100C8000C07C19F081E0182738C0F29943C0F49B6A
:100C900034C0113081F58EE898E090930101809383
:100CA00000010E948408C0936102812F0E942809DC
:100CB0000E949F0AC82F882341F00E94D11880917A
:100CC000640084608093640018C0812F0E94C31266
:100CD000DC01CB010097A105B10579F48C2F0E94AE
:100CE0002809809164008460809364008CEC92E019
:100CF0000E94550302C00E94AC17E12FFF27EE0FA0
:100D0000FF1FE45AFF4F859194910E9470070E9443
:100D10002C02B2CFCF911F91089585B78F7785BFF1
:100D200085BF8BED92E00E9470070E942C0288E143
:100D300080936000FFCFCF93DF934FE320E030E05C
:100D400080E88093610010926100409366005FB775
:100D500010926F0088E08093B60081E0809370006D
:100D60007894809381008093B0008091B600992799
:100D7000877090700097C9F79093850080938400E6
:100D80001092B2004EE3A3E3B3E7C0E0D0E0CD01A0
:100D90000197F1F7322F80916600282F809104018E
:100DA000909105018650914E20F08091660081500F
:100DB0000AC080910401909105018B5F904E58F418
:100DC000809166008F5F8093660080916600831734
:100DD00011F04150E0F610926F00109270001092E6
:100DE00081001092B0008091B600877F8093B6009A
:100DF0005FBFDF91CF9108951F920F920FB60F92B0
:100E000011248F939F931092810080918400909180
:100E10008500909305018093040110928500109243
:100E200084001092B20081E0809381009F918F91A5
:100E30000F900FBE0F901F9018958FE08093E700E2
:100E400087EB8093E50087E08093E60080EC809359
:100E5000E4008091E40088608093E4000895CF93DB
:100E6000DF93EC0120E03FEFEDE2F2E0DF0189915A
:100E7000982F9A52913538F4803211F0892F01C0A1
:100E80008FEF8C9303C0882331F030832F5F11964E
:100E90003196243160F380E0273008F081E08093C0
:100EA0005D0210922B029FEF86E0E22FFF27E35DA9
:100EB000FD4F90832F5F815087FFF7CFE22FFF27F1
:100EC000E35DFD4F108210922C0220932A028AE0EB
:100ED00080935E0281E080934802DF91CF91089574
:100EE000CF93DF93CDB7DEB764970FB6F894DEBF2C
:100EF0000FBECDBFBC01CE0101960E94FF18CE01EE
:100F000001960E942F0764960FB6F894DEBF0FBEBD
:100F1000CDBFDF91CF910895E82F20E030E0862FFC
:100F20008695A82FBB27A75BBD4FEF3F39F0FF2762
:100F3000EE0FFF1FEB51FD4F259134917727617024
:100F4000707043E050EF922F9F706115710519F09A
:100F50005FE09295907F8C918523892B8C9384E020
:100F6000369527958A95E1F71596415047FFEACFC8
:100F7000089578941F920F920FB60F9211242F9319
:100F80003F934F935F936F937F938F939F93AF9311
:100F9000BF93CF93EF93FF9380915D02882399F0E5
:100FA00080915E02882321F0815080935E020BC005
:100FB00080912B02882321F481E08093480203C0B2
:100FC000815080932B0280914802882339F1C0E040
:100FD00080912C028C0F90912A02E82FFF2789170D
:100FE00010F0E91BF109E35DFD4F80816C2F0E9439
:100FF0008C07CF5FC63060F380912C02982F8F5FF3
:1010000080932C0280912A02981719F481E0809332
:101010002C0283E080932B0210924802ACEEB0E0E9
:10102000E9E4F2E093E181918D93915097FFFBCF3A
:10103000FF91EF91CF91BF91AF919F918F917F9150
:101040006F915F914F913F912F910F900FBE0F9035
:101050001F90189582EC8093C5001092C40082E026
:101060008093C00080E88093C10086E08093C20036
:101070000E94B70A0895982F8091C00085FFFCCF89
:101080009093C6000895CF93DF93EC018881882365
:1010900031F089910E943B0888818823D1F7DF9144
:1010A000CF9108958091AF02882321F480910601A9
:1010B0008823C1F30E94ED0A992708951F920F9289
:1010C0000FB60F9211242F933F934F935F936F931B
:1010D0007F938F939F93AF93BF93EF93FF938091F1
:1010E000C6000E94C40AFF91EF91BF91AF919F91FA
:1010F0008F917F916F915F914F913F912F910F90C1
:101100000FBE0F901F901895809164008B7F809385
:10111000640081E08DBD8CE58CBD08958EBD0DB45D
:1011200007FEFDCF8EB5992708950F931F938C016D
:10113000812F99270E948E08802F0E948E08992760
:101140001F910F9108951F920F920FB60F921124C5
:101150008F9380916E008D7F80936E0080E48093EA
:10116000B90081E080935F028091BA0080936002B1
:101170008F910F900FBE0F901F901895482F90E001
:1011800062E573E09B0121503040F901849184179E
:1011900011F0933031F4FB01849187BD89E084BD67
:1011A00008959F5F2E5F3F4F6E5F7F4F943068F3CF
:1011B00008959DB190659DB96D98759A76989AE558
:1011C0009093B8000E94BE0810925F0210926002D5
:1011D00008958DB18F7A8DB98EB18F788EB986983A
:1011E0008E9814BC089510925F028093BA00A99A59
:1011F00080916E00826080936E0016BC80915F02C9
:101200008823E1F380916002992708950F931F933B
:101210008C01812F99270E94F308802F0E94F308E8
:1012200099271F910F91089581E00E94ED0280910E
:10123000B80081608093B80081E00E94ED02809147
:10124000B80081608093B80081E00E94ED020895AB
:1012500090916102813031F4913011F482E005C047
:1012600028980895913021F4892F0E94FF02089553
:10127000289A08950F931F938C0180E00E942809FB
:1012800081E00E942809E0910001F091010184E5CC
:101290000995812F9927E0910001F09101010995AD
:1012A000E0910001F0910101802F0995E09100018A
:1012B000F091010180E00995E0910001F0910101B8
:1012C00080E0099599271F910F910895EF92FF9261
:1012D0000F931F938C017B0180E00E94280981E01D
:1012E0000E942809E0910001F091010188E609952A
:1012F0008AB5980102C0369527958A95E2F7C9010B
:10130000E0910001F091010109958BB502C0000F39
:10131000111F8A95E2F78F2D9927E0910001F09136
:101320000101800F0995E0910001F09101018E2DDE
:10133000099503E0E0910001F091010180E0099539
:10134000015007FFF7CF1F910F91FF90EF90089585
:101350000F931F938C0180E00E94280981E00E9476
:101360002809E0910001F091010184E80995E091DC
:101370000001F091010180E00995812F9927E0910A
:101380000001F09101010995E0910001F091010146
:10139000802F09951F910F91089580E00E942809E0
:1013A00081E00E942809E0910001F091010187E5A8
:1013B0000995E0910001F091010180E00995682F05
:1013C0007727CB018873907033E0959587953A9590
:1013D000E1F79927FC01E757FC4F449140936402E1
:1013E0009C01280F391FF901E758FC4F8591949112
:1013F0009093660280936502F901E759FC4F85914D
:101400009491909368028093670280E1841B8ABD67
:1014100048504BBDCB0108950F931F938C0180E082
:101420000E94280981E00E942809E0910001F091C2
:10143000010180E50995812F9927E0910001F09144
:1014400001010995E0910001F0910101802F0995BA
:10145000E0910001F091010180E009950E94CD0921
:101460008823E4F71F910F9108950F931F938C0128
:1014700080E00E94280981E00E942809E091000193
:10148000F091010183E509958AB5980102C036956E
:1014900027958A95E2F7C901E0910001F0910101D9
:1014A00009958BB502C0000F111F8A95E2F7E091F4
:1014B0000001F0910101802F0995E0910001F09168
:1014C000010180E009950E94CD098823E4F71F916E
:1014D0000F9108950F931F938C0180E00E942809BB
:1014E00081E00E942809E0910001F091010183E868
:1014F00009958AB5980102C0369527958A95E2F735
:10150000C901E0910001F091010109958BB502C07C
:10151000000F111F8A95E2F7E0910001F09101019F
:10152000802F0995E0910001F091010180E009957B
:101530000E94CD098823E4F71F910F9108950E941E
:10154000CD0980916702909168028050984061F4C3
:101550008091640084608093640089E593E00E9438
:10156000550380E090E0089581E090E008958BE6D7
:1015700092E09093AC028093AB029093AE02809382
:10158000AD021092AF020895982F8091AF0280347F
:1015900029F481E993E00E9455030895E091AB029C
:1015A000F091AC0290834091AB025091AC029A0151
:1015B0002F5F3F4F3093AC022093AB028091AF027C
:1015C0008F5F8093AF022B5A324031F44F5350401B
:1015D0005093AC024093AB0208958091AF028823F0
:1015E00019F480E090E008952091AD023091AE02B0
:1015F000F9019191F093AE02E093AD028091AF02B8
:1016000081508093AF02EB5AF24031F42F533040B7
:101610003093AE022093AD02892F992708957894D4
:101620001F920F920FB60F9211248F938091070192
:101630008F5F8093070180910701873029F4109212
:10164000070181E0809306018F910F900FBE0F90EC
:101650001F9018951092800010928100109207013F
:1016600010928500109284001092820081E0809395
:101670006F0008952091090130910A0140910B01FA
:1016800050910C0110926A021092690280916502D9
:1016900090916602AA27BB2782179307A407B50774
:1016A00088F460E070E0281B390B4A0B5B0B6F5F1E
:1016B0007F4F82179307A407B507A8F370936A02B8
:1016C0006093690230936302209362020895CF937E
:1016D000C82F20916202309163028091650290913F
:1016E000660228173907A9F48091690290916A026D
:1016F0009C01019690936A0280936902C9010E943D
:101700006A0A80E090E00E94A80910926302109299
:1017100062028C2F0E94F308809162029091630212
:1017200001969093630280936202CF910895DF92B5
:10173000EF92FF920F931F93CF93DF93DD2480915D
:10174000120199278631910509F400C1873191056D
:10175000B4F48231910509F46FC0833191053CF4F2
:101760008031910531F1419709F446C040C184317F
:10177000910509F48AC045970CF0AFC07FC089314C
:10178000910509F470C08A31910544F487319105BF
:1017900009F469C0489709F458C029C18B319105F3
:1017A000E9F18B3191050CF450C04C9709F44DC010
:1017B0001EC182E090E090930F0180930E0181E0C2
:1017C0000E9428090E94CD0980916402882359F063
:1017D0008FE993E00E94700781E080930D0181B34F
:1017E0008F7C806217C089E593E00E9470078D2D81
:1017F0000E94280980EC02C182E090E090930F01E2
:1018000080930E01D0920D018D2D0E94280981B385
:101810008F7C806181BBD0921301F2C084E090E0A4
:1018200090930F0180930E01D092130182E0809378
:101830001401D0921501E4C082E090E090930F0172
:1018400080930E01E1E0DE2E7EC084E090E0909374
:101850000F0180930E01109213018FEF80931401FA
:1018600010921501CDC083E090E090930F0180931A
:101870000E011092130110921401C2C082E090E098
:1018800090930F0180930E015EC080911301992700
:10189000982F8827209114013327822B932B0396AE
:1018A00090930F0180930E0121E030E002972817FA
:1018B000390748F44FEFE3E1F1E041932F5F3F4FE9
:1018C00028173907D0F310921301E0910E01F0911F
:1018D0000F01EF5EFE4F108293C00E943A0B809181
:1018E000690290916A020E94350A80916202909189
:1018F00063020E94A809809113019927D82FCC2751
:10190000809114019927C82BD92B00E010E00C1707
:101910001D07C8F45CE1E52E51E0F52EF701819139
:101920007F010E94670B8091620290916302019691
:1019300090936302809362020E94200E0F5F1F4FFC
:101940000C171D0758F3109213015AC00E943A0B4E
:101950008091690290916A020E94350A8091130178
:101960009927D82FCC27809114019927C82BD92BE0
:1019700000E010E00C171D0770F534E1E32E31E0B4
:10198000F32E209162023091630280916502909162
:1019900066022817390741F40E943A0B80916902C8
:1019A00090916A020E94350A8091620290916302CE
:1019B0009C0101969093630280936202C9010E9488
:1019C0003A09F70181937F010E94200E0F5F1F4F9C
:1019D0000C171D07B0F22396D0930F01C0930E0190
:1019E000239710921301CE5EDE4F1A8209C081E068
:1019F00090E090930F0180930E0189EC8093130186
:101A00000E94480DDD20D9F085E192E00E94700728
:101A1000C0E0D0E0809167029091680223E0969543
:101A200087952A95E1F7C817D90728F4CE010E94B7
:101A30000C0A2196EFCF8FE993E00E947007DF91A7
:101A4000CF911F910F91FF90EF90DF9008956BE180
:101A500080911001682720910E0130910F01832F92
:101A60009927682780910E0168278EE0682740E05B
:101A700050E04217530748F4E2E1F1E08191682712
:101A80004F5F5F4F42175307C8F3862F992708957A
:101A90000F931F93CF93DF938BE10E943B088091BC
:101AA00010010E943B0880910F010E943B08809129
:101AB0000E010E943B088EE00E943B08C0E0D0E08F
:101AC00080910E0190910F01C817D90778F402E1B7
:101AD00011E0F80181918F010E943B0821968091CD
:101AE0000E0190910F01C817D90798F30E94270D96
:101AF0000E943B08809110019091110101969093F2
:101B0000110180931001DF91CF911F910F910895E2
:101B10002091130183E090E090930F0180930E01D8
:101B200010921301E22FFF27E839F105ACF4E639F2
:101B3000F1050CF06BC0E138F105F9F0E238F10580
:101B400024F4E038F105B9F06FC0CF01805990401E
:101B5000039708F069C013C0EE39F10509F43BC0E2
:101B6000EF39F10524F4E839F105F9F05DC0EF39FA
:101B7000F10549F059C083E037C081E035C0E55D2B
:101B8000FC4F849131C080911201833019F480910F
:101B900008012AC082E090E090930F0180930E012B
:101BA000809114018093080148C080911201A1E046
:101BB000B0E08330B1F082E090E090930F01809329
:101BC0000E0180911401082E0E946C19809114015D
:101BD0000E94BE0832C080911201A0E0B0E08330C4
:101BE00031F40E945A19802D8093140126C082E09E
:101BF00090E090930F0180930E0180911401082EC4
:101C00000E946C1981E00E94FF0217C080911201AE
:101C1000833019F41092140110C082E090E0909388
:101C20000F0180930E0109C082E090E090930F01B4
:101C300080930E0180EC809313010E94480D08955B
:101C40008091090190910A01A0910B01B0910C01C2
:101C50000196A11DB11D8093090190930A01A093E3
:101C60000B01B0930C0108958091090190910A0134
:101C7000A0910B01B0910C01B7FF1EC08DE40E9432
:101C8000F30880E00E94F30880910B010E94F308A2
:101C900080E00E94F3088091090190910A01A091CF
:101CA0000B01B0910C01BF778093090190930A0159
:101CB000A0930B01B0930C010895EF92FF920F9344
:101CC0001F93CF93C0E0EE24FF248091C100807861
:101CD00088618093C10085E192E00E9470070E94B4
:101CE0009B060E94B70A0E942A0BC0930D01109216
:101CF000090110920A0110920B0110920C018091BF
:101D00000601813011F4C9E005C0CC2319F083E04D
:101D1000809381008C2F99278430910509F473C03A
:101D20008530910594F48130910509F452C08230D8
:101D300091051CF4892BB1F1E2CF8230910509F4B1
:101D40004EC0039709F454C0DACF8730910509F4E7
:101D50008BC08830910544F48530910509F468C042
:101D6000069709F46DC0CBCF8830910579F00997BB
:101D700031F682E090E090930F0180930E0180ECA9
:101D800080931301109206010E94480D0E94B70A29
:101D90001092810010920701109285001092840029
:101DA000C0E0ADCF8091AF028111C1E0F29BA7CF1F
:101DB00080910D01882309F0A2CF8091C100807825
:101DC0008093C10080E88093610083E0809361008C
:101DD000D4C00E9452088B3189F5C2E090CF0E9496
:101DE000520899279093110180931001C3E087CF87
:101DF0000E9452089927982F882790930F0180936B
:101E00000E01C4E07CCF0E945208282F3327809116
:101E10000E0190910F01822B932B90930F018093D1
:101E20000E018351914050F4C5E0EE24FF2467CFAA
:101E30000E9452088E3011F4C6E061CFC9E05FCF36
:101E400080910E0190910F01E816F90611F4C7E098
:101E500056CF87010E5E1E4F0894E11CF11C0E94B4
:101E60005208F80180834BCF0E94270D182F0E9443
:101E70005208181709F074C0809112019927843014
:101E800091053CF4823091050CF061C0019739F066
:101E900061C086309105E9F0079799F05BC08BE04F
:101EA00090E090930F0180930E01A2E1B1E0E0EB8E
:101EB000F3E09AE084918D939150319697FFFACF99
:101EC00058C082E090E090930F0180930E0180EC67
:101ED0004EC082E090E090930F0180930E010E942B
:101EE000340E809113019927AA27BB27B82FAA2760
:101EF0009927882720911401332744275527A901C2
:101F000033272227822B932BA42BB52B209115014D
:101F1000332744275527542F432F322F2227822B34
:101F2000932BA42BB52B209116013327442755273B
:101F3000822B932BA42BB52B8093090190930A013C
:101F4000A0930B01B0930C011092130112C00E94D8
:101F5000880D11C0E0910201F091030109950BC0B9
:101F600082E090E090930F0180930E0181EC8093CA
:101F700013010E94480DC8E0C2CECF911F910F916E
:101F8000FF90EF9008950F931F93CF931091170137
:101F9000C0911601809114010E94ED028C2F815096
:101FA000843608F0C8E1C150CF3F09F43FC08091AA
:101FB0001A010E94F308812F0E94ED0280911B01FB
:101FC0000E94F308812F0E94ED0280911C010E9463
:101FD000F308082F812F0E94ED02809119018330B0
:101FE00029F480911D010E94F30805C080911D0114
:101FF0000E94F308082F80911901882321F0809115
:102000001801081769F4812F0E94ED0281E0809386
:102010000D0181B38F7C806281BB109213010DC0D2
:10202000812F0E94ED020E941409BDCF81B38F7CE5
:10203000806181BB80EC80931301CF911F910F9140
:1020400008951F93CF93DF93EB01992780FF08C07A
:102050008077907034E0959587953A95E1F704C0C4
:102060008E709070959587959927877090708230C3
:10207000910519F00497E1F026C0109119018091A3
:102080001201833139F4812F9927C0FD8860182F00
:10209000D695C795812F0E94F308CE010E940609AC
:1020A00080E00E94F30890911A01891799F30FC0FC
:1020B00080E090EF0E94060980E090E00E9406090F
:1020C00080FDF6CF04C0809116010E94ED02DF91E1
:1020D000CF911F9108956F927F929F92AF92BF927E
:1020E000CF92DF92EF92FF920F931F93CF93DF93E4
:1020F00000E010E090901501C09017016090090178
:1021000070900A01809113019927B82EAA2480911A
:1021100014019927A82AB92A90FE62C078010A15ED
:102120001B0508F046C0CCE1D1E0D99080911201A6
:10213000833131F48C2D9927E0FE03C0886001C003
:102140008C2D0E94F3088091090190910A010E9450
:1021500006098D2D0E94F30801151105D9F480910F
:102160001A018D15B9F090911201933131F095312A
:1021700089F480911B018D1569F00091090110917E
:102180000A01933139F4000F111FC701817090705B
:10219000080F191FE0FC04C080911201853111F471
:1021A0000E94200E0894E11CF11CEA14FB0408F4C0
:1021B000BCCFC92D97FE69C0809118010E94F30819
:1021C000C3010E94060980E00E94F3080115110571
:1021D00011F4CF78C061B8018C2F0E94211055C036
:1021E00078010A151B0508F050C05CE1652E51E02E
:1021F000752EF301D1903F0180911201833131F4AA
:102200008C2D9927E0FE03C0886001C08C2D0E94B0
:10221000F3088091090190910A010E9406098D2D11
:102220000E94F308C92D80911A018D15C1F090917B
:102230001201933131F0953191F480911B018D158C
:1022400071F00091090110910A01933159F4000FC6
:10225000111FC70181709070080F191F03C0C92D8D
:10226000C17FC260E0FC04C080911201853111F48D
:102270000E94200EB8018C2F0E9421100894E11CAE
:10228000F11CEA14FB0408F4B4CFDF91CF911F9145
:102290000F91FF90EF90DF90CF90BF90AF909F9005
:1022A0007F906F900895DF92EF92FF920F931F93AC
:1022B000CF93DF938091120199278631910509F41C
:1022C000FBC08731910594F48231910509F460C017
:1022D000833191053CF480319105F9F0419709F47F
:1022E0003DC03EC1449709F4E7C02FC18931910533
:1022F00009F4CCC08A31910544F48731910509F481
:10230000C5C0489709F4A5C02BC18D3191050CF4C7
:10231000A0C04D9709F461C023C182E090E0909382
:102320000F0180930E01A1E0B0E00E945A19802DA8
:102330000E94D90880E00E94FF0281B3806381BBC4
:102340000E94C30F80910D01882319F089EC93E05E
:1023500002C08EEB93E00E9470070BC182E090E018
:1023600090930F0180930E01809113010E94ED0262
:1023700081B38F7C806181BB10920D0181E00E944E
:10238000FF02809114010E94ED020E94E908E5C05D
:1023900082E090E090930F0180930E01C3E005E18D
:1023A00011E0F80181918F010E94F308C150C7FF2D
:1023B000F8CF80911401882359F080E090EF0E94BB
:1023C000060980E090E00E94060980FDF6CFC5C0B6
:1023D000809113010E94ED02C0C0E09014018E2D87
:1023E0009927039690930F0180930E01009113019A
:1023F000F0901501C1E012E0C017A8F4E12FFF270B
:10240000EE5EFE4F83810E94F3081E1540F0CF154B
:1024100030F4EC2FFF27EE5EFE4F8283CF5F812FDB
:102420001F5F801758F38C2FCF5F8F1550F40C2F40
:1024300011270E5E1E4F80E00E94F308F801828390
:10244000F2CF10921301EC2FFF27EE5EFE4F1382A6
:1024500090C084E090E090930F0180930E01C1E062
:1024600004E111E0F80181918F010E94F308982F97
:1024700080911301C81711F490931401CF5FC530F8
:1024800088F3109213011092150173C083E090E05D
:1024900090930F0180930E0103E111E0C3E0F80176
:1024A00081918F010E94F308C150C7FFF8CF1092AD
:1024B0001301109214015DC0D09015018091130199
:1024C0009927D82FCC27809114019927C82BD92B75
:1024D0002396D0930F01C0930E01239700E010E0E4
:1024E0000C171D0760F584E1E82E81E0F82E80913D
:1024F0001201843131F48D2D992700FF03C08860CB
:1025000001C08D2D0E94F3088091090190910A016C
:102510000E94060980E00E94F308F701808300FD15
:1025200004C080911201863111F40E94200E0F5FC9
:102530001F4F0894E11CF11C0C171D07C0F21092EC
:102540001301CE5EDE4F1A8214C00E946B1082E02F
:1025500090E090930F0180930E011092130109C037
:1025600081E090E090930F0180930E0189EC8093BD
:1025700013010E94480DDF91CF911F910F91FF90A1
:10258000EF90DF900895CF93DF93CDB7DEB7249718
:102590000FB6F894DEBF0FBECDBF19821A821B8220
:1025A0001C82FE013196813019F4ABE1B0E002C02B
:1025B000AFE1B0E084E0182E0E94621989819A810F
:1025C000AB81BC818F5F9F4FAF4FBF4F21F419820A
:1025D0001A821B821C8289819A81AB81BC81BC01D9
:1025E000CD0124960FB6F894DEBF0FBECDBFDF91AC
:1025F000CF9108958093280210922602109225020E
:102600002091090130910A0140910B0150910C0178
:10261000813039F4DA01C901880F991FAA1FBB1F45
:1026200006C0DA01C90180509C4FAB4FBF4F1092DA
:102630006A0210926902883021E0920720E0A20726
:1026400020E0B207A0F020E030E088509140A040A8
:10265000B0402F5F3F4F883041E0940740E0A4072F
:1026600040E0B40790F730936A0220936902909398
:102670006302809362020895CF93C82F8091620213
:102680009091630288509140A9F4809169029091E1
:102690006A029C01019690936A0280936902C901C3
:1026A0000E946A0A80E090E00E94A80910926302EA
:1026B000109262028C2F0E948E088091620290918B
:1026C00063020196909363028093620280912502D7
:1026D0009091260201969093260280932502CF9135
:1026E0000895CF93DF93CDB7DEB724970FB6F89454
:1026F000DEBF0FBECDBF80912702813009F041C0FF
:102700008091620290916302892B31F0809169027D
:1027100090916A020E946A0A8091690290916A020D
:10272000AA27BB27BC01CD0128E031E040E050E002
:102730000E943B199B01AC0180916202909163025F
:10274000AA27BB27280F391F4A1F5B1F29833A83FB
:102750004B835C8380912802813019F4ABE1B0E0B7
:102760000AC0AFE1B0E020503440444050402983DB
:102770003A834B835C83FE01319684E0182E0E94DD
:102780007D1924960FB6F894DEBF0FBECDBFDF9142
:10279000CF91089580912702833071F480912802AF
:1027A000823019F4AFE2B0E002C0A0E3B0E0809163
:1027B0006202082E0E946C190895CF92DF92EF9268
:1027C000FF920F931F93CF93DF9340911201842FB9
:1027D00099278631910509F4B9C18731910594F49F
:1027E0008231910509F468C0833191053CF4803150
:1027F000910511F1419709F43FC018C2449709F4BB
:10280000A5C138C18931910509F4E2C08A31910529
:1028100044F48731910509F4DBC0489709F48BC073
:1028200005C28B319105E1F18B3191050CF483C028
:102830004C9709F473C0FAC182E090E090930F01C5
:1028400080930E01E2E1F1E020E030E09BE0D9016D
:10285000AD5DBF4F8191082E0E946C1991502F5F82
:102860003F4F97FFF4CF81E080930D011092270234
:1028700081B38F7C806212C082E090E090930F0160
:1028800080930E010E9471130E94CA1310920D01D1
:1028900080E00E94280981B38F7C806181BB53C195
:1028A00084E090E090930F0180930E011092130149
:1028B00081E0809314013CC082E090E090930F018E
:1028C00080930E01E3E1F1E021E030E095E0D901F1
:1028D000AB5EBF4F8191082E0E946C1991502F5F03
:1028E0003F4F97FFF4CF20E080E090E037E0DC013D
:1028F000A55EBF4F022E0E946C19DC01A15EBF4F86
:10290000022E0E946C193150019637FFF0CFA4E1DE
:10291000B0E081E0082E0E946C1915C184E090E0BF
:1029200090930F0180930E011092130110921401E5
:102930001092150184C184E090E090930F01809380
:102940000E0180912702843059F00E9471130E9479
:10295000CA13109263021092620284E080932702ED
:1029600060911201683119F4AFE2B0E002C0A0E357
:10297000B0E00E945A19802D99274091620250912F
:1029800063028417950710F48FEF15C09A01220F88
:10299000331F220F331F80911301280F311D68311F
:1029A00021F4D901A05DBF4F03C0D901A85ABF4F80
:1029B0000E945A19802D80931401109213011092D5
:1029C00015014F5F5F4F509363024093620237C11E
:1029D00083E090E090930F0180930E018091270295
:1029E000833039F083E080932702109263021092C3
:1029F00062022091620230916302473169F480EAF9
:102A000090E0289FE001299FD00D389FD00D112420
:102A1000CF5CDF4F82E00CC080EA90E0289FE001AD
:102A2000299FD00D389FD00D1124C75ADF4F83E066
:102A30008093280280916202909163020A97A8F421
:102A4000E3E1F1E093E08191DE01082E0E946C1930
:102A50002196915097FFF7CF809162029091630287
:102A60000196909363028093620210921301109278
:102A70001401E5C082E090E090930F0180930E0175
:102A800080912702813001F1433121F4C2E0D0E08E
:102A900081E003C0CBE0D0E080E00E94FA12809198
:102AA0006202909163020E94A80981E0809327024C
:102AB000E3E1F1E098E08191DE01082E0E946C19BB
:102AC0002196915097FFF7CF809113019927D82F26
:102AD000CC27809114019927C82BD92B00E010E056
:102AE0000C171D0770F45CE1E52E51E0F52EF7019F
:102AF00081917F010E943C130F5F1F4F0C171D0730
:102B0000B0F3209125023091260237FD1CC0809140
:102B1000150187FF18C021153105A9F08091280201
:102B2000813019F4A1E8B0E002C0A3E8B0E00901E7
:102B30000E947819809125029091260290689093C6
:102B40002602809325021092130179C080912702FA
:102B5000823011F10E9471130E94CA1390E080919B
:102B60001201843109F491E0892F0E94FA126091D8
:102B70006202709163028091690290916A020E94E0
:102B8000660982E0809327021092090110920A01DF
:102B900010920B0110920C01809113019927D82FEC
:102BA000CC27809114019927C82BD92B90E08091D4
:102BB0001201843109F491E0892F0E94C312DC01D3
:102BC000CB017C0100E010E00C171D0718F534E183
:102BD000C32E31E0D32E9701442755278091090158
:102BE00090910A01A0910B01B0910C0182179307FB
:102BF000A407B50720F480E00E948E0801C08FEF83
:102C0000F60181936F010E94200E0F5F1F4F0C177A
:102C10001D0708F32396D0930F01C0930E0123974D
:102C200010921301CE5EDE4F1A8209C081E090E05F
:102C300090930F0180930E0189EC809313010E9401
:102C4000480DDF91CF911F910F91FF90EF90DF9092
:102C5000CF9008950F931F93CF93DF93982F8230D7
:102C600019F4AFE2B0E002C0A0E3B0E00E945A194C
:102C7000802D182F923019F4C1E3D0E002C0C9E5CD
:102C8000D0E011501F3F91F003E0DE010E945A197D
:102C9000802D0E94F3082196015007FFF6CF1123E3
:102CA00019F085E00E941A02115070F7DF91CF9160
:102CB0001F910F9108951F93CF93DF93C2E0D0E04F
:102CC00013E0DE01AB5EBF4F0E945A19802D0E94B7
:102CD000F3081150219617FFF4CFA6E1B0E00E944F
:102CE0005A19802D882359F080E090EF0E94060940
:102CF00080E090E00E94060980FDF6CF07C0A5E1C4
:102D0000B0E00E945A19802D0E94ED02DF91CF9110
:102D10001F9108953F924F925F926F927F928F9290
:102D20009F92AF92BF92CF92DF92EF92FF920F935A
:102D30001F93CF93DF93C82FAA24BB2465010E9461
:102D4000C3122B013C013324C13019F4A1E8B0E0D7
:102D500002C0A3E8B0E00E9467194F011092090178
:102D600010920A0110920B0110920C01C13049F42B
:102D7000C2E0D0E060E070E0CB010E94660983E130
:102D800009C0CBE0D0E060EE70E084EE93E00E94FA
:102D9000660985E180931201E3E1F1E098E0DE014C
:102DA0000E945A19802D81932196915097FFF7CF59
:102DB000809113019927D82FCC278091140199274E
:102DC000C82BD92BA414B504C604D70408F0B2C08C
:102DD00020911501822F9927AC014170507080FF1E
:102DE00053C0F1EA8F16910460F1332041F4C0EA38
:102DF000D0E02F772093150131E0332E07C0E40196
:102E0000C05AD040206820931501332400E010E020
:102E10000C171D0778F42CE1E22E21E0F22E80E061
:102E20000E948E08F70181937F010F5F1F4F0C17DF
:102E30001D07A8F38D2F992780931301C0931401C8
:102E40004BC000E010E00815190578F48CE1E82E7D
:102E500081E0F82E80E00E948E08F70181937F01C7
:102E60000F5F1F4F08151905A8F3892D9927809327
:102E700013018092140180911501806880931501DF
:102E8000C401AA27BB272BC0CE01AA27BB278A0DC6
:102E90009B1DAC1DBD1D481659066A067B0648F4ED
:102EA000E201CA19DB098D2F992780931301C09382
:102EB00014018A014C175D0778F4ACE1EA2EA1E019
:102EC000FA2E80E00E948E08F70181937F010F5F48
:102ED0001F4F0C171D07A8F3CE01AA27BB27A80E6A
:102EE000B91ECA1EDB1EA114B104E1F4E12CF12CC1
:102EF000FFEF0F2F112DEA20FB200C211D21E114E3
:102F0000F1040105110571F08DE40E94F30880E0E1
:102F10000E94F308C801AA27BB270E94F30880E09B
:102F20000E94F3080E946B10A414B504C604D704D1
:102F300008F44ECFDF91CF911F910F91FF90EF904A
:102F4000DF90CF90BF90AF909F908F907F906F90C9
:102F50005F904F903F9008951F93CF93DF93CDB72D
:102F6000DEB72E970FB6F894DEBF0FBECDBF10E0D0
:102F700081E08EBB8EB38823E9F3F69B06C0112354
:102F800011F413E00CC011500AC0F79B06C01330B7
:102F900011F410E004C01F5F02C0F29954C0812FE9
:102FA000992781309105A1F0823091051CF4892B7D
:102FB00039F042C08230910501F1039739F13CC0EC
:102FC00069ED73E0CE0101960E94FF1881E007C011
:102FD0006FED73E0CE0101960E94FF1880E00E9421
:102FE000C312DC01CB012AE030E0AE014A5F5F4F43
:102FF000BC01CD010E9406191FC065EE73E0CE0131
:1030000001960E94FF18AFE2B0E008C06BEE73E0DB
:10301000CE0101960E94FF18A0E3B0E00E945A1969
:10302000802D8F3F11F0992702C080E090E0BE0113
:103030006A5F7F4F0E941B03CE0101960E942F07FB
:103040000E942C0297CF2E960FB6F894DEBF0FBECB
:10305000CDBFDF91CF911F910895AF92BF92DF92C4
:10306000EF92FF920F931F93CF93DF93CDB7DEB70D
:1030700069970FB6F894DEBF0FBECDBF80E48E8B8C
:1030800086E1A82EB12CAC0EBD1E88E28F8B83E2A8
:10309000888F89E2898F81E00E94C3127B018C01B5
:1030A000DD2481B3806381BB8091B0029091B10235
:1030B000A091B202B091B3028E159F05A007B1078F
:1030C00008F043C080E00E948E08F501ED0DF11D6F
:1030D000D3949081891721F584E0D81611F5FF2447
:1030E00000E010E080E00E948E089E012F5F3F4FBD
:1030F000F801E20FF31F8083882331F0F3940F5F10
:103100001F4F83E18F1570F71D8A81E0809329029C
:10311000C9010E942F0781B38F7C806181BB31C0C0
:10312000DD248091B0029091B102A091B202B091E1
:10313000B3020196A11DB11D8093B0029093B1021C
:10314000A093B202B093B302B7CF60E070E0CB01BE
:103150000E9466091092B0021092B1021092B2025F
:103160001092B30280912902882349F481B38F7CA5
:10317000806181BB81EF93E00E94550302C00E94F1
:103180002D1869960FB6F894DEBF0FBECDBFDF9144
:10319000CF911F910F91FF90EF90DF90BF90AF9074
:1031A000089560E070E0CB010E9466091092290248
:1031B0001092B0021092B1021092B2021092B302B9
:1031C0000E942D1880912902882371F08EB38823E4
:1031D000E9F3F79B03C00E942D1802C0F29903C0C7
:1031E0000E942C02F3CF80E00E94280908950C94DD
:1031F0007B038F938BE58093B8008F911895FB012B
:10320000DC0105900D920020E1F70895FA01CF93BB
:10321000FF93EF932230CCF02532BCF4C22F2C2F39
:10322000332744275527FF93EF930E948219EF918C
:10323000FF91605D6A330CF0695D6193B901CA0169
:10324000605070408040904051F710828F919F9164
:10325000CF910C942B19DC01FC0101900020E9F7BF
:103260003297AE17BF0730F47C916081708331973D
:103270006D93F7CF0895629FD001739FF001829FF5
:10328000E00DF11D649FE00DF11D929FF00D839FF5
:10329000F00D749FF00D659FF00D9927729FB00D92
:1032A000E11DF91F639FB00DE11DF91FBD01CF01A5
:1032B00011240895F999FECFB2BDA1BDF89A1196D7
:1032C00000B40895F7DF01921A94E1F70895F2DF50
:1032D000E02DF0DFF02D0895F999FECFB2BDA1BD2C
:1032E00000BC11960FB6F894FA9AF99A0FBE089599
:1032F000F3DF012CF1DF112408950190EDDF1A9422
:10330000E1F70895A1E21A2EAA1BBB1BFD010DC017
:10331000AA1FBB1FEE1FFF1FA217B307E407F50785
:1033200020F0A21BB30BE40BF50B661F771F881F61
:10333000991F1A9469F760957095809590959B01F7
:08334000AC01BD01CF010895AD
:043348008E08531187
:00000001FF
